{
  "contractName": "Arrayfuncs",
  "abi": [
    {
      "inputs": [
        {
          "internalType": "uint256[]",
          "name": "amts",
          "type": "uint256[]"
        }
      ],
      "name": "getmedian",
      "outputs": [
        {
          "internalType": "uint256",
          "name": "median",
          "type": "uint256"
        }
      ],
      "stateMutability": "pure",
      "type": "function"
    },
    {
      "inputs": [
        {
          "internalType": "uint256[]",
          "name": "amts",
          "type": "uint256[]"
        }
      ],
      "name": "sortA",
      "outputs": [],
      "stateMutability": "pure",
      "type": "function"
    }
  ],
  "bytecode": "0x608060405234801561001057600080fd5b50610539806100206000396000f3fe608060405234801561001057600080fd5b50600436106100365760003560e01c806302ebb44d1461003b578063e340d56b1461006b575b600080fd5b6100556004803603810190610050919061027d565b610087565b60405161006291906102d5565b60405180910390f35b6100856004803603810190610080919061027d565b6100bd565b005b600080600283516100989190610341565b90508281815181106100ad576100ac610469565b5b6020026020010151915050919050565b600080600183516100ce9190610372565b91505b60008211156101c557826001836100e89190610372565b815181106100f9576100f8610469565b5b602002602001015183838151811061011457610113610469565b5b602002602001015110156101b25782828151811061013557610134610469565b5b602002602001015190508260018361014d9190610372565b8151811061015e5761015d610469565b5b602002602001015183838151811061017957610178610469565b5b60200260200101818152505080836001846101949190610372565b815181106101a5576101a4610469565b5b6020026020010181815250505b81806101bd906103b0565b9250506100d1565b505050565b60006101dd6101d884610315565b6102f0565b90508083825260208201905082856020860282011115610200576101ff6104cc565b5b60005b8581101561023057816102168882610268565b845260208401935060208301925050600181019050610203565b5050509392505050565b600082601f83011261024f5761024e6104c7565b5b813561025f8482602086016101ca565b91505092915050565b600081359050610277816104ec565b92915050565b600060208284031215610293576102926104d6565b5b600082013567ffffffffffffffff8111156102b1576102b06104d1565b5b6102bd8482850161023a565b91505092915050565b6102cf816103a6565b82525050565b60006020820190506102ea60008301846102c6565b92915050565b60006102fa61030b565b905061030682826103da565b919050565b6000604051905090565b600067ffffffffffffffff8211156103305761032f610498565b5b602082029050602081019050919050565b600061034c826103a6565b9150610357836103a6565b9250826103675761036661043a565b5b828204905092915050565b600061037d826103a6565b9150610388836103a6565b92508282101561039b5761039a61040b565b5b828203905092915050565b6000819050919050565b60006103bb826103a6565b915060008214156103cf576103ce61040b565b5b600182039050919050565b6103e3826104db565b810181811067ffffffffffffffff8211171561040257610401610498565b5b80604052505050565b7f4e487b7100000000000000000000000000000000000000000000000000000000600052601160045260246000fd5b7f4e487b7100000000000000000000000000000000000000000000000000000000600052601260045260246000fd5b7f4e487b7100000000000000000000000000000000000000000000000000000000600052603260045260246000fd5b7f4e487b7100000000000000000000000000000000000000000000000000000000600052604160045260246000fd5b600080fd5b600080fd5b600080fd5b600080fd5b6000601f19601f8301169050919050565b6104f5816103a6565b811461050057600080fd5b5056fea26469706673582212204843d2a9ebe959c227fb39c0c02e98c62ca518086188d67153567bba89d85d0564736f6c63430008070033",
  "immutableReferences": {},
  "source": "pragma solidity ^0.8.7;\ncontract Arrayfuncs{\nfunction getmedian(uint[] memory amts) pure public returns(uint median){\nuint mdl=amts.length/2;\nmedian=amts[mdl];\nreturn median;\n}\nfunction sortA(uint[] memory amts) pure public {\nuint i;\nuint tstr;//temporary storage\nfor(i=(amts.length-1);i>0;i--){\nif(amts[i]<amts[i-1]){\n    tstr=amts[i];\n    amts[i]=amts[i-1];\n    amts[i-1]=tstr;\n}\n}\n}\n}\n\ninterface IArrayfuncs{\nfunction getmedian(uint[] memory amts) external returns(uint median);\nfunction sortA(uint[] memory amts) external;\n}\n",
  "sourcePath": "/Users/vibhu/node_modules/truffle/Neutron-main/contracts/Lending/Array/Arrayfuncs.sol",
  "compiler": {
    "name": "solc",
    "version": "0.8.7+commit.e28d00a7.Emscripten.clang"
  },
  "schemaVersion": "3.4.3",
  "updatedAt": "2022-03-26T04:15:14.771Z",
  "devdoc": {
    "kind": "dev",
    "methods": {},
    "version": 1
  },
  "userdoc": {
    "kind": "user",
    "methods": {},
    "version": 1
  }
}