{
  "contractName": "Credit",
  "abi": [
    {
      "inputs": [],
      "stateMutability": "nonpayable",
      "type": "constructor"
    },
    {
      "anonymous": false,
      "inputs": [
        {
          "indexed": true,
          "internalType": "address",
          "name": "owner",
          "type": "address"
        },
        {
          "indexed": true,
          "internalType": "address",
          "name": "approved",
          "type": "address"
        },
        {
          "indexed": true,
          "internalType": "uint256",
          "name": "tokenId",
          "type": "uint256"
        }
      ],
      "name": "Approval",
      "type": "event"
    },
    {
      "anonymous": false,
      "inputs": [
        {
          "indexed": true,
          "internalType": "address",
          "name": "owner",
          "type": "address"
        },
        {
          "indexed": true,
          "internalType": "address",
          "name": "operator",
          "type": "address"
        },
        {
          "indexed": false,
          "internalType": "bool",
          "name": "approved",
          "type": "bool"
        }
      ],
      "name": "ApprovalForAll",
      "type": "event"
    },
    {
      "anonymous": false,
      "inputs": [
        {
          "indexed": true,
          "internalType": "address",
          "name": "previousOwner",
          "type": "address"
        },
        {
          "indexed": true,
          "internalType": "address",
          "name": "newOwner",
          "type": "address"
        }
      ],
      "name": "OwnershipTransferred",
      "type": "event"
    },
    {
      "anonymous": false,
      "inputs": [
        {
          "indexed": true,
          "internalType": "address",
          "name": "from",
          "type": "address"
        },
        {
          "indexed": true,
          "internalType": "address",
          "name": "to",
          "type": "address"
        },
        {
          "indexed": true,
          "internalType": "uint256",
          "name": "tokenId",
          "type": "uint256"
        }
      ],
      "name": "Transfer",
      "type": "event"
    },
    {
      "inputs": [
        {
          "internalType": "address",
          "name": "to",
          "type": "address"
        },
        {
          "internalType": "uint256",
          "name": "tokenId",
          "type": "uint256"
        }
      ],
      "name": "approve",
      "outputs": [],
      "stateMutability": "nonpayable",
      "type": "function"
    },
    {
      "inputs": [
        {
          "internalType": "address",
          "name": "owner",
          "type": "address"
        }
      ],
      "name": "balanceOf",
      "outputs": [
        {
          "internalType": "uint256",
          "name": "",
          "type": "uint256"
        }
      ],
      "stateMutability": "view",
      "type": "function"
    },
    {
      "inputs": [
        {
          "internalType": "uint256",
          "name": "tokenId",
          "type": "uint256"
        }
      ],
      "name": "getApproved",
      "outputs": [
        {
          "internalType": "address",
          "name": "",
          "type": "address"
        }
      ],
      "stateMutability": "view",
      "type": "function"
    },
    {
      "inputs": [
        {
          "internalType": "address",
          "name": "owner",
          "type": "address"
        },
        {
          "internalType": "address",
          "name": "operator",
          "type": "address"
        }
      ],
      "name": "isApprovedForAll",
      "outputs": [
        {
          "internalType": "bool",
          "name": "",
          "type": "bool"
        }
      ],
      "stateMutability": "view",
      "type": "function"
    },
    {
      "inputs": [],
      "name": "name",
      "outputs": [
        {
          "internalType": "string",
          "name": "",
          "type": "string"
        }
      ],
      "stateMutability": "view",
      "type": "function"
    },
    {
      "inputs": [],
      "name": "owner",
      "outputs": [
        {
          "internalType": "address",
          "name": "",
          "type": "address"
        }
      ],
      "stateMutability": "view",
      "type": "function"
    },
    {
      "inputs": [
        {
          "internalType": "uint256",
          "name": "tokenId",
          "type": "uint256"
        }
      ],
      "name": "ownerOf",
      "outputs": [
        {
          "internalType": "address",
          "name": "",
          "type": "address"
        }
      ],
      "stateMutability": "view",
      "type": "function"
    },
    {
      "inputs": [],
      "name": "renounceOwnership",
      "outputs": [],
      "stateMutability": "nonpayable",
      "type": "function"
    },
    {
      "inputs": [
        {
          "internalType": "address",
          "name": "from",
          "type": "address"
        },
        {
          "internalType": "address",
          "name": "to",
          "type": "address"
        },
        {
          "internalType": "uint256",
          "name": "tokenId",
          "type": "uint256"
        }
      ],
      "name": "safeTransferFrom",
      "outputs": [],
      "stateMutability": "nonpayable",
      "type": "function"
    },
    {
      "inputs": [
        {
          "internalType": "address",
          "name": "from",
          "type": "address"
        },
        {
          "internalType": "address",
          "name": "to",
          "type": "address"
        },
        {
          "internalType": "uint256",
          "name": "tokenId",
          "type": "uint256"
        },
        {
          "internalType": "bytes",
          "name": "_data",
          "type": "bytes"
        }
      ],
      "name": "safeTransferFrom",
      "outputs": [],
      "stateMutability": "nonpayable",
      "type": "function"
    },
    {
      "inputs": [
        {
          "internalType": "address",
          "name": "operator",
          "type": "address"
        },
        {
          "internalType": "bool",
          "name": "approved",
          "type": "bool"
        }
      ],
      "name": "setApprovalForAll",
      "outputs": [],
      "stateMutability": "nonpayable",
      "type": "function"
    },
    {
      "inputs": [
        {
          "internalType": "bytes4",
          "name": "interfaceId",
          "type": "bytes4"
        }
      ],
      "name": "supportsInterface",
      "outputs": [
        {
          "internalType": "bool",
          "name": "",
          "type": "bool"
        }
      ],
      "stateMutability": "view",
      "type": "function"
    },
    {
      "inputs": [],
      "name": "symbol",
      "outputs": [
        {
          "internalType": "string",
          "name": "",
          "type": "string"
        }
      ],
      "stateMutability": "view",
      "type": "function"
    },
    {
      "inputs": [
        {
          "internalType": "uint256",
          "name": "tokenId",
          "type": "uint256"
        }
      ],
      "name": "tokenURI",
      "outputs": [
        {
          "internalType": "string",
          "name": "",
          "type": "string"
        }
      ],
      "stateMutability": "view",
      "type": "function"
    },
    {
      "inputs": [
        {
          "internalType": "address",
          "name": "from",
          "type": "address"
        },
        {
          "internalType": "address",
          "name": "to",
          "type": "address"
        },
        {
          "internalType": "uint256",
          "name": "tokenId",
          "type": "uint256"
        }
      ],
      "name": "transferFrom",
      "outputs": [],
      "stateMutability": "nonpayable",
      "type": "function"
    },
    {
      "inputs": [
        {
          "internalType": "address",
          "name": "newOwner",
          "type": "address"
        }
      ],
      "name": "transferOwnership",
      "outputs": [],
      "stateMutability": "nonpayable",
      "type": "function"
    },
    {
      "inputs": [],
      "name": "TokenIdCounterLatest",
      "outputs": [
        {
          "internalType": "uint256",
          "name": "",
          "type": "uint256"
        }
      ],
      "stateMutability": "view",
      "type": "function"
    },
    {
      "inputs": [
        {
          "internalType": "address",
          "name": "loaning",
          "type": "address"
        }
      ],
      "name": "lendingcon",
      "outputs": [],
      "stateMutability": "nonpayable",
      "type": "function"
    },
    {
      "inputs": [
        {
          "internalType": "address",
          "name": "to",
          "type": "address"
        }
      ],
      "name": "safeMint",
      "outputs": [],
      "stateMutability": "nonpayable",
      "type": "function"
    },
    {
      "inputs": [
        {
          "internalType": "uint256",
          "name": "tokenId",
          "type": "uint256"
        }
      ],
      "name": "burn",
      "outputs": [],
      "stateMutability": "nonpayable",
      "type": "function"
    }
  ],
  "bytecode": "0x60806040523480156200001157600080fd5b506040518060400160405280600681526020017f43726564697400000000000000000000000000000000000000000000000000008152506040518060400160405280600381526020017f4352440000000000000000000000000000000000000000000000000000000000815250816000908051906020019062000096929190620001a6565b508060019080519060200190620000af929190620001a6565b505050620000d2620000c6620000d860201b60201c565b620000e060201b60201c565b620002bb565b600033905090565b6000600660009054906101000a900473ffffffffffffffffffffffffffffffffffffffff16905081600660006101000a81548173ffffffffffffffffffffffffffffffffffffffff021916908373ffffffffffffffffffffffffffffffffffffffff1602179055508173ffffffffffffffffffffffffffffffffffffffff168173ffffffffffffffffffffffffffffffffffffffff167f8be0079c531659141344cd1fd0a4f28419497f9722a3daafe3b4186f6b6457e060405160405180910390a35050565b828054620001b49062000256565b90600052602060002090601f016020900481019282620001d8576000855562000224565b82601f10620001f357805160ff191683800117855562000224565b8280016001018555821562000224579182015b828111156200022357825182559160200191906001019062000206565b5b50905062000233919062000237565b5090565b5b808211156200025257600081600090555060010162000238565b5090565b600060028204905060018216806200026f57607f821691505b602082108114156200028657620002856200028c565b5b50919050565b7f4e487b7100000000000000000000000000000000000000000000000000000000600052602260045260246000fd5b61309f80620002cb6000396000f3fe608060405234801561001057600080fd5b506004361061012c5760003560e01c8063715018a6116100ad578063c78cd5e011610071578063c78cd5e014610319578063c87b56dd14610337578063e985e9c514610367578063f2fde38b14610397578063f837225d146103b35761012c565b8063715018a61461029b5780638da5cb5b146102a557806395d89b41146102c3578063a22cb465146102e1578063b88d4fde146102fd5761012c565b806340d097c3116100f457806340d097c3146101e757806342842e0e1461020357806342966c681461021f5780636352211e1461023b57806370a082311461026b5761012c565b806301ffc9a71461013157806306fdde0314610161578063081812fc1461017f578063095ea7b3146101af57806323b872dd146101cb575b600080fd5b61014b6004803603810190610146919061204b565b6103cf565b60405161015891906124e5565b60405180910390f35b6101696104b1565b6040516101769190612500565b60405180910390f35b610199600480360381019061019491906120a5565b610543565b6040516101a69190612455565b60405180910390f35b6101c960048036038101906101c4919061200b565b6105c8565b005b6101e560048036038101906101e09190611ef5565b6106e0565b005b61020160048036038101906101fc9190611e88565b610740565b005b61021d60048036038101906102189190611ef5565b610766565b005b610239600480360381019061023491906120a5565b610786565b005b610255600480360381019061025091906120a5565b6109b1565b6040516102629190612455565b60405180910390f35b61028560048036038101906102809190611e88565b610a63565b6040516102929190612742565b60405180910390f35b6102a3610b1b565b005b6102ad610ba3565b6040516102ba9190612455565b60405180910390f35b6102cb610bcd565b6040516102d89190612500565b60405180910390f35b6102fb60048036038101906102f69190611fcb565b610c5f565b005b61031760048036038101906103129190611f48565b610c75565b005b610321610cd7565b60405161032e9190612742565b60405180910390f35b610351600480360381019061034c91906120a5565b610ce8565b60405161035e9190612500565b60405180910390f35b610381600480360381019061037c9190611eb5565b610d8f565b60405161038e91906124e5565b60405180910390f35b6103b160048036038101906103ac9190611e88565b610e23565b005b6103cd60048036038101906103c89190611e88565b610f1b565b005b60007f80ac58cd000000000000000000000000000000000000000000000000000000007bffffffffffffffffffffffffffffffffffffffffffffffffffffffff1916827bffffffffffffffffffffffffffffffffffffffffffffffffffffffff1916148061049a57507f5b5e139f000000000000000000000000000000000000000000000000000000007bffffffffffffffffffffffffffffffffffffffffffffffffffffffff1916827bffffffffffffffffffffffffffffffffffffffffffffffffffffffff1916145b806104aa57506104a982610f5f565b5b9050919050565b6060600080546104c090612979565b80601f01602080910402602001604051908101604052809291908181526020018280546104ec90612979565b80156105395780601f1061050e57610100808354040283529160200191610539565b820191906000526020600020905b81548152906001019060200180831161051c57829003601f168201915b5050505050905090565b600061054e82610fc9565b61058d576040517f08c379a000000000000000000000000000000000000000000000000000000000815260040161058490612682565b60405180910390fd5b6004600083815260200190815260200160002060009054906101000a900473ffffffffffffffffffffffffffffffffffffffff169050919050565b60006105d3826109b1565b90508073ffffffffffffffffffffffffffffffffffffffff168373ffffffffffffffffffffffffffffffffffffffff161415610644576040517f08c379a000000000000000000000000000000000000000000000000000000000815260040161063b906126e2565b60405180910390fd5b8073ffffffffffffffffffffffffffffffffffffffff16610663611035565b73ffffffffffffffffffffffffffffffffffffffff16148061069257506106918161068c611035565b610d8f565b5b6106d1576040517f08c379a00000000000000000000000000000000000000000000000000000000081526004016106c890612602565b60405180910390fd5b6106db838361103d565b505050565b6106f16106eb611035565b826110f6565b610730576040517f08c379a000000000000000000000000000000000000000000000000000000000815260040161072790612702565b60405180910390fd5b61073b8383836111d4565b505050565b600061074c600761143b565b90506107586007611449565b610762828261145f565b5050565b61078183838360405180602001604052806000815250610c75565b505050565b610797610791611035565b826110f6565b6107d6576040517f08c379a00000000000000000000000000000000000000000000000000000000081526004016107cd90612722565b60405180910390fd5b600860009054906101000a900473ffffffffffffffffffffffffffffffffffffffff1673ffffffffffffffffffffffffffffffffffffffff16625049a3826040518263ffffffff1660e01b81526004016108309190612742565b600060405180830381600087803b15801561084a57600080fd5b505af115801561085e573d6000803e3d6000fd5b5050505061086b8161147d565b80600860009054906101000a900473ffffffffffffffffffffffffffffffffffffffff1673ffffffffffffffffffffffffffffffffffffffff16633bee7e7a336040518263ffffffff1660e01b81526004016108c79190612455565b60206040518083038186803b1580156108df57600080fd5b505afa1580156108f3573d6000803e3d6000fd5b505050506040513d601f19601f8201168201806040525081019061091791906120d2565b14156109ae57600860009054906101000a900473ffffffffffffffffffffffffffffffffffffffff1673ffffffffffffffffffffffffffffffffffffffff1663a85824e43360006040518363ffffffff1660e01b815260040161097b9291906124bc565b600060405180830381600087803b15801561099557600080fd5b505af11580156109a9573d6000803e3d6000fd5b505050505b50565b6000806002600084815260200190815260200160002060009054906101000a900473ffffffffffffffffffffffffffffffffffffffff169050600073ffffffffffffffffffffffffffffffffffffffff168173ffffffffffffffffffffffffffffffffffffffff161415610a5a576040517f08c379a0000000000000000000000000000000000000000000000000000000008152600401610a5190612642565b60405180910390fd5b80915050919050565b60008073ffffffffffffffffffffffffffffffffffffffff168273ffffffffffffffffffffffffffffffffffffffff161415610ad4576040517f08c379a0000000000000000000000000000000000000000000000000000000008152600401610acb90612622565b60405180910390fd5b600360008373ffffffffffffffffffffffffffffffffffffffff1673ffffffffffffffffffffffffffffffffffffffff168152602001908152602001600020549050919050565b610b23611035565b73ffffffffffffffffffffffffffffffffffffffff16610b41610ba3565b73ffffffffffffffffffffffffffffffffffffffff1614610b97576040517f08c379a0000000000000000000000000000000000000000000000000000000008152600401610b8e906126a2565b60405180910390fd5b610ba1600061159a565b565b6000600660009054906101000a900473ffffffffffffffffffffffffffffffffffffffff16905090565b606060018054610bdc90612979565b80601f0160208091040260200160405190810160405280929190818152602001828054610c0890612979565b8015610c555780601f10610c2a57610100808354040283529160200191610c55565b820191906000526020600020905b815481529060010190602001808311610c3857829003601f168201915b5050505050905090565b610c71610c6a611035565b8383611660565b5050565b610c86610c80611035565b836110f6565b610cc5576040517f08c379a0000000000000000000000000000000000000000000000000000000008152600401610cbc90612702565b60405180910390fd5b610cd1848484846117cd565b50505050565b6000610ce3600761143b565b905090565b6060610cf382610fc9565b610d32576040517f08c379a0000000000000000000000000000000000000000000000000000000008152600401610d29906126c2565b60405180910390fd5b6000610d3c611829565b90506000815111610d5c5760405180602001604052806000815250610d87565b80610d6684611840565b604051602001610d77929190612431565b6040516020818303038152906040525b915050919050565b6000600560008473ffffffffffffffffffffffffffffffffffffffff1673ffffffffffffffffffffffffffffffffffffffff16815260200190815260200160002060008373ffffffffffffffffffffffffffffffffffffffff1673ffffffffffffffffffffffffffffffffffffffff16815260200190815260200160002060009054906101000a900460ff16905092915050565b610e2b611035565b73ffffffffffffffffffffffffffffffffffffffff16610e49610ba3565b73ffffffffffffffffffffffffffffffffffffffff1614610e9f576040517f08c379a0000000000000000000000000000000000000000000000000000000008152600401610e96906126a2565b60405180910390fd5b600073ffffffffffffffffffffffffffffffffffffffff168173ffffffffffffffffffffffffffffffffffffffff161415610f0f576040517f08c379a0000000000000000000000000000000000000000000000000000000008152600401610f0690612542565b60405180910390fd5b610f188161159a565b50565b80600860006101000a81548173ffffffffffffffffffffffffffffffffffffffff021916908373ffffffffffffffffffffffffffffffffffffffff16021790555050565b60007f01ffc9a7000000000000000000000000000000000000000000000000000000007bffffffffffffffffffffffffffffffffffffffffffffffffffffffff1916827bffffffffffffffffffffffffffffffffffffffffffffffffffffffff1916149050919050565b60008073ffffffffffffffffffffffffffffffffffffffff166002600084815260200190815260200160002060009054906101000a900473ffffffffffffffffffffffffffffffffffffffff1673ffffffffffffffffffffffffffffffffffffffff1614159050919050565b600033905090565b816004600083815260200190815260200160002060006101000a81548173ffffffffffffffffffffffffffffffffffffffff021916908373ffffffffffffffffffffffffffffffffffffffff160217905550808273ffffffffffffffffffffffffffffffffffffffff166110b0836109b1565b73ffffffffffffffffffffffffffffffffffffffff167f8c5be1e5ebec7d5bd14f71427d1e84f3dd0314c0f7b2291e5b200ac8c7c3b92560405160405180910390a45050565b600061110182610fc9565b611140576040517f08c379a0000000000000000000000000000000000000000000000000000000008152600401611137906125e2565b60405180910390fd5b600061114b836109b1565b90508073ffffffffffffffffffffffffffffffffffffffff168473ffffffffffffffffffffffffffffffffffffffff16148061118d575061118c8185610d8f565b5b806111cb57508373ffffffffffffffffffffffffffffffffffffffff166111b384610543565b73ffffffffffffffffffffffffffffffffffffffff16145b91505092915050565b8273ffffffffffffffffffffffffffffffffffffffff166111f4826109b1565b73ffffffffffffffffffffffffffffffffffffffff161461124a576040517f08c379a000000000000000000000000000000000000000000000000000000000815260040161124190612562565b60405180910390fd5b600073ffffffffffffffffffffffffffffffffffffffff168273ffffffffffffffffffffffffffffffffffffffff1614156112ba576040517f08c379a00000000000000000000000000000000000000000000000000000000081526004016112b1906125a2565b60405180910390fd5b6112c58383836119a1565b6112d060008261103d565b6001600360008573ffffffffffffffffffffffffffffffffffffffff1673ffffffffffffffffffffffffffffffffffffffff1681526020019081526020016000206000828254611320919061287d565b925050819055506001600360008473ffffffffffffffffffffffffffffffffffffffff1673ffffffffffffffffffffffffffffffffffffffff168152602001908152602001600020600082825461137791906127f6565b92505081905550816002600083815260200190815260200160002060006101000a81548173ffffffffffffffffffffffffffffffffffffffff021916908373ffffffffffffffffffffffffffffffffffffffff160217905550808273ffffffffffffffffffffffffffffffffffffffff168473ffffffffffffffffffffffffffffffffffffffff167fddf252ad1be2c89b69c2b068fc378daa952ba7f163c4a11628f55a4df523b3ef60405160405180910390a46114368383836119a6565b505050565b600081600001549050919050565b6001816000016000828254019250508190555050565b6114798282604051806020016040528060008152506119ab565b5050565b6000611488826109b1565b9050611496816000846119a1565b6114a160008361103d565b6001600360008373ffffffffffffffffffffffffffffffffffffffff1673ffffffffffffffffffffffffffffffffffffffff16815260200190815260200160002060008282546114f1919061287d565b925050819055506002600083815260200190815260200160002060006101000a81549073ffffffffffffffffffffffffffffffffffffffff021916905581600073ffffffffffffffffffffffffffffffffffffffff168273ffffffffffffffffffffffffffffffffffffffff167fddf252ad1be2c89b69c2b068fc378daa952ba7f163c4a11628f55a4df523b3ef60405160405180910390a4611596816000846119a6565b5050565b6000600660009054906101000a900473ffffffffffffffffffffffffffffffffffffffff16905081600660006101000a81548173ffffffffffffffffffffffffffffffffffffffff021916908373ffffffffffffffffffffffffffffffffffffffff1602179055508173ffffffffffffffffffffffffffffffffffffffff168173ffffffffffffffffffffffffffffffffffffffff167f8be0079c531659141344cd1fd0a4f28419497f9722a3daafe3b4186f6b6457e060405160405180910390a35050565b8173ffffffffffffffffffffffffffffffffffffffff168373ffffffffffffffffffffffffffffffffffffffff1614156116cf576040517f08c379a00000000000000000000000000000000000000000000000000000000081526004016116c6906125c2565b60405180910390fd5b80600560008573ffffffffffffffffffffffffffffffffffffffff1673ffffffffffffffffffffffffffffffffffffffff16815260200190815260200160002060008473ffffffffffffffffffffffffffffffffffffffff1673ffffffffffffffffffffffffffffffffffffffff16815260200190815260200160002060006101000a81548160ff0219169083151502179055508173ffffffffffffffffffffffffffffffffffffffff168373ffffffffffffffffffffffffffffffffffffffff167f17307eab39ab6107e8899845ad3d59bd9653f200f220920489ca2b5937696c31836040516117c091906124e5565b60405180910390a3505050565b6117d88484846111d4565b6117e484848484611a06565b611823576040517f08c379a000000000000000000000000000000000000000000000000000000000815260040161181a90612522565b60405180910390fd5b50505050565b606060405180602001604052806000815250905090565b60606000821415611888576040518060400160405280600181526020017f3000000000000000000000000000000000000000000000000000000000000000815250905061199c565b600082905060005b600082146118ba5780806118a3906129dc565b915050600a826118b3919061284c565b9150611890565b60008167ffffffffffffffff8111156118d6576118d5612b12565b5b6040519080825280601f01601f1916602001820160405280156119085781602001600182028036833780820191505090505b5090505b6000851461199557600182611921919061287d565b9150600a856119309190612a25565b603061193c91906127f6565b60f81b81838151811061195257611951612ae3565b5b60200101907effffffffffffffffffffffffffffffffffffffffffffffffffffffffffffff1916908160001a905350600a8561198e919061284c565b945061190c565b8093505050505b919050565b505050565b505050565b6119b58383611b9d565b6119c26000848484611a06565b611a01576040517f08c379a00000000000000000000000000000000000000000000000000000000081526004016119f890612522565b60405180910390fd5b505050565b6000611a278473ffffffffffffffffffffffffffffffffffffffff16611d77565b15611b90578373ffffffffffffffffffffffffffffffffffffffff1663150b7a02611a50611035565b8786866040518563ffffffff1660e01b8152600401611a729493929190612470565b602060405180830381600087803b158015611a8c57600080fd5b505af1925050508015611abd57506040513d601f19601f82011682018060405250810190611aba9190612078565b60015b611b40573d8060008114611aed576040519150601f19603f3d011682016040523d82523d6000602084013e611af2565b606091505b50600081511415611b38576040517f08c379a0000000000000000000000000000000000000000000000000000000008152600401611b2f90612522565b60405180910390fd5b805181602001fd5b63150b7a0260e01b7bffffffffffffffffffffffffffffffffffffffffffffffffffffffff1916817bffffffffffffffffffffffffffffffffffffffffffffffffffffffff191614915050611b95565b600190505b949350505050565b600073ffffffffffffffffffffffffffffffffffffffff168273ffffffffffffffffffffffffffffffffffffffff161415611c0d576040517f08c379a0000000000000000000000000000000000000000000000000000000008152600401611c0490612662565b60405180910390fd5b611c1681610fc9565b15611c56576040517f08c379a0000000000000000000000000000000000000000000000000000000008152600401611c4d90612582565b60405180910390fd5b611c62600083836119a1565b6001600360008473ffffffffffffffffffffffffffffffffffffffff1673ffffffffffffffffffffffffffffffffffffffff1681526020019081526020016000206000828254611cb291906127f6565b92505081905550816002600083815260200190815260200160002060006101000a81548173ffffffffffffffffffffffffffffffffffffffff021916908373ffffffffffffffffffffffffffffffffffffffff160217905550808273ffffffffffffffffffffffffffffffffffffffff16600073ffffffffffffffffffffffffffffffffffffffff167fddf252ad1be2c89b69c2b068fc378daa952ba7f163c4a11628f55a4df523b3ef60405160405180910390a4611d73600083836119a6565b5050565b6000808273ffffffffffffffffffffffffffffffffffffffff163b119050919050565b6000611dad611da884612782565b61275d565b905082815260208101848484011115611dc957611dc8612b46565b5b611dd4848285612937565b509392505050565b600081359050611deb8161300d565b92915050565b600081359050611e0081613024565b92915050565b600081359050611e158161303b565b92915050565b600081519050611e2a8161303b565b92915050565b600082601f830112611e4557611e44612b41565b5b8135611e55848260208601611d9a565b91505092915050565b600081359050611e6d81613052565b92915050565b600081519050611e8281613052565b92915050565b600060208284031215611e9e57611e9d612b50565b5b6000611eac84828501611ddc565b91505092915050565b60008060408385031215611ecc57611ecb612b50565b5b6000611eda85828601611ddc565b9250506020611eeb85828601611ddc565b9150509250929050565b600080600060608486031215611f0e57611f0d612b50565b5b6000611f1c86828701611ddc565b9350506020611f2d86828701611ddc565b9250506040611f3e86828701611e5e565b9150509250925092565b60008060008060808587031215611f6257611f61612b50565b5b6000611f7087828801611ddc565b9450506020611f8187828801611ddc565b9350506040611f9287828801611e5e565b925050606085013567ffffffffffffffff811115611fb357611fb2612b4b565b5b611fbf87828801611e30565b91505092959194509250565b60008060408385031215611fe257611fe1612b50565b5b6000611ff085828601611ddc565b925050602061200185828601611df1565b9150509250929050565b6000806040838503121561202257612021612b50565b5b600061203085828601611ddc565b925050602061204185828601611e5e565b9150509250929050565b60006020828403121561206157612060612b50565b5b600061206f84828501611e06565b91505092915050565b60006020828403121561208e5761208d612b50565b5b600061209c84828501611e1b565b91505092915050565b6000602082840312156120bb576120ba612b50565b5b60006120c984828501611e5e565b91505092915050565b6000602082840312156120e8576120e7612b50565b5b60006120f684828501611e73565b91505092915050565b612108816128b1565b82525050565b612117816128c3565b82525050565b6000612128826127b3565b61213281856127c9565b9350612142818560208601612946565b61214b81612b55565b840191505092915050565b61215f81612925565b82525050565b6000612170826127be565b61217a81856127da565b935061218a818560208601612946565b61219381612b55565b840191505092915050565b60006121a9826127be565b6121b381856127eb565b93506121c3818560208601612946565b80840191505092915050565b60006121dc6032836127da565b91506121e782612b66565b604082019050919050565b60006121ff6026836127da565b915061220a82612bb5565b604082019050919050565b60006122226025836127da565b915061222d82612c04565b604082019050919050565b6000612245601c836127da565b915061225082612c53565b602082019050919050565b60006122686024836127da565b915061227382612c7c565b604082019050919050565b600061228b6019836127da565b915061229682612ccb565b602082019050919050565b60006122ae602c836127da565b91506122b982612cf4565b604082019050919050565b60006122d16038836127da565b91506122dc82612d43565b604082019050919050565b60006122f4602a836127da565b91506122ff82612d92565b604082019050919050565b60006123176029836127da565b915061232282612de1565b604082019050919050565b600061233a6020836127da565b915061234582612e30565b602082019050919050565b600061235d602c836127da565b915061236882612e59565b604082019050919050565b60006123806020836127da565b915061238b82612ea8565b602082019050919050565b60006123a3602f836127da565b91506123ae82612ed1565b604082019050919050565b60006123c66021836127da565b91506123d182612f20565b604082019050919050565b60006123e96031836127da565b91506123f482612f6f565b604082019050919050565b600061240c6030836127da565b915061241782612fbe565b604082019050919050565b61242b8161291b565b82525050565b600061243d828561219e565b9150612449828461219e565b91508190509392505050565b600060208201905061246a60008301846120ff565b92915050565b600060808201905061248560008301876120ff565b61249260208301866120ff565b61249f6040830185612422565b81810360608301526124b1818461211d565b905095945050505050565b60006040820190506124d160008301856120ff565b6124de6020830184612156565b9392505050565b60006020820190506124fa600083018461210e565b92915050565b6000602082019050818103600083015261251a8184612165565b905092915050565b6000602082019050818103600083015261253b816121cf565b9050919050565b6000602082019050818103600083015261255b816121f2565b9050919050565b6000602082019050818103600083015261257b81612215565b9050919050565b6000602082019050818103600083015261259b81612238565b9050919050565b600060208201905081810360008301526125bb8161225b565b9050919050565b600060208201905081810360008301526125db8161227e565b9050919050565b600060208201905081810360008301526125fb816122a1565b9050919050565b6000602082019050818103600083015261261b816122c4565b9050919050565b6000602082019050818103600083015261263b816122e7565b9050919050565b6000602082019050818103600083015261265b8161230a565b9050919050565b6000602082019050818103600083015261267b8161232d565b9050919050565b6000602082019050818103600083015261269b81612350565b9050919050565b600060208201905081810360008301526126bb81612373565b9050919050565b600060208201905081810360008301526126db81612396565b9050919050565b600060208201905081810360008301526126fb816123b9565b9050919050565b6000602082019050818103600083015261271b816123dc565b9050919050565b6000602082019050818103600083015261273b816123ff565b9050919050565b60006020820190506127576000830184612422565b92915050565b6000612767612778565b905061277382826129ab565b919050565b6000604051905090565b600067ffffffffffffffff82111561279d5761279c612b12565b5b6127a682612b55565b9050602081019050919050565b600081519050919050565b600081519050919050565b600082825260208201905092915050565b600082825260208201905092915050565b600081905092915050565b60006128018261291b565b915061280c8361291b565b9250827fffffffffffffffffffffffffffffffffffffffffffffffffffffffffffffffff0382111561284157612840612a56565b5b828201905092915050565b60006128578261291b565b91506128628361291b565b92508261287257612871612a85565b5b828204905092915050565b60006128888261291b565b91506128938361291b565b9250828210156128a6576128a5612a56565b5b828203905092915050565b60006128bc826128fb565b9050919050565b60008115159050919050565b60007fffffffff0000000000000000000000000000000000000000000000000000000082169050919050565b600073ffffffffffffffffffffffffffffffffffffffff82169050919050565b6000819050919050565b60006129308261291b565b9050919050565b82818337600083830152505050565b60005b83811015612964578082015181840152602081019050612949565b83811115612973576000848401525b50505050565b6000600282049050600182168061299157607f821691505b602082108114156129a5576129a4612ab4565b5b50919050565b6129b482612b55565b810181811067ffffffffffffffff821117156129d3576129d2612b12565b5b80604052505050565b60006129e78261291b565b91507fffffffffffffffffffffffffffffffffffffffffffffffffffffffffffffffff821415612a1a57612a19612a56565b5b600182019050919050565b6000612a308261291b565b9150612a3b8361291b565b925082612a4b57612a4a612a85565b5b828206905092915050565b7f4e487b7100000000000000000000000000000000000000000000000000000000600052601160045260246000fd5b7f4e487b7100000000000000000000000000000000000000000000000000000000600052601260045260246000fd5b7f4e487b7100000000000000000000000000000000000000000000000000000000600052602260045260246000fd5b7f4e487b7100000000000000000000000000000000000000000000000000000000600052603260045260246000fd5b7f4e487b7100000000000000000000000000000000000000000000000000000000600052604160045260246000fd5b600080fd5b600080fd5b600080fd5b600080fd5b6000601f19601f8301169050919050565b7f4552433732313a207472616e7366657220746f206e6f6e20455243373231526560008201527f63656976657220696d706c656d656e7465720000000000000000000000000000602082015250565b7f4f776e61626c653a206e6577206f776e657220697320746865207a65726f206160008201527f6464726573730000000000000000000000000000000000000000000000000000602082015250565b7f4552433732313a207472616e736665722066726f6d20696e636f72726563742060008201527f6f776e6572000000000000000000000000000000000000000000000000000000602082015250565b7f4552433732313a20746f6b656e20616c7265616479206d696e74656400000000600082015250565b7f4552433732313a207472616e7366657220746f20746865207a65726f2061646460008201527f7265737300000000000000000000000000000000000000000000000000000000602082015250565b7f4552433732313a20617070726f766520746f2063616c6c657200000000000000600082015250565b7f4552433732313a206f70657261746f7220717565727920666f72206e6f6e657860008201527f697374656e7420746f6b656e0000000000000000000000000000000000000000602082015250565b7f4552433732313a20617070726f76652063616c6c6572206973206e6f74206f7760008201527f6e6572206e6f7220617070726f76656420666f7220616c6c0000000000000000602082015250565b7f4552433732313a2062616c616e636520717565727920666f7220746865207a6560008201527f726f206164647265737300000000000000000000000000000000000000000000602082015250565b7f4552433732313a206f776e657220717565727920666f72206e6f6e657869737460008201527f656e7420746f6b656e0000000000000000000000000000000000000000000000602082015250565b7f4552433732313a206d696e7420746f20746865207a65726f2061646472657373600082015250565b7f4552433732313a20617070726f76656420717565727920666f72206e6f6e657860008201527f697374656e7420746f6b656e0000000000000000000000000000000000000000602082015250565b7f4f776e61626c653a2063616c6c6572206973206e6f7420746865206f776e6572600082015250565b7f4552433732314d657461646174613a2055524920717565727920666f72206e6f60008201527f6e6578697374656e7420746f6b656e0000000000000000000000000000000000602082015250565b7f4552433732313a20617070726f76616c20746f2063757272656e74206f776e6560008201527f7200000000000000000000000000000000000000000000000000000000000000602082015250565b7f4552433732313a207472616e736665722063616c6c6572206973206e6f74206f60008201527f776e6572206e6f7220617070726f766564000000000000000000000000000000602082015250565b7f4552433732314275726e61626c653a2063616c6c6572206973206e6f74206f7760008201527f6e6572206e6f7220617070726f76656400000000000000000000000000000000602082015250565b613016816128b1565b811461302157600080fd5b50565b61302d816128c3565b811461303857600080fd5b50565b613044816128cf565b811461304f57600080fd5b50565b61305b8161291b565b811461306657600080fd5b5056fea2646970667358221220414425541776e73104716a769240d482aedb74a87bc1853c231c9c43bfa5449464736f6c63430008070033",
  "immutableReferences": {},
  "source": "// SPDX-License-Identifier: MIT\npragma solidity ^0.8.7;\n\nimport \"@openzeppelin/contracts/token/ERC721/ERC721.sol\";\nimport \"@openzeppelin/contracts/token/ERC721/extensions/ERC721Burnable.sol\";\nimport \"@openzeppelin/contracts/access/Ownable.sol\";\nimport \"@openzeppelin/contracts/utils/Counters.sol\";\nimport \"../Lending/ILoaning.sol\";\n\ncontract Credit is ERC721, ERC721Burnable, Ownable{\n    using Counters for Counters.Counter;\n\n    Counters.Counter private _tokenIdCounter;\n\n    constructor() ERC721(\"Credit\", \"CRD\") {}\n/*event tester(uint myprime);\nfunction primaryOf(address a)public returns(bool){\n  Primary[a]=1;\n  return true;\n}\nfunction setPrimary(uint tokenId,address whose)public {\n//require(_isApprovedOrOwner(_msgSender(),tokenId),\"setPrimary: caller is not owner nor approved\");\n\n//require(!cred[Primary[msg.sender]].pending,\"you cannot change your primary when you are in debt\");\nPrimary[msg.sender]=1;\nemit tester(Primary[msg.sender]);\n\n}*/\nfunction TokenIdCounterLatest() public view returns(uint256) {\n  return _tokenIdCounter.current();\n}\nILoaning ln;\nfunction lendingcon(address loaning) public {\n  ln=ILoaning(loaning);\n}\n    function safeMint(address to) public{ //onlyOwner {\n        uint256 tokenId = _tokenIdCounter.current();\n        _tokenIdCounter.increment();\n        _safeMint(to, tokenId);\n//change modifier\n    }\n    function burn(uint256 tokenId) public override virtual {\n        //solhint-disable-next-line max-line-length\n        require(_isApprovedOrOwner(_msgSender(), tokenId), \"ERC721Burnable: caller is not owner nor approved\");\n      ln.Reset_credit(tokenId);\n        _burn(tokenId);\n        if(ln.Prime(msg.sender)==tokenId)\n        ln.Prime(msg.sender,0);\n    }\n\n}\n",
  "sourcePath": "/Users/vibhu/node_manager/node_modules/Solidity/Zeno/contracts/NFT/NFT.sol",
  "compiler": {
    "name": "solc",
    "version": "0.8.7+commit.e28d00a7.Emscripten.clang"
  },
  "schemaVersion": "3.4.7",
  "updatedAt": "2022-06-20T03:52:51.261Z",
  "devdoc": {
    "kind": "dev",
    "methods": {
      "approve(address,uint256)": {
        "details": "See {IERC721-approve}."
      },
      "balanceOf(address)": {
        "details": "See {IERC721-balanceOf}."
      },
      "burn(uint256)": {
        "details": "Burns `tokenId`. See {ERC721-_burn}. Requirements: - The caller must own `tokenId` or be an approved operator."
      },
      "getApproved(uint256)": {
        "details": "See {IERC721-getApproved}."
      },
      "isApprovedForAll(address,address)": {
        "details": "See {IERC721-isApprovedForAll}."
      },
      "name()": {
        "details": "See {IERC721Metadata-name}."
      },
      "owner()": {
        "details": "Returns the address of the current owner."
      },
      "ownerOf(uint256)": {
        "details": "See {IERC721-ownerOf}."
      },
      "renounceOwnership()": {
        "details": "Leaves the contract without owner. It will not be possible to call `onlyOwner` functions anymore. Can only be called by the current owner. NOTE: Renouncing ownership will leave the contract without an owner, thereby removing any functionality that is only available to the owner."
      },
      "safeTransferFrom(address,address,uint256)": {
        "details": "See {IERC721-safeTransferFrom}."
      },
      "safeTransferFrom(address,address,uint256,bytes)": {
        "details": "See {IERC721-safeTransferFrom}."
      },
      "setApprovalForAll(address,bool)": {
        "details": "See {IERC721-setApprovalForAll}."
      },
      "supportsInterface(bytes4)": {
        "details": "See {IERC165-supportsInterface}."
      },
      "symbol()": {
        "details": "See {IERC721Metadata-symbol}."
      },
      "tokenURI(uint256)": {
        "details": "See {IERC721Metadata-tokenURI}."
      },
      "transferFrom(address,address,uint256)": {
        "details": "See {IERC721-transferFrom}."
      },
      "transferOwnership(address)": {
        "details": "Transfers ownership of the contract to a new account (`newOwner`). Can only be called by the current owner."
      }
    },
    "version": 1
  },
  "userdoc": {
    "kind": "user",
    "methods": {},
    "version": 1
  }
}