{
  "contractName": "Credit",
  "abi": [
    {
      "inputs": [],
      "stateMutability": "nonpayable",
      "type": "constructor"
    },
    {
      "anonymous": false,
      "inputs": [
        {
          "indexed": true,
          "internalType": "address",
          "name": "owner",
          "type": "address"
        },
        {
          "indexed": true,
          "internalType": "address",
          "name": "approved",
          "type": "address"
        },
        {
          "indexed": true,
          "internalType": "uint256",
          "name": "tokenId",
          "type": "uint256"
        }
      ],
      "name": "Approval",
      "type": "event"
    },
    {
      "anonymous": false,
      "inputs": [
        {
          "indexed": true,
          "internalType": "address",
          "name": "owner",
          "type": "address"
        },
        {
          "indexed": true,
          "internalType": "address",
          "name": "operator",
          "type": "address"
        },
        {
          "indexed": false,
          "internalType": "bool",
          "name": "approved",
          "type": "bool"
        }
      ],
      "name": "ApprovalForAll",
      "type": "event"
    },
    {
      "anonymous": false,
      "inputs": [
        {
          "indexed": true,
          "internalType": "address",
          "name": "previousOwner",
          "type": "address"
        },
        {
          "indexed": true,
          "internalType": "address",
          "name": "newOwner",
          "type": "address"
        }
      ],
      "name": "OwnershipTransferred",
      "type": "event"
    },
    {
      "anonymous": false,
      "inputs": [
        {
          "indexed": true,
          "internalType": "address",
          "name": "from",
          "type": "address"
        },
        {
          "indexed": true,
          "internalType": "address",
          "name": "to",
          "type": "address"
        },
        {
          "indexed": true,
          "internalType": "uint256",
          "name": "tokenId",
          "type": "uint256"
        }
      ],
      "name": "Transfer",
      "type": "event"
    },
    {
      "inputs": [
        {
          "internalType": "address",
          "name": "to",
          "type": "address"
        },
        {
          "internalType": "uint256",
          "name": "tokenId",
          "type": "uint256"
        }
      ],
      "name": "approve",
      "outputs": [],
      "stateMutability": "nonpayable",
      "type": "function"
    },
    {
      "inputs": [
        {
          "internalType": "address",
          "name": "owner",
          "type": "address"
        }
      ],
      "name": "balanceOf",
      "outputs": [
        {
          "internalType": "uint256",
          "name": "",
          "type": "uint256"
        }
      ],
      "stateMutability": "view",
      "type": "function",
      "constant": true
    },
    {
      "inputs": [
        {
          "internalType": "uint256",
          "name": "tokenId",
          "type": "uint256"
        }
      ],
      "name": "getApproved",
      "outputs": [
        {
          "internalType": "address",
          "name": "",
          "type": "address"
        }
      ],
      "stateMutability": "view",
      "type": "function",
      "constant": true
    },
    {
      "inputs": [
        {
          "internalType": "address",
          "name": "owner",
          "type": "address"
        },
        {
          "internalType": "address",
          "name": "operator",
          "type": "address"
        }
      ],
      "name": "isApprovedForAll",
      "outputs": [
        {
          "internalType": "bool",
          "name": "",
          "type": "bool"
        }
      ],
      "stateMutability": "view",
      "type": "function",
      "constant": true
    },
    {
      "inputs": [],
      "name": "name",
      "outputs": [
        {
          "internalType": "string",
          "name": "",
          "type": "string"
        }
      ],
      "stateMutability": "view",
      "type": "function",
      "constant": true
    },
    {
      "inputs": [],
      "name": "owner",
      "outputs": [
        {
          "internalType": "address",
          "name": "",
          "type": "address"
        }
      ],
      "stateMutability": "view",
      "type": "function",
      "constant": true
    },
    {
      "inputs": [
        {
          "internalType": "uint256",
          "name": "tokenId",
          "type": "uint256"
        }
      ],
      "name": "ownerOf",
      "outputs": [
        {
          "internalType": "address",
          "name": "",
          "type": "address"
        }
      ],
      "stateMutability": "view",
      "type": "function",
      "constant": true
    },
    {
      "inputs": [],
      "name": "renounceOwnership",
      "outputs": [],
      "stateMutability": "nonpayable",
      "type": "function"
    },
    {
      "inputs": [
        {
          "internalType": "address",
          "name": "from",
          "type": "address"
        },
        {
          "internalType": "address",
          "name": "to",
          "type": "address"
        },
        {
          "internalType": "uint256",
          "name": "tokenId",
          "type": "uint256"
        }
      ],
      "name": "safeTransferFrom",
      "outputs": [],
      "stateMutability": "nonpayable",
      "type": "function"
    },
    {
      "inputs": [
        {
          "internalType": "address",
          "name": "from",
          "type": "address"
        },
        {
          "internalType": "address",
          "name": "to",
          "type": "address"
        },
        {
          "internalType": "uint256",
          "name": "tokenId",
          "type": "uint256"
        },
        {
          "internalType": "bytes",
          "name": "_data",
          "type": "bytes"
        }
      ],
      "name": "safeTransferFrom",
      "outputs": [],
      "stateMutability": "nonpayable",
      "type": "function"
    },
    {
      "inputs": [
        {
          "internalType": "address",
          "name": "operator",
          "type": "address"
        },
        {
          "internalType": "bool",
          "name": "approved",
          "type": "bool"
        }
      ],
      "name": "setApprovalForAll",
      "outputs": [],
      "stateMutability": "nonpayable",
      "type": "function"
    },
    {
      "inputs": [
        {
          "internalType": "bytes4",
          "name": "interfaceId",
          "type": "bytes4"
        }
      ],
      "name": "supportsInterface",
      "outputs": [
        {
          "internalType": "bool",
          "name": "",
          "type": "bool"
        }
      ],
      "stateMutability": "view",
      "type": "function",
      "constant": true
    },
    {
      "inputs": [],
      "name": "symbol",
      "outputs": [
        {
          "internalType": "string",
          "name": "",
          "type": "string"
        }
      ],
      "stateMutability": "view",
      "type": "function",
      "constant": true
    },
    {
      "inputs": [
        {
          "internalType": "uint256",
          "name": "tokenId",
          "type": "uint256"
        }
      ],
      "name": "tokenURI",
      "outputs": [
        {
          "internalType": "string",
          "name": "",
          "type": "string"
        }
      ],
      "stateMutability": "view",
      "type": "function",
      "constant": true
    },
    {
      "inputs": [
        {
          "internalType": "address",
          "name": "from",
          "type": "address"
        },
        {
          "internalType": "address",
          "name": "to",
          "type": "address"
        },
        {
          "internalType": "uint256",
          "name": "tokenId",
          "type": "uint256"
        }
      ],
      "name": "transferFrom",
      "outputs": [],
      "stateMutability": "nonpayable",
      "type": "function"
    },
    {
      "inputs": [
        {
          "internalType": "address",
          "name": "newOwner",
          "type": "address"
        }
      ],
      "name": "transferOwnership",
      "outputs": [],
      "stateMutability": "nonpayable",
      "type": "function"
    },
    {
      "inputs": [
        {
          "internalType": "uint256",
          "name": "tokenId",
          "type": "uint256"
        }
      ],
      "name": "setPrimary",
      "outputs": [
        {
          "internalType": "bool",
          "name": "",
          "type": "bool"
        }
      ],
      "stateMutability": "nonpayable",
      "type": "function"
    },
    {
      "inputs": [
        {
          "internalType": "address",
          "name": "to",
          "type": "address"
        }
      ],
      "name": "safeMint",
      "outputs": [],
      "stateMutability": "nonpayable",
      "type": "function"
    },
    {
      "inputs": [
        {
          "internalType": "uint256",
          "name": "tokenId",
          "type": "uint256"
        }
      ],
      "name": "burn",
      "outputs": [],
      "stateMutability": "nonpayable",
      "type": "function"
    }
  ],
  "bytecode": "0x60806040523480156200001157600080fd5b506040518060400160405280600681526020017f43726564697400000000000000000000000000000000000000000000000000008152506040518060400160405280600381526020017f4352440000000000000000000000000000000000000000000000000000000000815250816000908051906020019062000096929190620001a6565b508060019080519060200190620000af929190620001a6565b505050620000d2620000c6620000d860201b60201c565b620000e060201b60201c565b620002bb565b600033905090565b6000600660009054906101000a900473ffffffffffffffffffffffffffffffffffffffff16905081600660006101000a81548173ffffffffffffffffffffffffffffffffffffffff021916908373ffffffffffffffffffffffffffffffffffffffff1602179055508173ffffffffffffffffffffffffffffffffffffffff168173ffffffffffffffffffffffffffffffffffffffff167f8be0079c531659141344cd1fd0a4f28419497f9722a3daafe3b4186f6b6457e060405160405180910390a35050565b828054620001b49062000256565b90600052602060002090601f016020900481019282620001d8576000855562000224565b82601f10620001f357805160ff191683800117855562000224565b8280016001018555821562000224579182015b828111156200022357825182559160200191906001019062000206565b5b50905062000233919062000237565b5090565b5b808211156200025257600081600090555060010162000238565b5090565b600060028204905060018216806200026f57607f821691505b602082108114156200028657620002856200028c565b5b50919050565b7f4e487b7100000000000000000000000000000000000000000000000000000000600052602260045260246000fd5b61331780620002cb6000396000f3fe608060405234801561001057600080fd5b50600436106101215760003560e01c80636352211e116100ad578063a22cb46511610071578063a22cb46514610306578063b88d4fde14610322578063c87b56dd1461033e578063e985e9c51461036e578063f2fde38b1461039e57610121565b80636352211e1461026057806370a0823114610290578063715018a6146102c05780638da5cb5b146102ca57806395d89b41146102e857610121565b806323b872dd116100f457806323b872dd146101c057806338e74feb146101dc57806340d097c31461020c57806342842e0e1461022857806342966c681461024457610121565b806301ffc9a71461012657806306fdde0314610156578063081812fc14610174578063095ea7b3146101a4575b600080fd5b610140600480360381019061013b9190612216565b6103ba565b60405161014d9190612691565b60405180910390f35b61015e61049c565b60405161016b91906126ac565b60405180910390f35b61018e60048036038101906101899190612270565b61052e565b60405161019b919061262a565b60405180910390f35b6101be60048036038101906101b991906121d6565b6105b3565b005b6101da60048036038101906101d591906120c0565b6106cb565b005b6101f660048036038101906101f19190612270565b61072b565b6040516102039190612691565b60405180910390f35b61022660048036038101906102219190612053565b61086d565b005b610242600480360381019061023d91906120c0565b61090f565b005b61025e60048036038101906102599190612270565b61092f565b005b61027a60048036038101906102759190612270565b610b77565b604051610287919061262a565b60405180910390f35b6102aa60048036038101906102a59190612053565b610c29565b6040516102b7919061292e565b60405180910390f35b6102c8610ce1565b005b6102d2610d69565b6040516102df919061262a565b60405180910390f35b6102f0610d93565b6040516102fd91906126ac565b60405180910390f35b610320600480360381019061031b9190612196565b610e25565b005b61033c60048036038101906103379190612113565b610e3b565b005b61035860048036038101906103539190612270565b610e9d565b60405161036591906126ac565b60405180910390f35b61038860048036038101906103839190612080565b610f44565b6040516103959190612691565b60405180910390f35b6103b860048036038101906103b39190612053565b610fd8565b005b60007f80ac58cd000000000000000000000000000000000000000000000000000000007bffffffffffffffffffffffffffffffffffffffffffffffffffffffff1916827bffffffffffffffffffffffffffffffffffffffffffffffffffffffff1916148061048557507f5b5e139f000000000000000000000000000000000000000000000000000000007bffffffffffffffffffffffffffffffffffffffffffffffffffffffff1916827bffffffffffffffffffffffffffffffffffffffffffffffffffffffff1916145b806104955750610494826110d0565b5b9050919050565b6060600080546104ab90612b53565b80601f01602080910402602001604051908101604052809291908181526020018280546104d790612b53565b80156105245780601f106104f957610100808354040283529160200191610524565b820191906000526020600020905b81548152906001019060200180831161050757829003601f168201915b5050505050905090565b60006105398261113a565b610578576040517f08c379a000000000000000000000000000000000000000000000000000000000815260040161056f9061282e565b60405180910390fd5b6004600083815260200190815260200160002060009054906101000a900473ffffffffffffffffffffffffffffffffffffffff169050919050565b60006105be82610b77565b90508073ffffffffffffffffffffffffffffffffffffffff168373ffffffffffffffffffffffffffffffffffffffff16141561062f576040517f08c379a0000000000000000000000000000000000000000000000000000000008152600401610626906128ae565b60405180910390fd5b8073ffffffffffffffffffffffffffffffffffffffff1661064e6111a6565b73ffffffffffffffffffffffffffffffffffffffff16148061067d575061067c816106776111a6565b610f44565b5b6106bc576040517f08c379a00000000000000000000000000000000000000000000000000000000081526004016106b3906127ae565b60405180910390fd5b6106c683836111ae565b505050565b6106dc6106d66111a6565b82611267565b61071b576040517f08c379a0000000000000000000000000000000000000000000000000000000008152600401610712906128ce565b60405180910390fd5b610726838383611345565b505050565b600061073e6107386111a6565b83611267565b61077d576040517f08c379a00000000000000000000000000000000000000000000000000000000081526004016107749061286e565b60405180910390fd5b60076000600860003373ffffffffffffffffffffffffffffffffffffffff1673ffffffffffffffffffffffffffffffffffffffff16815260200190815260200160002054815260200190815260200160002060050160009054906101000a900460ff1615610820576040517f08c379a0000000000000000000000000000000000000000000000000000000008152600401610817906128ee565b60405180910390fd5b81600860003373ffffffffffffffffffffffffffffffffffffffff1673ffffffffffffffffffffffffffffffffffffffff1681526020019081526020016000208190555060019050919050565b6108756111a6565b73ffffffffffffffffffffffffffffffffffffffff16610893610d69565b73ffffffffffffffffffffffffffffffffffffffff16146108e9576040517f08c379a00000000000000000000000000000000000000000000000000000000081526004016108e09061284e565b60405180910390fd5b60006108f560096115ac565b905061090160096115ba565b61090b82826115d0565b5050565b61092a83838360405180602001604052806000815250610e3b565b505050565b61094061093a6111a6565b82611267565b61097f576040517f08c379a00000000000000000000000000000000000000000000000000000000081526004016109769061290e565b60405180910390fd5b600760008081526020019081526020016000206007600083815260200190815260200160002060008201548160000155600182015481600101556002820160009054906101000a900460ff168160020160006101000a81548160ff02191690831515021790555060038201548160030155600482015481600401556005820160009054906101000a900460ff168160050160006101000a81548160ff02191690831515021790555060068201548160060155600782015481600701556008820154816008015560098201548160090155600a82015481600a0155600b82015481600b0155600c82015481600c0155600d82015481600d0155600e82015481600e0155600f82015481600f01556010820181601001908054610aa1929190611f0b565b506011820181601101908054610ab8929190611f0b565b506012820154816012015560138201548160130155905050610ad9816115ee565b8060086000610ae66111a6565b73ffffffffffffffffffffffffffffffffffffffff1673ffffffffffffffffffffffffffffffffffffffff168152602001908152602001600020541415610b7457600060086000610b356111a6565b73ffffffffffffffffffffffffffffffffffffffff1673ffffffffffffffffffffffffffffffffffffffff168152602001908152602001600020819055505b50565b6000806002600084815260200190815260200160002060009054906101000a900473ffffffffffffffffffffffffffffffffffffffff169050600073ffffffffffffffffffffffffffffffffffffffff168173ffffffffffffffffffffffffffffffffffffffff161415610c20576040517f08c379a0000000000000000000000000000000000000000000000000000000008152600401610c17906127ee565b60405180910390fd5b80915050919050565b60008073ffffffffffffffffffffffffffffffffffffffff168273ffffffffffffffffffffffffffffffffffffffff161415610c9a576040517f08c379a0000000000000000000000000000000000000000000000000000000008152600401610c91906127ce565b60405180910390fd5b600360008373ffffffffffffffffffffffffffffffffffffffff1673ffffffffffffffffffffffffffffffffffffffff168152602001908152602001600020549050919050565b610ce96111a6565b73ffffffffffffffffffffffffffffffffffffffff16610d07610d69565b73ffffffffffffffffffffffffffffffffffffffff1614610d5d576040517f08c379a0000000000000000000000000000000000000000000000000000000008152600401610d549061284e565b60405180910390fd5b610d67600061170b565b565b6000600660009054906101000a900473ffffffffffffffffffffffffffffffffffffffff16905090565b606060018054610da290612b53565b80601f0160208091040260200160405190810160405280929190818152602001828054610dce90612b53565b8015610e1b5780601f10610df057610100808354040283529160200191610e1b565b820191906000526020600020905b815481529060010190602001808311610dfe57829003601f168201915b5050505050905090565b610e37610e306111a6565b83836117d1565b5050565b610e4c610e466111a6565b83611267565b610e8b576040517f08c379a0000000000000000000000000000000000000000000000000000000008152600401610e82906128ce565b60405180910390fd5b610e978484848461193e565b50505050565b6060610ea88261113a565b610ee7576040517f08c379a0000000000000000000000000000000000000000000000000000000008152600401610ede9061288e565b60405180910390fd5b6000610ef161199a565b90506000815111610f115760405180602001604052806000815250610f3c565b80610f1b846119b1565b604051602001610f2c929190612606565b6040516020818303038152906040525b915050919050565b6000600560008473ffffffffffffffffffffffffffffffffffffffff1673ffffffffffffffffffffffffffffffffffffffff16815260200190815260200160002060008373ffffffffffffffffffffffffffffffffffffffff1673ffffffffffffffffffffffffffffffffffffffff16815260200190815260200160002060009054906101000a900460ff16905092915050565b610fe06111a6565b73ffffffffffffffffffffffffffffffffffffffff16610ffe610d69565b73ffffffffffffffffffffffffffffffffffffffff1614611054576040517f08c379a000000000000000000000000000000000000000000000000000000000815260040161104b9061284e565b60405180910390fd5b600073ffffffffffffffffffffffffffffffffffffffff168173ffffffffffffffffffffffffffffffffffffffff1614156110c4576040517f08c379a00000000000000000000000000000000000000000000000000000000081526004016110bb906126ee565b60405180910390fd5b6110cd8161170b565b50565b60007f01ffc9a7000000000000000000000000000000000000000000000000000000007bffffffffffffffffffffffffffffffffffffffffffffffffffffffff1916827bffffffffffffffffffffffffffffffffffffffffffffffffffffffff1916149050919050565b60008073ffffffffffffffffffffffffffffffffffffffff166002600084815260200190815260200160002060009054906101000a900473ffffffffffffffffffffffffffffffffffffffff1673ffffffffffffffffffffffffffffffffffffffff1614159050919050565b600033905090565b816004600083815260200190815260200160002060006101000a81548173ffffffffffffffffffffffffffffffffffffffff021916908373ffffffffffffffffffffffffffffffffffffffff160217905550808273ffffffffffffffffffffffffffffffffffffffff1661122183610b77565b73ffffffffffffffffffffffffffffffffffffffff167f8c5be1e5ebec7d5bd14f71427d1e84f3dd0314c0f7b2291e5b200ac8c7c3b92560405160405180910390a45050565b60006112728261113a565b6112b1576040517f08c379a00000000000000000000000000000000000000000000000000000000081526004016112a89061278e565b60405180910390fd5b60006112bc83610b77565b90508073ffffffffffffffffffffffffffffffffffffffff168473ffffffffffffffffffffffffffffffffffffffff1614806112fe57506112fd8185610f44565b5b8061133c57508373ffffffffffffffffffffffffffffffffffffffff166113248461052e565b73ffffffffffffffffffffffffffffffffffffffff16145b91505092915050565b8273ffffffffffffffffffffffffffffffffffffffff1661136582610b77565b73ffffffffffffffffffffffffffffffffffffffff16146113bb576040517f08c379a00000000000000000000000000000000000000000000000000000000081526004016113b29061270e565b60405180910390fd5b600073ffffffffffffffffffffffffffffffffffffffff168273ffffffffffffffffffffffffffffffffffffffff16141561142b576040517f08c379a00000000000000000000000000000000000000000000000000000000081526004016114229061274e565b60405180910390fd5b611436838383611b12565b6114416000826111ae565b6001600360008573ffffffffffffffffffffffffffffffffffffffff1673ffffffffffffffffffffffffffffffffffffffff16815260200190815260200160002060008282546114919190612a69565b925050819055506001600360008473ffffffffffffffffffffffffffffffffffffffff1673ffffffffffffffffffffffffffffffffffffffff16815260200190815260200160002060008282546114e891906129e2565b92505081905550816002600083815260200190815260200160002060006101000a81548173ffffffffffffffffffffffffffffffffffffffff021916908373ffffffffffffffffffffffffffffffffffffffff160217905550808273ffffffffffffffffffffffffffffffffffffffff168473ffffffffffffffffffffffffffffffffffffffff167fddf252ad1be2c89b69c2b068fc378daa952ba7f163c4a11628f55a4df523b3ef60405160405180910390a46115a7838383611b17565b505050565b600081600001549050919050565b6001816000016000828254019250508190555050565b6115ea828260405180602001604052806000815250611b1c565b5050565b60006115f982610b77565b905061160781600084611b12565b6116126000836111ae565b6001600360008373ffffffffffffffffffffffffffffffffffffffff1673ffffffffffffffffffffffffffffffffffffffff16815260200190815260200160002060008282546116629190612a69565b925050819055506002600083815260200190815260200160002060006101000a81549073ffffffffffffffffffffffffffffffffffffffff021916905581600073ffffffffffffffffffffffffffffffffffffffff168273ffffffffffffffffffffffffffffffffffffffff167fddf252ad1be2c89b69c2b068fc378daa952ba7f163c4a11628f55a4df523b3ef60405160405180910390a461170781600084611b17565b5050565b6000600660009054906101000a900473ffffffffffffffffffffffffffffffffffffffff16905081600660006101000a81548173ffffffffffffffffffffffffffffffffffffffff021916908373ffffffffffffffffffffffffffffffffffffffff1602179055508173ffffffffffffffffffffffffffffffffffffffff168173ffffffffffffffffffffffffffffffffffffffff167f8be0079c531659141344cd1fd0a4f28419497f9722a3daafe3b4186f6b6457e060405160405180910390a35050565b8173ffffffffffffffffffffffffffffffffffffffff168373ffffffffffffffffffffffffffffffffffffffff161415611840576040517f08c379a00000000000000000000000000000000000000000000000000000000081526004016118379061276e565b60405180910390fd5b80600560008573ffffffffffffffffffffffffffffffffffffffff1673ffffffffffffffffffffffffffffffffffffffff16815260200190815260200160002060008473ffffffffffffffffffffffffffffffffffffffff1673ffffffffffffffffffffffffffffffffffffffff16815260200190815260200160002060006101000a81548160ff0219169083151502179055508173ffffffffffffffffffffffffffffffffffffffff168373ffffffffffffffffffffffffffffffffffffffff167f17307eab39ab6107e8899845ad3d59bd9653f200f220920489ca2b5937696c31836040516119319190612691565b60405180910390a3505050565b611949848484611345565b61195584848484611b77565b611994576040517f08c379a000000000000000000000000000000000000000000000000000000000815260040161198b906126ce565b60405180910390fd5b50505050565b606060405180602001604052806000815250905090565b606060008214156119f9576040518060400160405280600181526020017f30000000000000000000000000000000000000000000000000000000000000008152509050611b0d565b600082905060005b60008214611a2b578080611a1490612bb6565b915050600a82611a249190612a38565b9150611a01565b60008167ffffffffffffffff811115611a4757611a46612cec565b5b6040519080825280601f01601f191660200182016040528015611a795781602001600182028036833780820191505090505b5090505b60008514611b0657600182611a929190612a69565b9150600a85611aa19190612bff565b6030611aad91906129e2565b60f81b818381518110611ac357611ac2612cbd565b5b60200101907effffffffffffffffffffffffffffffffffffffffffffffffffffffffffffff1916908160001a905350600a85611aff9190612a38565b9450611a7d565b8093505050505b919050565b505050565b505050565b611b268383611d0e565b611b336000848484611b77565b611b72576040517f08c379a0000000000000000000000000000000000000000000000000000000008152600401611b69906126ce565b60405180910390fd5b505050565b6000611b988473ffffffffffffffffffffffffffffffffffffffff16611ee8565b15611d01578373ffffffffffffffffffffffffffffffffffffffff1663150b7a02611bc16111a6565b8786866040518563ffffffff1660e01b8152600401611be39493929190612645565b602060405180830381600087803b158015611bfd57600080fd5b505af1925050508015611c2e57506040513d601f19601f82011682018060405250810190611c2b9190612243565b60015b611cb1573d8060008114611c5e576040519150601f19603f3d011682016040523d82523d6000602084013e611c63565b606091505b50600081511415611ca9576040517f08c379a0000000000000000000000000000000000000000000000000000000008152600401611ca0906126ce565b60405180910390fd5b805181602001fd5b63150b7a0260e01b7bffffffffffffffffffffffffffffffffffffffffffffffffffffffff1916817bffffffffffffffffffffffffffffffffffffffffffffffffffffffff191614915050611d06565b600190505b949350505050565b600073ffffffffffffffffffffffffffffffffffffffff168273ffffffffffffffffffffffffffffffffffffffff161415611d7e576040517f08c379a0000000000000000000000000000000000000000000000000000000008152600401611d759061280e565b60405180910390fd5b611d878161113a565b15611dc7576040517f08c379a0000000000000000000000000000000000000000000000000000000008152600401611dbe9061272e565b60405180910390fd5b611dd360008383611b12565b6001600360008473ffffffffffffffffffffffffffffffffffffffff1673ffffffffffffffffffffffffffffffffffffffff1681526020019081526020016000206000828254611e2391906129e2565b92505081905550816002600083815260200190815260200160002060006101000a81548173ffffffffffffffffffffffffffffffffffffffff021916908373ffffffffffffffffffffffffffffffffffffffff160217905550808273ffffffffffffffffffffffffffffffffffffffff16600073ffffffffffffffffffffffffffffffffffffffff167fddf252ad1be2c89b69c2b068fc378daa952ba7f163c4a11628f55a4df523b3ef60405160405180910390a4611ee460008383611b17565b5050565b6000808273ffffffffffffffffffffffffffffffffffffffff163b119050919050565b828054828255906000526020600020908101928215611f4c5760005260206000209182015b82811115611f4b578254825591600101919060010190611f30565b5b509050611f599190611f5d565b5090565b5b80821115611f76576000816000905550600101611f5e565b5090565b6000611f8d611f888461296e565b612949565b905082815260208101848484011115611fa957611fa8612d20565b5b611fb4848285612b11565b509392505050565b600081359050611fcb81613285565b92915050565b600081359050611fe08161329c565b92915050565b600081359050611ff5816132b3565b92915050565b60008151905061200a816132b3565b92915050565b600082601f83011261202557612024612d1b565b5b8135612035848260208601611f7a565b91505092915050565b60008135905061204d816132ca565b92915050565b60006020828403121561206957612068612d2a565b5b600061207784828501611fbc565b91505092915050565b6000806040838503121561209757612096612d2a565b5b60006120a585828601611fbc565b92505060206120b685828601611fbc565b9150509250929050565b6000806000606084860312156120d9576120d8612d2a565b5b60006120e786828701611fbc565b93505060206120f886828701611fbc565b92505060406121098682870161203e565b9150509250925092565b6000806000806080858703121561212d5761212c612d2a565b5b600061213b87828801611fbc565b945050602061214c87828801611fbc565b935050604061215d8782880161203e565b925050606085013567ffffffffffffffff81111561217e5761217d612d25565b5b61218a87828801612010565b91505092959194509250565b600080604083850312156121ad576121ac612d2a565b5b60006121bb85828601611fbc565b92505060206121cc85828601611fd1565b9150509250929050565b600080604083850312156121ed576121ec612d2a565b5b60006121fb85828601611fbc565b925050602061220c8582860161203e565b9150509250929050565b60006020828403121561222c5761222b612d2a565b5b600061223a84828501611fe6565b91505092915050565b60006020828403121561225957612258612d2a565b5b600061226784828501611ffb565b91505092915050565b60006020828403121561228657612285612d2a565b5b60006122948482850161203e565b91505092915050565b6122a681612a9d565b82525050565b6122b581612aaf565b82525050565b60006122c68261299f565b6122d081856129b5565b93506122e0818560208601612b20565b6122e981612d2f565b840191505092915050565b60006122ff826129aa565b61230981856129c6565b9350612319818560208601612b20565b61232281612d2f565b840191505092915050565b6000612338826129aa565b61234281856129d7565b9350612352818560208601612b20565b80840191505092915050565b600061236b6032836129c6565b915061237682612d40565b604082019050919050565b600061238e6026836129c6565b915061239982612d8f565b604082019050919050565b60006123b16025836129c6565b91506123bc82612dde565b604082019050919050565b60006123d4601c836129c6565b91506123df82612e2d565b602082019050919050565b60006123f76024836129c6565b915061240282612e56565b604082019050919050565b600061241a6019836129c6565b915061242582612ea5565b602082019050919050565b600061243d602c836129c6565b915061244882612ece565b604082019050919050565b60006124606038836129c6565b915061246b82612f1d565b604082019050919050565b6000612483602a836129c6565b915061248e82612f6c565b604082019050919050565b60006124a66029836129c6565b91506124b182612fbb565b604082019050919050565b60006124c96020836129c6565b91506124d48261300a565b602082019050919050565b60006124ec602c836129c6565b91506124f782613033565b604082019050919050565b600061250f6020836129c6565b915061251a82613082565b602082019050919050565b6000612532602c836129c6565b915061253d826130ab565b604082019050919050565b6000612555602f836129c6565b9150612560826130fa565b604082019050919050565b60006125786021836129c6565b915061258382613149565b604082019050919050565b600061259b6031836129c6565b91506125a682613198565b604082019050919050565b60006125be6033836129c6565b91506125c9826131e7565b604082019050919050565b60006125e16030836129c6565b91506125ec82613236565b604082019050919050565b61260081612b07565b82525050565b6000612612828561232d565b915061261e828461232d565b91508190509392505050565b600060208201905061263f600083018461229d565b92915050565b600060808201905061265a600083018761229d565b612667602083018661229d565b61267460408301856125f7565b818103606083015261268681846122bb565b905095945050505050565b60006020820190506126a660008301846122ac565b92915050565b600060208201905081810360008301526126c681846122f4565b905092915050565b600060208201905081810360008301526126e78161235e565b9050919050565b6000602082019050818103600083015261270781612381565b9050919050565b60006020820190508181036000830152612727816123a4565b9050919050565b60006020820190508181036000830152612747816123c7565b9050919050565b60006020820190508181036000830152612767816123ea565b9050919050565b600060208201905081810360008301526127878161240d565b9050919050565b600060208201905081810360008301526127a781612430565b9050919050565b600060208201905081810360008301526127c781612453565b9050919050565b600060208201905081810360008301526127e781612476565b9050919050565b6000602082019050818103600083015261280781612499565b9050919050565b60006020820190508181036000830152612827816124bc565b9050919050565b60006020820190508181036000830152612847816124df565b9050919050565b6000602082019050818103600083015261286781612502565b9050919050565b6000602082019050818103600083015261288781612525565b9050919050565b600060208201905081810360008301526128a781612548565b9050919050565b600060208201905081810360008301526128c78161256b565b9050919050565b600060208201905081810360008301526128e78161258e565b9050919050565b60006020820190508181036000830152612907816125b1565b9050919050565b60006020820190508181036000830152612927816125d4565b9050919050565b600060208201905061294360008301846125f7565b92915050565b6000612953612964565b905061295f8282612b85565b919050565b6000604051905090565b600067ffffffffffffffff82111561298957612988612cec565b5b61299282612d2f565b9050602081019050919050565b600081519050919050565b600081519050919050565b600082825260208201905092915050565b600082825260208201905092915050565b600081905092915050565b60006129ed82612b07565b91506129f883612b07565b9250827fffffffffffffffffffffffffffffffffffffffffffffffffffffffffffffffff03821115612a2d57612a2c612c30565b5b828201905092915050565b6000612a4382612b07565b9150612a4e83612b07565b925082612a5e57612a5d612c5f565b5b828204905092915050565b6000612a7482612b07565b9150612a7f83612b07565b925082821015612a9257612a91612c30565b5b828203905092915050565b6000612aa882612ae7565b9050919050565b60008115159050919050565b60007fffffffff0000000000000000000000000000000000000000000000000000000082169050919050565b600073ffffffffffffffffffffffffffffffffffffffff82169050919050565b6000819050919050565b82818337600083830152505050565b60005b83811015612b3e578082015181840152602081019050612b23565b83811115612b4d576000848401525b50505050565b60006002820490506001821680612b6b57607f821691505b60208210811415612b7f57612b7e612c8e565b5b50919050565b612b8e82612d2f565b810181811067ffffffffffffffff82111715612bad57612bac612cec565b5b80604052505050565b6000612bc182612b07565b91507fffffffffffffffffffffffffffffffffffffffffffffffffffffffffffffffff821415612bf457612bf3612c30565b5b600182019050919050565b6000612c0a82612b07565b9150612c1583612b07565b925082612c2557612c24612c5f565b5b828206905092915050565b7f4e487b7100000000000000000000000000000000000000000000000000000000600052601160045260246000fd5b7f4e487b7100000000000000000000000000000000000000000000000000000000600052601260045260246000fd5b7f4e487b7100000000000000000000000000000000000000000000000000000000600052602260045260246000fd5b7f4e487b7100000000000000000000000000000000000000000000000000000000600052603260045260246000fd5b7f4e487b7100000000000000000000000000000000000000000000000000000000600052604160045260246000fd5b600080fd5b600080fd5b600080fd5b600080fd5b6000601f19601f8301169050919050565b7f4552433732313a207472616e7366657220746f206e6f6e20455243373231526560008201527f63656976657220696d706c656d656e7465720000000000000000000000000000602082015250565b7f4f776e61626c653a206e6577206f776e657220697320746865207a65726f206160008201527f6464726573730000000000000000000000000000000000000000000000000000602082015250565b7f4552433732313a207472616e736665722066726f6d20696e636f72726563742060008201527f6f776e6572000000000000000000000000000000000000000000000000000000602082015250565b7f4552433732313a20746f6b656e20616c7265616479206d696e74656400000000600082015250565b7f4552433732313a207472616e7366657220746f20746865207a65726f2061646460008201527f7265737300000000000000000000000000000000000000000000000000000000602082015250565b7f4552433732313a20617070726f766520746f2063616c6c657200000000000000600082015250565b7f4552433732313a206f70657261746f7220717565727920666f72206e6f6e657860008201527f697374656e7420746f6b656e0000000000000000000000000000000000000000602082015250565b7f4552433732313a20617070726f76652063616c6c6572206973206e6f74206f7760008201527f6e6572206e6f7220617070726f76656420666f7220616c6c0000000000000000602082015250565b7f4552433732313a2062616c616e636520717565727920666f7220746865207a6560008201527f726f206164647265737300000000000000000000000000000000000000000000602082015250565b7f4552433732313a206f776e657220717565727920666f72206e6f6e657869737460008201527f656e7420746f6b656e0000000000000000000000000000000000000000000000602082015250565b7f4552433732313a206d696e7420746f20746865207a65726f2061646472657373600082015250565b7f4552433732313a20617070726f76656420717565727920666f72206e6f6e657860008201527f697374656e7420746f6b656e0000000000000000000000000000000000000000602082015250565b7f4f776e61626c653a2063616c6c6572206973206e6f7420746865206f776e6572600082015250565b7f7365745072696d6172793a2063616c6c6572206973206e6f74206f776e65722060008201527f6e6f7220617070726f7665640000000000000000000000000000000000000000602082015250565b7f4552433732314d657461646174613a2055524920717565727920666f72206e6f60008201527f6e6578697374656e7420746f6b656e0000000000000000000000000000000000602082015250565b7f4552433732313a20617070726f76616c20746f2063757272656e74206f776e6560008201527f7200000000000000000000000000000000000000000000000000000000000000602082015250565b7f4552433732313a207472616e736665722063616c6c6572206973206e6f74206f60008201527f776e6572206e6f7220617070726f766564000000000000000000000000000000602082015250565b7f796f752063616e6e6f74206368616e676520796f7572207072696d617279207760008201527f68656e20796f752061726520696e206465627400000000000000000000000000602082015250565b7f4552433732314275726e61626c653a2063616c6c6572206973206e6f74206f7760008201527f6e6572206e6f7220617070726f76656400000000000000000000000000000000602082015250565b61328e81612a9d565b811461329957600080fd5b50565b6132a581612aaf565b81146132b057600080fd5b50565b6132bc81612abb565b81146132c757600080fd5b50565b6132d381612b07565b81146132de57600080fd5b5056fea2646970667358221220018d22ec1448f31825b5870c4b6220715de9ead3c013dd47ac74fd3288cdcfa364736f6c63430008070033",
  "immutableReferences": {},
  "source": "// SPDX-License-Identifier: MIT\npragma solidity ^0.8.7;\n\nimport \"@openzeppelin/contracts/token/ERC721/ERC721.sol\";\nimport \"@openzeppelin/contracts/token/ERC721/extensions/ERC721Burnable.sol\";\nimport \"@openzeppelin/contracts/access/Ownable.sol\";\nimport \"@openzeppelin/contracts/utils/Counters.sol\";\ncontract data{\n    struct Credit_card{\n//taking loan\nuint creditsc_c;\nuint creditsc_uc; //\nbool _match;\nuint principal;\nuint amount;\n//paying loan\nbool pending;\nuint Ldate;\nuint time;\nuint timer;\n//DEBT CALC\nuint defults;\nuint repayed;\nuint Ltotal;\nuint Dtotal;\nuint defexpo;\nuint Drate;\nuint Rrate;\nuint[] princeD;\nuint[] princeL;\nuint medianL;\nuint medianD;\n\n}\nmapping (uint256=>Credit_card) cred;\nmapping (address =>uint) Primary;\n}\n\ncontract Credit is ERC721, ERC721Burnable, Ownable, data{\n    using Counters for Counters.Counter;\n\n    Counters.Counter private _tokenIdCounter;\n\n    constructor() ERC721(\"Credit\", \"CRD\") {}\n\n\nfunction setPrimary(uint tokenId) public returns(bool){\nrequire(_isApprovedOrOwner(_msgSender(),tokenId),\"setPrimary: caller is not owner nor approved\");\n\nrequire(!cred[Primary[msg.sender]].pending,\"you cannot change your primary when you are in debt\");\nPrimary[msg.sender]=tokenId;\nreturn true;\n}\n\n    function safeMint(address to) public onlyOwner {\n        uint256 tokenId = _tokenIdCounter.current();\n        _tokenIdCounter.increment();\n        _safeMint(to, tokenId);\n    }\n    function burn(uint256 tokenId) public override virtual {\n        //solhint-disable-next-line max-line-length\n        require(_isApprovedOrOwner(_msgSender(), tokenId), \"ERC721Burnable: caller is not owner nor approved\");\n        cred[tokenId]=cred[0];\n        _burn(tokenId);\n        if(Primary[_msgSender()]==tokenId)\n        Primary[_msgSender()]=0;\n    }\n\n}\n",
  "sourcePath": "/Users/vibhu/node_manager/node_modules/Solidity/Zeno/contracts/NFT/NFT.sol",
  "compiler": {
    "name": "solc",
    "version": "0.8.7+commit.e28d00a7.Emscripten.clang"
  },
  "schemaVersion": "3.4.7",
  "updatedAt": "2022-05-20T03:42:11.064Z",
  "networkType": "ethereum",
  "devdoc": {
    "kind": "dev",
    "methods": {
      "approve(address,uint256)": {
        "details": "See {IERC721-approve}."
      },
      "balanceOf(address)": {
        "details": "See {IERC721-balanceOf}."
      },
      "burn(uint256)": {
        "details": "Burns `tokenId`. See {ERC721-_burn}. Requirements: - The caller must own `tokenId` or be an approved operator."
      },
      "getApproved(uint256)": {
        "details": "See {IERC721-getApproved}."
      },
      "isApprovedForAll(address,address)": {
        "details": "See {IERC721-isApprovedForAll}."
      },
      "name()": {
        "details": "See {IERC721Metadata-name}."
      },
      "owner()": {
        "details": "Returns the address of the current owner."
      },
      "ownerOf(uint256)": {
        "details": "See {IERC721-ownerOf}."
      },
      "renounceOwnership()": {
        "details": "Leaves the contract without owner. It will not be possible to call `onlyOwner` functions anymore. Can only be called by the current owner. NOTE: Renouncing ownership will leave the contract without an owner, thereby removing any functionality that is only available to the owner."
      },
      "safeTransferFrom(address,address,uint256)": {
        "details": "See {IERC721-safeTransferFrom}."
      },
      "safeTransferFrom(address,address,uint256,bytes)": {
        "details": "See {IERC721-safeTransferFrom}."
      },
      "setApprovalForAll(address,bool)": {
        "details": "See {IERC721-setApprovalForAll}."
      },
      "supportsInterface(bytes4)": {
        "details": "See {IERC165-supportsInterface}."
      },
      "symbol()": {
        "details": "See {IERC721Metadata-symbol}."
      },
      "tokenURI(uint256)": {
        "details": "See {IERC721Metadata-tokenURI}."
      },
      "transferFrom(address,address,uint256)": {
        "details": "See {IERC721-transferFrom}."
      },
      "transferOwnership(address)": {
        "details": "Transfers ownership of the contract to a new account (`newOwner`). Can only be called by the current owner."
      }
    },
    "version": 1
  },
  "userdoc": {
    "kind": "user",
    "methods": {},
    "version": 1
  }
}