{
  "contractName": "data",
  "abi": [
    {
      "anonymous": false,
      "inputs": [
        {
          "indexed": false,
          "internalType": "uint256",
          "name": "token_ID",
          "type": "uint256"
        }
      ],
      "name": "Set_Primary",
      "type": "event"
    },
    {
      "inputs": [
        {
          "internalType": "uint256",
          "name": "tokenId",
          "type": "uint256"
        }
      ],
      "name": "setPrimary",
      "outputs": [],
      "stateMutability": "nonpayable",
      "type": "function"
    }
  ],
  "bytecode": "0x608060405234801561001057600080fd5b50610316806100206000396000f3fe608060405234801561001057600080fd5b506004361061002b5760003560e01c806338e74feb14610030575b600080fd5b61004a600480360381019061004591906101c0565b61004c565b005b600080600160003373ffffffffffffffffffffffffffffffffffffffff1673ffffffffffffffffffffffffffffffffffffffff16815260200190815260200160002054815260200190815260200160002060050160009054906101000a900460ff16156100ee576040517f08c379a00000000000000000000000000000000000000000000000000000000081526004016100e59061021f565b60405180910390fd5b80600160003373ffffffffffffffffffffffffffffffffffffffff1673ffffffffffffffffffffffffffffffffffffffff168152602001908152602001600020819055507f93ee19f33773de005b0e731088107f7687d2366d46ad66a6d9c2841208a445fe600160003373ffffffffffffffffffffffffffffffffffffffff1673ffffffffffffffffffffffffffffffffffffffff168152602001908152602001600020546040516101a0919061023f565b60405180910390a150565b6000813590506101ba816102c9565b92915050565b6000602082840312156101d6576101d5610275565b5b60006101e4848285016101ab565b91505092915050565b60006101fa60338361025a565b91506102058261027a565b604082019050919050565b6102198161026b565b82525050565b60006020820190508181036000830152610238816101ed565b9050919050565b60006020820190506102546000830184610210565b92915050565b600082825260208201905092915050565b6000819050919050565b600080fd5b7f796f752063616e6e6f74206368616e676520796f7572207072696d617279207760008201527f68656e20796f752061726520696e206465627400000000000000000000000000602082015250565b6102d28161026b565b81146102dd57600080fd5b5056fea2646970667358221220c91dbe7ee848ea30e7950b40c68fbf39de57e80c77b1a743f46234b4e7802ec864736f6c63430008070033",
  "immutableReferences": {},
  "source": "// SPDX-License-Identifier: MIT\n//vouchee -blacklisted person who is being vouched for by a high level person.\npragma solidity 0.8.7;\nimport \"../NFT/NFT.sol\";\nimport \"./ILoaning.sol\";\n\ncontract data{\nstruct  Credit_card {\n//taking loan\nuint creditsc_c;\nuint creditsc_uc; //\nbool _match;\nuint principal;\nuint amount;\n//paying loan\nbool pending;\nuint Ldate;\nuint time;\nuint timer;\n//DEBT CALC\nuint defults;\nuint repayed;\nuint Ltotal;\nuint Dtotal;\nuint defexpo;\nuint Drate;\nuint Rrate;\nuint[] princeD;\nuint[] princeL;\nuint medianL;\nuint medianD;\n\n}\nevent Set_Primary(uint256 token_ID);\n\nmapping (uint256=>Credit_card) cred;\nmapping (address =>uint)  Primary;\n\n\nfunction setPrimary(uint tokenId)public {\n//require(_isApprovedOrOwner(_msgSender(),tokenId),\"setPrimary: caller is not owner nor approved\");\n\nrequire(!cred[Primary[msg.sender]].pending,\"you cannot change your primary when you are in debt\");\nPrimary[msg.sender]=tokenId;\nemit Set_Primary(Primary[msg.sender]);\n\n}\n}\n\n//vouch contract\ncontract vouching is data{\n    //friend is the link between the vouchee and the vouch giver so you know who to penalise incase of second defult\n    mapping (address=>address) public friend;\n    //banking is the main krredit bank contract address\n    ILoaning loans;\n    address bank;\n    uint adj;\n        constructor(address banking){\n          bank=banking;\n          loans=ILoaning(bank);\n          adj=10**18;\n        }\n    //vouch function begins here, it only takes address of the vouch reciever.\n    function vouch(address vouchee) public returns (bool success){\n        //person cannot have a pending loan.\n        require(cred[Primary[msg.sender]].pending==false);\n\n        //checks if his level is high enough (6 is dummy num)\n        require(cred[Primary[msg.sender]].creditsc_c>=6,\"your level is too low\");\n        //makes sure the receiver lev is at 0 so this feature cannot increase level of non-zero ppl\n        require(cred[Primary[vouchee]].creditsc_c==0,\"vouchee level is not 0\");\n        //tags person who vouched for vouchee\n        friend[vouchee]=msg.sender;\n        //increases level and makes vouchee eligible for loans again\n        loans.increment(vouchee,adj);\n        return true;\n    }\n}\n",
  "sourcePath": "/Users/vibhu/node_manager/node_modules/Solidity/Zeno/contracts/Lending/Vouching.sol",
  "compiler": {
    "name": "solc",
    "version": "0.8.7+commit.e28d00a7.Emscripten.clang"
  },
  "schemaVersion": "3.4.7",
  "updatedAt": "2022-06-20T03:53:39.328Z",
  "devdoc": {
    "kind": "dev",
    "methods": {},
    "version": 1
  },
  "userdoc": {
    "kind": "user",
    "methods": {},
    "version": 1
  }
}