{
  "contractName": "DSMath",
  "abi": [
    {
      "inputs": [
        {
          "internalType": "uint256",
          "name": "x",
          "type": "uint256"
        }
      ],
      "name": "wsqrt",
      "outputs": [
        {
          "internalType": "uint256",
          "name": "y",
          "type": "uint256"
        }
      ],
      "stateMutability": "pure",
      "type": "function"
    },
    {
      "inputs": [
        {
          "internalType": "uint256",
          "name": "x",
          "type": "uint256"
        },
        {
          "internalType": "uint256",
          "name": "n",
          "type": "uint256"
        }
      ],
      "name": "wpow",
      "outputs": [
        {
          "internalType": "uint256",
          "name": "z",
          "type": "uint256"
        }
      ],
      "stateMutability": "pure",
      "type": "function"
    }
  ],
  "bytecode": "0x608060405234801561001057600080fd5b50610624806100206000396000f3fe608060405234801561001057600080fd5b50600436106100365760003560e01c8063672f8e4f1461003b57806393eb1cce1461006b575b600080fd5b61005560048036038101906100509190610305565b61009b565b60405161006291906103da565b60405180910390f35b610085600480360381019061008091906102d8565b610122565b60405161009291906103da565b60405180910390f35b6000806002836100ab91906104f1565b14156100bf57670de0b6b3a76400006100c1565b825b90506002826100d0919061045c565b91505b6000821461011c576100e5838461017d565b925060006002836100f691906104f1565b1461010857610105818461017d565b90505b600282610115919061045c565b91506100d3565b92915050565b60008060026001846101349190610406565b61013e919061045c565b90508291505b818110156101775780915060028161015c85846101c1565b6101669190610406565b610170919061045c565b9050610144565b50919050565b6000670de0b6b3a76400006101af61019585856101fd565b6002670de0b6b3a76400006101aa919061045c565b61026a565b6101b9919061045c565b905092915050565b6000816101eb6101d985670de0b6b3a76400006101fd565b6002856101e6919061045c565b61026a565b6101f5919061045c565b905092915050565b600080821480610225575082828385610216919061048d565b925082610223919061045c565b145b610264576040517f08c379a000000000000000000000000000000000000000000000000000000000815260040161025b9061039a565b60405180910390fd5b92915050565b60008282846102799190610406565b91508110156102bd576040517f08c379a00000000000000000000000000000000000000000000000000000000081526004016102b4906103ba565b60405180910390fd5b92915050565b6000813590506102d2816105d7565b92915050565b6000602082840312156102ee576102ed610580565b5b60006102fc848285016102c3565b91505092915050565b6000806040838503121561031c5761031b610580565b5b600061032a858286016102c3565b925050602061033b858286016102c3565b9150509250929050565b60006103526014836103f5565b915061035d82610585565b602082019050919050565b60006103756014836103f5565b9150610380826105ae565b602082019050919050565b610394816104e7565b82525050565b600060208201905081810360008301526103b381610345565b9050919050565b600060208201905081810360008301526103d381610368565b9050919050565b60006020820190506103ef600083018461038b565b92915050565b600082825260208201905092915050565b6000610411826104e7565b915061041c836104e7565b9250827fffffffffffffffffffffffffffffffffffffffffffffffffffffffffffffffff0382111561045157610450610522565b5b828201905092915050565b6000610467826104e7565b9150610472836104e7565b92508261048257610481610551565b5b828204905092915050565b6000610498826104e7565b91506104a3836104e7565b9250817fffffffffffffffffffffffffffffffffffffffffffffffffffffffffffffffff04831182151516156104dc576104db610522565b5b828202905092915050565b6000819050919050565b60006104fc826104e7565b9150610507836104e7565b92508261051757610516610551565b5b828206905092915050565b7f4e487b7100000000000000000000000000000000000000000000000000000000600052601160045260246000fd5b7f4e487b7100000000000000000000000000000000000000000000000000000000600052601260045260246000fd5b600080fd5b7f64732d6d6174682d6d756c2d6f766572666c6f77000000000000000000000000600082015250565b7f64732d6d6174682d6164642d6f766572666c6f77000000000000000000000000600082015250565b6105e0816104e7565b81146105eb57600080fd5b5056fea2646970667358221220574ead44cc4e3a41c45a414975ad0b3ab062b5285cb57802fdc893b254b3688264736f6c63430008070033",
  "immutableReferences": {},
  "source": "/// math.sol -- mixin for inline numerical wizardry\n\n// This program is free software: you can redistribute it and/or modify\n// it under the terms of the GNU General Public License as published by\n// the Free Software Foundation, either version 3 of the License, or\n// (at your option) any later version.\n\n// This program is distributed in the hope that it will be useful,\n// but WITHOUT ANY WARRANTY; without even the implied warranty of\n// MERCHANTABILITY or FITNESS FOR A PARTICULAR PURPOSE.  See the\n// GNU General Public License for more details.\n\n// You should have received a copy of the GNU General Public License\n// along with this program.  If not, see <http://www.gnu.org/licenses/>.\n\npragma solidity >0.4.13;\n\ncontract DSMath {\n    function add(uint x, uint y) internal pure returns (uint z) {\n        require((z = x + y) >= x, \"ds-math-add-overflow\");\n    }\n    function sub(uint x, uint y) internal pure returns (uint z) {\n        require((z = x - y) <= x, \"ds-math-sub-underflow\");\n    }\n    function mul(uint x, uint y) internal pure returns (uint z) {\n        require(y == 0 || (z = x * y) / y == x, \"ds-math-mul-overflow\");\n    }\n\n    function min(uint x, uint y) internal pure returns (uint z) {\n        return x <= y ? x : y;\n    }\n    function max(uint x, uint y) internal pure returns (uint z) {\n        return x >= y ? x : y;\n    }\n    function imin(int x, int y) internal pure returns (int z) {\n        return x <= y ? x : y;\n    }\n    function imax(int x, int y) internal pure returns (int z) {\n        return x >= y ? x : y;\n    }\n\n    uint constant WAD = 10 ** 18;\n    uint constant RAY = 10 ** 27;\n\n    //rounds to zero if x*y < WAD / 2\n    function wmul(uint x, uint y) internal pure returns (uint z) {\n        z = add(mul(x, y), WAD / 2) / WAD;\n    }\n    //rounds to zero if x*y < WAD / 2\n    function rmul(uint x, uint y) internal pure returns (uint z) {\n        z = add(mul(x, y), RAY / 2) / RAY;\n    }\n    //rounds to zero if x*y < WAD / 2\n    function wdiv(uint x, uint y) internal pure returns (uint z) {\n        z = add(mul(x, WAD), y / 2) / y;\n    }\n    //rounds to zero if x*y < RAY / 2\n    function rdiv(uint x, uint y) internal pure returns (uint z) {\n        z = add(mul(x, RAY), y / 2) / y;\n    }\n\n    // This famous algorithm is called \"exponentiation by squaring\"\n    // and calculates x^n with x as fixed-point and n as regular unsigned.\n    //\n    // It's O(log n), instead of O(n) for naive repeated multiplication.\n    //\n    // These facts are why it works:\n    //\n    //  If n is even, then x^n = (x^2)^(n/2).\n    //  If n is odd,  then x^n = x * x^(n-1),\n    //   and applying the equation for even x gives\n    //    x^n = x * (x^2)^((n-1) / 2).\n    //\n    //  Also, EVM division is flooring and\n    //    floor[(n-1) / 2] = floor[n / 2].\n    //\n    function rpow(uint x, uint n) internal pure returns (uint z) {\n        z = n % 2 != 0 ? x : RAY;\n\n        for (n /= 2; n != 0; n /= 2) {\n            x = rmul(x, x);\n\n            if (n % 2 != 0) {\n                z = rmul(z, x);\n            }\n        }\n    }\n\n    function wsqrt(uint x) public pure returns (uint y) {\n        uint z = (x + 1)/2;\n        y = x;\n        while (z < y) {\n            y = z;\n            z = (wdiv(x,z) + z) / 2;\n        }\n    }\n    function wpow(uint x, uint n) public pure returns (uint z) {\n       z = n % 2 != 0 ? x : WAD;\n\n       for (n /= 2; n != 0; n /= 2) {\n           x = wmul(x, x);\n\n           if (n % 2 != 0) {\n               z = wmul(z, x);\n           }\n       }\n    }\n}\n",
  "sourcePath": "/Users/vibhu/node_manager/node_modules/Solidity/Zeno/contracts/Lending/ds-math/math.sol",
  "compiler": {
    "name": "solc",
    "version": "0.8.7+commit.e28d00a7.Emscripten.clang"
  },
  "schemaVersion": "3.4.7",
  "updatedAt": "2022-05-18T03:46:12.783Z",
  "devdoc": {
    "kind": "dev",
    "methods": {},
    "version": 1
  },
  "userdoc": {
    "kind": "user",
    "methods": {},
    "version": 1
  }
}