{
  "contractName": "Loaning",
  "abi": [
    {
      "inputs": [],
      "stateMutability": "nonpayable",
      "type": "constructor"
    },
    {
      "inputs": [
        {
          "internalType": "address",
          "name": "",
          "type": "address"
        }
      ],
      "name": "friend",
      "outputs": [
        {
          "internalType": "address",
          "name": "",
          "type": "address"
        }
      ],
      "stateMutability": "view",
      "type": "function",
      "constant": true
    },
    {
      "inputs": [
        {
          "internalType": "uint256[]",
          "name": "amts",
          "type": "uint256[]"
        }
      ],
      "name": "getmedian",
      "outputs": [
        {
          "internalType": "uint256",
          "name": "median",
          "type": "uint256"
        }
      ],
      "stateMutability": "pure",
      "type": "function",
      "constant": true
    },
    {
      "inputs": [
        {
          "internalType": "uint256[]",
          "name": "amts",
          "type": "uint256[]"
        }
      ],
      "name": "sortA",
      "outputs": [],
      "stateMutability": "pure",
      "type": "function",
      "constant": true
    },
    {
      "inputs": [
        {
          "internalType": "address",
          "name": "vouchee",
          "type": "address"
        }
      ],
      "name": "vouch",
      "outputs": [
        {
          "internalType": "bool",
          "name": "success",
          "type": "bool"
        }
      ],
      "stateMutability": "nonpayable",
      "type": "function"
    },
    {
      "inputs": [
        {
          "internalType": "uint256",
          "name": "x",
          "type": "uint256"
        },
        {
          "internalType": "uint256",
          "name": "n",
          "type": "uint256"
        }
      ],
      "name": "wpow",
      "outputs": [
        {
          "internalType": "uint256",
          "name": "z",
          "type": "uint256"
        }
      ],
      "stateMutability": "pure",
      "type": "function",
      "constant": true
    },
    {
      "inputs": [
        {
          "internalType": "uint256",
          "name": "x",
          "type": "uint256"
        }
      ],
      "name": "wsqrt",
      "outputs": [
        {
          "internalType": "uint256",
          "name": "y",
          "type": "uint256"
        }
      ],
      "stateMutability": "pure",
      "type": "function",
      "constant": true
    },
    {
      "inputs": [
        {
          "internalType": "address",
          "name": "tk",
          "type": "address"
        }
      ],
      "name": "set",
      "outputs": [],
      "stateMutability": "nonpayable",
      "type": "function"
    },
    {
      "inputs": [
        {
          "internalType": "uint256",
          "name": "tier",
          "type": "uint256"
        }
      ],
      "name": "takeloan",
      "outputs": [],
      "stateMutability": "payable",
      "type": "function",
      "payable": true
    },
    {
      "inputs": [],
      "name": "returnloan",
      "outputs": [
        {
          "internalType": "bool",
          "name": "",
          "type": "bool"
        }
      ],
      "stateMutability": "nonpayable",
      "type": "function"
    },
    {
      "inputs": [],
      "name": "freemoney",
      "outputs": [],
      "stateMutability": "payable",
      "type": "function",
      "payable": true
    },
    {
      "inputs": [
        {
          "internalType": "address",
          "name": "pardonee",
          "type": "address"
        }
      ],
      "name": "increment",
      "outputs": [],
      "stateMutability": "nonpayable",
      "type": "function"
    }
  ],
  "bytecode": "0x6080604052600754605062000015919062000187565b6005556014600655670de0b6b3a76400006007553480156200003657600080fd5b503080600460006101000a81548173ffffffffffffffffffffffffffffffffffffffff021916908373ffffffffffffffffffffffffffffffffffffffff160217905550600460009054906101000a900473ffffffffffffffffffffffffffffffffffffffff16600360006101000a81548173ffffffffffffffffffffffffffffffffffffffff021916908373ffffffffffffffffffffffffffffffffffffffff1602179055505033600c60006101000a81548173ffffffffffffffffffffffffffffffffffffffff021916908373ffffffffffffffffffffffffffffffffffffffff160217905550600c60009054906101000a900473ffffffffffffffffffffffffffffffffffffffff16600d60006101000a81548173ffffffffffffffffffffffffffffffffffffffff021916908373ffffffffffffffffffffffffffffffffffffffff16021790555062000221565b60006200019482620001e8565b9150620001a183620001e8565b9250817fffffffffffffffffffffffffffffffffffffffffffffffffffffffffffffffff0483118215151615620001dd57620001dc620001f2565b5b828202905092915050565b6000819050919050565b7f4e487b7100000000000000000000000000000000000000000000000000000000600052601160045260246000fd5b61377a80620002316000396000f3fe60806040526004361061009c5760003560e01c806393eb1cce1161006457806393eb1cce14610189578063c16c6fc2146101c6578063dd66e16b146101d0578063e340d56b1461020d578063ebacef7814610236578063fef5a10e146102615761009c565b806302ebb44d146100a15780632801617e146100de57806345f43dd8146101075780635f6e557514610130578063672f8e4f1461014c575b600080fd5b3480156100ad57600080fd5b506100c860048036038101906100c39190612ca6565b61029e565b6040516100d59190613183565b60405180910390f35b3480156100ea57600080fd5b5061010560048036038101906101009190612c79565b6102d4565b005b34801561011357600080fd5b5061012e60048036038101906101299190612c79565b610318565b005b61014a60048036038101906101459190612d1c565b6103c5565b005b34801561015857600080fd5b50610173600480360381019061016e9190612d76565b610c82565b6040516101809190613183565b60405180910390f35b34801561019557600080fd5b506101b060048036038101906101ab9190612d1c565b610d09565b6040516101bd9190613183565b60405180910390f35b6101ce610d64565b005b3480156101dc57600080fd5b506101f760048036038101906101f29190612c79565b610e04565b6040516102049190613008565b60405180910390f35b34801561021957600080fd5b50610234600480360381019061022f9190612ca6565b6110ba565b005b34801561024257600080fd5b5061024b6111c7565b6040516102589190613008565b60405180910390f35b34801561026d57600080fd5b5061028860048036038101906102839190612c79565b612973565b6040516102959190612f64565b60405180910390f35b600080600283516102af9190613256565b90508281815181106102c4576102c3613447565b5b6020026020010151915050919050565b80600e60006101000a81548173ffffffffffffffffffffffffffffffffffffffff021916908373ffffffffffffffffffffffffffffffffffffffff16021790555050565b6001600080600160008573ffffffffffffffffffffffffffffffffffffffff1673ffffffffffffffffffffffffffffffffffffffff16815260200190815260200160002054815260200190815260200160002050506001600080600160008573ffffffffffffffffffffffffffffffffffffffff1673ffffffffffffffffffffffffffffffffffffffff168152602001908152602001600020548152602001908152602001600020505050565b6000600160003373ffffffffffffffffffffffffffffffffffffffff1673ffffffffffffffffffffffffffffffffffffffff168152602001908152602001600020541415610448576040517f08c379a000000000000000000000000000000000000000000000000000000000815260040161043f90613103565b60405180910390fd5b6011546104a942600080600160003373ffffffffffffffffffffffffffffffffffffffff1673ffffffffffffffffffffffffffffffffffffffff168152602001908152602001600020548152602001908152602001600020600801546129a6565b10156104ea576040517f08c379a00000000000000000000000000000000000000000000000000000000081526004016104e1906130a3565b60405180910390fd5b600754816104f89190613287565b600080600160003373ffffffffffffffffffffffffffffffffffffffff1673ffffffffffffffffffffffffffffffffffffffff16815260200190815260200160002054815260200190815260200160002060000154101561058e576040517f08c379a000000000000000000000000000000000000000000000000000000000815260040161058590613163565b60405180910390fd5b6000811161059b57600080fd5b600080600160003373ffffffffffffffffffffffffffffffffffffffff1673ffffffffffffffffffffffffffffffffffffffff16815260200190815260200160002054815260200190815260200160002060050160009054906101000a900460ff161561063d576040517f08c379a000000000000000000000000000000000000000000000000000000000815260040161063490613143565b60405180910390fd5b6000610664600a6007546106519190613256565b60075461065e9190613200565b83610c82565b60646106709190613287565b600080600160003373ffffffffffffffffffffffffffffffffffffffff1673ffffffffffffffffffffffffffffffffffffffff16815260200190815260200160002054815260200190815260200160002060040181905550600e60009054906101000a900473ffffffffffffffffffffffffffffffffffffffff1673ffffffffffffffffffffffffffffffffffffffff166340c10f1933600080600160003373ffffffffffffffffffffffffffffffffffffffff1673ffffffffffffffffffffffffffffffffffffffff168152602001908152602001600020548152602001908152602001600020600401546040518363ffffffff1660e01b8152600401610779929190612fdf565b600060405180830381600087803b15801561079357600080fd5b505af11580156107a7573d6000803e3d6000fd5b50505050610832600080600160003373ffffffffffffffffffffffffffffffffffffffff1673ffffffffffffffffffffffffffffffffffffffff1681526020019081526020016000205481526020019081526020016000206004015461082d61081c60646007546129ff90919063ffffffff16565b600654612a1590919063ffffffff16565b612a2b565b905060006108e8600080600160003373ffffffffffffffffffffffffffffffffffffffff1673ffffffffffffffffffffffffffffffffffffffff168152602001908152602001600020548152602001908152602001600020600f0154600080600160003373ffffffffffffffffffffffffffffffffffffffff1673ffffffffffffffffffffffffffffffffffffffff16815260200190815260200160002054815260200190815260200160002060120154612a2b565b9050600061099e600080600160003373ffffffffffffffffffffffffffffffffffffffff1673ffffffffffffffffffffffffffffffffffffffff168152602001908152602001600020548152602001908152602001600020600d0154600080600160003373ffffffffffffffffffffffffffffffffffffffff1673ffffffffffffffffffffffffffffffffffffffff168152602001908152602001600020548152602001908152602001600020600e0154612a2b565b90506109bc6109b68284612a6f90919063ffffffff16565b84612a2b565b601260003373ffffffffffffffffffffffffffffffffffffffff1673ffffffffffffffffffffffffffffffffffffffff16815260200190815260200160002081905550610a9c600080600160003373ffffffffffffffffffffffffffffffffffffffff1673ffffffffffffffffffffffffffffffffffffffff16815260200190815260200160002054815260200190815260200160002060040154601260003373ffffffffffffffffffffffffffffffffffffffff1673ffffffffffffffffffffffffffffffffffffffff16815260200190815260200160002054612a85565b600080600160003373ffffffffffffffffffffffffffffffffffffffff1673ffffffffffffffffffffffffffffffffffffffff168152602001908152602001600020548152602001908152602001600020600301819055506001600080600160003373ffffffffffffffffffffffffffffffffffffffff1673ffffffffffffffffffffffffffffffffffffffff16815260200190815260200160002054815260200190815260200160002060050160006101000a81548160ff02191690831515021790555042600080600160003373ffffffffffffffffffffffffffffffffffffffff1673ffffffffffffffffffffffffffffffffffffffff16815260200190815260200160002054815260200190815260200160002060070181905550600080600160003373ffffffffffffffffffffffffffffffffffffffff1673ffffffffffffffffffffffffffffffffffffffff16815260200190815260200160002054815260200190815260200160002060000154841415610c7c5760011515600080600160003373ffffffffffffffffffffffffffffffffffffffff1673ffffffffffffffffffffffffffffffffffffffff16815260200190815260200160002054815260200190815260200160002060020160009054906101000a905050505b50505050565b600080600283610c9291906133b8565b1415610ca657670de0b6b3a7640000610ca8565b825b9050600282610cb79190613256565b91505b60008214610d0357610ccc8384612a2b565b92506000600283610cdd91906133b8565b14610cef57610cec8184612a2b565b90505b600282610cfc9190613256565b9150610cba565b92915050565b6000806002600184610d1b9190613200565b610d259190613256565b90508291505b81811015610d5e57809150600281610d438584612ade565b610d4d9190613200565b610d579190613256565b9050610d2b565b50919050565b600e60009054906101000a900473ffffffffffffffffffffffffffffffffffffffff1673ffffffffffffffffffffffffffffffffffffffff166340c10f19336007546103e8610db39190613287565b6040518363ffffffff1660e01b8152600401610dd0929190612fdf565b600060405180830381600087803b158015610dea57600080fd5b505af1158015610dfe573d6000803e3d6000fd5b50505050565b6000801515600080600160003373ffffffffffffffffffffffffffffffffffffffff1673ffffffffffffffffffffffffffffffffffffffff16815260200190815260200160002054815260200190815260200160002060050160009054906101000a900460ff16151514610e7757600080fd5b6006600080600160003373ffffffffffffffffffffffffffffffffffffffff1673ffffffffffffffffffffffffffffffffffffffff168152602001908152602001600020548152602001908152602001600020600001541015610f0f576040517f08c379a0000000000000000000000000000000000000000000000000000000008152600401610f06906130c3565b60405180910390fd5b6000806000600160008673ffffffffffffffffffffffffffffffffffffffff1673ffffffffffffffffffffffffffffffffffffffff1681526020019081526020016000205481526020019081526020016000206000015414610fa6576040517f08c379a0000000000000000000000000000000000000000000000000000000008152600401610f9d90613083565b60405180910390fd5b33600260008473ffffffffffffffffffffffffffffffffffffffff1673ffffffffffffffffffffffffffffffffffffffff16815260200190815260200160002060006101000a81548173ffffffffffffffffffffffffffffffffffffffff021916908373ffffffffffffffffffffffffffffffffffffffff160217905550600360009054906101000a900473ffffffffffffffffffffffffffffffffffffffff1673ffffffffffffffffffffffffffffffffffffffff166345f43dd8836040518263ffffffff1660e01b815260040161107f9190612f64565b600060405180830381600087803b15801561109957600080fd5b505af11580156110ad573d6000803e3d6000fd5b5050505060019050919050565b600080600183516110cb91906132e1565b91505b60008211156111c257826001836110e591906132e1565b815181106110f6576110f5613447565b5b602002602001015183838151811061111157611110613447565b5b602002602001015110156111af5782828151811061113257611131613447565b5b602002602001015190508260018361114a91906132e1565b8151811061115b5761115a613447565b5b602002602001015183838151811061117657611175613447565b5b602002602001018181525050808360018461119191906132e1565b815181106111a2576111a1613447565b5b6020026020010181815250505b81806111ba9061335d565b9250506110ce565b505050565b60006001600080600160003373ffffffffffffffffffffffffffffffffffffffff1673ffffffffffffffffffffffffffffffffffffffff16815260200190815260200160002054815260200190815260200160002060050160006101000a81548160ff021916908315150217905561123e57600080fd5b6000806000600160003373ffffffffffffffffffffffffffffffffffffffff1673ffffffffffffffffffffffffffffffffffffffff168152602001908152602001600020548152602001908152602001600020600301549050620668a0611302600080600160003373ffffffffffffffffffffffffffffffffffffffff1673ffffffffffffffffffffffffffffffffffffffff1681526020019081526020016000205481526020019081526020016000206007015442612a6f90919063ffffffff16565b1115611ab0576000806000600160003373ffffffffffffffffffffffffffffffffffffffff1673ffffffffffffffffffffffffffffffffffffffff168152602001908152602001600020548152602001908152602001600020600101819055506000806000600160003373ffffffffffffffffffffffffffffffffffffffff1673ffffffffffffffffffffffffffffffffffffffff16815260200190815260200160002054815260200190815260200160002060000181905550600754600080600160003373ffffffffffffffffffffffffffffffffffffffff1673ffffffffffffffffffffffffffffffffffffffff16815260200190815260200160002054815260200190815260200160002060090160008282546114229190613200565b9250508190555080600080600160003373ffffffffffffffffffffffffffffffffffffffff1673ffffffffffffffffffffffffffffffffffffffff168152602001908152602001600020548152602001908152602001600020600c01600082825461148d9190613200565b92505081905550600073ffffffffffffffffffffffffffffffffffffffff16600260003373ffffffffffffffffffffffffffffffffffffffff1673ffffffffffffffffffffffffffffffffffffffff16815260200190815260200160002060009054906101000a900473ffffffffffffffffffffffffffffffffffffffff1673ffffffffffffffffffffffffffffffffffffffff161461171957600080600060016000600260003373ffffffffffffffffffffffffffffffffffffffff1673ffffffffffffffffffffffffffffffffffffffff16815260200190815260200160002060009054906101000a900473ffffffffffffffffffffffffffffffffffffffff1673ffffffffffffffffffffffffffffffffffffffff1673ffffffffffffffffffffffffffffffffffffffff16815260200190815260200160002054815260200190815260200160002060000181905550600080600060016000600260003373ffffffffffffffffffffffffffffffffffffffff1673ffffffffffffffffffffffffffffffffffffffff16815260200190815260200160002060009054906101000a900473ffffffffffffffffffffffffffffffffffffffff1673ffffffffffffffffffffffffffffffffffffffff1673ffffffffffffffffffffffffffffffffffffffff168152602001908152602001600020548152602001908152602001600020600101819055506000600260003373ffffffffffffffffffffffffffffffffffffffff1673ffffffffffffffffffffffffffffffffffffffff16815260200190815260200160002060006101000a81548173ffffffffffffffffffffffffffffffffffffffff021916908373ffffffffffffffffffffffffffffffffffffffff1602179055505b6000806000600160003373ffffffffffffffffffffffffffffffffffffffff1673ffffffffffffffffffffffffffffffffffffffff16815260200190815260200160002054815260200190815260200160002060000181905550600080600160003373ffffffffffffffffffffffffffffffffffffffff1673ffffffffffffffffffffffffffffffffffffffff168152602001908152602001600020548152602001908152602001600020601001819080600181540180825580915050600190039060005260206000200160009091909190915055611899600080600160003373ffffffffffffffffffffffffffffffffffffffff1673ffffffffffffffffffffffffffffffffffffffff16815260200190815260200160002054815260200190815260200160002060100180548060200260200160405190810160405280929190818152602001828054801561188f57602002820191906000526020600020905b81548152602001906001019080831161187b575b50505050506110ba565b611944600080600160003373ffffffffffffffffffffffffffffffffffffffff1673ffffffffffffffffffffffffffffffffffffffff16815260200190815260200160002054815260200190815260200160002060100180548060200260200160405190810160405280929190818152602001828054801561193a57602002820191906000526020600020905b815481526020019060010190808311611926575b505050505061029e565b600080600160003373ffffffffffffffffffffffffffffffffffffffff1673ffffffffffffffffffffffffffffffffffffffff16815260200190815260200160002054815260200190815260200160002060130181905550611a4e600080600160003373ffffffffffffffffffffffffffffffffffffffff1673ffffffffffffffffffffffffffffffffffffffff168152602001908152602001600020548152602001908152602001600020600b0154600080600160003373ffffffffffffffffffffffffffffffffffffffff1673ffffffffffffffffffffffffffffffffffffffff168152602001908152602001600020548152602001908152602001600020600c01546129a6565b600080600160003373ffffffffffffffffffffffffffffffffffffffff1673ffffffffffffffffffffffffffffffffffffffff168152602001908152602001600020548152602001908152602001600020600d01819055506000915050612970565b80600e60009054906101000a900473ffffffffffffffffffffffffffffffffffffffff1673ffffffffffffffffffffffffffffffffffffffff1663dd62ed3e33306040518363ffffffff1660e01b8152600401611b0e929190612f7f565b60206040518083038186803b158015611b2657600080fd5b505afa158015611b3a573d6000803e3d6000fd5b505050506040513d601f19601f82011682018060405250810190611b5e9190612d49565b14611b9e576040517f08c379a0000000000000000000000000000000000000000000000000000000008152600401611b95906130e3565b60405180910390fd5b6000601260003373ffffffffffffffffffffffffffffffffffffffff1673ffffffffffffffffffffffffffffffffffffffff168152602001908152602001600020549050600060055490506000611c01611bfb6064600754612b1a565b836129a6565b905060006005905084600080600160003373ffffffffffffffffffffffffffffffffffffffff1673ffffffffffffffffffffffffffffffffffffffff1681526020019081526020016000205481526020019081526020016000206004015485611c6a9190613200565b14611caa576040517f08c379a0000000000000000000000000000000000000000000000000000000008152600401611ca190613123565b60405180910390fd5b600e60009054906101000a900473ffffffffffffffffffffffffffffffffffffffff1673ffffffffffffffffffffffffffffffffffffffff166323b872dd33600c60009054906101000a900473ffffffffffffffffffffffffffffffffffffffff16611d32611d236064876129ff90919063ffffffff16565b89612a1590919063ffffffff16565b6040518463ffffffff1660e01b8152600401611d5093929190612fa8565b602060405180830381600087803b158015611d6a57600080fd5b505af1158015611d7e573d6000803e3d6000fd5b505050506040513d601f19601f82011682018060405250810190611da29190612cef565b50600e60009054906101000a900473ffffffffffffffffffffffffffffffffffffffff1673ffffffffffffffffffffffffffffffffffffffff166323b872dd33600d60009054906101000a900473ffffffffffffffffffffffffffffffffffffffff16611e196002896129ff90919063ffffffff16565b6040518463ffffffff1660e01b8152600401611e3793929190612fa8565b602060405180830381600087803b158015611e5157600080fd5b505af1158015611e65573d6000803e3d6000fd5b505050506040513d601f19601f82011682018060405250810190611e899190612cef565b50600e60009054906101000a900473ffffffffffffffffffffffffffffffffffffffff1673ffffffffffffffffffffffffffffffffffffffff16632422703433611edd6002886129ff90919063ffffffff16565b6040518363ffffffff1660e01b8152600401611efa929190612fdf565b600060405180830381600087803b158015611f1457600080fd5b505af1158015611f28573d6000803e3d6000fd5b50505050600e60009054906101000a900473ffffffffffffffffffffffffffffffffffffffff1673ffffffffffffffffffffffffffffffffffffffff16632422703433600080600160003373ffffffffffffffffffffffffffffffffffffffff1673ffffffffffffffffffffffffffffffffffffffff168152602001908152602001600020548152602001908152602001600020600401546040518363ffffffff1660e01b8152600401611fdd929190612fdf565b600060405180830381600087803b158015611ff757600080fd5b505af115801561200b573d6000803e3d6000fd5b505050506000806000600160003373ffffffffffffffffffffffffffffffffffffffff1673ffffffffffffffffffffffffffffffffffffffff16815260200190815260200160002054815260200190815260200160002060050160006101000a81548160ff021916908315150217905550600754600080600160003373ffffffffffffffffffffffffffffffffffffffff1673ffffffffffffffffffffffffffffffffffffffff16815260200190815260200160002054815260200190815260200160002060010160008282546120e29190613200565b92505081905550601054600080600160003373ffffffffffffffffffffffffffffffffffffffff1673ffffffffffffffffffffffffffffffffffffffff168152602001908152602001600020548152602001908152602001600020600001541080156121b3575060011515600080600160003373ffffffffffffffffffffffffffffffffffffffff1673ffffffffffffffffffffffffffffffffffffffff16815260200190815260200160002054815260200190815260200160002060020160009054906101000a900460ff161515145b156122de57612218600080600160003373ffffffffffffffffffffffffffffffffffffffff1673ffffffffffffffffffffffffffffffffffffffff16815260200190815260200160002054815260200190815260200160002060000154600754612a85565b600080600160003373ffffffffffffffffffffffffffffffffffffffff1673ffffffffffffffffffffffffffffffffffffffff168152602001908152602001600020548152602001908152602001600020600001819055506000806000600160003373ffffffffffffffffffffffffffffffffffffffff1673ffffffffffffffffffffffffffffffffffffffff16815260200190815260200160002054815260200190815260200160002060020160006101000a81548160ff0219169083151502179055505b42600080600160003373ffffffffffffffffffffffffffffffffffffffff1673ffffffffffffffffffffffffffffffffffffffff16815260200190815260200160002054815260200190815260200160002060080181905550600754600080600160003373ffffffffffffffffffffffffffffffffffffffff1673ffffffffffffffffffffffffffffffffffffffff168152602001908152602001600020548152602001908152602001600020600a01600082825461239d9190613200565b9250508190555084600080600160003373ffffffffffffffffffffffffffffffffffffffff1673ffffffffffffffffffffffffffffffffffffffff168152602001908152602001600020548152602001908152602001600020600c0160008282546124089190613200565b92505081905550600080600160003373ffffffffffffffffffffffffffffffffffffffff1673ffffffffffffffffffffffffffffffffffffffff168152602001908152602001600020548152602001908152602001600020601101859080600181540180825580915050600190039060005260206000200160009091909190915055612535600080600160003373ffffffffffffffffffffffffffffffffffffffff1673ffffffffffffffffffffffffffffffffffffffff16815260200190815260200160002054815260200190815260200160002060110180548060200260200160405190810160405280929190818152602001828054801561252b57602002820191906000526020600020905b815481526020019060010190808311612517575b50505050506110ba565b6125e0600080600160003373ffffffffffffffffffffffffffffffffffffffff1673ffffffffffffffffffffffffffffffffffffffff1681526020019081526020016000205481526020019081526020016000206011018054806020026020016040519081016040528092919081815260200182805480156125d657602002820191906000526020600020905b8154815260200190600101908083116125c2575b505050505061029e565b600080600160003373ffffffffffffffffffffffffffffffffffffffff1673ffffffffffffffffffffffffffffffffffffffff168152602001908152602001600020548152602001908152602001600020601201819055506126ea600080600160003373ffffffffffffffffffffffffffffffffffffffff1673ffffffffffffffffffffffffffffffffffffffff168152602001908152602001600020548152602001908152602001600020600b0154600080600160003373ffffffffffffffffffffffffffffffffffffffff1673ffffffffffffffffffffffffffffffffffffffff168152602001908152602001600020548152602001908152602001600020600c01546129a6565b600080600160003373ffffffffffffffffffffffffffffffffffffffff1673ffffffffffffffffffffffffffffffffffffffff168152602001908152602001600020548152602001908152602001600020600d018190555060006127f6600080600160003373ffffffffffffffffffffffffffffffffffffffff1673ffffffffffffffffffffffffffffffffffffffff168152602001908152602001600020548152602001908152602001600020600a0154600080600160003373ffffffffffffffffffffffffffffffffffffffff1673ffffffffffffffffffffffffffffffffffffffff16815260200190815260200160002054815260200190815260200160002060090154612a85565b9050612856600080600160003373ffffffffffffffffffffffffffffffffffffffff1673ffffffffffffffffffffffffffffffffffffffff1681526020019081526020016000205481526020019081526020016000206009015482612ade565b600080600160003373ffffffffffffffffffffffffffffffffffffffff1673ffffffffffffffffffffffffffffffffffffffff168152602001908152602001600020548152602001908152602001600020600e018190555061290d6001600080600160003373ffffffffffffffffffffffffffffffffffffffff1673ffffffffffffffffffffffffffffffffffffffff168152602001908152602001600020548152602001908152602001600020600e01546129a6565b600080600160003373ffffffffffffffffffffffffffffffffffffffff1673ffffffffffffffffffffffffffffffffffffffff168152602001908152602001600020548152602001908152602001600020600f0181905550600196505050505050505b90565b60026020528060005260406000206000915054906101000a900473ffffffffffffffffffffffffffffffffffffffff1681565b60008282846129b591906132e1565b91508111156129f9576040517f08c379a00000000000000000000000000000000000000000000000000000000081526004016129f090613023565b60405180910390fd5b92915050565b60008183612a0d9190613256565b905092915050565b60008183612a239190613287565b905092915050565b6000670de0b6b3a7640000612a5d612a438585612b1a565b6002670de0b6b3a7640000612a589190613256565b612a85565b612a679190613256565b905092915050565b60008183612a7d91906132e1565b905092915050565b6000828284612a949190613200565b9150811015612ad8576040517f08c379a0000000000000000000000000000000000000000000000000000000008152600401612acf90613063565b60405180910390fd5b92915050565b600081612b08612af685670de0b6b3a7640000612b1a565b600285612b039190613256565b612a85565b612b129190613256565b905092915050565b600080821480612b42575082828385612b339190613287565b925082612b409190613256565b145b612b81576040517f08c379a0000000000000000000000000000000000000000000000000000000008152600401612b7890613043565b60405180910390fd5b92915050565b6000612b9a612b95846131c3565b61319e565b90508083825260208201905082856020860282011115612bbd57612bbc6134aa565b5b60005b85811015612bed5781612bd38882612c4f565b845260208401935060208301925050600181019050612bc0565b5050509392505050565b600081359050612c06816136ff565b92915050565b600082601f830112612c2157612c206134a5565b5b8135612c31848260208601612b87565b91505092915050565b600081519050612c4981613716565b92915050565b600081359050612c5e8161372d565b92915050565b600081519050612c738161372d565b92915050565b600060208284031215612c8f57612c8e6134b4565b5b6000612c9d84828501612bf7565b91505092915050565b600060208284031215612cbc57612cbb6134b4565b5b600082013567ffffffffffffffff811115612cda57612cd96134af565b5b612ce684828501612c0c565b91505092915050565b600060208284031215612d0557612d046134b4565b5b6000612d1384828501612c3a565b91505092915050565b600060208284031215612d3257612d316134b4565b5b6000612d4084828501612c4f565b91505092915050565b600060208284031215612d5f57612d5e6134b4565b5b6000612d6d84828501612c64565b91505092915050565b60008060408385031215612d8d57612d8c6134b4565b5b6000612d9b85828601612c4f565b9250506020612dac85828601612c4f565b9150509250929050565b612dbf81613315565b82525050565b612dce81613327565b82525050565b6000612de16015836131ef565b9150612dec826134ca565b602082019050919050565b6000612e046014836131ef565b9150612e0f826134f3565b602082019050919050565b6000612e276014836131ef565b9150612e328261351c565b602082019050919050565b6000612e4a6016836131ef565b9150612e5582613545565b602082019050919050565b6000612e6d601c836131ef565b9150612e788261356e565b602082019050919050565b6000612e906015836131ef565b9150612e9b82613597565b602082019050919050565b6000612eb3601e836131ef565b9150612ebe826135c0565b602082019050919050565b6000612ed66027836131ef565b9150612ee1826135e9565b604082019050919050565b6000612ef9600a836131ef565b9150612f0482613638565b602082019050919050565b6000612f1c603f836131ef565b9150612f2782613661565b604082019050919050565b6000612f3f602a836131ef565b9150612f4a826136b0565b604082019050919050565b612f5e81613353565b82525050565b6000602082019050612f796000830184612db6565b92915050565b6000604082019050612f946000830185612db6565b612fa16020830184612db6565b9392505050565b6000606082019050612fbd6000830186612db6565b612fca6020830185612db6565b612fd76040830184612f55565b949350505050565b6000604082019050612ff46000830185612db6565b6130016020830184612f55565b9392505050565b600060208201905061301d6000830184612dc5565b92915050565b6000602082019050818103600083015261303c81612dd4565b9050919050565b6000602082019050818103600083015261305c81612df7565b9050919050565b6000602082019050818103600083015261307c81612e1a565b9050919050565b6000602082019050818103600083015261309c81612e3d565b9050919050565b600060208201905081810360008301526130bc81612e60565b9050919050565b600060208201905081810360008301526130dc81612e83565b9050919050565b600060208201905081810360008301526130fc81612ea6565b9050919050565b6000602082019050818103600083015261311c81612ec9565b9050919050565b6000602082019050818103600083015261313c81612eec565b9050919050565b6000602082019050818103600083015261315c81612f0f565b9050919050565b6000602082019050818103600083015261317c81612f32565b9050919050565b60006020820190506131986000830184612f55565b92915050565b60006131a86131b9565b90506131b48282613387565b919050565b6000604051905090565b600067ffffffffffffffff8211156131de576131dd613476565b5b602082029050602081019050919050565b600082825260208201905092915050565b600061320b82613353565b915061321683613353565b9250827fffffffffffffffffffffffffffffffffffffffffffffffffffffffffffffffff0382111561324b5761324a6133e9565b5b828201905092915050565b600061326182613353565b915061326c83613353565b92508261327c5761327b613418565b5b828204905092915050565b600061329282613353565b915061329d83613353565b9250817fffffffffffffffffffffffffffffffffffffffffffffffffffffffffffffffff04831182151516156132d6576132d56133e9565b5b828202905092915050565b60006132ec82613353565b91506132f783613353565b92508282101561330a576133096133e9565b5b828203905092915050565b600061332082613333565b9050919050565b60008115159050919050565b600073ffffffffffffffffffffffffffffffffffffffff82169050919050565b6000819050919050565b600061336882613353565b9150600082141561337c5761337b6133e9565b5b600182039050919050565b613390826134b9565b810181811067ffffffffffffffff821117156133af576133ae613476565b5b80604052505050565b60006133c382613353565b91506133ce83613353565b9250826133de576133dd613418565b5b828206905092915050565b7f4e487b7100000000000000000000000000000000000000000000000000000000600052601160045260246000fd5b7f4e487b7100000000000000000000000000000000000000000000000000000000600052601260045260246000fd5b7f4e487b7100000000000000000000000000000000000000000000000000000000600052603260045260246000fd5b7f4e487b7100000000000000000000000000000000000000000000000000000000600052604160045260246000fd5b600080fd5b600080fd5b600080fd5b600080fd5b6000601f19601f8301169050919050565b7f64732d6d6174682d7375622d756e646572666c6f770000000000000000000000600082015250565b7f64732d6d6174682d6d756c2d6f766572666c6f77000000000000000000000000600082015250565b7f64732d6d6174682d6164642d6f766572666c6f77000000000000000000000000600082015250565b7f766f7563686565206c6576656c206973206e6f74203000000000000000000000600082015250565b7f796f7520617265207374696c6c20756e64657220636f6f6c646f776e00000000600082015250565b7f796f7572206c6576656c20697320746f6f206c6f770000000000000000000000600082015250565b7f706c6561736520617070726f766520726571756972656420616d6f756e740000600082015250565b7f706c6561736520636f6e6669726d20796f7572207072696d617279206372656460008201527f6974206361726400000000000000000000000000000000000000000000000000602082015250565b7f6d617468206572726f7200000000000000000000000000000000000000000000600082015250565b7f596f75206861766520616c72656164792074616b656e2061206c6f616e2c207060008201527f6c656173652072652d70617920746f2074616b652061206e6577206c6f616e00602082015250565b7f796f7520646f206e6f7420686176652061206869676820656e6f75676820637260008201527f656469742073636f726500000000000000000000000000000000000000000000602082015250565b61370881613315565b811461371357600080fd5b50565b61371f81613327565b811461372a57600080fd5b50565b61373681613353565b811461374157600080fd5b5056fea26469706673582212206de357c4bed3fa48508d52248cbe64a13b251ac85503cb87eafeee9ed7b0ff9464736f6c63430008070033",
  "immutableReferences": {},
  "source": "// SPDX-License-Identifier: MIT\npragma solidity ^0.8.7;\nimport \"@openzeppelin/contracts/utils/math/SafeMath.sol\";\nimport \"../Token/IERC20.sol\";\nimport \"@openzeppelin/contracts/token/ERC20/IERC20.sol\";\nimport \"./vouching.sol\";\nimport \"./Array/Arrayfuncs.sol\";\nimport \"./ds-math/math.sol\";\n\ncontract Loaning is vouching(address(this)),Arrayfuncs,DSMath {\nusing SafeMath for uint256;\nuint burner=80*adj;\nuint rate=20;\n\n//Neutron token=new Neutron(msg.sender,address(this));\nuint adj=10**18; //decimal adjustment\naddress reciever; //the address of this contract\naddress allowedcon;\naddress allowedcon2;\naddress governor;\naddress _owner;\naddress treasury;\n_IERC20 token;\nIArrayfuncs calc;\nuint lim;\nuint cooldown;\nmapping (address=>uint256) I2;\nconstructor(){\n_owner=msg.sender;\ntreasury=_owner;\n\n}\n//cred[Primary[msg.sender]].\nmodifier only_owner(){\n    require(msg.sender==_owner);\n_;}\nfunction set(address tk)public{\n    token=_IERC20(tk);\n}\n\n//function to take loan\nfunction takeloan (uint tier) public payable{\nrequire(Primary[msg.sender]!=0,\"please confirm your primary credit card\");\nrequire(sub(block.timestamp,cred[Primary[msg.sender]].timer)>=cooldown,\"you are still under cooldown\"); //so no loan spams\nrequire(cred[Primary[msg.sender]].creditsc_c>=tier*adj,\"you do not have a high enough credit score\");\nrequire(tier>0);\nrequire(!cred[Primary[msg.sender]].pending,\"You have already taken a loan, please re-pay to take a new loan\");\nuint interest;\ncred[Primary[msg.sender]].amount=100*wpow((adj+adj/10),tier); //amount calc\ntoken.mint(msg.sender,cred[Primary[msg.sender]].amount);\ninterest=wmul(cred[Primary[msg.sender]].amount,(rate.mul(adj.div(100))));//20%,interest+1% admin fee\nuint x=wmul(cred[Primary[msg.sender]].Rrate,cred[Primary[msg.sender]].medianL);\nuint l=wmul(cred[Primary[msg.sender]].defexpo,cred[Primary[msg.sender]].Drate);\n//\nI2[msg.sender]=wmul(x.sub(l),(interest));\ncred[Primary[msg.sender]].principal=add(cred[Primary[msg.sender]].amount,I2[msg.sender]);\ncred[Primary[msg.sender]].pending=true;\ncred[Primary[msg.sender]].time=block.timestamp;\nif(tier==cred[Primary[msg.sender]].creditsc_c)\ncred[Primary[msg.sender]]._match==true;\n}\n//repayment rate calc: rrate=1-Drate; //R\n//defult rate calc: drate=(defults/(repayed+defults));\nfunction returnloan() public returns(bool){\n//I2 = (R*M2-D*H)*I-Ix\n require(cred[Primary[msg.sender]].pending=true);\n uint P2=cred[Primary[msg.sender]].principal;\n if(block.timestamp.sub(cred[Primary[msg.sender]].time)>420000){\n     cred[Primary[msg.sender]].creditsc_uc=0;\n     cred[Primary[msg.sender]].creditsc_c=0;\n     cred[Primary[msg.sender]].defults+=adj;\n     cred[Primary[msg.sender]].Dtotal+=P2;\n     if(friend[msg.sender]!=address(0)){\n         cred[Primary[friend[msg.sender]]].creditsc_c=0;\n         cred[Primary[friend[msg.sender]]].creditsc_uc=0;\n         friend[msg.sender]=address(0);\n     }\n     cred[Primary[msg.sender]].creditsc_c=0; //why?\n     cred[Primary[msg.sender]].princeD.push(P2);\nsortA(cred[Primary[msg.sender]].princeD);\ncred[Primary[msg.sender]].medianD=getmedian(cred[Primary[msg.sender]].princeD);//M1\ncred[Primary[msg.sender]].defexpo=sub(cred[Primary[msg.sender]].Ltotal,cred[Primary[msg.sender]].Dtotal); //D\n     return false;\n }\n else{\nrequire(token.allowance(msg.sender,address(this))==P2,\"please approve required amount\");\n\nuint interest=I2[msg.sender];\nuint burning=burner;\nuint treasurym=sub(mul(100,adj),burning);\nuint ownerm=5;\n\n\nrequire(interest+cred[Primary[msg.sender]].amount==P2,\"math error\");\n\ntoken.transferFrom(msg.sender,_owner,interest.mul(ownerm.div(100)));\ntoken.transferFrom(msg.sender,treasury,interest.div(2));//mul(treasurym.div(100)));\ntoken.burnfrom(msg.sender,interest.div(2));//mul(burning.div(100)));\ntoken.burnfrom(msg.sender,cred[Primary[msg.sender]].amount);\n\n //replace with burn //math to calc P2 needs to be checked\n cred[Primary[msg.sender]].pending=false;\n cred[Primary[msg.sender]].creditsc_uc+=adj;\n\n //decide if to increase credit score, (checks if under limit)\n if(cred[Primary[msg.sender]].creditsc_c<lim &&cred[Primary[msg.sender]]. _match==true){\n cred[Primary[msg.sender]].creditsc_c=add(cred[Primary[msg.sender]].creditsc_c,adj);\n cred[Primary[msg.sender]]._match=false;\n //sets cooldown before next loan.\n}\n cred[Primary[msg.sender]].timer=block.timestamp;  //marks time when last loan was returned\n\n\n //second if\n\n //first if\n cred[Primary[msg.sender]].repayed+=adj;\n cred[Primary[msg.sender]].Dtotal+=P2;\n cred[Primary[msg.sender]].princeL.push(P2);\n sortA(cred[Primary[msg.sender]].princeL);\n cred[Primary[msg.sender]].medianL=getmedian(cred[Primary[msg.sender]].princeL);//M2\ncred[Primary[msg.sender]].defexpo=sub(cred[Primary[msg.sender]].Ltotal,cred[Primary[msg.sender]].Dtotal); //D\nuint x=add(cred[Primary[msg.sender]].repayed,cred[Primary[msg.sender]].defults);\ncred[Primary[msg.sender]].Drate=wdiv(cred[Primary[msg.sender]].defults,x);//H\n\ncred[Primary[msg.sender]].Rrate=sub(1,cred[Primary[msg.sender]].Drate);//R\n return true;\n\n\n }//outermost if/else\n\n}\nfunction freemoney() public  payable{\n    token.mint(msg.sender,(1000*adj));\n}\n/*function setgovernor(address _governor) public only_owner returns(bool){\n\n    governor=_governor;\n    return true;\n}// set governor contract*/\nfunction increment(address pardonee)public{\n    //require(msg.sender==allowedcon||msg.sender==allowedcon2,\"you do not have permission to do this action.\");\n    cred[Primary[pardonee]].creditsc_c==1;\n    cred[Primary[pardonee]].creditsc_uc==1;\n\n}\n\n\n}\n",
  "sourcePath": "/Users/vibhu/node_manager/node_modules/Solidity/Zeno/contracts/Lending/Lending-main.sol",
  "compiler": {
    "name": "solc",
    "version": "0.8.7+commit.e28d00a7.Emscripten.clang"
  },
  "schemaVersion": "3.4.7",
  "updatedAt": "2022-05-18T03:50:21.805Z",
  "networkType": "ethereum",
  "devdoc": {
    "kind": "dev",
    "methods": {},
    "version": 1
  },
  "userdoc": {
    "kind": "user",
    "methods": {},
    "version": 1
  }
}