{
  "contractName": "Loaning",
  "abi": [
    {
      "inputs": [],
      "stateMutability": "nonpayable",
      "type": "constructor"
    },
    {
      "inputs": [
        {
          "internalType": "address",
          "name": "",
          "type": "address"
        }
      ],
      "name": "friend",
      "outputs": [
        {
          "internalType": "address",
          "name": "",
          "type": "address"
        }
      ],
      "stateMutability": "view",
      "type": "function",
      "constant": true
    },
    {
      "inputs": [
        {
          "internalType": "uint256[]",
          "name": "amts",
          "type": "uint256[]"
        }
      ],
      "name": "getmedian",
      "outputs": [
        {
          "internalType": "uint256",
          "name": "median",
          "type": "uint256"
        }
      ],
      "stateMutability": "pure",
      "type": "function",
      "constant": true
    },
    {
      "inputs": [
        {
          "internalType": "uint256[]",
          "name": "amts",
          "type": "uint256[]"
        }
      ],
      "name": "sortA",
      "outputs": [],
      "stateMutability": "pure",
      "type": "function",
      "constant": true
    },
    {
      "inputs": [
        {
          "internalType": "address",
          "name": "vouchee",
          "type": "address"
        }
      ],
      "name": "vouch",
      "outputs": [
        {
          "internalType": "bool",
          "name": "success",
          "type": "bool"
        }
      ],
      "stateMutability": "nonpayable",
      "type": "function"
    },
    {
      "inputs": [
        {
          "internalType": "uint256",
          "name": "x",
          "type": "uint256"
        },
        {
          "internalType": "uint256",
          "name": "n",
          "type": "uint256"
        }
      ],
      "name": "wpow",
      "outputs": [
        {
          "internalType": "uint256",
          "name": "z",
          "type": "uint256"
        }
      ],
      "stateMutability": "pure",
      "type": "function",
      "constant": true
    },
    {
      "inputs": [
        {
          "internalType": "uint256",
          "name": "x",
          "type": "uint256"
        }
      ],
      "name": "wsqrt",
      "outputs": [
        {
          "internalType": "uint256",
          "name": "y",
          "type": "uint256"
        }
      ],
      "stateMutability": "pure",
      "type": "function",
      "constant": true
    },
    {
      "inputs": [
        {
          "internalType": "address",
          "name": "tk",
          "type": "address"
        }
      ],
      "name": "set",
      "outputs": [],
      "stateMutability": "nonpayable",
      "type": "function"
    },
    {
      "inputs": [
        {
          "internalType": "uint256",
          "name": "tier",
          "type": "uint256"
        }
      ],
      "name": "takeloan",
      "outputs": [],
      "stateMutability": "payable",
      "type": "function",
      "payable": true
    },
    {
      "inputs": [],
      "name": "returnloan",
      "outputs": [
        {
          "internalType": "bool",
          "name": "",
          "type": "bool"
        }
      ],
      "stateMutability": "nonpayable",
      "type": "function"
    },
    {
      "inputs": [],
      "name": "freemoney",
      "outputs": [],
      "stateMutability": "payable",
      "type": "function",
      "payable": true
    },
    {
      "inputs": [
        {
          "internalType": "address",
          "name": "pardonee",
          "type": "address"
        }
      ],
      "name": "increment",
      "outputs": [],
      "stateMutability": "nonpayable",
      "type": "function"
    }
  ],
  "bytecode": "0x6080604052600754605062000015919062000187565b6005556014600655670de0b6b3a76400006007553480156200003657600080fd5b503080600460006101000a81548173ffffffffffffffffffffffffffffffffffffffff021916908373ffffffffffffffffffffffffffffffffffffffff160217905550600460009054906101000a900473ffffffffffffffffffffffffffffffffffffffff16600360006101000a81548173ffffffffffffffffffffffffffffffffffffffff021916908373ffffffffffffffffffffffffffffffffffffffff1602179055505033600c60006101000a81548173ffffffffffffffffffffffffffffffffffffffff021916908373ffffffffffffffffffffffffffffffffffffffff160217905550600c60009054906101000a900473ffffffffffffffffffffffffffffffffffffffff16600d60006101000a81548173ffffffffffffffffffffffffffffffffffffffff021916908373ffffffffffffffffffffffffffffffffffffffff16021790555062000221565b60006200019482620001e8565b9150620001a183620001e8565b9250817fffffffffffffffffffffffffffffffffffffffffffffffffffffffffffffffff0483118215151615620001dd57620001dc620001f2565b5b828202905092915050565b6000819050919050565b7f4e487b7100000000000000000000000000000000000000000000000000000000600052601160045260246000fd5b6138f480620002316000396000f3fe60806040526004361061009c5760003560e01c806393eb1cce1161006457806393eb1cce14610189578063c16c6fc2146101c6578063dd66e16b146101d0578063e340d56b1461020d578063ebacef7814610236578063fef5a10e146102615761009c565b806302ebb44d146100a15780632801617e146100de57806345f43dd8146101075780635f6e557514610130578063672f8e4f1461014c575b600080fd5b3480156100ad57600080fd5b506100c860048036038101906100c39190612e20565b61029e565b6040516100d591906132fd565b60405180910390f35b3480156100ea57600080fd5b5061010560048036038101906101009190612df3565b6102d4565b005b34801561011357600080fd5b5061012e60048036038101906101299190612df3565b610318565b005b61014a60048036038101906101459190612e96565b6103c5565b005b34801561015857600080fd5b50610173600480360381019061016e9190612ef0565b610c87565b60405161018091906132fd565b60405180910390f35b34801561019557600080fd5b506101b060048036038101906101ab9190612e96565b610d0e565b6040516101bd91906132fd565b60405180910390f35b6101ce610d69565b005b3480156101dc57600080fd5b506101f760048036038101906101f29190612df3565b610e09565b6040516102049190613182565b60405180910390f35b34801561021957600080fd5b50610234600480360381019061022f9190612e20565b6110bf565b005b34801561024257600080fd5b5061024b6111cc565b6040516102589190613182565b60405180910390f35b34801561026d57600080fd5b5061028860048036038101906102839190612df3565b612aed565b60405161029591906130de565b60405180910390f35b600080600283516102af91906133d0565b90508281815181106102c4576102c36135c1565b5b6020026020010151915050919050565b80600e60006101000a81548173ffffffffffffffffffffffffffffffffffffffff021916908373ffffffffffffffffffffffffffffffffffffffff16021790555050565b6001600080600160008573ffffffffffffffffffffffffffffffffffffffff1673ffffffffffffffffffffffffffffffffffffffff16815260200190815260200160002054815260200190815260200160002050506001600080600160008573ffffffffffffffffffffffffffffffffffffffff1673ffffffffffffffffffffffffffffffffffffffff168152602001908152602001600020548152602001908152602001600020505050565b6000600160003373ffffffffffffffffffffffffffffffffffffffff1673ffffffffffffffffffffffffffffffffffffffff168152602001908152602001600020541415610448576040517f08c379a000000000000000000000000000000000000000000000000000000000815260040161043f9061327d565b60405180910390fd5b6011546104a942600080600160003373ffffffffffffffffffffffffffffffffffffffff1673ffffffffffffffffffffffffffffffffffffffff16815260200190815260200160002054815260200190815260200160002060080154612b20565b10156104ea576040517f08c379a00000000000000000000000000000000000000000000000000000000081526004016104e19061321d565b60405180910390fd5b600754816104f89190613401565b600080600160003373ffffffffffffffffffffffffffffffffffffffff1673ffffffffffffffffffffffffffffffffffffffff16815260200190815260200160002054815260200190815260200160002060000154101561058e576040517f08c379a0000000000000000000000000000000000000000000000000000000008152600401610585906132dd565b60405180910390fd5b6000811161059b57600080fd5b600080600160003373ffffffffffffffffffffffffffffffffffffffff1673ffffffffffffffffffffffffffffffffffffffff16815260200190815260200160002054815260200190815260200160002060050160009054906101000a900460ff161561063d576040517f08c379a0000000000000000000000000000000000000000000000000000000008152600401610634906132bd565b60405180910390fd5b600061066961066360075461065e600a600754612b7990919063ffffffff16565b612b8f565b83610c87565b60646106759190613401565b600080600160003373ffffffffffffffffffffffffffffffffffffffff1673ffffffffffffffffffffffffffffffffffffffff16815260200190815260200160002054815260200190815260200160002060040181905550600e60009054906101000a900473ffffffffffffffffffffffffffffffffffffffff1673ffffffffffffffffffffffffffffffffffffffff166340c10f1933600080600160003373ffffffffffffffffffffffffffffffffffffffff1673ffffffffffffffffffffffffffffffffffffffff168152602001908152602001600020548152602001908152602001600020600401546040518363ffffffff1660e01b815260040161077e929190613159565b600060405180830381600087803b15801561079857600080fd5b505af11580156107ac573d6000803e3d6000fd5b50505050610837600080600160003373ffffffffffffffffffffffffffffffffffffffff1673ffffffffffffffffffffffffffffffffffffffff168152602001908152602001600020548152602001908152602001600020600401546108326108216064600754612b7990919063ffffffff16565b600654612be890919063ffffffff16565b612bfe565b905060006108ed600080600160003373ffffffffffffffffffffffffffffffffffffffff1673ffffffffffffffffffffffffffffffffffffffff168152602001908152602001600020548152602001908152602001600020600f0154600080600160003373ffffffffffffffffffffffffffffffffffffffff1673ffffffffffffffffffffffffffffffffffffffff16815260200190815260200160002054815260200190815260200160002060120154612bfe565b905060006109a3600080600160003373ffffffffffffffffffffffffffffffffffffffff1673ffffffffffffffffffffffffffffffffffffffff168152602001908152602001600020548152602001908152602001600020600d0154600080600160003373ffffffffffffffffffffffffffffffffffffffff1673ffffffffffffffffffffffffffffffffffffffff168152602001908152602001600020548152602001908152602001600020600e0154612bfe565b90506109c16109bb8284612c4290919063ffffffff16565b84612bfe565b601260003373ffffffffffffffffffffffffffffffffffffffff1673ffffffffffffffffffffffffffffffffffffffff16815260200190815260200160002081905550610aa1600080600160003373ffffffffffffffffffffffffffffffffffffffff1673ffffffffffffffffffffffffffffffffffffffff16815260200190815260200160002054815260200190815260200160002060040154601260003373ffffffffffffffffffffffffffffffffffffffff1673ffffffffffffffffffffffffffffffffffffffff16815260200190815260200160002054612b8f565b600080600160003373ffffffffffffffffffffffffffffffffffffffff1673ffffffffffffffffffffffffffffffffffffffff168152602001908152602001600020548152602001908152602001600020600301819055506001600080600160003373ffffffffffffffffffffffffffffffffffffffff1673ffffffffffffffffffffffffffffffffffffffff16815260200190815260200160002054815260200190815260200160002060050160006101000a81548160ff02191690831515021790555042600080600160003373ffffffffffffffffffffffffffffffffffffffff1673ffffffffffffffffffffffffffffffffffffffff16815260200190815260200160002054815260200190815260200160002060070181905550600080600160003373ffffffffffffffffffffffffffffffffffffffff1673ffffffffffffffffffffffffffffffffffffffff16815260200190815260200160002054815260200190815260200160002060000154841415610c815760011515600080600160003373ffffffffffffffffffffffffffffffffffffffff1673ffffffffffffffffffffffffffffffffffffffff16815260200190815260200160002054815260200190815260200160002060020160009054906101000a905050505b50505050565b600080600283610c979190613532565b1415610cab57670de0b6b3a7640000610cad565b825b9050600282610cbc91906133d0565b91505b60008214610d0857610cd18384612bfe565b92506000600283610ce29190613532565b14610cf457610cf18184612bfe565b90505b600282610d0191906133d0565b9150610cbf565b92915050565b6000806002600184610d20919061337a565b610d2a91906133d0565b90508291505b81811015610d6357809150600281610d488584612c58565b610d52919061337a565b610d5c91906133d0565b9050610d30565b50919050565b600e60009054906101000a900473ffffffffffffffffffffffffffffffffffffffff1673ffffffffffffffffffffffffffffffffffffffff166340c10f19336007546103e8610db89190613401565b6040518363ffffffff1660e01b8152600401610dd5929190613159565b600060405180830381600087803b158015610def57600080fd5b505af1158015610e03573d6000803e3d6000fd5b50505050565b6000801515600080600160003373ffffffffffffffffffffffffffffffffffffffff1673ffffffffffffffffffffffffffffffffffffffff16815260200190815260200160002054815260200190815260200160002060050160009054906101000a900460ff16151514610e7c57600080fd5b6006600080600160003373ffffffffffffffffffffffffffffffffffffffff1673ffffffffffffffffffffffffffffffffffffffff168152602001908152602001600020548152602001908152602001600020600001541015610f14576040517f08c379a0000000000000000000000000000000000000000000000000000000008152600401610f0b9061323d565b60405180910390fd5b6000806000600160008673ffffffffffffffffffffffffffffffffffffffff1673ffffffffffffffffffffffffffffffffffffffff1681526020019081526020016000205481526020019081526020016000206000015414610fab576040517f08c379a0000000000000000000000000000000000000000000000000000000008152600401610fa2906131fd565b60405180910390fd5b33600260008473ffffffffffffffffffffffffffffffffffffffff1673ffffffffffffffffffffffffffffffffffffffff16815260200190815260200160002060006101000a81548173ffffffffffffffffffffffffffffffffffffffff021916908373ffffffffffffffffffffffffffffffffffffffff160217905550600360009054906101000a900473ffffffffffffffffffffffffffffffffffffffff1673ffffffffffffffffffffffffffffffffffffffff166345f43dd8836040518263ffffffff1660e01b815260040161108491906130de565b600060405180830381600087803b15801561109e57600080fd5b505af11580156110b2573d6000803e3d6000fd5b5050505060019050919050565b600080600183516110d0919061345b565b91505b60008211156111c757826001836110ea919061345b565b815181106110fb576110fa6135c1565b5b6020026020010151838381518110611116576111156135c1565b5b602002602001015110156111b457828281518110611137576111366135c1565b5b602002602001015190508260018361114f919061345b565b815181106111605761115f6135c1565b5b602002602001015183838151811061117b5761117a6135c1565b5b6020026020010181815250508083600184611196919061345b565b815181106111a7576111a66135c1565b5b6020026020010181815250505b81806111bf906134d7565b9250506110d3565b505050565b60006001600080600160003373ffffffffffffffffffffffffffffffffffffffff1673ffffffffffffffffffffffffffffffffffffffff16815260200190815260200160002054815260200190815260200160002060050160006101000a81548160ff021916908315150217905561124357600080fd5b6000806000600160003373ffffffffffffffffffffffffffffffffffffffff1673ffffffffffffffffffffffffffffffffffffffff168152602001908152602001600020548152602001908152602001600020600301549050620668a0611307600080600160003373ffffffffffffffffffffffffffffffffffffffff1673ffffffffffffffffffffffffffffffffffffffff1681526020019081526020016000205481526020019081526020016000206007015442612c4290919063ffffffff16565b1115611b4b576000806000600160003373ffffffffffffffffffffffffffffffffffffffff1673ffffffffffffffffffffffffffffffffffffffff168152602001908152602001600020548152602001908152602001600020600101819055506000806000600160003373ffffffffffffffffffffffffffffffffffffffff1673ffffffffffffffffffffffffffffffffffffffff16815260200190815260200160002054815260200190815260200160002060000181905550611421600080600160003373ffffffffffffffffffffffffffffffffffffffff1673ffffffffffffffffffffffffffffffffffffffff16815260200190815260200160002054815260200190815260200160002060090154600754612b8f565b600080600160003373ffffffffffffffffffffffffffffffffffffffff1673ffffffffffffffffffffffffffffffffffffffff168152602001908152602001600020548152602001908152602001600020600901819055506114d7600080600160003373ffffffffffffffffffffffffffffffffffffffff1673ffffffffffffffffffffffffffffffffffffffff168152602001908152602001600020548152602001908152602001600020600c015482612b8f565b600080600160003373ffffffffffffffffffffffffffffffffffffffff1673ffffffffffffffffffffffffffffffffffffffff168152602001908152602001600020548152602001908152602001600020600c0181905550600073ffffffffffffffffffffffffffffffffffffffff16600260003373ffffffffffffffffffffffffffffffffffffffff1673ffffffffffffffffffffffffffffffffffffffff16815260200190815260200160002060009054906101000a900473ffffffffffffffffffffffffffffffffffffffff1673ffffffffffffffffffffffffffffffffffffffff16146117b457600080600060016000600260003373ffffffffffffffffffffffffffffffffffffffff1673ffffffffffffffffffffffffffffffffffffffff16815260200190815260200160002060009054906101000a900473ffffffffffffffffffffffffffffffffffffffff1673ffffffffffffffffffffffffffffffffffffffff1673ffffffffffffffffffffffffffffffffffffffff16815260200190815260200160002054815260200190815260200160002060000181905550600080600060016000600260003373ffffffffffffffffffffffffffffffffffffffff1673ffffffffffffffffffffffffffffffffffffffff16815260200190815260200160002060009054906101000a900473ffffffffffffffffffffffffffffffffffffffff1673ffffffffffffffffffffffffffffffffffffffff1673ffffffffffffffffffffffffffffffffffffffff168152602001908152602001600020548152602001908152602001600020600101819055506000600260003373ffffffffffffffffffffffffffffffffffffffff1673ffffffffffffffffffffffffffffffffffffffff16815260200190815260200160002060006101000a81548173ffffffffffffffffffffffffffffffffffffffff021916908373ffffffffffffffffffffffffffffffffffffffff1602179055505b6000806000600160003373ffffffffffffffffffffffffffffffffffffffff1673ffffffffffffffffffffffffffffffffffffffff16815260200190815260200160002054815260200190815260200160002060000181905550600080600160003373ffffffffffffffffffffffffffffffffffffffff1673ffffffffffffffffffffffffffffffffffffffff168152602001908152602001600020548152602001908152602001600020601001819080600181540180825580915050600190039060005260206000200160009091909190915055611934600080600160003373ffffffffffffffffffffffffffffffffffffffff1673ffffffffffffffffffffffffffffffffffffffff16815260200190815260200160002054815260200190815260200160002060100180548060200260200160405190810160405280929190818152602001828054801561192a57602002820191906000526020600020905b815481526020019060010190808311611916575b50505050506110bf565b6119df600080600160003373ffffffffffffffffffffffffffffffffffffffff1673ffffffffffffffffffffffffffffffffffffffff1681526020019081526020016000205481526020019081526020016000206010018054806020026020016040519081016040528092919081815260200182805480156119d557602002820191906000526020600020905b8154815260200190600101908083116119c1575b505050505061029e565b600080600160003373ffffffffffffffffffffffffffffffffffffffff1673ffffffffffffffffffffffffffffffffffffffff16815260200190815260200160002054815260200190815260200160002060130181905550611ae9600080600160003373ffffffffffffffffffffffffffffffffffffffff1673ffffffffffffffffffffffffffffffffffffffff168152602001908152602001600020548152602001908152602001600020600b0154600080600160003373ffffffffffffffffffffffffffffffffffffffff1673ffffffffffffffffffffffffffffffffffffffff168152602001908152602001600020548152602001908152602001600020600c0154612b20565b600080600160003373ffffffffffffffffffffffffffffffffffffffff1673ffffffffffffffffffffffffffffffffffffffff168152602001908152602001600020548152602001908152602001600020600d01819055506000915050612aea565b80600e60009054906101000a900473ffffffffffffffffffffffffffffffffffffffff1673ffffffffffffffffffffffffffffffffffffffff1663dd62ed3e33306040518363ffffffff1660e01b8152600401611ba99291906130f9565b60206040518083038186803b158015611bc157600080fd5b505afa158015611bd5573d6000803e3d6000fd5b505050506040513d601f19601f82011682018060405250810190611bf99190612ec3565b14611c39576040517f08c379a0000000000000000000000000000000000000000000000000000000008152600401611c309061325d565b60405180910390fd5b6000601260003373ffffffffffffffffffffffffffffffffffffffff1673ffffffffffffffffffffffffffffffffffffffff168152602001908152602001600020549050600060055490506000611c9c611c966064600754612c94565b83612b20565b905060006005905084611d0385600080600160003373ffffffffffffffffffffffffffffffffffffffff1673ffffffffffffffffffffffffffffffffffffffff16815260200190815260200160002054815260200190815260200160002060040154612b8f565b14611d43576040517f08c379a0000000000000000000000000000000000000000000000000000000008152600401611d3a9061329d565b60405180910390fd5b600e60009054906101000a900473ffffffffffffffffffffffffffffffffffffffff1673ffffffffffffffffffffffffffffffffffffffff166323b872dd33600c60009054906101000a900473ffffffffffffffffffffffffffffffffffffffff16611dcb611dbc606487612b7990919063ffffffff16565b89612be890919063ffffffff16565b6040518463ffffffff1660e01b8152600401611de993929190613122565b602060405180830381600087803b158015611e0357600080fd5b505af1158015611e17573d6000803e3d6000fd5b505050506040513d601f19601f82011682018060405250810190611e3b9190612e69565b50600e60009054906101000a900473ffffffffffffffffffffffffffffffffffffffff1673ffffffffffffffffffffffffffffffffffffffff166323b872dd33600d60009054906101000a900473ffffffffffffffffffffffffffffffffffffffff16611eb2600289612b7990919063ffffffff16565b6040518463ffffffff1660e01b8152600401611ed093929190613122565b602060405180830381600087803b158015611eea57600080fd5b505af1158015611efe573d6000803e3d6000fd5b505050506040513d601f19601f82011682018060405250810190611f229190612e69565b50600e60009054906101000a900473ffffffffffffffffffffffffffffffffffffffff1673ffffffffffffffffffffffffffffffffffffffff16632422703433611f76600288612b7990919063ffffffff16565b6040518363ffffffff1660e01b8152600401611f93929190613159565b600060405180830381600087803b158015611fad57600080fd5b505af1158015611fc1573d6000803e3d6000fd5b50505050600e60009054906101000a900473ffffffffffffffffffffffffffffffffffffffff1673ffffffffffffffffffffffffffffffffffffffff16632422703433600080600160003373ffffffffffffffffffffffffffffffffffffffff1673ffffffffffffffffffffffffffffffffffffffff168152602001908152602001600020548152602001908152602001600020600401546040518363ffffffff1660e01b8152600401612076929190613159565b600060405180830381600087803b15801561209057600080fd5b505af11580156120a4573d6000803e3d6000fd5b505050506000806000600160003373ffffffffffffffffffffffffffffffffffffffff1673ffffffffffffffffffffffffffffffffffffffff16815260200190815260200160002054815260200190815260200160002060050160006101000a81548160ff021916908315150217905550612175600080600160003373ffffffffffffffffffffffffffffffffffffffff1673ffffffffffffffffffffffffffffffffffffffff16815260200190815260200160002054815260200190815260200160002060010154600754612b8f565b600080600160003373ffffffffffffffffffffffffffffffffffffffff1673ffffffffffffffffffffffffffffffffffffffff16815260200190815260200160002054815260200190815260200160002060010181905550601054600080600160003373ffffffffffffffffffffffffffffffffffffffff1673ffffffffffffffffffffffffffffffffffffffff16815260200190815260200160002054815260200190815260200160002060000154108015612297575060011515600080600160003373ffffffffffffffffffffffffffffffffffffffff1673ffffffffffffffffffffffffffffffffffffffff16815260200190815260200160002054815260200190815260200160002060020160009054906101000a900460ff161515145b156123c2576122fc600080600160003373ffffffffffffffffffffffffffffffffffffffff1673ffffffffffffffffffffffffffffffffffffffff16815260200190815260200160002054815260200190815260200160002060000154600754612b8f565b600080600160003373ffffffffffffffffffffffffffffffffffffffff1673ffffffffffffffffffffffffffffffffffffffff168152602001908152602001600020548152602001908152602001600020600001819055506000806000600160003373ffffffffffffffffffffffffffffffffffffffff1673ffffffffffffffffffffffffffffffffffffffff16815260200190815260200160002054815260200190815260200160002060020160006101000a81548160ff0219169083151502179055505b42600080600160003373ffffffffffffffffffffffffffffffffffffffff1673ffffffffffffffffffffffffffffffffffffffff1681526020019081526020016000205481526020019081526020016000206008018190555061247b600080600160003373ffffffffffffffffffffffffffffffffffffffff1673ffffffffffffffffffffffffffffffffffffffff168152602001908152602001600020548152602001908152602001600020600a0154600754612b8f565b600080600160003373ffffffffffffffffffffffffffffffffffffffff1673ffffffffffffffffffffffffffffffffffffffff168152602001908152602001600020548152602001908152602001600020600a0181905550612531600080600160003373ffffffffffffffffffffffffffffffffffffffff1673ffffffffffffffffffffffffffffffffffffffff168152602001908152602001600020548152602001908152602001600020600c015486612b8f565b600080600160003373ffffffffffffffffffffffffffffffffffffffff1673ffffffffffffffffffffffffffffffffffffffff168152602001908152602001600020548152602001908152602001600020600c0181905550600080600160003373ffffffffffffffffffffffffffffffffffffffff1673ffffffffffffffffffffffffffffffffffffffff1681526020019081526020016000205481526020019081526020016000206011018590806001815401808255809150506001900390600052602060002001600090919091909150556126af600080600160003373ffffffffffffffffffffffffffffffffffffffff1673ffffffffffffffffffffffffffffffffffffffff1681526020019081526020016000205481526020019081526020016000206011018054806020026020016040519081016040528092919081815260200182805480156126a557602002820191906000526020600020905b815481526020019060010190808311612691575b50505050506110bf565b61275a600080600160003373ffffffffffffffffffffffffffffffffffffffff1673ffffffffffffffffffffffffffffffffffffffff16815260200190815260200160002054815260200190815260200160002060110180548060200260200160405190810160405280929190818152602001828054801561275057602002820191906000526020600020905b81548152602001906001019080831161273c575b505050505061029e565b600080600160003373ffffffffffffffffffffffffffffffffffffffff1673ffffffffffffffffffffffffffffffffffffffff16815260200190815260200160002054815260200190815260200160002060120181905550612864600080600160003373ffffffffffffffffffffffffffffffffffffffff1673ffffffffffffffffffffffffffffffffffffffff168152602001908152602001600020548152602001908152602001600020600b0154600080600160003373ffffffffffffffffffffffffffffffffffffffff1673ffffffffffffffffffffffffffffffffffffffff168152602001908152602001600020548152602001908152602001600020600c0154612b20565b600080600160003373ffffffffffffffffffffffffffffffffffffffff1673ffffffffffffffffffffffffffffffffffffffff168152602001908152602001600020548152602001908152602001600020600d01819055506000612970600080600160003373ffffffffffffffffffffffffffffffffffffffff1673ffffffffffffffffffffffffffffffffffffffff168152602001908152602001600020548152602001908152602001600020600a0154600080600160003373ffffffffffffffffffffffffffffffffffffffff1673ffffffffffffffffffffffffffffffffffffffff16815260200190815260200160002054815260200190815260200160002060090154612b8f565b90506129d0600080600160003373ffffffffffffffffffffffffffffffffffffffff1673ffffffffffffffffffffffffffffffffffffffff1681526020019081526020016000205481526020019081526020016000206009015482612c58565b600080600160003373ffffffffffffffffffffffffffffffffffffffff1673ffffffffffffffffffffffffffffffffffffffff168152602001908152602001600020548152602001908152602001600020600e0181905550612a876001600080600160003373ffffffffffffffffffffffffffffffffffffffff1673ffffffffffffffffffffffffffffffffffffffff168152602001908152602001600020548152602001908152602001600020600e0154612b20565b600080600160003373ffffffffffffffffffffffffffffffffffffffff1673ffffffffffffffffffffffffffffffffffffffff168152602001908152602001600020548152602001908152602001600020600f0181905550600196505050505050505b90565b60026020528060005260406000206000915054906101000a900473ffffffffffffffffffffffffffffffffffffffff1681565b6000828284612b2f919061345b565b9150811115612b73576040517f08c379a0000000000000000000000000000000000000000000000000000000008152600401612b6a9061319d565b60405180910390fd5b92915050565b60008183612b8791906133d0565b905092915050565b6000828284612b9e919061337a565b9150811015612be2576040517f08c379a0000000000000000000000000000000000000000000000000000000008152600401612bd9906131dd565b60405180910390fd5b92915050565b60008183612bf69190613401565b905092915050565b6000670de0b6b3a7640000612c30612c168585612c94565b6002670de0b6b3a7640000612c2b91906133d0565b612b8f565b612c3a91906133d0565b905092915050565b60008183612c50919061345b565b905092915050565b600081612c82612c7085670de0b6b3a7640000612c94565b600285612c7d91906133d0565b612b8f565b612c8c91906133d0565b905092915050565b600080821480612cbc575082828385612cad9190613401565b925082612cba91906133d0565b145b612cfb576040517f08c379a0000000000000000000000000000000000000000000000000000000008152600401612cf2906131bd565b60405180910390fd5b92915050565b6000612d14612d0f8461333d565b613318565b90508083825260208201905082856020860282011115612d3757612d36613624565b5b60005b85811015612d675781612d4d8882612dc9565b845260208401935060208301925050600181019050612d3a565b5050509392505050565b600081359050612d8081613879565b92915050565b600082601f830112612d9b57612d9a61361f565b5b8135612dab848260208601612d01565b91505092915050565b600081519050612dc381613890565b92915050565b600081359050612dd8816138a7565b92915050565b600081519050612ded816138a7565b92915050565b600060208284031215612e0957612e0861362e565b5b6000612e1784828501612d71565b91505092915050565b600060208284031215612e3657612e3561362e565b5b600082013567ffffffffffffffff811115612e5457612e53613629565b5b612e6084828501612d86565b91505092915050565b600060208284031215612e7f57612e7e61362e565b5b6000612e8d84828501612db4565b91505092915050565b600060208284031215612eac57612eab61362e565b5b6000612eba84828501612dc9565b91505092915050565b600060208284031215612ed957612ed861362e565b5b6000612ee784828501612dde565b91505092915050565b60008060408385031215612f0757612f0661362e565b5b6000612f1585828601612dc9565b9250506020612f2685828601612dc9565b9150509250929050565b612f398161348f565b82525050565b612f48816134a1565b82525050565b6000612f5b601583613369565b9150612f6682613644565b602082019050919050565b6000612f7e601483613369565b9150612f898261366d565b602082019050919050565b6000612fa1601483613369565b9150612fac82613696565b602082019050919050565b6000612fc4601683613369565b9150612fcf826136bf565b602082019050919050565b6000612fe7601c83613369565b9150612ff2826136e8565b602082019050919050565b600061300a601583613369565b915061301582613711565b602082019050919050565b600061302d601e83613369565b91506130388261373a565b602082019050919050565b6000613050602783613369565b915061305b82613763565b604082019050919050565b6000613073600a83613369565b915061307e826137b2565b602082019050919050565b6000613096603f83613369565b91506130a1826137db565b604082019050919050565b60006130b9602a83613369565b91506130c48261382a565b604082019050919050565b6130d8816134cd565b82525050565b60006020820190506130f36000830184612f30565b92915050565b600060408201905061310e6000830185612f30565b61311b6020830184612f30565b9392505050565b60006060820190506131376000830186612f30565b6131446020830185612f30565b61315160408301846130cf565b949350505050565b600060408201905061316e6000830185612f30565b61317b60208301846130cf565b9392505050565b60006020820190506131976000830184612f3f565b92915050565b600060208201905081810360008301526131b681612f4e565b9050919050565b600060208201905081810360008301526131d681612f71565b9050919050565b600060208201905081810360008301526131f681612f94565b9050919050565b6000602082019050818103600083015261321681612fb7565b9050919050565b6000602082019050818103600083015261323681612fda565b9050919050565b6000602082019050818103600083015261325681612ffd565b9050919050565b6000602082019050818103600083015261327681613020565b9050919050565b6000602082019050818103600083015261329681613043565b9050919050565b600060208201905081810360008301526132b681613066565b9050919050565b600060208201905081810360008301526132d681613089565b9050919050565b600060208201905081810360008301526132f6816130ac565b9050919050565b600060208201905061331260008301846130cf565b92915050565b6000613322613333565b905061332e8282613501565b919050565b6000604051905090565b600067ffffffffffffffff821115613358576133576135f0565b5b602082029050602081019050919050565b600082825260208201905092915050565b6000613385826134cd565b9150613390836134cd565b9250827fffffffffffffffffffffffffffffffffffffffffffffffffffffffffffffffff038211156133c5576133c4613563565b5b828201905092915050565b60006133db826134cd565b91506133e6836134cd565b9250826133f6576133f5613592565b5b828204905092915050565b600061340c826134cd565b9150613417836134cd565b9250817fffffffffffffffffffffffffffffffffffffffffffffffffffffffffffffffff04831182151516156134505761344f613563565b5b828202905092915050565b6000613466826134cd565b9150613471836134cd565b92508282101561348457613483613563565b5b828203905092915050565b600061349a826134ad565b9050919050565b60008115159050919050565b600073ffffffffffffffffffffffffffffffffffffffff82169050919050565b6000819050919050565b60006134e2826134cd565b915060008214156134f6576134f5613563565b5b600182039050919050565b61350a82613633565b810181811067ffffffffffffffff82111715613529576135286135f0565b5b80604052505050565b600061353d826134cd565b9150613548836134cd565b92508261355857613557613592565b5b828206905092915050565b7f4e487b7100000000000000000000000000000000000000000000000000000000600052601160045260246000fd5b7f4e487b7100000000000000000000000000000000000000000000000000000000600052601260045260246000fd5b7f4e487b7100000000000000000000000000000000000000000000000000000000600052603260045260246000fd5b7f4e487b7100000000000000000000000000000000000000000000000000000000600052604160045260246000fd5b600080fd5b600080fd5b600080fd5b600080fd5b6000601f19601f8301169050919050565b7f64732d6d6174682d7375622d756e646572666c6f770000000000000000000000600082015250565b7f64732d6d6174682d6d756c2d6f766572666c6f77000000000000000000000000600082015250565b7f64732d6d6174682d6164642d6f766572666c6f77000000000000000000000000600082015250565b7f766f7563686565206c6576656c206973206e6f74203000000000000000000000600082015250565b7f796f7520617265207374696c6c20756e64657220636f6f6c646f776e00000000600082015250565b7f796f7572206c6576656c20697320746f6f206c6f770000000000000000000000600082015250565b7f706c6561736520617070726f766520726571756972656420616d6f756e740000600082015250565b7f706c6561736520636f6e6669726d20796f7572207072696d617279206372656460008201527f6974206361726400000000000000000000000000000000000000000000000000602082015250565b7f6d617468206572726f7200000000000000000000000000000000000000000000600082015250565b7f596f75206861766520616c72656164792074616b656e2061206c6f616e2c207060008201527f6c656173652072652d70617920746f2074616b652061206e6577206c6f616e00602082015250565b7f796f7520646f206e6f7420686176652061206869676820656e6f75676820637260008201527f656469742073636f726500000000000000000000000000000000000000000000602082015250565b6138828161348f565b811461388d57600080fd5b50565b613899816134a1565b81146138a457600080fd5b50565b6138b0816134cd565b81146138bb57600080fd5b5056fea26469706673582212203a4201768e297db96ec9022c7e9557f77b99823446ae958e04576cfa955af0b164736f6c63430008070033",
  "immutableReferences": {},
  "source": "// SPDX-License-Identifier: MIT\npragma solidity ^0.8.7;\nimport \"@openzeppelin/contracts/utils/math/SafeMath.sol\";\nimport \"../Token/IERC20.sol\";\nimport \"@openzeppelin/contracts/token/ERC20/IERC20.sol\";\nimport \"./vouching.sol\";\nimport \"./Array/Arrayfuncs.sol\";\nimport \"./ds-math/math.sol\";\n\ncontract Loaning is vouching(address(this)),Arrayfuncs,DSMath {\nusing SafeMath for uint256;\nuint burner=80*adj;\nuint rate=20;\n\n//Neutron token=new Neutron(msg.sender,address(this));\nuint adj=10**18; //decimal adjustment\naddress reciever; //the address of this contract\naddress allowedcon;\naddress allowedcon2;\naddress governor;\naddress _owner;\naddress treasury;\n_IERC20 token;\nIArrayfuncs calc;\nuint lim;\nuint cooldown;\nmapping (address=>uint256) I2;\nconstructor(){\n_owner=msg.sender;\ntreasury=_owner;\n\n}\n//cred[Primary[msg.sender]].\nmodifier only_owner(){\n    require(msg.sender==_owner);\n_;}\nfunction set(address tk)public{\n    token=_IERC20(tk);\n}\n\n//function to take loan\nfunction takeloan (uint tier) public payable{\nrequire(Primary[msg.sender]!=0,\"please confirm your primary credit card\");\nrequire(sub(block.timestamp,cred[Primary[msg.sender]].timer)>=cooldown,\"you are still under cooldown\"); //so no loan spams\nrequire(cred[Primary[msg.sender]].creditsc_c>=tier*adj,\"you do not have a high enough credit score\");\nrequire(tier>0);\nrequire(!cred[Primary[msg.sender]].pending,\"You have already taken a loan, please re-pay to take a new loan\");\nuint interest;\ncred[Primary[msg.sender]].amount=100*wpow((add(adj,(adj.div(10)))),tier); //amount calc\ntoken.mint(msg.sender,cred[Primary[msg.sender]].amount);\ninterest=wmul(cred[Primary[msg.sender]].amount,(rate.mul(adj.div(100))));//20%,interest+1% admin fee\nuint x=wmul(cred[Primary[msg.sender]].Rrate,cred[Primary[msg.sender]].medianL);\nuint l=wmul(cred[Primary[msg.sender]].defexpo,cred[Primary[msg.sender]].Drate);\n//\nI2[msg.sender]=wmul(x.sub(l),(interest));\ncred[Primary[msg.sender]].principal=add(cred[Primary[msg.sender]].amount,I2[msg.sender]);\ncred[Primary[msg.sender]].pending=true;\ncred[Primary[msg.sender]].time=block.timestamp;\nif(tier==cred[Primary[msg.sender]].creditsc_c)\ncred[Primary[msg.sender]]._match==true;\n}\n//repayment rate calc: rrate=1-Drate; //R\n//defult rate calc: drate=(defults/(repayed+defults));\nfunction returnloan() public returns(bool){\n//I2 = (R*M2-D*H)*I-Ix\n require(cred[Primary[msg.sender]].pending=true);\n uint P2=cred[Primary[msg.sender]].principal;\n if(block.timestamp.sub(cred[Primary[msg.sender]].time)>420000){\n     cred[Primary[msg.sender]].creditsc_uc=0;\n     cred[Primary[msg.sender]].creditsc_c=0;\n     cred[Primary[msg.sender]].defults=add( cred[Primary[msg.sender]].defults,adj);\n     cred[Primary[msg.sender]].Dtotal=add( cred[Primary[msg.sender]].Dtotal,P2);\n     if(friend[msg.sender]!=address(0)){\n         cred[Primary[friend[msg.sender]]].creditsc_c=0;\n         cred[Primary[friend[msg.sender]]].creditsc_uc=0;\n         friend[msg.sender]=address(0);\n     }\n     cred[Primary[msg.sender]].creditsc_c=0; //why?\n     cred[Primary[msg.sender]].princeD.push(P2);\nsortA(cred[Primary[msg.sender]].princeD);\ncred[Primary[msg.sender]].medianD=getmedian(cred[Primary[msg.sender]].princeD);//M1\ncred[Primary[msg.sender]].defexpo=sub(cred[Primary[msg.sender]].Ltotal,cred[Primary[msg.sender]].Dtotal); //D\n     return false;\n }\n else{\nrequire(token.allowance(msg.sender,address(this))==P2,\"please approve required amount\");\n\nuint interest=I2[msg.sender];\nuint burning=burner;\nuint treasurym=sub(mul(100,adj),burning);\nuint ownerm=5;\n\n\nrequire(add(interest,cred[Primary[msg.sender]].amount)==P2,\"math error\");\n\ntoken.transferFrom(msg.sender,_owner,interest.mul(ownerm.div(100)));\ntoken.transferFrom(msg.sender,treasury,interest.div(2));//mul(treasurym.div(100)));\ntoken.burnfrom(msg.sender,interest.div(2));//mul(burning.div(100)));\ntoken.burnfrom(msg.sender,cred[Primary[msg.sender]].amount);\n\n //replace with burn //math to calc P2 needs to be checked\n cred[Primary[msg.sender]].pending=false;\n cred[Primary[msg.sender]].creditsc_uc=add( cred[Primary[msg.sender]].creditsc_uc,adj);\n\n //decide if to increase credit score, (checks if under limit)\n if(cred[Primary[msg.sender]].creditsc_c<lim &&cred[Primary[msg.sender]]. _match==true){\n cred[Primary[msg.sender]].creditsc_c=add(cred[Primary[msg.sender]].creditsc_c,adj);\n cred[Primary[msg.sender]]._match=false;\n //sets cooldown before next loan.\n}\n cred[Primary[msg.sender]].timer=block.timestamp;  //marks time when last loan was returned\n\n\n //second if\n\n //first if\n cred[Primary[msg.sender]].repayed=add( cred[Primary[msg.sender]].repayed,adj);\n cred[Primary[msg.sender]].Dtotal=add( cred[Primary[msg.sender]].Dtotal,P2);\n cred[Primary[msg.sender]].princeL.push(P2);\n sortA(cred[Primary[msg.sender]].princeL);\n cred[Primary[msg.sender]].medianL=getmedian(cred[Primary[msg.sender]].princeL);//M2\ncred[Primary[msg.sender]].defexpo=sub(cred[Primary[msg.sender]].Ltotal,cred[Primary[msg.sender]].Dtotal); //D\nuint x=add(cred[Primary[msg.sender]].repayed,cred[Primary[msg.sender]].defults);\ncred[Primary[msg.sender]].Drate=wdiv(cred[Primary[msg.sender]].defults,x);//H\n\ncred[Primary[msg.sender]].Rrate=sub(1,cred[Primary[msg.sender]].Drate);//R\n return true;\n\n\n }//outermost if/else\n\n}\nfunction freemoney() public  payable{\n    token.mint(msg.sender,(1000*adj));\n}\n/*function setgovernor(address _governor) public only_owner returns(bool){\n\n    governor=_governor;\n    return true;\n}// set governor contract*/\nfunction increment(address pardonee)public{\n    //require(msg.sender==allowedcon||msg.sender==allowedcon2,\"you do not have permission to do this action.\");\n    cred[Primary[pardonee]].creditsc_c==1;\n    cred[Primary[pardonee]].creditsc_uc==1;\n\n}\n\n\n}\n",
  "sourcePath": "/Users/vibhu/node_manager/node_modules/Solidity/Zeno/contracts/Lending/Lending-main.sol",
  "compiler": {
    "name": "solc",
    "version": "0.8.7+commit.e28d00a7.Emscripten.clang"
  },
  "schemaVersion": "3.4.7",
  "updatedAt": "2022-05-20T03:42:11.654Z",
  "networkType": "ethereum",
  "devdoc": {
    "kind": "dev",
    "methods": {},
    "version": 1
  },
  "userdoc": {
    "kind": "user",
    "methods": {},
    "version": 1
  }
}