{
  "contractName": "Loaning",
  "abi": [
    {
      "inputs": [],
      "stateMutability": "nonpayable",
      "type": "constructor"
    },
    {
      "anonymous": false,
      "inputs": [
        {
          "indexed": false,
          "internalType": "uint256",
          "name": "token_ID",
          "type": "uint256"
        }
      ],
      "name": "Set_Primary",
      "type": "event"
    },
    {
      "anonymous": false,
      "inputs": [
        {
          "indexed": false,
          "internalType": "uint256",
          "name": "myprime",
          "type": "uint256"
        }
      ],
      "name": "tester",
      "type": "event"
    },
    {
      "inputs": [
        {
          "internalType": "address",
          "name": "a",
          "type": "address"
        }
      ],
      "name": "PrimaryOf",
      "outputs": [
        {
          "internalType": "uint256",
          "name": "",
          "type": "uint256"
        }
      ],
      "stateMutability": "view",
      "type": "function"
    },
    {
      "inputs": [
        {
          "internalType": "address",
          "name": "",
          "type": "address"
        }
      ],
      "name": "friend",
      "outputs": [
        {
          "internalType": "address",
          "name": "",
          "type": "address"
        }
      ],
      "stateMutability": "view",
      "type": "function"
    },
    {
      "inputs": [
        {
          "internalType": "uint256[]",
          "name": "amts",
          "type": "uint256[]"
        }
      ],
      "name": "getmedian",
      "outputs": [
        {
          "internalType": "uint256",
          "name": "median",
          "type": "uint256"
        }
      ],
      "stateMutability": "pure",
      "type": "function"
    },
    {
      "inputs": [
        {
          "internalType": "uint256",
          "name": "tokenId",
          "type": "uint256"
        }
      ],
      "name": "setPrimary",
      "outputs": [],
      "stateMutability": "nonpayable",
      "type": "function"
    },
    {
      "inputs": [
        {
          "internalType": "uint256[]",
          "name": "amts",
          "type": "uint256[]"
        }
      ],
      "name": "sortA",
      "outputs": [],
      "stateMutability": "pure",
      "type": "function"
    },
    {
      "inputs": [
        {
          "internalType": "address",
          "name": "vouchee",
          "type": "address"
        }
      ],
      "name": "vouch",
      "outputs": [
        {
          "internalType": "bool",
          "name": "success",
          "type": "bool"
        }
      ],
      "stateMutability": "nonpayable",
      "type": "function"
    },
    {
      "inputs": [
        {
          "internalType": "uint256",
          "name": "x",
          "type": "uint256"
        },
        {
          "internalType": "uint256",
          "name": "n",
          "type": "uint256"
        }
      ],
      "name": "wpow",
      "outputs": [
        {
          "internalType": "uint256",
          "name": "z",
          "type": "uint256"
        }
      ],
      "stateMutability": "pure",
      "type": "function"
    },
    {
      "inputs": [
        {
          "internalType": "uint256",
          "name": "x",
          "type": "uint256"
        }
      ],
      "name": "wsqrt",
      "outputs": [
        {
          "internalType": "uint256",
          "name": "y",
          "type": "uint256"
        }
      ],
      "stateMutability": "pure",
      "type": "function"
    },
    {
      "inputs": [
        {
          "internalType": "address",
          "name": "tk",
          "type": "address"
        },
        {
          "internalType": "address",
          "name": "_NFT",
          "type": "address"
        }
      ],
      "name": "set",
      "outputs": [],
      "stateMutability": "nonpayable",
      "type": "function"
    },
    {
      "inputs": [
        {
          "internalType": "address",
          "name": "someone",
          "type": "address"
        }
      ],
      "name": "smth",
      "outputs": [],
      "stateMutability": "nonpayable",
      "type": "function"
    },
    {
      "inputs": [
        {
          "internalType": "uint256",
          "name": "tier",
          "type": "uint256"
        }
      ],
      "name": "takeloan",
      "outputs": [],
      "stateMutability": "nonpayable",
      "type": "function"
    },
    {
      "inputs": [],
      "name": "returnloan",
      "outputs": [
        {
          "internalType": "bool",
          "name": "",
          "type": "bool"
        }
      ],
      "stateMutability": "nonpayable",
      "type": "function"
    },
    {
      "inputs": [],
      "name": "freemoney",
      "outputs": [],
      "stateMutability": "payable",
      "type": "function"
    },
    {
      "inputs": [
        {
          "internalType": "address",
          "name": "applicant",
          "type": "address"
        },
        {
          "internalType": "uint256",
          "name": "inc_amt",
          "type": "uint256"
        }
      ],
      "name": "increment",
      "outputs": [],
      "stateMutability": "nonpayable",
      "type": "function"
    },
    {
      "inputs": [
        {
          "internalType": "address",
          "name": "user",
          "type": "address"
        }
      ],
      "name": "Pending",
      "outputs": [
        {
          "internalType": "bool",
          "name": "",
          "type": "bool"
        }
      ],
      "stateMutability": "view",
      "type": "function"
    },
    {
      "inputs": [
        {
          "internalType": "address",
          "name": "_msgsender",
          "type": "address"
        }
      ],
      "name": "Prime",
      "outputs": [
        {
          "internalType": "uint256",
          "name": "",
          "type": "uint256"
        }
      ],
      "stateMutability": "view",
      "type": "function"
    },
    {
      "inputs": [
        {
          "internalType": "address",
          "name": "_msgsender",
          "type": "address"
        },
        {
          "internalType": "uint256",
          "name": "setAdd",
          "type": "uint256"
        }
      ],
      "name": "Prime",
      "outputs": [],
      "stateMutability": "nonpayable",
      "type": "function"
    },
    {
      "inputs": [
        {
          "internalType": "uint256",
          "name": "ID",
          "type": "uint256"
        }
      ],
      "name": "Reset_credit",
      "outputs": [],
      "stateMutability": "nonpayable",
      "type": "function"
    }
  ],
  "bytecode": "0x6080604052600554605062000015919062000193565b60065560146007553480156200002a57600080fd5b503080600460006101000a81548173ffffffffffffffffffffffffffffffffffffffff021916908373ffffffffffffffffffffffffffffffffffffffff160217905550600460009054906101000a900473ffffffffffffffffffffffffffffffffffffffff16600360006101000a81548173ffffffffffffffffffffffffffffffffffffffff021916908373ffffffffffffffffffffffffffffffffffffffff160217905550670de0b6b3a76400006005819055505033600c60006101000a81548173ffffffffffffffffffffffffffffffffffffffff021916908373ffffffffffffffffffffffffffffffffffffffff160217905550600c60009054906101000a900473ffffffffffffffffffffffffffffffffffffffff16600d60006101000a81548173ffffffffffffffffffffffffffffffffffffffff021916908373ffffffffffffffffffffffffffffffffffffffff1602179055506103e86012819055506200022d565b6000620001a082620001f4565b9150620001ad83620001f4565b9250817fffffffffffffffffffffffffffffffffffffffffffffffffffffffffffffffff0483118215151615620001e957620001e8620001fe565b5b828202905092915050565b6000819050919050565b7f4e487b7100000000000000000000000000000000000000000000000000000000600052601160045260246000fd5b614232806200023d6000396000f3fe6080604052600436106101085760003560e01c806389675cac11610095578063c16c6fc211610064578063c16c6fc21461039a578063dd66e16b146103a4578063e340d56b146103e1578063ebacef781461040a578063fef5a10e1461043557610108565b806389675cac146102ce57806393eb1cce146102f7578063a85824e414610334578063b1f4c56c1461035d57610108565b806338e74feb116100dc57806338e74feb146101d95780633bee7e7a146102025780635f6e55751461023f578063672f8e4f146102685780638805b05d146102a557610108565b80625049a31461010d57806302ebb44d1461013657806319bfe06d146101735780632414f2f1146101b0575b600080fd5b34801561011957600080fd5b50610134600480360381019061012f9190613742565b610472565b005b34801561014257600080fd5b5061015d600480360381019061015891906136cc565b6105c4565b60405161016a9190613bec565b60405180910390f35b34801561017f57600080fd5b5061019a6004803603810190610195919061361f565b6105fa565b6040516101a79190613a51565b60405180910390f35b3480156101bc57600080fd5b506101d760048036038101906101d2919061368c565b610665565b005b3480156101e557600080fd5b5061020060048036038101906101fb9190613742565b6107bb565b005b34801561020e57600080fd5b506102296004803603810190610224919061361f565b61091a565b6040516102369190613bec565b60405180910390f35b34801561024b57600080fd5b5061026660048036038101906102619190613742565b610963565b005b34801561027457600080fd5b5061028f600480360381019061028a919061379c565b61129a565b60405161029c9190613bec565b60405180910390f35b3480156102b157600080fd5b506102cc60048036038101906102c7919061361f565b611321565b005b3480156102da57600080fd5b506102f560048036038101906102f0919061364c565b61139a565b005b34801561030357600080fd5b5061031e60048036038101906103199190613742565b611420565b60405161032b9190613bec565b60405180910390f35b34801561034057600080fd5b5061035b6004803603810190610356919061368c565b61147b565b005b34801561036957600080fd5b50610384600480360381019061037f919061361f565b6114c3565b6040516103919190613bec565b60405180910390f35b6103a261150c565b005b3480156103b057600080fd5b506103cb60048036038101906103c6919061361f565b6115ac565b6040516103d89190613a51565b60405180910390f35b3480156103ed57600080fd5b50610408600480360381019061040391906136cc565b611866565b005b34801561041657600080fd5b5061041f611973565b60405161042c9190613a51565b60405180910390f35b34801561044157600080fd5b5061045c6004803603810190610457919061361f565b613294565b60405161046991906139ad565b60405180910390f35b60008080815260200190815260200160002060008083815260200190815260200160002060008201548160000155600182015481600101556002820160009054906101000a900460ff168160020160006101000a81548160ff02191690831515021790555060038201548160030155600482015481600401556005820160009054906101000a900460ff168160050160006101000a81548160ff02191690831515021790555060068201548160060155600782015481600701556008820154816008015560098201548160090155600a82015481600a0155600b82015481600b0155600c82015481600c0155600d82015481600d0155600e82015481600e0155600f82015481600f015560108201816010019080546105929291906134be565b5060118201816011019080546105a99291906134be565b50601282015481601201556013820154816013015590505050565b600080600283516105d59190613cbf565b90508281815181106105ea576105e9613eb0565b5b6020026020010151915050919050565b6000806000600160008573ffffffffffffffffffffffffffffffffffffffff1673ffffffffffffffffffffffffffffffffffffffff16815260200190815260200160002054815260200190815260200160002060050160009054906101000a900460ff169050919050565b6000600160008473ffffffffffffffffffffffffffffffffffffffff1673ffffffffffffffffffffffffffffffffffffffff16815260200190815260200160002054116106e7576040517f08c379a00000000000000000000000000000000000000000000000000000000081526004016106de90613b4c565b60405180910390fd5b61074e81600080600160008773ffffffffffffffffffffffffffffffffffffffff1673ffffffffffffffffffffffffffffffffffffffff168152602001908152602001600020548152602001908152602001600020600001546132c790919063ffffffff16565b506107b681600080600160008773ffffffffffffffffffffffffffffffffffffffff1673ffffffffffffffffffffffffffffffffffffffff168152602001908152602001600020548152602001908152602001600020600101546132c790919063ffffffff16565b505050565b600080600160003373ffffffffffffffffffffffffffffffffffffffff1673ffffffffffffffffffffffffffffffffffffffff16815260200190815260200160002054815260200190815260200160002060050160009054906101000a900460ff161561085d576040517f08c379a000000000000000000000000000000000000000000000000000000000815260040161085490613b8c565b60405180910390fd5b80600160003373ffffffffffffffffffffffffffffffffffffffff1673ffffffffffffffffffffffffffffffffffffffff168152602001908152602001600020819055507f93ee19f33773de005b0e731088107f7687d2366d46ad66a6d9c2841208a445fe600160003373ffffffffffffffffffffffffffffffffffffffff1673ffffffffffffffffffffffffffffffffffffffff1681526020019081526020016000205460405161090f9190613bec565b60405180910390a150565b6000600160008373ffffffffffffffffffffffffffffffffffffffff1673ffffffffffffffffffffffffffffffffffffffff168152602001908152602001600020549050919050565b7fa667472ff0ceb4be7e6310fc1413c5933616aa6de73906dd611fa90714ec263d600160003373ffffffffffffffffffffffffffffffffffffffff1673ffffffffffffffffffffffffffffffffffffffff168152602001908152602001600020546040516109d19190613bec565b60405180910390a16000600160003373ffffffffffffffffffffffffffffffffffffffff1673ffffffffffffffffffffffffffffffffffffffff1681526020019081526020016000205411610a5b576040517f08c379a0000000000000000000000000000000000000000000000000000000008152600401610a5290613b4c565b60405180910390fd5b601254610abc42600080600160003373ffffffffffffffffffffffffffffffffffffffff1673ffffffffffffffffffffffffffffffffffffffff168152602001908152602001600020548152602001908152602001600020600801546132dd565b1015610afd576040517f08c379a0000000000000000000000000000000000000000000000000000000008152600401610af490613aec565b60405180910390fd5b60055481610b0b9190613cf0565b600080600160003373ffffffffffffffffffffffffffffffffffffffff1673ffffffffffffffffffffffffffffffffffffffff168152602001908152602001600020548152602001908152602001600020600001541015610ba1576040517f08c379a0000000000000000000000000000000000000000000000000000000008152600401610b9890613bcc565b60405180910390fd5b60008111610bae57600080fd5b600080600160003373ffffffffffffffffffffffffffffffffffffffff1673ffffffffffffffffffffffffffffffffffffffff16815260200190815260200160002054815260200190815260200160002060050160009054906101000a900460ff1615610c50576040517f08c379a0000000000000000000000000000000000000000000000000000000008152600401610c4790613bac565b60405180910390fd5b6000610c7c610c76600554610c71600a60055461333690919063ffffffff16565b61334c565b8361129a565b6064610c889190613cf0565b600080600160003373ffffffffffffffffffffffffffffffffffffffff1673ffffffffffffffffffffffffffffffffffffffff16815260200190815260200160002054815260200190815260200160002060040181905550600e60009054906101000a900473ffffffffffffffffffffffffffffffffffffffff1673ffffffffffffffffffffffffffffffffffffffff166340c10f1933600080600160003373ffffffffffffffffffffffffffffffffffffffff1673ffffffffffffffffffffffffffffffffffffffff168152602001908152602001600020548152602001908152602001600020600401546040518363ffffffff1660e01b8152600401610d91929190613a28565b600060405180830381600087803b158015610dab57600080fd5b505af1158015610dbf573d6000803e3d6000fd5b50505050610e4a600080600160003373ffffffffffffffffffffffffffffffffffffffff1673ffffffffffffffffffffffffffffffffffffffff16815260200190815260200160002054815260200190815260200160002060040154610e45610e34606460055461333690919063ffffffff16565b6007546133a590919063ffffffff16565b6133bb565b90506000610f00600080600160003373ffffffffffffffffffffffffffffffffffffffff1673ffffffffffffffffffffffffffffffffffffffff168152602001908152602001600020548152602001908152602001600020600f0154600080600160003373ffffffffffffffffffffffffffffffffffffffff1673ffffffffffffffffffffffffffffffffffffffff168152602001908152602001600020548152602001908152602001600020601201546133bb565b90506000610fb6600080600160003373ffffffffffffffffffffffffffffffffffffffff1673ffffffffffffffffffffffffffffffffffffffff168152602001908152602001600020548152602001908152602001600020600d0154600080600160003373ffffffffffffffffffffffffffffffffffffffff1673ffffffffffffffffffffffffffffffffffffffff168152602001908152602001600020548152602001908152602001600020600e01546133bb565b9050610fd4610fce82846133ff90919063ffffffff16565b846133bb565b601360003373ffffffffffffffffffffffffffffffffffffffff1673ffffffffffffffffffffffffffffffffffffffff168152602001908152602001600020819055506110b4600080600160003373ffffffffffffffffffffffffffffffffffffffff1673ffffffffffffffffffffffffffffffffffffffff16815260200190815260200160002054815260200190815260200160002060040154601360003373ffffffffffffffffffffffffffffffffffffffff1673ffffffffffffffffffffffffffffffffffffffff1681526020019081526020016000205461334c565b600080600160003373ffffffffffffffffffffffffffffffffffffffff1673ffffffffffffffffffffffffffffffffffffffff168152602001908152602001600020548152602001908152602001600020600301819055506001600080600160003373ffffffffffffffffffffffffffffffffffffffff1673ffffffffffffffffffffffffffffffffffffffff16815260200190815260200160002054815260200190815260200160002060050160006101000a81548160ff02191690831515021790555042600080600160003373ffffffffffffffffffffffffffffffffffffffff1673ffffffffffffffffffffffffffffffffffffffff16815260200190815260200160002054815260200190815260200160002060070181905550600080600160003373ffffffffffffffffffffffffffffffffffffffff1673ffffffffffffffffffffffffffffffffffffffff168152602001908152602001600020548152602001908152602001600020600001548414156112945760011515600080600160003373ffffffffffffffffffffffffffffffffffffffff1673ffffffffffffffffffffffffffffffffffffffff16815260200190815260200160002054815260200190815260200160002060020160009054906101000a905050505b50505050565b6000806002836112aa9190613e21565b14156112be57670de0b6b3a76400006112c0565b825b90506002826112cf9190613cbf565b91505b6000821461131b576112e483846133bb565b925060006002836112f59190613e21565b146113075761130481846133bb565b90505b6002826113149190613cbf565b91506112d2565b92915050565b7fa667472ff0ceb4be7e6310fc1413c5933616aa6de73906dd611fa90714ec263d600160003373ffffffffffffffffffffffffffffffffffffffff1673ffffffffffffffffffffffffffffffffffffffff1681526020019081526020016000205460405161138f9190613bec565b60405180910390a150565b81600e60006101000a81548173ffffffffffffffffffffffffffffffffffffffff021916908373ffffffffffffffffffffffffffffffffffffffff16021790555080600f60006101000a81548173ffffffffffffffffffffffffffffffffffffffff021916908373ffffffffffffffffffffffffffffffffffffffff1602179055505050565b60008060026001846114329190613c69565b61143c9190613cbf565b90508291505b818110156114755780915060028161145a8584613415565b6114649190613c69565b61146e9190613cbf565b9050611442565b50919050565b80600160008473ffffffffffffffffffffffffffffffffffffffff1673ffffffffffffffffffffffffffffffffffffffff168152602001908152602001600020819055505050565b6000600160003373ffffffffffffffffffffffffffffffffffffffff1673ffffffffffffffffffffffffffffffffffffffff168152602001908152602001600020549050919050565b600e60009054906101000a900473ffffffffffffffffffffffffffffffffffffffff1673ffffffffffffffffffffffffffffffffffffffff166340c10f19336005546103e861155b9190613cf0565b6040518363ffffffff1660e01b8152600401611578929190613a28565b600060405180830381600087803b15801561159257600080fd5b505af11580156115a6573d6000803e3d6000fd5b50505050565b6000801515600080600160003373ffffffffffffffffffffffffffffffffffffffff1673ffffffffffffffffffffffffffffffffffffffff16815260200190815260200160002054815260200190815260200160002060050160009054906101000a900460ff1615151461161f57600080fd5b6006600080600160003373ffffffffffffffffffffffffffffffffffffffff1673ffffffffffffffffffffffffffffffffffffffff1681526020019081526020016000205481526020019081526020016000206000015410156116b7576040517f08c379a00000000000000000000000000000000000000000000000000000000081526004016116ae90613b0c565b60405180910390fd5b6000806000600160008673ffffffffffffffffffffffffffffffffffffffff1673ffffffffffffffffffffffffffffffffffffffff168152602001908152602001600020548152602001908152602001600020600001541461174e576040517f08c379a000000000000000000000000000000000000000000000000000000000815260040161174590613acc565b60405180910390fd5b33600260008473ffffffffffffffffffffffffffffffffffffffff1673ffffffffffffffffffffffffffffffffffffffff16815260200190815260200160002060006101000a81548173ffffffffffffffffffffffffffffffffffffffff021916908373ffffffffffffffffffffffffffffffffffffffff160217905550600360009054906101000a900473ffffffffffffffffffffffffffffffffffffffff1673ffffffffffffffffffffffffffffffffffffffff16632414f2f1836005546040518363ffffffff1660e01b815260040161182b929190613a28565b600060405180830381600087803b15801561184557600080fd5b505af1158015611859573d6000803e3d6000fd5b5050505060019050919050565b600080600183516118779190613d4a565b91505b600082111561196e57826001836118919190613d4a565b815181106118a2576118a1613eb0565b5b60200260200101518383815181106118bd576118bc613eb0565b5b6020026020010151101561195b578282815181106118de576118dd613eb0565b5b60200260200101519050826001836118f69190613d4a565b8151811061190757611906613eb0565b5b602002602001015183838151811061192257611921613eb0565b5b602002602001018181525050808360018461193d9190613d4a565b8151811061194e5761194d613eb0565b5b6020026020010181815250505b818061196690613dc6565b92505061187a565b505050565b60006001600080600160003373ffffffffffffffffffffffffffffffffffffffff1673ffffffffffffffffffffffffffffffffffffffff16815260200190815260200160002054815260200190815260200160002060050160006101000a81548160ff02191690831515021790556119ea57600080fd5b6000806000600160003373ffffffffffffffffffffffffffffffffffffffff1673ffffffffffffffffffffffffffffffffffffffff168152602001908152602001600020548152602001908152602001600020600301549050620668a0611aae600080600160003373ffffffffffffffffffffffffffffffffffffffff1673ffffffffffffffffffffffffffffffffffffffff16815260200190815260200160002054815260200190815260200160002060070154426133ff90919063ffffffff16565b11156122f2576000806000600160003373ffffffffffffffffffffffffffffffffffffffff1673ffffffffffffffffffffffffffffffffffffffff168152602001908152602001600020548152602001908152602001600020600101819055506000806000600160003373ffffffffffffffffffffffffffffffffffffffff1673ffffffffffffffffffffffffffffffffffffffff16815260200190815260200160002054815260200190815260200160002060000181905550611bc8600080600160003373ffffffffffffffffffffffffffffffffffffffff1673ffffffffffffffffffffffffffffffffffffffff1681526020019081526020016000205481526020019081526020016000206009015460055461334c565b600080600160003373ffffffffffffffffffffffffffffffffffffffff1673ffffffffffffffffffffffffffffffffffffffff16815260200190815260200160002054815260200190815260200160002060090181905550611c7e600080600160003373ffffffffffffffffffffffffffffffffffffffff1673ffffffffffffffffffffffffffffffffffffffff168152602001908152602001600020548152602001908152602001600020600c01548261334c565b600080600160003373ffffffffffffffffffffffffffffffffffffffff1673ffffffffffffffffffffffffffffffffffffffff168152602001908152602001600020548152602001908152602001600020600c0181905550600073ffffffffffffffffffffffffffffffffffffffff16600260003373ffffffffffffffffffffffffffffffffffffffff1673ffffffffffffffffffffffffffffffffffffffff16815260200190815260200160002060009054906101000a900473ffffffffffffffffffffffffffffffffffffffff1673ffffffffffffffffffffffffffffffffffffffff1614611f5b57600080600060016000600260003373ffffffffffffffffffffffffffffffffffffffff1673ffffffffffffffffffffffffffffffffffffffff16815260200190815260200160002060009054906101000a900473ffffffffffffffffffffffffffffffffffffffff1673ffffffffffffffffffffffffffffffffffffffff1673ffffffffffffffffffffffffffffffffffffffff16815260200190815260200160002054815260200190815260200160002060000181905550600080600060016000600260003373ffffffffffffffffffffffffffffffffffffffff1673ffffffffffffffffffffffffffffffffffffffff16815260200190815260200160002060009054906101000a900473ffffffffffffffffffffffffffffffffffffffff1673ffffffffffffffffffffffffffffffffffffffff1673ffffffffffffffffffffffffffffffffffffffff168152602001908152602001600020548152602001908152602001600020600101819055506000600260003373ffffffffffffffffffffffffffffffffffffffff1673ffffffffffffffffffffffffffffffffffffffff16815260200190815260200160002060006101000a81548173ffffffffffffffffffffffffffffffffffffffff021916908373ffffffffffffffffffffffffffffffffffffffff1602179055505b6000806000600160003373ffffffffffffffffffffffffffffffffffffffff1673ffffffffffffffffffffffffffffffffffffffff16815260200190815260200160002054815260200190815260200160002060000181905550600080600160003373ffffffffffffffffffffffffffffffffffffffff1673ffffffffffffffffffffffffffffffffffffffff1681526020019081526020016000205481526020019081526020016000206010018190806001815401808255809150506001900390600052602060002001600090919091909150556120db600080600160003373ffffffffffffffffffffffffffffffffffffffff1673ffffffffffffffffffffffffffffffffffffffff1681526020019081526020016000205481526020019081526020016000206010018054806020026020016040519081016040528092919081815260200182805480156120d157602002820191906000526020600020905b8154815260200190600101908083116120bd575b5050505050611866565b612186600080600160003373ffffffffffffffffffffffffffffffffffffffff1673ffffffffffffffffffffffffffffffffffffffff16815260200190815260200160002054815260200190815260200160002060100180548060200260200160405190810160405280929190818152602001828054801561217c57602002820191906000526020600020905b815481526020019060010190808311612168575b50505050506105c4565b600080600160003373ffffffffffffffffffffffffffffffffffffffff1673ffffffffffffffffffffffffffffffffffffffff16815260200190815260200160002054815260200190815260200160002060130181905550612290600080600160003373ffffffffffffffffffffffffffffffffffffffff1673ffffffffffffffffffffffffffffffffffffffff168152602001908152602001600020548152602001908152602001600020600b0154600080600160003373ffffffffffffffffffffffffffffffffffffffff1673ffffffffffffffffffffffffffffffffffffffff168152602001908152602001600020548152602001908152602001600020600c01546132dd565b600080600160003373ffffffffffffffffffffffffffffffffffffffff1673ffffffffffffffffffffffffffffffffffffffff168152602001908152602001600020548152602001908152602001600020600d01819055506000915050613291565b80600e60009054906101000a900473ffffffffffffffffffffffffffffffffffffffff1673ffffffffffffffffffffffffffffffffffffffff1663dd62ed3e33306040518363ffffffff1660e01b81526004016123509291906139c8565b60206040518083038186803b15801561236857600080fd5b505afa15801561237c573d6000803e3d6000fd5b505050506040513d601f19601f820116820180604052508101906123a0919061376f565b146123e0576040517f08c379a00000000000000000000000000000000000000000000000000000000081526004016123d790613b2c565b60405180910390fd5b6000601360003373ffffffffffffffffffffffffffffffffffffffff1673ffffffffffffffffffffffffffffffffffffffff16815260200190815260200160002054905060006006549050600061244361243d6064600554613451565b836132dd565b9050600060059050846124aa85600080600160003373ffffffffffffffffffffffffffffffffffffffff1673ffffffffffffffffffffffffffffffffffffffff1681526020019081526020016000205481526020019081526020016000206004015461334c565b146124ea576040517f08c379a00000000000000000000000000000000000000000000000000000000081526004016124e190613b6c565b60405180910390fd5b600e60009054906101000a900473ffffffffffffffffffffffffffffffffffffffff1673ffffffffffffffffffffffffffffffffffffffff166323b872dd33600c60009054906101000a900473ffffffffffffffffffffffffffffffffffffffff1661257261256360648761333690919063ffffffff16565b896133a590919063ffffffff16565b6040518463ffffffff1660e01b8152600401612590939291906139f1565b602060405180830381600087803b1580156125aa57600080fd5b505af11580156125be573d6000803e3d6000fd5b505050506040513d601f19601f820116820180604052508101906125e29190613715565b50600e60009054906101000a900473ffffffffffffffffffffffffffffffffffffffff1673ffffffffffffffffffffffffffffffffffffffff166323b872dd33600d60009054906101000a900473ffffffffffffffffffffffffffffffffffffffff1661265960028961333690919063ffffffff16565b6040518463ffffffff1660e01b8152600401612677939291906139f1565b602060405180830381600087803b15801561269157600080fd5b505af11580156126a5573d6000803e3d6000fd5b505050506040513d601f19601f820116820180604052508101906126c99190613715565b50600e60009054906101000a900473ffffffffffffffffffffffffffffffffffffffff1673ffffffffffffffffffffffffffffffffffffffff1663242270343361271d60028861333690919063ffffffff16565b6040518363ffffffff1660e01b815260040161273a929190613a28565b600060405180830381600087803b15801561275457600080fd5b505af1158015612768573d6000803e3d6000fd5b50505050600e60009054906101000a900473ffffffffffffffffffffffffffffffffffffffff1673ffffffffffffffffffffffffffffffffffffffff16632422703433600080600160003373ffffffffffffffffffffffffffffffffffffffff1673ffffffffffffffffffffffffffffffffffffffff168152602001908152602001600020548152602001908152602001600020600401546040518363ffffffff1660e01b815260040161281d929190613a28565b600060405180830381600087803b15801561283757600080fd5b505af115801561284b573d6000803e3d6000fd5b505050506000806000600160003373ffffffffffffffffffffffffffffffffffffffff1673ffffffffffffffffffffffffffffffffffffffff16815260200190815260200160002054815260200190815260200160002060050160006101000a81548160ff02191690831515021790555061291c600080600160003373ffffffffffffffffffffffffffffffffffffffff1673ffffffffffffffffffffffffffffffffffffffff1681526020019081526020016000205481526020019081526020016000206001015460055461334c565b600080600160003373ffffffffffffffffffffffffffffffffffffffff1673ffffffffffffffffffffffffffffffffffffffff16815260200190815260200160002054815260200190815260200160002060010181905550601154600080600160003373ffffffffffffffffffffffffffffffffffffffff1673ffffffffffffffffffffffffffffffffffffffff16815260200190815260200160002054815260200190815260200160002060000154108015612a3e575060011515600080600160003373ffffffffffffffffffffffffffffffffffffffff1673ffffffffffffffffffffffffffffffffffffffff16815260200190815260200160002054815260200190815260200160002060020160009054906101000a900460ff161515145b15612b6957612aa3600080600160003373ffffffffffffffffffffffffffffffffffffffff1673ffffffffffffffffffffffffffffffffffffffff1681526020019081526020016000205481526020019081526020016000206000015460055461334c565b600080600160003373ffffffffffffffffffffffffffffffffffffffff1673ffffffffffffffffffffffffffffffffffffffff168152602001908152602001600020548152602001908152602001600020600001819055506000806000600160003373ffffffffffffffffffffffffffffffffffffffff1673ffffffffffffffffffffffffffffffffffffffff16815260200190815260200160002054815260200190815260200160002060020160006101000a81548160ff0219169083151502179055505b42600080600160003373ffffffffffffffffffffffffffffffffffffffff1673ffffffffffffffffffffffffffffffffffffffff16815260200190815260200160002054815260200190815260200160002060080181905550612c22600080600160003373ffffffffffffffffffffffffffffffffffffffff1673ffffffffffffffffffffffffffffffffffffffff168152602001908152602001600020548152602001908152602001600020600a015460055461334c565b600080600160003373ffffffffffffffffffffffffffffffffffffffff1673ffffffffffffffffffffffffffffffffffffffff168152602001908152602001600020548152602001908152602001600020600a0181905550612cd8600080600160003373ffffffffffffffffffffffffffffffffffffffff1673ffffffffffffffffffffffffffffffffffffffff168152602001908152602001600020548152602001908152602001600020600c01548661334c565b600080600160003373ffffffffffffffffffffffffffffffffffffffff1673ffffffffffffffffffffffffffffffffffffffff168152602001908152602001600020548152602001908152602001600020600c0181905550600080600160003373ffffffffffffffffffffffffffffffffffffffff1673ffffffffffffffffffffffffffffffffffffffff168152602001908152602001600020548152602001908152602001600020601101859080600181540180825580915050600190039060005260206000200160009091909190915055612e56600080600160003373ffffffffffffffffffffffffffffffffffffffff1673ffffffffffffffffffffffffffffffffffffffff168152602001908152602001600020548152602001908152602001600020601101805480602002602001604051908101604052809291908181526020018280548015612e4c57602002820191906000526020600020905b815481526020019060010190808311612e38575b5050505050611866565b612f01600080600160003373ffffffffffffffffffffffffffffffffffffffff1673ffffffffffffffffffffffffffffffffffffffff168152602001908152602001600020548152602001908152602001600020601101805480602002602001604051908101604052809291908181526020018280548015612ef757602002820191906000526020600020905b815481526020019060010190808311612ee3575b50505050506105c4565b600080600160003373ffffffffffffffffffffffffffffffffffffffff1673ffffffffffffffffffffffffffffffffffffffff1681526020019081526020016000205481526020019081526020016000206012018190555061300b600080600160003373ffffffffffffffffffffffffffffffffffffffff1673ffffffffffffffffffffffffffffffffffffffff168152602001908152602001600020548152602001908152602001600020600b0154600080600160003373ffffffffffffffffffffffffffffffffffffffff1673ffffffffffffffffffffffffffffffffffffffff168152602001908152602001600020548152602001908152602001600020600c01546132dd565b600080600160003373ffffffffffffffffffffffffffffffffffffffff1673ffffffffffffffffffffffffffffffffffffffff168152602001908152602001600020548152602001908152602001600020600d01819055506000613117600080600160003373ffffffffffffffffffffffffffffffffffffffff1673ffffffffffffffffffffffffffffffffffffffff168152602001908152602001600020548152602001908152602001600020600a0154600080600160003373ffffffffffffffffffffffffffffffffffffffff1673ffffffffffffffffffffffffffffffffffffffff1681526020019081526020016000205481526020019081526020016000206009015461334c565b9050613177600080600160003373ffffffffffffffffffffffffffffffffffffffff1673ffffffffffffffffffffffffffffffffffffffff1681526020019081526020016000205481526020019081526020016000206009015482613415565b600080600160003373ffffffffffffffffffffffffffffffffffffffff1673ffffffffffffffffffffffffffffffffffffffff168152602001908152602001600020548152602001908152602001600020600e018190555061322e6001600080600160003373ffffffffffffffffffffffffffffffffffffffff1673ffffffffffffffffffffffffffffffffffffffff168152602001908152602001600020548152602001908152602001600020600e01546132dd565b600080600160003373ffffffffffffffffffffffffffffffffffffffff1673ffffffffffffffffffffffffffffffffffffffff168152602001908152602001600020548152602001908152602001600020600f0181905550600196505050505050505b90565b60026020528060005260406000206000915054906101000a900473ffffffffffffffffffffffffffffffffffffffff1681565b600081836132d59190613c69565b905092915050565b60008282846132ec9190613d4a565b9150811115613330576040517f08c379a000000000000000000000000000000000000000000000000000000000815260040161332790613a6c565b60405180910390fd5b92915050565b600081836133449190613cbf565b905092915050565b600082828461335b9190613c69565b915081101561339f576040517f08c379a000000000000000000000000000000000000000000000000000000000815260040161339690613aac565b60405180910390fd5b92915050565b600081836133b39190613cf0565b905092915050565b6000670de0b6b3a76400006133ed6133d38585613451565b6002670de0b6b3a76400006133e89190613cbf565b61334c565b6133f79190613cbf565b905092915050565b6000818361340d9190613d4a565b905092915050565b60008161343f61342d85670de0b6b3a7640000613451565b60028561343a9190613cbf565b61334c565b6134499190613cbf565b905092915050565b60008082148061347957508282838561346a9190613cf0565b9250826134779190613cbf565b145b6134b8576040517f08c379a00000000000000000000000000000000000000000000000000000000081526004016134af90613a8c565b60405180910390fd5b92915050565b8280548282559060005260206000209081019282156134ff5760005260206000209182015b828111156134fe5782548255916001019190600101906134e3565b5b50905061350c9190613510565b5090565b5b80821115613529576000816000905550600101613511565b5090565b600061354061353b84613c2c565b613c07565b9050808382526020820190508285602086028201111561356357613562613f13565b5b60005b85811015613593578161357988826135f5565b845260208401935060208301925050600181019050613566565b5050509392505050565b6000813590506135ac816141b7565b92915050565b600082601f8301126135c7576135c6613f0e565b5b81356135d784826020860161352d565b91505092915050565b6000815190506135ef816141ce565b92915050565b600081359050613604816141e5565b92915050565b600081519050613619816141e5565b92915050565b60006020828403121561363557613634613f1d565b5b60006136438482850161359d565b91505092915050565b6000806040838503121561366357613662613f1d565b5b60006136718582860161359d565b92505060206136828582860161359d565b9150509250929050565b600080604083850312156136a3576136a2613f1d565b5b60006136b18582860161359d565b92505060206136c2858286016135f5565b9150509250929050565b6000602082840312156136e2576136e1613f1d565b5b600082013567ffffffffffffffff811115613700576136ff613f18565b5b61370c848285016135b2565b91505092915050565b60006020828403121561372b5761372a613f1d565b5b6000613739848285016135e0565b91505092915050565b60006020828403121561375857613757613f1d565b5b6000613766848285016135f5565b91505092915050565b60006020828403121561378557613784613f1d565b5b60006137938482850161360a565b91505092915050565b600080604083850312156137b3576137b2613f1d565b5b60006137c1858286016135f5565b92505060206137d2858286016135f5565b9150509250929050565b6137e581613d7e565b82525050565b6137f481613d90565b82525050565b6000613807601583613c58565b915061381282613f33565b602082019050919050565b600061382a601483613c58565b915061383582613f5c565b602082019050919050565b600061384d601483613c58565b915061385882613f85565b602082019050919050565b6000613870601683613c58565b915061387b82613fae565b602082019050919050565b6000613893601c83613c58565b915061389e82613fd7565b602082019050919050565b60006138b6601583613c58565b91506138c182614000565b602082019050919050565b60006138d9601e83613c58565b91506138e482614029565b602082019050919050565b60006138fc602783613c58565b915061390782614052565b604082019050919050565b600061391f600a83613c58565b915061392a826140a1565b602082019050919050565b6000613942603383613c58565b915061394d826140ca565b604082019050919050565b6000613965603f83613c58565b915061397082614119565b604082019050919050565b6000613988602a83613c58565b915061399382614168565b604082019050919050565b6139a781613dbc565b82525050565b60006020820190506139c260008301846137dc565b92915050565b60006040820190506139dd60008301856137dc565b6139ea60208301846137dc565b9392505050565b6000606082019050613a0660008301866137dc565b613a1360208301856137dc565b613a20604083018461399e565b949350505050565b6000604082019050613a3d60008301856137dc565b613a4a602083018461399e565b9392505050565b6000602082019050613a6660008301846137eb565b92915050565b60006020820190508181036000830152613a85816137fa565b9050919050565b60006020820190508181036000830152613aa58161381d565b9050919050565b60006020820190508181036000830152613ac581613840565b9050919050565b60006020820190508181036000830152613ae581613863565b9050919050565b60006020820190508181036000830152613b0581613886565b9050919050565b60006020820190508181036000830152613b25816138a9565b9050919050565b60006020820190508181036000830152613b45816138cc565b9050919050565b60006020820190508181036000830152613b65816138ef565b9050919050565b60006020820190508181036000830152613b8581613912565b9050919050565b60006020820190508181036000830152613ba581613935565b9050919050565b60006020820190508181036000830152613bc581613958565b9050919050565b60006020820190508181036000830152613be58161397b565b9050919050565b6000602082019050613c01600083018461399e565b92915050565b6000613c11613c22565b9050613c1d8282613df0565b919050565b6000604051905090565b600067ffffffffffffffff821115613c4757613c46613edf565b5b602082029050602081019050919050565b600082825260208201905092915050565b6000613c7482613dbc565b9150613c7f83613dbc565b9250827fffffffffffffffffffffffffffffffffffffffffffffffffffffffffffffffff03821115613cb457613cb3613e52565b5b828201905092915050565b6000613cca82613dbc565b9150613cd583613dbc565b925082613ce557613ce4613e81565b5b828204905092915050565b6000613cfb82613dbc565b9150613d0683613dbc565b9250817fffffffffffffffffffffffffffffffffffffffffffffffffffffffffffffffff0483118215151615613d3f57613d3e613e52565b5b828202905092915050565b6000613d5582613dbc565b9150613d6083613dbc565b925082821015613d7357613d72613e52565b5b828203905092915050565b6000613d8982613d9c565b9050919050565b60008115159050919050565b600073ffffffffffffffffffffffffffffffffffffffff82169050919050565b6000819050919050565b6000613dd182613dbc565b91506000821415613de557613de4613e52565b5b600182039050919050565b613df982613f22565b810181811067ffffffffffffffff82111715613e1857613e17613edf565b5b80604052505050565b6000613e2c82613dbc565b9150613e3783613dbc565b925082613e4757613e46613e81565b5b828206905092915050565b7f4e487b7100000000000000000000000000000000000000000000000000000000600052601160045260246000fd5b7f4e487b7100000000000000000000000000000000000000000000000000000000600052601260045260246000fd5b7f4e487b7100000000000000000000000000000000000000000000000000000000600052603260045260246000fd5b7f4e487b7100000000000000000000000000000000000000000000000000000000600052604160045260246000fd5b600080fd5b600080fd5b600080fd5b600080fd5b6000601f19601f8301169050919050565b7f64732d6d6174682d7375622d756e646572666c6f770000000000000000000000600082015250565b7f64732d6d6174682d6d756c2d6f766572666c6f77000000000000000000000000600082015250565b7f64732d6d6174682d6164642d6f766572666c6f77000000000000000000000000600082015250565b7f766f7563686565206c6576656c206973206e6f74203000000000000000000000600082015250565b7f796f7520617265207374696c6c20756e64657220636f6f6c646f776e00000000600082015250565b7f796f7572206c6576656c20697320746f6f206c6f770000000000000000000000600082015250565b7f706c6561736520617070726f766520726571756972656420616d6f756e740000600082015250565b7f706c6561736520636f6e6669726d20796f7572207072696d617279206372656460008201527f6974206361726400000000000000000000000000000000000000000000000000602082015250565b7f6d617468206572726f7200000000000000000000000000000000000000000000600082015250565b7f796f752063616e6e6f74206368616e676520796f7572207072696d617279207760008201527f68656e20796f752061726520696e206465627400000000000000000000000000602082015250565b7f596f75206861766520616c72656164792074616b656e2061206c6f616e2c207060008201527f6c656173652072652d70617920746f2074616b652061206e6577206c6f616e00602082015250565b7f796f7520646f206e6f7420686176652061206869676820656e6f75676820637260008201527f656469742073636f726500000000000000000000000000000000000000000000602082015250565b6141c081613d7e565b81146141cb57600080fd5b50565b6141d781613d90565b81146141e257600080fd5b50565b6141ee81613dbc565b81146141f957600080fd5b5056fea2646970667358221220af37249c246ca52614f01cd418e6727218a252b73de98bd081334192a1d900f164736f6c63430008070033",
  "immutableReferences": {},
  "source": "// SPDX-License-Identifier: MIT\npragma solidity ^0.8.7;\nimport \"@openzeppelin/contracts/utils/math/SafeMath.sol\";\nimport \"../Token/IERC20.sol\";\nimport \"@openzeppelin/contracts/token/ERC20/IERC20.sol\";\nimport \"./vouching.sol\";\nimport \"./Array/Arrayfuncs.sol\";\nimport \"./ds-math/math.sol\";\nimport \"../NFT/ICredit.sol\";\n\ncontract Loaning is vouching(address(this)),Arrayfuncs,DSMath {\nusing SafeMath for uint256;\nuint burner=80*adj;\nuint rate=20;\nevent tester(uint myprime);\n//Neutron token=new Neutron(msg.sender,address(this));\n //decimal adjustment made in vouching.sol\naddress reciever; //the address of this contract\naddress allowedcon;\naddress allowedcon2;\naddress governor;\naddress _owner;\naddress treasury;\n_IERC20 token;\nICredit NFT;\nIArrayfuncs calc;\nuint lim;\nuint cooldown;\nmapping (address=>uint256) I2;\nconstructor(){\n_owner=msg.sender;\ntreasury=_owner;\ncooldown=1000;\n\n}\n//cred[Primary[msg.sender]].\nmodifier only_owner(){\n    require(msg.sender==_owner);\n_;}\nfunction set(address tk, address _NFT)public{\n    token=_IERC20(tk);\n    NFT=ICredit(_NFT);\n}\nfunction smth(address someone) public{\n    emit tester(Primary[msg.sender]);\n}\n//function to take loan\nfunction takeloan (uint tier) public {\n  emit tester(Primary[msg.sender]);\nrequire(Primary[msg.sender]>0,\"please confirm your primary credit card\");\nrequire(sub(block.timestamp,cred[Primary[msg.sender]].timer)>=cooldown,\"you are still under cooldown\"); //so no loan spams\nrequire(cred[Primary[msg.sender]].creditsc_c>=tier*adj,\"you do not have a high enough credit score\");\nrequire(tier>0);\nrequire(!cred[Primary[msg.sender]].pending,\"You have already taken a loan, please re-pay to take a new loan\");\nuint interest;\ncred[Primary[msg.sender]].amount=100*wpow((add(adj,(adj.div(10)))),tier); //amount calc\ntoken.mint(msg.sender,cred[Primary[msg.sender]].amount);\ninterest=wmul(cred[Primary[msg.sender]].amount,(rate.mul(adj.div(100))));//20%,interest+1% admin fee\nuint x=wmul(cred[Primary[msg.sender]].Rrate,cred[Primary[msg.sender]].medianL);\nuint l=wmul(cred[Primary[msg.sender]].defexpo,cred[Primary[msg.sender]].Drate);\n//\nI2[msg.sender]=wmul(x.sub(l),(interest));\ncred[Primary[msg.sender]].principal=add(cred[Primary[msg.sender]].amount,I2[msg.sender]);\ncred[Primary[msg.sender]].pending=true;\ncred[Primary[msg.sender]].time=block.timestamp;\nif(tier==cred[Primary[msg.sender]].creditsc_c)\ncred[Primary[msg.sender]]._match==true;\n}\n//repayment rate calc: rrate=1-Drate; //R\n//defult rate calc: drate=(defults/(repayed+defults));\nfunction returnloan() public returns(bool){\n//I2 = (R*M2-D*H)*I-Ix\n require(cred[Primary[msg.sender]].pending=true);\n uint P2=cred[Primary[msg.sender]].principal;\n if(block.timestamp.sub(cred[Primary[msg.sender]].time)>420000){\n     cred[Primary[msg.sender]].creditsc_uc=0;\n     cred[Primary[msg.sender]].creditsc_c=0;\n     cred[Primary[msg.sender]].defults=add( cred[Primary[msg.sender]].defults,adj);\n     cred[Primary[msg.sender]].Dtotal=add( cred[Primary[msg.sender]].Dtotal,P2);\n     if(friend[msg.sender]!=address(0)){\n         cred[Primary[friend[msg.sender]]].creditsc_c=0;\n         cred[Primary[friend[msg.sender]]].creditsc_uc=0;\n         friend[msg.sender]=address(0);\n     }\n     cred[Primary[msg.sender]].creditsc_c=0; //why?\n     cred[Primary[msg.sender]].princeD.push(P2);\nsortA(cred[Primary[msg.sender]].princeD);\ncred[Primary[msg.sender]].medianD=getmedian(cred[Primary[msg.sender]].princeD);//M1\ncred[Primary[msg.sender]].defexpo=sub(cred[Primary[msg.sender]].Ltotal,cred[Primary[msg.sender]].Dtotal); //D\n     return false;\n }\n else{\nrequire(token.allowance(msg.sender,address(this))==P2,\"please approve required amount\");\n\nuint interest=I2[msg.sender];\nuint burning=burner;\nuint treasurym=sub(mul(100,adj),burning);\nuint ownerm=5;\n\n\nrequire(add(interest,cred[Primary[msg.sender]].amount)==P2,\"math error\");\n\ntoken.transferFrom(msg.sender,_owner,interest.mul(ownerm.div(100)));\ntoken.transferFrom(msg.sender,treasury,interest.div(2));//mul(treasurym.div(100)));\ntoken.burnfrom(msg.sender,interest.div(2));//mul(burning.div(100)));\ntoken.burnfrom(msg.sender,cred[Primary[msg.sender]].amount);\n\n //replace with burn //math to calc P2 needs to be checked\n cred[Primary[msg.sender]].pending=false;\n cred[Primary[msg.sender]].creditsc_uc=add( cred[Primary[msg.sender]].creditsc_uc,adj);\n\n //decide if to increase credit score, (checks if under limit)\n if(cred[Primary[msg.sender]].creditsc_c<lim &&cred[Primary[msg.sender]]. _match==true){\n cred[Primary[msg.sender]].creditsc_c=add(cred[Primary[msg.sender]].creditsc_c,adj);\n cred[Primary[msg.sender]]._match=false;\n //sets cooldown before next loan.\n}\n cred[Primary[msg.sender]].timer=block.timestamp;  //marks time when last loan was returned\n\n\n //second if\n\n //first if\n cred[Primary[msg.sender]].repayed=add( cred[Primary[msg.sender]].repayed,adj);\n cred[Primary[msg.sender]].Dtotal=add( cred[Primary[msg.sender]].Dtotal,P2);\n cred[Primary[msg.sender]].princeL.push(P2);\n sortA(cred[Primary[msg.sender]].princeL);\n cred[Primary[msg.sender]].medianL=getmedian(cred[Primary[msg.sender]].princeL);//M2\ncred[Primary[msg.sender]].defexpo=sub(cred[Primary[msg.sender]].Ltotal,cred[Primary[msg.sender]].Dtotal); //D\nuint x=add(cred[Primary[msg.sender]].repayed,cred[Primary[msg.sender]].defults);\ncred[Primary[msg.sender]].Drate=wdiv(cred[Primary[msg.sender]].defults,x);//H\n\ncred[Primary[msg.sender]].Rrate=sub(1,cred[Primary[msg.sender]].Drate);//R\n return true;\n\n\n }//outermost if/else\n\n}\nfunction freemoney() public  payable{\n    token.mint(msg.sender,(1000*adj));\n}\n/*function setgovernor(address _governor) public only_owner returns(bool){\n\n    governor=_governor;\n    return true;\n}// set governor contract*/\n//for testing PURPOSE:\nfunction increment(address applicant,uint inc_amt)public{\n    require(Primary[applicant]>0,\"please confirm your primary credit card\");\n    cred[Primary[applicant]].creditsc_c.add(inc_amt);//1*adj;\n    cred[Primary[applicant]].creditsc_uc.add(inc_amt);//1*adj;\n\n}\nfunction Pending(address user) public view returns(bool){\n  return cred[Primary[user]].pending;\n}\n\nfunction Prime(address _msgsender) public view returns(uint){\n  return Primary[_msgsender];\n}\nfunction Prime(address _msgsender,uint setAdd) public{\nPrimary[_msgsender]=setAdd;\n}\nfunction Reset_credit(uint ID) public {\n  cred[ID]=cred[0];\n}\n}\n",
  "sourcePath": "/Users/vibhu/node_manager/node_modules/Solidity/Zeno/contracts/Lending/Lending-main.sol",
  "compiler": {
    "name": "solc",
    "version": "0.8.7+commit.e28d00a7.Emscripten.clang"
  },
  "schemaVersion": "3.4.7",
  "updatedAt": "2022-06-20T03:52:02.567Z",
  "devdoc": {
    "kind": "dev",
    "methods": {},
    "version": 1
  },
  "userdoc": {
    "kind": "user",
    "methods": {},
    "version": 1
  }
}