{
  "contractName": "Loaning",
  "abi": [
    {
      "inputs": [],
      "stateMutability": "nonpayable",
      "type": "constructor"
    },
    {
      "inputs": [
        {
          "internalType": "address",
          "name": "",
          "type": "address"
        }
      ],
      "name": "friend",
      "outputs": [
        {
          "internalType": "address",
          "name": "",
          "type": "address"
        }
      ],
      "stateMutability": "view",
      "type": "function",
      "constant": true
    },
    {
      "inputs": [
        {
          "internalType": "uint256[]",
          "name": "amts",
          "type": "uint256[]"
        }
      ],
      "name": "getmedian",
      "outputs": [
        {
          "internalType": "uint256",
          "name": "median",
          "type": "uint256"
        }
      ],
      "stateMutability": "pure",
      "type": "function",
      "constant": true
    },
    {
      "inputs": [
        {
          "internalType": "uint256[]",
          "name": "amts",
          "type": "uint256[]"
        }
      ],
      "name": "sortA",
      "outputs": [],
      "stateMutability": "pure",
      "type": "function",
      "constant": true
    },
    {
      "inputs": [
        {
          "internalType": "address",
          "name": "vouchee",
          "type": "address"
        }
      ],
      "name": "vouch",
      "outputs": [
        {
          "internalType": "bool",
          "name": "success",
          "type": "bool"
        }
      ],
      "stateMutability": "nonpayable",
      "type": "function"
    },
    {
      "inputs": [
        {
          "internalType": "uint256",
          "name": "x",
          "type": "uint256"
        },
        {
          "internalType": "uint256",
          "name": "n",
          "type": "uint256"
        }
      ],
      "name": "wpow",
      "outputs": [
        {
          "internalType": "uint256",
          "name": "z",
          "type": "uint256"
        }
      ],
      "stateMutability": "pure",
      "type": "function",
      "constant": true
    },
    {
      "inputs": [
        {
          "internalType": "uint256",
          "name": "x",
          "type": "uint256"
        }
      ],
      "name": "wsqrt",
      "outputs": [
        {
          "internalType": "uint256",
          "name": "y",
          "type": "uint256"
        }
      ],
      "stateMutability": "pure",
      "type": "function",
      "constant": true
    },
    {
      "inputs": [
        {
          "internalType": "address",
          "name": "tk",
          "type": "address"
        },
        {
          "internalType": "address",
          "name": "_NFT",
          "type": "address"
        }
      ],
      "name": "set",
      "outputs": [],
      "stateMutability": "nonpayable",
      "type": "function"
    },
    {
      "inputs": [
        {
          "internalType": "uint256",
          "name": "tier",
          "type": "uint256"
        }
      ],
      "name": "takeloan",
      "outputs": [],
      "stateMutability": "nonpayable",
      "type": "function"
    },
    {
      "inputs": [],
      "name": "returnloan",
      "outputs": [
        {
          "internalType": "bool",
          "name": "",
          "type": "bool"
        }
      ],
      "stateMutability": "nonpayable",
      "type": "function"
    },
    {
      "inputs": [],
      "name": "freemoney",
      "outputs": [],
      "stateMutability": "payable",
      "type": "function",
      "payable": true
    },
    {
      "inputs": [
        {
          "internalType": "address",
          "name": "pardonee",
          "type": "address"
        }
      ],
      "name": "increment",
      "outputs": [],
      "stateMutability": "nonpayable",
      "type": "function"
    }
  ],
  "bytecode": "0x6080604052600754605062000015919062000187565b6005556014600655670de0b6b3a76400006007553480156200003657600080fd5b503080600460006101000a81548173ffffffffffffffffffffffffffffffffffffffff021916908373ffffffffffffffffffffffffffffffffffffffff160217905550600460009054906101000a900473ffffffffffffffffffffffffffffffffffffffff16600360006101000a81548173ffffffffffffffffffffffffffffffffffffffff021916908373ffffffffffffffffffffffffffffffffffffffff1602179055505033600c60006101000a81548173ffffffffffffffffffffffffffffffffffffffff021916908373ffffffffffffffffffffffffffffffffffffffff160217905550600c60009054906101000a900473ffffffffffffffffffffffffffffffffffffffff16600d60006101000a81548173ffffffffffffffffffffffffffffffffffffffff021916908373ffffffffffffffffffffffffffffffffffffffff16021790555062000221565b60006200019482620001e8565b9150620001a183620001e8565b9250817fffffffffffffffffffffffffffffffffffffffffffffffffffffffffffffffff0483118215151615620001dd57620001dc620001f2565b5b828202905092915050565b6000819050919050565b7f4e487b7100000000000000000000000000000000000000000000000000000000600052601160045260246000fd5b613a4c80620002316000396000f3fe60806040526004361061009c5760003560e01c806393eb1cce1161006457806393eb1cce14610196578063c16c6fc2146101d3578063dd66e16b146101dd578063e340d56b1461021a578063ebacef7814610243578063fef5a10e1461026e5761009c565b806302ebb44d146100a157806345f43dd8146100de5780635f6e557514610107578063672f8e4f1461013057806389675cac1461016d575b600080fd5b3480156100ad57600080fd5b506100c860048036038101906100c39190612f78565b6102ab565b6040516100d59190613455565b60405180910390f35b3480156100ea57600080fd5b5061010560048036038101906101009190612f0b565b6102e1565b005b34801561011357600080fd5b5061012e60048036038101906101299190612fee565b610435565b005b34801561013c57600080fd5b5061015760048036038101906101529190613048565b610cf7565b6040516101649190613455565b60405180910390f35b34801561017957600080fd5b50610194600480360381019061018f9190612f38565b610d7e565b005b3480156101a257600080fd5b506101bd60048036038101906101b89190612fee565b610e26565b6040516101ca9190613455565b60405180910390f35b6101db610e81565b005b3480156101e957600080fd5b5061020460048036038101906101ff9190612f0b565b610f21565b60405161021191906132da565b60405180910390f35b34801561022657600080fd5b50610241600480360381019061023c9190612f78565b6111d7565b005b34801561024f57600080fd5b506102586112e4565b60405161026591906132da565b60405180910390f35b34801561027a57600080fd5b5061029560048036038101906102909190612f0b565b612c05565b6040516102a29190613236565b60405180910390f35b600080600283516102bc9190613528565b90508281815181106102d1576102d0613719565b5b6020026020010151915050919050565b600f60009054906101000a900473ffffffffffffffffffffffffffffffffffffffff1673ffffffffffffffffffffffffffffffffffffffff166340d097c3826040518263ffffffff1660e01b815260040161033c9190613236565b600060405180830381600087803b15801561035657600080fd5b505af115801561036a573d6000803e3d6000fd5b50505050600754600161037d9190613559565b600080600160008573ffffffffffffffffffffffffffffffffffffffff1673ffffffffffffffffffffffffffffffffffffffff168152602001908152602001600020548152602001908152602001600020505060075460016103df9190613559565b600080600160008573ffffffffffffffffffffffffffffffffffffffff1673ffffffffffffffffffffffffffffffffffffffff168152602001908152602001600020548152602001908152602001600020505050565b6000600160003373ffffffffffffffffffffffffffffffffffffffff1673ffffffffffffffffffffffffffffffffffffffff1681526020019081526020016000205414156104b8576040517f08c379a00000000000000000000000000000000000000000000000000000000081526004016104af906133d5565b60405180910390fd5b60125461051942600080600160003373ffffffffffffffffffffffffffffffffffffffff1673ffffffffffffffffffffffffffffffffffffffff16815260200190815260200160002054815260200190815260200160002060080154612c38565b101561055a576040517f08c379a000000000000000000000000000000000000000000000000000000000815260040161055190613375565b60405180910390fd5b600754816105689190613559565b600080600160003373ffffffffffffffffffffffffffffffffffffffff1673ffffffffffffffffffffffffffffffffffffffff1681526020019081526020016000205481526020019081526020016000206000015410156105fe576040517f08c379a00000000000000000000000000000000000000000000000000000000081526004016105f590613435565b60405180910390fd5b6000811161060b57600080fd5b600080600160003373ffffffffffffffffffffffffffffffffffffffff1673ffffffffffffffffffffffffffffffffffffffff16815260200190815260200160002054815260200190815260200160002060050160009054906101000a900460ff16156106ad576040517f08c379a00000000000000000000000000000000000000000000000000000000081526004016106a490613415565b60405180910390fd5b60006106d96106d36007546106ce600a600754612c9190919063ffffffff16565b612ca7565b83610cf7565b60646106e59190613559565b600080600160003373ffffffffffffffffffffffffffffffffffffffff1673ffffffffffffffffffffffffffffffffffffffff16815260200190815260200160002054815260200190815260200160002060040181905550600e60009054906101000a900473ffffffffffffffffffffffffffffffffffffffff1673ffffffffffffffffffffffffffffffffffffffff166340c10f1933600080600160003373ffffffffffffffffffffffffffffffffffffffff1673ffffffffffffffffffffffffffffffffffffffff168152602001908152602001600020548152602001908152602001600020600401546040518363ffffffff1660e01b81526004016107ee9291906132b1565b600060405180830381600087803b15801561080857600080fd5b505af115801561081c573d6000803e3d6000fd5b505050506108a7600080600160003373ffffffffffffffffffffffffffffffffffffffff1673ffffffffffffffffffffffffffffffffffffffff168152602001908152602001600020548152602001908152602001600020600401546108a26108916064600754612c9190919063ffffffff16565b600654612d0090919063ffffffff16565b612d16565b9050600061095d600080600160003373ffffffffffffffffffffffffffffffffffffffff1673ffffffffffffffffffffffffffffffffffffffff168152602001908152602001600020548152602001908152602001600020600f0154600080600160003373ffffffffffffffffffffffffffffffffffffffff1673ffffffffffffffffffffffffffffffffffffffff16815260200190815260200160002054815260200190815260200160002060120154612d16565b90506000610a13600080600160003373ffffffffffffffffffffffffffffffffffffffff1673ffffffffffffffffffffffffffffffffffffffff168152602001908152602001600020548152602001908152602001600020600d0154600080600160003373ffffffffffffffffffffffffffffffffffffffff1673ffffffffffffffffffffffffffffffffffffffff168152602001908152602001600020548152602001908152602001600020600e0154612d16565b9050610a31610a2b8284612d5a90919063ffffffff16565b84612d16565b601360003373ffffffffffffffffffffffffffffffffffffffff1673ffffffffffffffffffffffffffffffffffffffff16815260200190815260200160002081905550610b11600080600160003373ffffffffffffffffffffffffffffffffffffffff1673ffffffffffffffffffffffffffffffffffffffff16815260200190815260200160002054815260200190815260200160002060040154601360003373ffffffffffffffffffffffffffffffffffffffff1673ffffffffffffffffffffffffffffffffffffffff16815260200190815260200160002054612ca7565b600080600160003373ffffffffffffffffffffffffffffffffffffffff1673ffffffffffffffffffffffffffffffffffffffff168152602001908152602001600020548152602001908152602001600020600301819055506001600080600160003373ffffffffffffffffffffffffffffffffffffffff1673ffffffffffffffffffffffffffffffffffffffff16815260200190815260200160002054815260200190815260200160002060050160006101000a81548160ff02191690831515021790555042600080600160003373ffffffffffffffffffffffffffffffffffffffff1673ffffffffffffffffffffffffffffffffffffffff16815260200190815260200160002054815260200190815260200160002060070181905550600080600160003373ffffffffffffffffffffffffffffffffffffffff1673ffffffffffffffffffffffffffffffffffffffff16815260200190815260200160002054815260200190815260200160002060000154841415610cf15760011515600080600160003373ffffffffffffffffffffffffffffffffffffffff1673ffffffffffffffffffffffffffffffffffffffff16815260200190815260200160002054815260200190815260200160002060020160009054906101000a905050505b50505050565b600080600283610d07919061368a565b1415610d1b57670de0b6b3a7640000610d1d565b825b9050600282610d2c9190613528565b91505b60008214610d7857610d418384612d16565b92506000600283610d52919061368a565b14610d6457610d618184612d16565b90505b600282610d719190613528565b9150610d2f565b92915050565b81600e60006101000a81548173ffffffffffffffffffffffffffffffffffffffff021916908373ffffffffffffffffffffffffffffffffffffffff160217905550600f60009054906101000a900473ffffffffffffffffffffffffffffffffffffffff16600f60006101000a81548173ffffffffffffffffffffffffffffffffffffffff021916908373ffffffffffffffffffffffffffffffffffffffff1602179055505050565b6000806002600184610e3891906134d2565b610e429190613528565b90508291505b81811015610e7b57809150600281610e608584612d70565b610e6a91906134d2565b610e749190613528565b9050610e48565b50919050565b600e60009054906101000a900473ffffffffffffffffffffffffffffffffffffffff1673ffffffffffffffffffffffffffffffffffffffff166340c10f19336007546103e8610ed09190613559565b6040518363ffffffff1660e01b8152600401610eed9291906132b1565b600060405180830381600087803b158015610f0757600080fd5b505af1158015610f1b573d6000803e3d6000fd5b50505050565b6000801515600080600160003373ffffffffffffffffffffffffffffffffffffffff1673ffffffffffffffffffffffffffffffffffffffff16815260200190815260200160002054815260200190815260200160002060050160009054906101000a900460ff16151514610f9457600080fd5b6006600080600160003373ffffffffffffffffffffffffffffffffffffffff1673ffffffffffffffffffffffffffffffffffffffff16815260200190815260200160002054815260200190815260200160002060000154101561102c576040517f08c379a000000000000000000000000000000000000000000000000000000000815260040161102390613395565b60405180910390fd5b6000806000600160008673ffffffffffffffffffffffffffffffffffffffff1673ffffffffffffffffffffffffffffffffffffffff16815260200190815260200160002054815260200190815260200160002060000154146110c3576040517f08c379a00000000000000000000000000000000000000000000000000000000081526004016110ba90613355565b60405180910390fd5b33600260008473ffffffffffffffffffffffffffffffffffffffff1673ffffffffffffffffffffffffffffffffffffffff16815260200190815260200160002060006101000a81548173ffffffffffffffffffffffffffffffffffffffff021916908373ffffffffffffffffffffffffffffffffffffffff160217905550600360009054906101000a900473ffffffffffffffffffffffffffffffffffffffff1673ffffffffffffffffffffffffffffffffffffffff166345f43dd8836040518263ffffffff1660e01b815260040161119c9190613236565b600060405180830381600087803b1580156111b657600080fd5b505af11580156111ca573d6000803e3d6000fd5b5050505060019050919050565b600080600183516111e891906135b3565b91505b60008211156112df578260018361120291906135b3565b8151811061121357611212613719565b5b602002602001015183838151811061122e5761122d613719565b5b602002602001015110156112cc5782828151811061124f5761124e613719565b5b602002602001015190508260018361126791906135b3565b8151811061127857611277613719565b5b602002602001015183838151811061129357611292613719565b5b60200260200101818152505080836001846112ae91906135b3565b815181106112bf576112be613719565b5b6020026020010181815250505b81806112d79061362f565b9250506111eb565b505050565b60006001600080600160003373ffffffffffffffffffffffffffffffffffffffff1673ffffffffffffffffffffffffffffffffffffffff16815260200190815260200160002054815260200190815260200160002060050160006101000a81548160ff021916908315150217905561135b57600080fd5b6000806000600160003373ffffffffffffffffffffffffffffffffffffffff1673ffffffffffffffffffffffffffffffffffffffff168152602001908152602001600020548152602001908152602001600020600301549050620668a061141f600080600160003373ffffffffffffffffffffffffffffffffffffffff1673ffffffffffffffffffffffffffffffffffffffff1681526020019081526020016000205481526020019081526020016000206007015442612d5a90919063ffffffff16565b1115611c63576000806000600160003373ffffffffffffffffffffffffffffffffffffffff1673ffffffffffffffffffffffffffffffffffffffff168152602001908152602001600020548152602001908152602001600020600101819055506000806000600160003373ffffffffffffffffffffffffffffffffffffffff1673ffffffffffffffffffffffffffffffffffffffff16815260200190815260200160002054815260200190815260200160002060000181905550611539600080600160003373ffffffffffffffffffffffffffffffffffffffff1673ffffffffffffffffffffffffffffffffffffffff16815260200190815260200160002054815260200190815260200160002060090154600754612ca7565b600080600160003373ffffffffffffffffffffffffffffffffffffffff1673ffffffffffffffffffffffffffffffffffffffff168152602001908152602001600020548152602001908152602001600020600901819055506115ef600080600160003373ffffffffffffffffffffffffffffffffffffffff1673ffffffffffffffffffffffffffffffffffffffff168152602001908152602001600020548152602001908152602001600020600c015482612ca7565b600080600160003373ffffffffffffffffffffffffffffffffffffffff1673ffffffffffffffffffffffffffffffffffffffff168152602001908152602001600020548152602001908152602001600020600c0181905550600073ffffffffffffffffffffffffffffffffffffffff16600260003373ffffffffffffffffffffffffffffffffffffffff1673ffffffffffffffffffffffffffffffffffffffff16815260200190815260200160002060009054906101000a900473ffffffffffffffffffffffffffffffffffffffff1673ffffffffffffffffffffffffffffffffffffffff16146118cc57600080600060016000600260003373ffffffffffffffffffffffffffffffffffffffff1673ffffffffffffffffffffffffffffffffffffffff16815260200190815260200160002060009054906101000a900473ffffffffffffffffffffffffffffffffffffffff1673ffffffffffffffffffffffffffffffffffffffff1673ffffffffffffffffffffffffffffffffffffffff16815260200190815260200160002054815260200190815260200160002060000181905550600080600060016000600260003373ffffffffffffffffffffffffffffffffffffffff1673ffffffffffffffffffffffffffffffffffffffff16815260200190815260200160002060009054906101000a900473ffffffffffffffffffffffffffffffffffffffff1673ffffffffffffffffffffffffffffffffffffffff1673ffffffffffffffffffffffffffffffffffffffff168152602001908152602001600020548152602001908152602001600020600101819055506000600260003373ffffffffffffffffffffffffffffffffffffffff1673ffffffffffffffffffffffffffffffffffffffff16815260200190815260200160002060006101000a81548173ffffffffffffffffffffffffffffffffffffffff021916908373ffffffffffffffffffffffffffffffffffffffff1602179055505b6000806000600160003373ffffffffffffffffffffffffffffffffffffffff1673ffffffffffffffffffffffffffffffffffffffff16815260200190815260200160002054815260200190815260200160002060000181905550600080600160003373ffffffffffffffffffffffffffffffffffffffff1673ffffffffffffffffffffffffffffffffffffffff168152602001908152602001600020548152602001908152602001600020601001819080600181540180825580915050600190039060005260206000200160009091909190915055611a4c600080600160003373ffffffffffffffffffffffffffffffffffffffff1673ffffffffffffffffffffffffffffffffffffffff168152602001908152602001600020548152602001908152602001600020601001805480602002602001604051908101604052809291908181526020018280548015611a4257602002820191906000526020600020905b815481526020019060010190808311611a2e575b50505050506111d7565b611af7600080600160003373ffffffffffffffffffffffffffffffffffffffff1673ffffffffffffffffffffffffffffffffffffffff168152602001908152602001600020548152602001908152602001600020601001805480602002602001604051908101604052809291908181526020018280548015611aed57602002820191906000526020600020905b815481526020019060010190808311611ad9575b50505050506102ab565b600080600160003373ffffffffffffffffffffffffffffffffffffffff1673ffffffffffffffffffffffffffffffffffffffff16815260200190815260200160002054815260200190815260200160002060130181905550611c01600080600160003373ffffffffffffffffffffffffffffffffffffffff1673ffffffffffffffffffffffffffffffffffffffff168152602001908152602001600020548152602001908152602001600020600b0154600080600160003373ffffffffffffffffffffffffffffffffffffffff1673ffffffffffffffffffffffffffffffffffffffff168152602001908152602001600020548152602001908152602001600020600c0154612c38565b600080600160003373ffffffffffffffffffffffffffffffffffffffff1673ffffffffffffffffffffffffffffffffffffffff168152602001908152602001600020548152602001908152602001600020600d01819055506000915050612c02565b80600e60009054906101000a900473ffffffffffffffffffffffffffffffffffffffff1673ffffffffffffffffffffffffffffffffffffffff1663dd62ed3e33306040518363ffffffff1660e01b8152600401611cc1929190613251565b60206040518083038186803b158015611cd957600080fd5b505afa158015611ced573d6000803e3d6000fd5b505050506040513d601f19601f82011682018060405250810190611d11919061301b565b14611d51576040517f08c379a0000000000000000000000000000000000000000000000000000000008152600401611d48906133b5565b60405180910390fd5b6000601360003373ffffffffffffffffffffffffffffffffffffffff1673ffffffffffffffffffffffffffffffffffffffff168152602001908152602001600020549050600060055490506000611db4611dae6064600754612dac565b83612c38565b905060006005905084611e1b85600080600160003373ffffffffffffffffffffffffffffffffffffffff1673ffffffffffffffffffffffffffffffffffffffff16815260200190815260200160002054815260200190815260200160002060040154612ca7565b14611e5b576040517f08c379a0000000000000000000000000000000000000000000000000000000008152600401611e52906133f5565b60405180910390fd5b600e60009054906101000a900473ffffffffffffffffffffffffffffffffffffffff1673ffffffffffffffffffffffffffffffffffffffff166323b872dd33600c60009054906101000a900473ffffffffffffffffffffffffffffffffffffffff16611ee3611ed4606487612c9190919063ffffffff16565b89612d0090919063ffffffff16565b6040518463ffffffff1660e01b8152600401611f019392919061327a565b602060405180830381600087803b158015611f1b57600080fd5b505af1158015611f2f573d6000803e3d6000fd5b505050506040513d601f19601f82011682018060405250810190611f539190612fc1565b50600e60009054906101000a900473ffffffffffffffffffffffffffffffffffffffff1673ffffffffffffffffffffffffffffffffffffffff166323b872dd33600d60009054906101000a900473ffffffffffffffffffffffffffffffffffffffff16611fca600289612c9190919063ffffffff16565b6040518463ffffffff1660e01b8152600401611fe89392919061327a565b602060405180830381600087803b15801561200257600080fd5b505af1158015612016573d6000803e3d6000fd5b505050506040513d601f19601f8201168201806040525081019061203a9190612fc1565b50600e60009054906101000a900473ffffffffffffffffffffffffffffffffffffffff1673ffffffffffffffffffffffffffffffffffffffff1663242270343361208e600288612c9190919063ffffffff16565b6040518363ffffffff1660e01b81526004016120ab9291906132b1565b600060405180830381600087803b1580156120c557600080fd5b505af11580156120d9573d6000803e3d6000fd5b50505050600e60009054906101000a900473ffffffffffffffffffffffffffffffffffffffff1673ffffffffffffffffffffffffffffffffffffffff16632422703433600080600160003373ffffffffffffffffffffffffffffffffffffffff1673ffffffffffffffffffffffffffffffffffffffff168152602001908152602001600020548152602001908152602001600020600401546040518363ffffffff1660e01b815260040161218e9291906132b1565b600060405180830381600087803b1580156121a857600080fd5b505af11580156121bc573d6000803e3d6000fd5b505050506000806000600160003373ffffffffffffffffffffffffffffffffffffffff1673ffffffffffffffffffffffffffffffffffffffff16815260200190815260200160002054815260200190815260200160002060050160006101000a81548160ff02191690831515021790555061228d600080600160003373ffffffffffffffffffffffffffffffffffffffff1673ffffffffffffffffffffffffffffffffffffffff16815260200190815260200160002054815260200190815260200160002060010154600754612ca7565b600080600160003373ffffffffffffffffffffffffffffffffffffffff1673ffffffffffffffffffffffffffffffffffffffff16815260200190815260200160002054815260200190815260200160002060010181905550601154600080600160003373ffffffffffffffffffffffffffffffffffffffff1673ffffffffffffffffffffffffffffffffffffffff168152602001908152602001600020548152602001908152602001600020600001541080156123af575060011515600080600160003373ffffffffffffffffffffffffffffffffffffffff1673ffffffffffffffffffffffffffffffffffffffff16815260200190815260200160002054815260200190815260200160002060020160009054906101000a900460ff161515145b156124da57612414600080600160003373ffffffffffffffffffffffffffffffffffffffff1673ffffffffffffffffffffffffffffffffffffffff16815260200190815260200160002054815260200190815260200160002060000154600754612ca7565b600080600160003373ffffffffffffffffffffffffffffffffffffffff1673ffffffffffffffffffffffffffffffffffffffff168152602001908152602001600020548152602001908152602001600020600001819055506000806000600160003373ffffffffffffffffffffffffffffffffffffffff1673ffffffffffffffffffffffffffffffffffffffff16815260200190815260200160002054815260200190815260200160002060020160006101000a81548160ff0219169083151502179055505b42600080600160003373ffffffffffffffffffffffffffffffffffffffff1673ffffffffffffffffffffffffffffffffffffffff16815260200190815260200160002054815260200190815260200160002060080181905550612593600080600160003373ffffffffffffffffffffffffffffffffffffffff1673ffffffffffffffffffffffffffffffffffffffff168152602001908152602001600020548152602001908152602001600020600a0154600754612ca7565b600080600160003373ffffffffffffffffffffffffffffffffffffffff1673ffffffffffffffffffffffffffffffffffffffff168152602001908152602001600020548152602001908152602001600020600a0181905550612649600080600160003373ffffffffffffffffffffffffffffffffffffffff1673ffffffffffffffffffffffffffffffffffffffff168152602001908152602001600020548152602001908152602001600020600c015486612ca7565b600080600160003373ffffffffffffffffffffffffffffffffffffffff1673ffffffffffffffffffffffffffffffffffffffff168152602001908152602001600020548152602001908152602001600020600c0181905550600080600160003373ffffffffffffffffffffffffffffffffffffffff1673ffffffffffffffffffffffffffffffffffffffff1681526020019081526020016000205481526020019081526020016000206011018590806001815401808255809150506001900390600052602060002001600090919091909150556127c7600080600160003373ffffffffffffffffffffffffffffffffffffffff1673ffffffffffffffffffffffffffffffffffffffff1681526020019081526020016000205481526020019081526020016000206011018054806020026020016040519081016040528092919081815260200182805480156127bd57602002820191906000526020600020905b8154815260200190600101908083116127a9575b50505050506111d7565b612872600080600160003373ffffffffffffffffffffffffffffffffffffffff1673ffffffffffffffffffffffffffffffffffffffff16815260200190815260200160002054815260200190815260200160002060110180548060200260200160405190810160405280929190818152602001828054801561286857602002820191906000526020600020905b815481526020019060010190808311612854575b50505050506102ab565b600080600160003373ffffffffffffffffffffffffffffffffffffffff1673ffffffffffffffffffffffffffffffffffffffff1681526020019081526020016000205481526020019081526020016000206012018190555061297c600080600160003373ffffffffffffffffffffffffffffffffffffffff1673ffffffffffffffffffffffffffffffffffffffff168152602001908152602001600020548152602001908152602001600020600b0154600080600160003373ffffffffffffffffffffffffffffffffffffffff1673ffffffffffffffffffffffffffffffffffffffff168152602001908152602001600020548152602001908152602001600020600c0154612c38565b600080600160003373ffffffffffffffffffffffffffffffffffffffff1673ffffffffffffffffffffffffffffffffffffffff168152602001908152602001600020548152602001908152602001600020600d01819055506000612a88600080600160003373ffffffffffffffffffffffffffffffffffffffff1673ffffffffffffffffffffffffffffffffffffffff168152602001908152602001600020548152602001908152602001600020600a0154600080600160003373ffffffffffffffffffffffffffffffffffffffff1673ffffffffffffffffffffffffffffffffffffffff16815260200190815260200160002054815260200190815260200160002060090154612ca7565b9050612ae8600080600160003373ffffffffffffffffffffffffffffffffffffffff1673ffffffffffffffffffffffffffffffffffffffff1681526020019081526020016000205481526020019081526020016000206009015482612d70565b600080600160003373ffffffffffffffffffffffffffffffffffffffff1673ffffffffffffffffffffffffffffffffffffffff168152602001908152602001600020548152602001908152602001600020600e0181905550612b9f6001600080600160003373ffffffffffffffffffffffffffffffffffffffff1673ffffffffffffffffffffffffffffffffffffffff168152602001908152602001600020548152602001908152602001600020600e0154612c38565b600080600160003373ffffffffffffffffffffffffffffffffffffffff1673ffffffffffffffffffffffffffffffffffffffff168152602001908152602001600020548152602001908152602001600020600f0181905550600196505050505050505b90565b60026020528060005260406000206000915054906101000a900473ffffffffffffffffffffffffffffffffffffffff1681565b6000828284612c4791906135b3565b9150811115612c8b576040517f08c379a0000000000000000000000000000000000000000000000000000000008152600401612c82906132f5565b60405180910390fd5b92915050565b60008183612c9f9190613528565b905092915050565b6000828284612cb691906134d2565b9150811015612cfa576040517f08c379a0000000000000000000000000000000000000000000000000000000008152600401612cf190613335565b60405180910390fd5b92915050565b60008183612d0e9190613559565b905092915050565b6000670de0b6b3a7640000612d48612d2e8585612dac565b6002670de0b6b3a7640000612d439190613528565b612ca7565b612d529190613528565b905092915050565b60008183612d6891906135b3565b905092915050565b600081612d9a612d8885670de0b6b3a7640000612dac565b600285612d959190613528565b612ca7565b612da49190613528565b905092915050565b600080821480612dd4575082828385612dc59190613559565b925082612dd29190613528565b145b612e13576040517f08c379a0000000000000000000000000000000000000000000000000000000008152600401612e0a90613315565b60405180910390fd5b92915050565b6000612e2c612e2784613495565b613470565b90508083825260208201905082856020860282011115612e4f57612e4e61377c565b5b60005b85811015612e7f5781612e658882612ee1565b845260208401935060208301925050600181019050612e52565b5050509392505050565b600081359050612e98816139d1565b92915050565b600082601f830112612eb357612eb2613777565b5b8135612ec3848260208601612e19565b91505092915050565b600081519050612edb816139e8565b92915050565b600081359050612ef0816139ff565b92915050565b600081519050612f05816139ff565b92915050565b600060208284031215612f2157612f20613786565b5b6000612f2f84828501612e89565b91505092915050565b60008060408385031215612f4f57612f4e613786565b5b6000612f5d85828601612e89565b9250506020612f6e85828601612e89565b9150509250929050565b600060208284031215612f8e57612f8d613786565b5b600082013567ffffffffffffffff811115612fac57612fab613781565b5b612fb884828501612e9e565b91505092915050565b600060208284031215612fd757612fd6613786565b5b6000612fe584828501612ecc565b91505092915050565b60006020828403121561300457613003613786565b5b600061301284828501612ee1565b91505092915050565b60006020828403121561303157613030613786565b5b600061303f84828501612ef6565b91505092915050565b6000806040838503121561305f5761305e613786565b5b600061306d85828601612ee1565b925050602061307e85828601612ee1565b9150509250929050565b613091816135e7565b82525050565b6130a0816135f9565b82525050565b60006130b36015836134c1565b91506130be8261379c565b602082019050919050565b60006130d66014836134c1565b91506130e1826137c5565b602082019050919050565b60006130f96014836134c1565b9150613104826137ee565b602082019050919050565b600061311c6016836134c1565b915061312782613817565b602082019050919050565b600061313f601c836134c1565b915061314a82613840565b602082019050919050565b60006131626015836134c1565b915061316d82613869565b602082019050919050565b6000613185601e836134c1565b915061319082613892565b602082019050919050565b60006131a86027836134c1565b91506131b3826138bb565b604082019050919050565b60006131cb600a836134c1565b91506131d68261390a565b602082019050919050565b60006131ee603f836134c1565b91506131f982613933565b604082019050919050565b6000613211602a836134c1565b915061321c82613982565b604082019050919050565b61323081613625565b82525050565b600060208201905061324b6000830184613088565b92915050565b60006040820190506132666000830185613088565b6132736020830184613088565b9392505050565b600060608201905061328f6000830186613088565b61329c6020830185613088565b6132a96040830184613227565b949350505050565b60006040820190506132c66000830185613088565b6132d36020830184613227565b9392505050565b60006020820190506132ef6000830184613097565b92915050565b6000602082019050818103600083015261330e816130a6565b9050919050565b6000602082019050818103600083015261332e816130c9565b9050919050565b6000602082019050818103600083015261334e816130ec565b9050919050565b6000602082019050818103600083015261336e8161310f565b9050919050565b6000602082019050818103600083015261338e81613132565b9050919050565b600060208201905081810360008301526133ae81613155565b9050919050565b600060208201905081810360008301526133ce81613178565b9050919050565b600060208201905081810360008301526133ee8161319b565b9050919050565b6000602082019050818103600083015261340e816131be565b9050919050565b6000602082019050818103600083015261342e816131e1565b9050919050565b6000602082019050818103600083015261344e81613204565b9050919050565b600060208201905061346a6000830184613227565b92915050565b600061347a61348b565b90506134868282613659565b919050565b6000604051905090565b600067ffffffffffffffff8211156134b0576134af613748565b5b602082029050602081019050919050565b600082825260208201905092915050565b60006134dd82613625565b91506134e883613625565b9250827fffffffffffffffffffffffffffffffffffffffffffffffffffffffffffffffff0382111561351d5761351c6136bb565b5b828201905092915050565b600061353382613625565b915061353e83613625565b92508261354e5761354d6136ea565b5b828204905092915050565b600061356482613625565b915061356f83613625565b9250817fffffffffffffffffffffffffffffffffffffffffffffffffffffffffffffffff04831182151516156135a8576135a76136bb565b5b828202905092915050565b60006135be82613625565b91506135c983613625565b9250828210156135dc576135db6136bb565b5b828203905092915050565b60006135f282613605565b9050919050565b60008115159050919050565b600073ffffffffffffffffffffffffffffffffffffffff82169050919050565b6000819050919050565b600061363a82613625565b9150600082141561364e5761364d6136bb565b5b600182039050919050565b6136628261378b565b810181811067ffffffffffffffff8211171561368157613680613748565b5b80604052505050565b600061369582613625565b91506136a083613625565b9250826136b0576136af6136ea565b5b828206905092915050565b7f4e487b7100000000000000000000000000000000000000000000000000000000600052601160045260246000fd5b7f4e487b7100000000000000000000000000000000000000000000000000000000600052601260045260246000fd5b7f4e487b7100000000000000000000000000000000000000000000000000000000600052603260045260246000fd5b7f4e487b7100000000000000000000000000000000000000000000000000000000600052604160045260246000fd5b600080fd5b600080fd5b600080fd5b600080fd5b6000601f19601f8301169050919050565b7f64732d6d6174682d7375622d756e646572666c6f770000000000000000000000600082015250565b7f64732d6d6174682d6d756c2d6f766572666c6f77000000000000000000000000600082015250565b7f64732d6d6174682d6164642d6f766572666c6f77000000000000000000000000600082015250565b7f766f7563686565206c6576656c206973206e6f74203000000000000000000000600082015250565b7f796f7520617265207374696c6c20756e64657220636f6f6c646f776e00000000600082015250565b7f796f7572206c6576656c20697320746f6f206c6f770000000000000000000000600082015250565b7f706c6561736520617070726f766520726571756972656420616d6f756e740000600082015250565b7f706c6561736520636f6e6669726d20796f7572207072696d617279206372656460008201527f6974206361726400000000000000000000000000000000000000000000000000602082015250565b7f6d617468206572726f7200000000000000000000000000000000000000000000600082015250565b7f596f75206861766520616c72656164792074616b656e2061206c6f616e2c207060008201527f6c656173652072652d70617920746f2074616b652061206e6577206c6f616e00602082015250565b7f796f7520646f206e6f7420686176652061206869676820656e6f75676820637260008201527f656469742073636f726500000000000000000000000000000000000000000000602082015250565b6139da816135e7565b81146139e557600080fd5b50565b6139f1816135f9565b81146139fc57600080fd5b50565b613a0881613625565b8114613a1357600080fd5b5056fea264697066735822122038e166e3a357fa0c365aeacc532b4837a89abd690ad66ed3871ba56496b58ba964736f6c63430008070033",
  "immutableReferences": {},
  "source": "// SPDX-License-Identifier: MIT\npragma solidity ^0.8.7;\nimport \"@openzeppelin/contracts/utils/math/SafeMath.sol\";\nimport \"../Token/IERC20.sol\";\nimport \"@openzeppelin/contracts/token/ERC20/IERC20.sol\";\nimport \"./vouching.sol\";\nimport \"./Array/Arrayfuncs.sol\";\nimport \"./ds-math/math.sol\";\nimport \"../NFT/ICredit.sol\";\n\ncontract Loaning is vouching(address(this)),Arrayfuncs,DSMath {\nusing SafeMath for uint256;\nuint burner=80*adj;\nuint rate=20;\n\n//Neutron token=new Neutron(msg.sender,address(this));\nuint adj=10**18; //decimal adjustment\naddress reciever; //the address of this contract\naddress allowedcon;\naddress allowedcon2;\naddress governor;\naddress _owner;\naddress treasury;\n_IERC20 token;\nICredit NFT;\nIArrayfuncs calc;\nuint lim;\nuint cooldown;\nmapping (address=>uint256) I2;\nconstructor(){\n_owner=msg.sender;\ntreasury=_owner;\n\n}\n//cred[Primary[msg.sender]].\nmodifier only_owner(){\n    require(msg.sender==_owner);\n_;}\nfunction set(address tk, address _NFT)public{\n    token=_IERC20(tk);\n    NFT=ICredit(NFT);\n}\n\n//function to take loan\nfunction takeloan (uint tier) public {\nrequire(Primary[msg.sender]!=0,\"please confirm your primary credit card\");\nrequire(sub(block.timestamp,cred[Primary[msg.sender]].timer)>=cooldown,\"you are still under cooldown\"); //so no loan spams\nrequire(cred[Primary[msg.sender]].creditsc_c>=tier*adj,\"you do not have a high enough credit score\");\nrequire(tier>0);\nrequire(!cred[Primary[msg.sender]].pending,\"You have already taken a loan, please re-pay to take a new loan\");\nuint interest;\ncred[Primary[msg.sender]].amount=100*wpow((add(adj,(adj.div(10)))),tier); //amount calc\ntoken.mint(msg.sender,cred[Primary[msg.sender]].amount);\ninterest=wmul(cred[Primary[msg.sender]].amount,(rate.mul(adj.div(100))));//20%,interest+1% admin fee\nuint x=wmul(cred[Primary[msg.sender]].Rrate,cred[Primary[msg.sender]].medianL);\nuint l=wmul(cred[Primary[msg.sender]].defexpo,cred[Primary[msg.sender]].Drate);\n//\nI2[msg.sender]=wmul(x.sub(l),(interest));\ncred[Primary[msg.sender]].principal=add(cred[Primary[msg.sender]].amount,I2[msg.sender]);\ncred[Primary[msg.sender]].pending=true;\ncred[Primary[msg.sender]].time=block.timestamp;\nif(tier==cred[Primary[msg.sender]].creditsc_c)\ncred[Primary[msg.sender]]._match==true;\n}\n//repayment rate calc: rrate=1-Drate; //R\n//defult rate calc: drate=(defults/(repayed+defults));\nfunction returnloan() public returns(bool){\n//I2 = (R*M2-D*H)*I-Ix\n require(cred[Primary[msg.sender]].pending=true);\n uint P2=cred[Primary[msg.sender]].principal;\n if(block.timestamp.sub(cred[Primary[msg.sender]].time)>420000){\n     cred[Primary[msg.sender]].creditsc_uc=0;\n     cred[Primary[msg.sender]].creditsc_c=0;\n     cred[Primary[msg.sender]].defults=add( cred[Primary[msg.sender]].defults,adj);\n     cred[Primary[msg.sender]].Dtotal=add( cred[Primary[msg.sender]].Dtotal,P2);\n     if(friend[msg.sender]!=address(0)){\n         cred[Primary[friend[msg.sender]]].creditsc_c=0;\n         cred[Primary[friend[msg.sender]]].creditsc_uc=0;\n         friend[msg.sender]=address(0);\n     }\n     cred[Primary[msg.sender]].creditsc_c=0; //why?\n     cred[Primary[msg.sender]].princeD.push(P2);\nsortA(cred[Primary[msg.sender]].princeD);\ncred[Primary[msg.sender]].medianD=getmedian(cred[Primary[msg.sender]].princeD);//M1\ncred[Primary[msg.sender]].defexpo=sub(cred[Primary[msg.sender]].Ltotal,cred[Primary[msg.sender]].Dtotal); //D\n     return false;\n }\n else{\nrequire(token.allowance(msg.sender,address(this))==P2,\"please approve required amount\");\n\nuint interest=I2[msg.sender];\nuint burning=burner;\nuint treasurym=sub(mul(100,adj),burning);\nuint ownerm=5;\n\n\nrequire(add(interest,cred[Primary[msg.sender]].amount)==P2,\"math error\");\n\ntoken.transferFrom(msg.sender,_owner,interest.mul(ownerm.div(100)));\ntoken.transferFrom(msg.sender,treasury,interest.div(2));//mul(treasurym.div(100)));\ntoken.burnfrom(msg.sender,interest.div(2));//mul(burning.div(100)));\ntoken.burnfrom(msg.sender,cred[Primary[msg.sender]].amount);\n\n //replace with burn //math to calc P2 needs to be checked\n cred[Primary[msg.sender]].pending=false;\n cred[Primary[msg.sender]].creditsc_uc=add( cred[Primary[msg.sender]].creditsc_uc,adj);\n\n //decide if to increase credit score, (checks if under limit)\n if(cred[Primary[msg.sender]].creditsc_c<lim &&cred[Primary[msg.sender]]. _match==true){\n cred[Primary[msg.sender]].creditsc_c=add(cred[Primary[msg.sender]].creditsc_c,adj);\n cred[Primary[msg.sender]]._match=false;\n //sets cooldown before next loan.\n}\n cred[Primary[msg.sender]].timer=block.timestamp;  //marks time when last loan was returned\n\n\n //second if\n\n //first if\n cred[Primary[msg.sender]].repayed=add( cred[Primary[msg.sender]].repayed,adj);\n cred[Primary[msg.sender]].Dtotal=add( cred[Primary[msg.sender]].Dtotal,P2);\n cred[Primary[msg.sender]].princeL.push(P2);\n sortA(cred[Primary[msg.sender]].princeL);\n cred[Primary[msg.sender]].medianL=getmedian(cred[Primary[msg.sender]].princeL);//M2\ncred[Primary[msg.sender]].defexpo=sub(cred[Primary[msg.sender]].Ltotal,cred[Primary[msg.sender]].Dtotal); //D\nuint x=add(cred[Primary[msg.sender]].repayed,cred[Primary[msg.sender]].defults);\ncred[Primary[msg.sender]].Drate=wdiv(cred[Primary[msg.sender]].defults,x);//H\n\ncred[Primary[msg.sender]].Rrate=sub(1,cred[Primary[msg.sender]].Drate);//R\n return true;\n\n\n }//outermost if/else\n\n}\nfunction freemoney() public  payable{\n    token.mint(msg.sender,(1000*adj));\n}\n/*function setgovernor(address _governor) public only_owner returns(bool){\n\n    governor=_governor;\n    return true;\n}// set governor contract*/\n//for testing PURPOSE:\nfunction increment(address pardonee)public{\n    //require(msg.sender==allowedcon||msg.sender==allowedcon2,\"you do not have permission to do this action.\");\n    NFT.safeMint(pardonee);\n    cred[Primary[pardonee]].creditsc_c==1*adj;\n    cred[Primary[pardonee]].creditsc_uc==1*adj;\n\n}\n\n\n}\n",
  "sourcePath": "/Users/vibhu/node_manager/node_modules/Solidity/Zeno/contracts/Lending/Lending-main.sol",
  "compiler": {
    "name": "solc",
    "version": "0.8.7+commit.e28d00a7.Emscripten.clang"
  },
  "schemaVersion": "3.4.7",
  "updatedAt": "2022-05-24T16:56:27.703Z",
  "networkType": "ethereum",
  "devdoc": {
    "kind": "dev",
    "methods": {},
    "version": 1
  },
  "userdoc": {
    "kind": "user",
    "methods": {},
    "version": 1
  }
}