{
  "contractName": "Loaning",
  "abi": [
    {
      "inputs": [
        {
          "internalType": "uint256",
          "name": "_lim",
          "type": "uint256"
        },
        {
          "internalType": "address",
          "name": "_treasury",
          "type": "address"
        }
      ],
      "stateMutability": "nonpayable",
      "type": "constructor"
    },
    {
      "inputs": [
        {
          "internalType": "address",
          "name": "",
          "type": "address"
        }
      ],
      "name": "P2",
      "outputs": [
        {
          "internalType": "uint256",
          "name": "",
          "type": "uint256"
        }
      ],
      "stateMutability": "view",
      "type": "function"
    },
    {
      "inputs": [
        {
          "internalType": "address",
          "name": "",
          "type": "address"
        }
      ],
      "name": "cooldown",
      "outputs": [
        {
          "internalType": "uint256",
          "name": "",
          "type": "uint256"
        }
      ],
      "stateMutability": "view",
      "type": "function"
    },
    {
      "inputs": [
        {
          "internalType": "address",
          "name": "",
          "type": "address"
        }
      ],
      "name": "creditsc_c",
      "outputs": [
        {
          "internalType": "uint256",
          "name": "",
          "type": "uint256"
        }
      ],
      "stateMutability": "view",
      "type": "function"
    },
    {
      "inputs": [
        {
          "internalType": "address",
          "name": "",
          "type": "address"
        }
      ],
      "name": "creditsc_uc",
      "outputs": [
        {
          "internalType": "uint256",
          "name": "",
          "type": "uint256"
        }
      ],
      "stateMutability": "view",
      "type": "function"
    },
    {
      "inputs": [
        {
          "internalType": "address",
          "name": "",
          "type": "address"
        }
      ],
      "name": "defults",
      "outputs": [
        {
          "internalType": "uint256",
          "name": "",
          "type": "uint256"
        }
      ],
      "stateMutability": "view",
      "type": "function"
    },
    {
      "inputs": [
        {
          "internalType": "address",
          "name": "",
          "type": "address"
        }
      ],
      "name": "friend",
      "outputs": [
        {
          "internalType": "address",
          "name": "",
          "type": "address"
        }
      ],
      "stateMutability": "view",
      "type": "function"
    },
    {
      "inputs": [
        {
          "internalType": "uint256[]",
          "name": "amts",
          "type": "uint256[]"
        }
      ],
      "name": "getmedian",
      "outputs": [
        {
          "internalType": "uint256",
          "name": "median",
          "type": "uint256"
        }
      ],
      "stateMutability": "pure",
      "type": "function"
    },
    {
      "inputs": [
        {
          "internalType": "address",
          "name": "",
          "type": "address"
        }
      ],
      "name": "pending",
      "outputs": [
        {
          "internalType": "bool",
          "name": "",
          "type": "bool"
        }
      ],
      "stateMutability": "view",
      "type": "function"
    },
    {
      "inputs": [
        {
          "internalType": "address",
          "name": "",
          "type": "address"
        }
      ],
      "name": "principal",
      "outputs": [
        {
          "internalType": "uint256",
          "name": "",
          "type": "uint256"
        }
      ],
      "stateMutability": "view",
      "type": "function"
    },
    {
      "inputs": [
        {
          "internalType": "address",
          "name": "",
          "type": "address"
        }
      ],
      "name": "repayed",
      "outputs": [
        {
          "internalType": "uint256",
          "name": "",
          "type": "uint256"
        }
      ],
      "stateMutability": "view",
      "type": "function"
    },
    {
      "inputs": [
        {
          "internalType": "uint256[]",
          "name": "amts",
          "type": "uint256[]"
        }
      ],
      "name": "sortA",
      "outputs": [],
      "stateMutability": "pure",
      "type": "function"
    },
    {
      "inputs": [
        {
          "internalType": "address",
          "name": "vouchee",
          "type": "address"
        }
      ],
      "name": "vouch",
      "outputs": [
        {
          "internalType": "bool",
          "name": "success",
          "type": "bool"
        }
      ],
      "stateMutability": "nonpayable",
      "type": "function"
    },
    {
      "inputs": [
        {
          "internalType": "address",
          "name": "tk",
          "type": "address"
        }
      ],
      "name": "set",
      "outputs": [],
      "stateMutability": "nonpayable",
      "type": "function"
    },
    {
      "inputs": [
        {
          "internalType": "uint256",
          "name": "tier",
          "type": "uint256"
        }
      ],
      "name": "takeloan",
      "outputs": [],
      "stateMutability": "payable",
      "type": "function"
    },
    {
      "inputs": [],
      "name": "returnloan",
      "outputs": [
        {
          "internalType": "bool",
          "name": "",
          "type": "bool"
        }
      ],
      "stateMutability": "nonpayable",
      "type": "function"
    },
    {
      "inputs": [],
      "name": "freemoney",
      "outputs": [],
      "stateMutability": "payable",
      "type": "function"
    },
    {
      "inputs": [
        {
          "internalType": "address",
          "name": "pardonee",
          "type": "address"
        }
      ],
      "name": "increment",
      "outputs": [],
      "stateMutability": "nonpayable",
      "type": "function"
    }
  ],
  "bytecode": "0x6080604052670de0b6b3a76400006003553480156200001d57600080fd5b5060405162003dab38038062003dab83398181016040528101906200004391906200026b565b3080600160006101000a81548173ffffffffffffffffffffffffffffffffffffffff021916908373ffffffffffffffffffffffffffffffffffffffff160217905550600160009054906101000a900473ffffffffffffffffffffffffffffffffffffffff16600260006101000a81548173ffffffffffffffffffffffffffffffffffffffff021916908373ffffffffffffffffffffffffffffffffffffffff1602179055505030600c60006101000a81548173ffffffffffffffffffffffffffffffffffffffff021916908373ffffffffffffffffffffffffffffffffffffffff16021790555030600a60006101000a81548173ffffffffffffffffffffffffffffffffffffffff021916908373ffffffffffffffffffffffffffffffffffffffff16021790555030600b60006101000a81548173ffffffffffffffffffffffffffffffffffffffff021916908373ffffffffffffffffffffffffffffffffffffffff16021790555081600d8190555033600860006101000a81548173ffffffffffffffffffffffffffffffffffffffff021916908373ffffffffffffffffffffffffffffffffffffffff16021790555080600960006101000a81548173ffffffffffffffffffffffffffffffffffffffff021916908373ffffffffffffffffffffffffffffffffffffffff160217905550505062000329565b6000815190506200024e81620002f5565b92915050565b60008151905062000265816200030f565b92915050565b60008060408385031215620002855762000284620002f0565b5b6000620002958582860162000254565b9250506020620002a8858286016200023d565b9150509250929050565b6000620002bf82620002c6565b9050919050565b600073ffffffffffffffffffffffffffffffffffffffff82169050919050565b6000819050919050565b600080fd5b6200030081620002b2565b81146200030c57600080fd5b50565b6200031a81620002e6565b81146200032657600080fd5b50565b613a7280620003396000396000f3fe6080604052600436106100fe5760003560e01c80639d780ac511610095578063e340d56b11610064578063e340d56b14610363578063e42667391461038c578063e4ab1bed146103c9578063ebacef7814610406578063fef5a10e14610431576100fe565b80639d780ac5146102a2578063b222e0c2146102df578063c16c6fc21461031c578063dd66e16b14610326576100fe565b80632ce0f9d6116100d15780632ce0f9d6146101e357806345f43dd8146102205780635eebea20146102495780635f6e557514610286576100fe565b806302ebb44d146101035780630b34e9d514610140578063170c79c71461017d5780632801617e146101ba575b600080fd5b34801561010f57600080fd5b5061012a60048036038101906101259190612e85565b61046e565b604051610137919061334a565b60405180910390f35b34801561014c57600080fd5b5061016760048036038101906101629190612e58565b6104a4565b604051610174919061334a565b60405180910390f35b34801561018957600080fd5b506101a4600480360381019061019f9190612e58565b6104bc565b6040516101b1919061334a565b60405180910390f35b3480156101c657600080fd5b506101e160048036038101906101dc9190612e58565b6104d4565b005b3480156101ef57600080fd5b5061020a60048036038101906102059190612e58565b610559565b604051610217919061334a565b60405180910390f35b34801561022c57600080fd5b5061024760048036038101906102429190612e58565b610571565b005b34801561025557600080fd5b50610270600480360381019061026b9190612e58565b6105fe565b60405161027d919061320f565b60405180910390f35b6102a0600480360381019061029b9190612efb565b61061e565b005b3480156102ae57600080fd5b506102c960048036038101906102c49190612e58565b610c48565b6040516102d6919061334a565b60405180910390f35b3480156102eb57600080fd5b5061030660048036038101906103019190612e58565b610c5f565b604051610313919061334a565b60405180910390f35b610324610c77565b005b34801561033257600080fd5b5061034d60048036038101906103489190612e58565b610d17565b60405161035a919061320f565b60405180910390f35b34801561036f57600080fd5b5061038a60048036038101906103859190612e85565b6110c7565b005b34801561039857600080fd5b506103b360048036038101906103ae9190612e58565b6111d4565b6040516103c0919061334a565b60405180910390f35b3480156103d557600080fd5b506103f060048036038101906103eb9190612e58565b6111ec565b6040516103fd919061334a565b60405180910390f35b34801561041257600080fd5b5061041b611204565b604051610428919061320f565b60405180910390f35b34801561043d57600080fd5b5061045860048036038101906104539190612e58565b612b8e565b6040516104659190613149565b60405180910390f35b6000806002835161047f919061345b565b9050828181518110610494576104936137b0565b5b6020026020010151915050919050565b601d6020528060005260406000206000915090505481565b601b6020528060005260406000206000915090505481565b80600a60006101000a81548173ffffffffffffffffffffffffffffffffffffffff021916908373ffffffffffffffffffffffffffffffffffffffff16021790555080600b60006101000a81548173ffffffffffffffffffffffffffffffffffffffff021916908373ffffffffffffffffffffffffffffffffffffffff16021790555050565b60246020528060005260406000206000915090505481565b6001601b60008373ffffffffffffffffffffffffffffffffffffffff1673ffffffffffffffffffffffffffffffffffffffff168152602001908152602001600020819055506001602060008373ffffffffffffffffffffffffffffffffffffffff1673ffffffffffffffffffffffffffffffffffffffff1681526020019081526020016000208190555050565b60216020528060005260406000206000915054906101000a900460ff1681565b601a60003373ffffffffffffffffffffffffffffffffffffffff1673ffffffffffffffffffffffffffffffffffffffff168152602001908152602001600020546106a742601960003373ffffffffffffffffffffffffffffffffffffffff1673ffffffffffffffffffffffffffffffffffffffff16815260200190815260200160002054612bc1565b10156106e8576040517f08c379a00000000000000000000000000000000000000000000000000000000081526004016106df906132aa565b60405180910390fd5b80601b60003373ffffffffffffffffffffffffffffffffffffffff1673ffffffffffffffffffffffffffffffffffffffff16815260200190815260200160002054101561076a576040517f08c379a00000000000000000000000000000000000000000000000000000000081526004016107619061332a565b60405180910390fd5b6000811161077757600080fd5b60001515602160003373ffffffffffffffffffffffffffffffffffffffff1673ffffffffffffffffffffffffffffffffffffffff16815260200190815260200160002060009054906101000a900460ff161515146107d457600080fd5b6000806107ef83600a6107e791906134df565b600354612c1a565b602260003373ffffffffffffffffffffffffffffffffffffffff1673ffffffffffffffffffffffffffffffffffffffff16815260200190815260200160002081905550600b60009054906101000a900473ffffffffffffffffffffffffffffffffffffffff1673ffffffffffffffffffffffffffffffffffffffff166340c10f1933602260003373ffffffffffffffffffffffffffffffffffffffff1673ffffffffffffffffffffffffffffffffffffffff168152602001908152602001600020546040518363ffffffff1660e01b81526004016108ce9291906131c4565b600060405180830381600087803b1580156108e857600080fd5b505af11580156108fc573d6000803e3d6000fd5b5050505061096a602260003373ffffffffffffffffffffffffffffffffffffffff1673ffffffffffffffffffffffffffffffffffffffff168152602001908152602001600020546109596064600354612c8790919063ffffffff16565b601461096591906135fd565b612c9d565b9150610acc610a876109fa600f60003373ffffffffffffffffffffffffffffffffffffffff1673ffffffffffffffffffffffffffffffffffffffff16815260200190815260200160002054601660003373ffffffffffffffffffffffffffffffffffffffff1673ffffffffffffffffffffffffffffffffffffffff16815260200190815260200160002054612c1a565b610a82601360003373ffffffffffffffffffffffffffffffffffffffff1673ffffffffffffffffffffffffffffffffffffffff16815260200190815260200160002054601060003373ffffffffffffffffffffffffffffffffffffffff1673ffffffffffffffffffffffffffffffffffffffff16815260200190815260200160002054612c1a565b612bc1565b602460003373ffffffffffffffffffffffffffffffffffffffff1673ffffffffffffffffffffffffffffffffffffffff16815260200190815260200160002054612c1a565b600e60003373ffffffffffffffffffffffffffffffffffffffff1673ffffffffffffffffffffffffffffffffffffffff168152602001908152602001600020819055506001602160003373ffffffffffffffffffffffffffffffffffffffff1673ffffffffffffffffffffffffffffffffffffffff16815260200190815260200160002060006101000a81548160ff02191690831515021790555042602560003373ffffffffffffffffffffffffffffffffffffffff1673ffffffffffffffffffffffffffffffffffffffff16815260200190815260200160002081905550601b60003373ffffffffffffffffffffffffffffffffffffffff1673ffffffffffffffffffffffffffffffffffffffff16815260200190815260200160002054831415610c435760011515601860003373ffffffffffffffffffffffffffffffffffffffff1673ffffffffffffffffffffffffffffffffffffffff16815260200190815260200160002060009054906101000a905050505b505050565b602080528060005260406000206000915090505481565b601a6020528060005260406000206000915090505481565b600b60009054906101000a900473ffffffffffffffffffffffffffffffffffffffff1673ffffffffffffffffffffffffffffffffffffffff166340c10f19336003546103e8610cc691906135fd565b6040518363ffffffff1660e01b8152600401610ce39291906131c4565b600060405180830381600087803b158015610cfd57600080fd5b505af1158015610d11573d6000803e3d6000fd5b50505050565b6000801515600260009054906101000a900473ffffffffffffffffffffffffffffffffffffffff1673ffffffffffffffffffffffffffffffffffffffff16635eebea20336040518263ffffffff1660e01b8152600401610d779190613149565b602060405180830381600087803b158015610d9157600080fd5b505af1158015610da5573d6000803e3d6000fd5b505050506040513d601f19601f82011682018060405250810190610dc99190612ece565b151514610dd557600080fd5b6006600260009054906101000a900473ffffffffffffffffffffffffffffffffffffffff1673ffffffffffffffffffffffffffffffffffffffff1663170c79c7336040518263ffffffff1660e01b8152600401610e329190613149565b602060405180830381600087803b158015610e4c57600080fd5b505af1158015610e60573d6000803e3d6000fd5b505050506040513d601f19601f82011682018060405250810190610e849190612f28565b1015610ec5576040517f08c379a0000000000000000000000000000000000000000000000000000000008152600401610ebc906132ca565b60405180910390fd5b6000600260009054906101000a900473ffffffffffffffffffffffffffffffffffffffff1673ffffffffffffffffffffffffffffffffffffffff1663170c79c7846040518263ffffffff1660e01b8152600401610f229190613149565b602060405180830381600087803b158015610f3c57600080fd5b505af1158015610f50573d6000803e3d6000fd5b505050506040513d601f19601f82011682018060405250810190610f749190612f28565b14610fb4576040517f08c379a0000000000000000000000000000000000000000000000000000000008152600401610fab9061328a565b60405180910390fd5b336000808473ffffffffffffffffffffffffffffffffffffffff1673ffffffffffffffffffffffffffffffffffffffff16815260200190815260200160002060006101000a81548173ffffffffffffffffffffffffffffffffffffffff021916908373ffffffffffffffffffffffffffffffffffffffff160217905550600260009054906101000a900473ffffffffffffffffffffffffffffffffffffffff1673ffffffffffffffffffffffffffffffffffffffff166345f43dd8836040518263ffffffff1660e01b815260040161108c9190613149565b600060405180830381600087803b1580156110a657600080fd5b505af11580156110ba573d6000803e3d6000fd5b5050505060019050919050565b600080600183516110d89190613657565b91505b60008211156111cf57826001836110f29190613657565b81518110611103576111026137b0565b5b602002602001015183838151811061111e5761111d6137b0565b5b602002602001015110156111bc5782828151811061113f5761113e6137b0565b5b60200260200101519050826001836111579190613657565b81518110611168576111676137b0565b5b6020026020010151838381518110611183576111826137b0565b5b602002602001018181525050808360018461119e9190613657565b815181106111af576111ae6137b0565b5b6020026020010181815250505b81806111c7906136dd565b9250506110db565b505050565b600e6020528060005260406000206000915090505481565b601c6020528060005260406000206000915090505481565b60006001602160003373ffffffffffffffffffffffffffffffffffffffff1673ffffffffffffffffffffffffffffffffffffffff16815260200190815260200160002060006101000a81548160ff021916908315150217905561126657600080fd5b620668a06112bc602560003373ffffffffffffffffffffffffffffffffffffffff1673ffffffffffffffffffffffffffffffffffffffff1681526020019081526020016000205442612ce190919063ffffffff16565b1115611aa6576000602060003373ffffffffffffffffffffffffffffffffffffffff1673ffffffffffffffffffffffffffffffffffffffff168152602001908152602001600020819055506000601b60003373ffffffffffffffffffffffffffffffffffffffff1673ffffffffffffffffffffffffffffffffffffffff168152602001908152602001600020819055506001601c60003373ffffffffffffffffffffffffffffffffffffffff1673ffffffffffffffffffffffffffffffffffffffff168152602001908152602001600020600082825461139c9190613405565b92505081905550600e60003373ffffffffffffffffffffffffffffffffffffffff1673ffffffffffffffffffffffffffffffffffffffff16815260200190815260200160002054601260003373ffffffffffffffffffffffffffffffffffffffff1673ffffffffffffffffffffffffffffffffffffffff16815260200190815260200160002060008282546114319190613405565b92505081905550600073ffffffffffffffffffffffffffffffffffffffff166000803373ffffffffffffffffffffffffffffffffffffffff1673ffffffffffffffffffffffffffffffffffffffff16815260200190815260200160002060009054906101000a900473ffffffffffffffffffffffffffffffffffffffff1673ffffffffffffffffffffffffffffffffffffffff161461168f576000601b60008060003373ffffffffffffffffffffffffffffffffffffffff1673ffffffffffffffffffffffffffffffffffffffff16815260200190815260200160002060009054906101000a900473ffffffffffffffffffffffffffffffffffffffff1673ffffffffffffffffffffffffffffffffffffffff1673ffffffffffffffffffffffffffffffffffffffff168152602001908152602001600020819055506000602060008060003373ffffffffffffffffffffffffffffffffffffffff1673ffffffffffffffffffffffffffffffffffffffff16815260200190815260200160002060009054906101000a900473ffffffffffffffffffffffffffffffffffffffff1673ffffffffffffffffffffffffffffffffffffffff1673ffffffffffffffffffffffffffffffffffffffff1681526020019081526020016000208190555060008060003373ffffffffffffffffffffffffffffffffffffffff1673ffffffffffffffffffffffffffffffffffffffff16815260200190815260200160002060006101000a81548173ffffffffffffffffffffffffffffffffffffffff021916908373ffffffffffffffffffffffffffffffffffffffff1602179055505b6000601b60008060003373ffffffffffffffffffffffffffffffffffffffff1673ffffffffffffffffffffffffffffffffffffffff16815260200190815260200160002060009054906101000a900473ffffffffffffffffffffffffffffffffffffffff1673ffffffffffffffffffffffffffffffffffffffff1673ffffffffffffffffffffffffffffffffffffffff16815260200190815260200160002081905550601560003373ffffffffffffffffffffffffffffffffffffffff1673ffffffffffffffffffffffffffffffffffffffff168152602001908152602001600020600e60003373ffffffffffffffffffffffffffffffffffffffff1673ffffffffffffffffffffffffffffffffffffffff168152602001908152602001600020549080600181540180825580915050600190039060005260206000200160009091909190915055600c60009054906101000a900473ffffffffffffffffffffffffffffffffffffffff1673ffffffffffffffffffffffffffffffffffffffff1663e340d56b601560003373ffffffffffffffffffffffffffffffffffffffff1673ffffffffffffffffffffffffffffffffffffffff1681526020019081526020016000206040518263ffffffff1660e01b815260040161187091906131ed565b600060405180830381600087803b15801561188a57600080fd5b505af115801561189e573d6000803e3d6000fd5b50505050600c60009054906101000a900473ffffffffffffffffffffffffffffffffffffffff1673ffffffffffffffffffffffffffffffffffffffff166302ebb44d601560003373ffffffffffffffffffffffffffffffffffffffff1673ffffffffffffffffffffffffffffffffffffffff1681526020019081526020016000206040518263ffffffff1660e01b815260040161193b91906131ed565b602060405180830381600087803b15801561195557600080fd5b505af1158015611969573d6000803e3d6000fd5b505050506040513d601f19601f8201168201806040525081019061198d9190612f28565b601460003373ffffffffffffffffffffffffffffffffffffffff1673ffffffffffffffffffffffffffffffffffffffff16815260200190815260200160002081905550601260003373ffffffffffffffffffffffffffffffffffffffff1673ffffffffffffffffffffffffffffffffffffffff16815260200190815260200160002054601160003373ffffffffffffffffffffffffffffffffffffffff1673ffffffffffffffffffffffffffffffffffffffff16815260200190815260200160002054611a5a9190613657565b601360003373ffffffffffffffffffffffffffffffffffffffff1673ffffffffffffffffffffffffffffffffffffffff1681526020019081526020016000208190555060009050612b8b565b600e60003373ffffffffffffffffffffffffffffffffffffffff1673ffffffffffffffffffffffffffffffffffffffff16815260200190815260200160002054600a60009054906101000a900473ffffffffffffffffffffffffffffffffffffffff1673ffffffffffffffffffffffffffffffffffffffff1663dd62ed3e33306040518363ffffffff1660e01b8152600401611b43929190613164565b60206040518083038186803b158015611b5b57600080fd5b505afa158015611b6f573d6000803e3d6000fd5b505050506040513d601f19601f82011682018060405250810190611b939190612f28565b14611bd3576040517f08c379a0000000000000000000000000000000000000000000000000000000008152600401611bca906132ea565b60405180910390fd5b6000611c66602260003373ffffffffffffffffffffffffffffffffffffffff1673ffffffffffffffffffffffffffffffffffffffff16815260200190815260200160002054600e60003373ffffffffffffffffffffffffffffffffffffffff1673ffffffffffffffffffffffffffffffffffffffff16815260200190815260200160002054612ce190919063ffffffff16565b9050600e60003373ffffffffffffffffffffffffffffffffffffffff1673ffffffffffffffffffffffffffffffffffffffff16815260200190815260200160002054602260003373ffffffffffffffffffffffffffffffffffffffff1673ffffffffffffffffffffffffffffffffffffffff1681526020019081526020016000205482611cf39190613405565b14611d33576040517f08c379a0000000000000000000000000000000000000000000000000000000008152600401611d2a9061330a565b60405180910390fd5b600a60009054906101000a900473ffffffffffffffffffffffffffffffffffffffff1673ffffffffffffffffffffffffffffffffffffffff166323b872dd33600960009054906101000a900473ffffffffffffffffffffffffffffffffffffffff16611da9600286612c8790919063ffffffff16565b6040518463ffffffff1660e01b8152600401611dc79392919061318d565b602060405180830381600087803b158015611de157600080fd5b505af1158015611df5573d6000803e3d6000fd5b505050506040513d601f19601f82011682018060405250810190611e199190612ece565b50600b60009054906101000a900473ffffffffffffffffffffffffffffffffffffffff1673ffffffffffffffffffffffffffffffffffffffff16632422703433611e6d600285612c8790919063ffffffff16565b6040518363ffffffff1660e01b8152600401611e8a9291906131c4565b600060405180830381600087803b158015611ea457600080fd5b505af1158015611eb8573d6000803e3d6000fd5b50505050600b60009054906101000a900473ffffffffffffffffffffffffffffffffffffffff1673ffffffffffffffffffffffffffffffffffffffff16632422703433602260003373ffffffffffffffffffffffffffffffffffffffff1673ffffffffffffffffffffffffffffffffffffffff168152602001908152602001600020546040518363ffffffff1660e01b8152600401611f589291906131c4565b600060405180830381600087803b158015611f7257600080fd5b505af1158015611f86573d6000803e3d6000fd5b505050506000602160003373ffffffffffffffffffffffffffffffffffffffff1673ffffffffffffffffffffffffffffffffffffffff16815260200190815260200160002060006101000a81548160ff0219169083151502179055506001602060003373ffffffffffffffffffffffffffffffffffffffff1673ffffffffffffffffffffffffffffffffffffffff16815260200190815260200160002060008282546120329190613405565b92505081905550600d54601b60003373ffffffffffffffffffffffffffffffffffffffff1673ffffffffffffffffffffffffffffffffffffffff168152602001908152602001600020541080156120d9575060011515601860003373ffffffffffffffffffffffffffffffffffffffff1673ffffffffffffffffffffffffffffffffffffffff16815260200190815260200160002060009054906101000a900460ff161515145b1561255e576121316001601e60003373ffffffffffffffffffffffffffffffffffffffff1673ffffffffffffffffffffffffffffffffffffffff16815260200190815260200160002054612cf790919063ffffffff16565b601e60003373ffffffffffffffffffffffffffffffffffffffff1673ffffffffffffffffffffffffffffffffffffffff168152602001908152602001600020819055506000601860003373ffffffffffffffffffffffffffffffffffffffff1673ffffffffffffffffffffffffffffffffffffffff16815260200190815260200160002060006101000a81548160ff021916908315150217905550601b60003373ffffffffffffffffffffffffffffffffffffffff1673ffffffffffffffffffffffffffffffffffffffff16815260200190815260200160002054600a61221891906134df565b601a60003373ffffffffffffffffffffffffffffffffffffffff1673ffffffffffffffffffffffffffffffffffffffff1681526020019081526020016000208190555042601960003373ffffffffffffffffffffffffffffffffffffffff1673ffffffffffffffffffffffffffffffffffffffff16815260200190815260200160002081905550601f60003373ffffffffffffffffffffffffffffffffffffffff1673ffffffffffffffffffffffffffffffffffffffff16815260200190815260200160002054601e60003373ffffffffffffffffffffffffffffffffffffffff1673ffffffffffffffffffffffffffffffffffffffff168152602001908152602001600020541061255d576123776001601b60003373ffffffffffffffffffffffffffffffffffffffff1673ffffffffffffffffffffffffffffffffffffffff16815260200190815260200160002054612cf790919063ffffffff16565b601b60003373ffffffffffffffffffffffffffffffffffffffff1673ffffffffffffffffffffffffffffffffffffffff16815260200190815260200160002081905550600a601b60003373ffffffffffffffffffffffffffffffffffffffff1673ffffffffffffffffffffffffffffffffffffffff1681526020019081526020016000205411156124815760008060003373ffffffffffffffffffffffffffffffffffffffff1673ffffffffffffffffffffffffffffffffffffffff16815260200190815260200160002060006101000a81548173ffffffffffffffffffffffffffffffffffffffff021916908373ffffffffffffffffffffffffffffffffffffffff1602179055505b6124d46001601f60003373ffffffffffffffffffffffffffffffffffffffff1673ffffffffffffffffffffffffffffffffffffffff16815260200190815260200160002054612cf790919063ffffffff16565b601f60003373ffffffffffffffffffffffffffffffffffffffff1673ffffffffffffffffffffffffffffffffffffffff168152602001908152602001600020819055506000601e60003373ffffffffffffffffffffffffffffffffffffffff1673ffffffffffffffffffffffffffffffffffffffff168152602001908152602001600020819055505b5b6001601d60003373ffffffffffffffffffffffffffffffffffffffff1673ffffffffffffffffffffffffffffffffffffffff16815260200190815260200160002060008282546125ae9190613405565b92505081905550600e60003373ffffffffffffffffffffffffffffffffffffffff1673ffffffffffffffffffffffffffffffffffffffff16815260200190815260200160002054601260003373ffffffffffffffffffffffffffffffffffffffff1673ffffffffffffffffffffffffffffffffffffffff16815260200190815260200160002060008282546126439190613405565b92505081905550601760003373ffffffffffffffffffffffffffffffffffffffff1673ffffffffffffffffffffffffffffffffffffffff168152602001908152602001600020600e60003373ffffffffffffffffffffffffffffffffffffffff1673ffffffffffffffffffffffffffffffffffffffff168152602001908152602001600020549080600181540180825580915050600190039060005260206000200160009091909190915055600c60009054906101000a900473ffffffffffffffffffffffffffffffffffffffff1673ffffffffffffffffffffffffffffffffffffffff1663e340d56b601760003373ffffffffffffffffffffffffffffffffffffffff1673ffffffffffffffffffffffffffffffffffffffff1681526020019081526020016000206040518263ffffffff1660e01b815260040161278891906131ed565b600060405180830381600087803b1580156127a257600080fd5b505af11580156127b6573d6000803e3d6000fd5b50505050600c60009054906101000a900473ffffffffffffffffffffffffffffffffffffffff1673ffffffffffffffffffffffffffffffffffffffff166302ebb44d601760003373ffffffffffffffffffffffffffffffffffffffff1673ffffffffffffffffffffffffffffffffffffffff1681526020019081526020016000206040518263ffffffff1660e01b815260040161285391906131ed565b602060405180830381600087803b15801561286d57600080fd5b505af1158015612881573d6000803e3d6000fd5b505050506040513d601f19601f820116820180604052508101906128a59190612f28565b601660003373ffffffffffffffffffffffffffffffffffffffff1673ffffffffffffffffffffffffffffffffffffffff16815260200190815260200160002081905550601260003373ffffffffffffffffffffffffffffffffffffffff1673ffffffffffffffffffffffffffffffffffffffff16815260200190815260200160002054601160003373ffffffffffffffffffffffffffffffffffffffff1673ffffffffffffffffffffffffffffffffffffffff168152602001908152602001600020546129729190613657565b601360003373ffffffffffffffffffffffffffffffffffffffff1673ffffffffffffffffffffffffffffffffffffffff16815260200190815260200160002081905550612a97612a49601c60003373ffffffffffffffffffffffffffffffffffffffff1673ffffffffffffffffffffffffffffffffffffffff16815260200190815260200160002054601d60003373ffffffffffffffffffffffffffffffffffffffff1673ffffffffffffffffffffffffffffffffffffffff16815260200190815260200160002054612cf790919063ffffffff16565b601c60003373ffffffffffffffffffffffffffffffffffffffff1673ffffffffffffffffffffffffffffffffffffffff16815260200190815260200160002054612c8790919063ffffffff16565b601060003373ffffffffffffffffffffffffffffffffffffffff1673ffffffffffffffffffffffffffffffffffffffff16815260200190815260200160002081905550612b42601060003373ffffffffffffffffffffffffffffffffffffffff1673ffffffffffffffffffffffffffffffffffffffff16815260200190815260200160002054612b34600d54600d54612c8790919063ffffffff16565b612ce190919063ffffffff16565b600f60003373ffffffffffffffffffffffffffffffffffffffff1673ffffffffffffffffffffffffffffffffffffffff1681526020019081526020016000208190555060019150505b90565b60006020528060005260406000206000915054906101000a900473ffffffffffffffffffffffffffffffffffffffff1681565b6000828284612bd09190613657565b9150811115612c14576040517f08c379a0000000000000000000000000000000000000000000000000000000008152600401612c0b9061322a565b60405180910390fd5b92915050565b600080821480612c42575082828385612c3391906135fd565b925082612c40919061345b565b145b612c81576040517f08c379a0000000000000000000000000000000000000000000000000000000008152600401612c789061324a565b60405180910390fd5b92915050565b60008183612c95919061345b565b905092915050565b6000670de0b6b3a7640000612ccf612cb58585612c1a565b6002670de0b6b3a7640000612cca919061345b565b612d0d565b612cd9919061345b565b905092915050565b60008183612cef9190613657565b905092915050565b60008183612d059190613405565b905092915050565b6000828284612d1c9190613405565b9150811015612d60576040517f08c379a0000000000000000000000000000000000000000000000000000000008152600401612d579061326a565b60405180910390fd5b92915050565b6000612d79612d748461338a565b613365565b90508083825260208201905082856020860282011115612d9c57612d9b613826565b5b60005b85811015612dcc5781612db28882612e2e565b845260208401935060208301925050600181019050612d9f565b5050509392505050565b600081359050612de5816139f7565b92915050565b600082601f830112612e0057612dff613821565b5b8135612e10848260208601612d66565b91505092915050565b600081519050612e2881613a0e565b92915050565b600081359050612e3d81613a25565b92915050565b600081519050612e5281613a25565b92915050565b600060208284031215612e6e57612e6d613830565b5b6000612e7c84828501612dd6565b91505092915050565b600060208284031215612e9b57612e9a613830565b5b600082013567ffffffffffffffff811115612eb957612eb861382b565b5b612ec584828501612deb565b91505092915050565b600060208284031215612ee457612ee3613830565b5b6000612ef284828501612e19565b91505092915050565b600060208284031215612f1157612f10613830565b5b6000612f1f84828501612e2e565b91505092915050565b600060208284031215612f3e57612f3d613830565b5b6000612f4c84828501612e43565b91505092915050565b6000612f61838361312b565b60208301905092915050565b612f7681613695565b82525050565b6000612f87826133cb565b612f9181856133e3565b9350612f9c836133b6565b8060005b83811015612fd457612fb18261380e565b612fbb8882612f55565b9750612fc6836133d6565b925050600181019050612fa0565b5085935050505092915050565b612fea816136a7565b82525050565b6000612ffd6015836133f4565b915061300882613860565b602082019050919050565b60006130206014836133f4565b915061302b82613889565b602082019050919050565b60006130436014836133f4565b915061304e826138b2565b602082019050919050565b60006130666016836133f4565b9150613071826138db565b602082019050919050565b6000613089601c836133f4565b915061309482613904565b602082019050919050565b60006130ac6015836133f4565b91506130b78261392d565b602082019050919050565b60006130cf601e836133f4565b91506130da82613956565b602082019050919050565b60006130f2600a836133f4565b91506130fd8261397f565b602082019050919050565b6000613115602a836133f4565b9150613120826139a8565b604082019050919050565b613134816136d3565b82525050565b613143816136d3565b82525050565b600060208201905061315e6000830184612f6d565b92915050565b60006040820190506131796000830185612f6d565b6131866020830184612f6d565b9392505050565b60006060820190506131a26000830186612f6d565b6131af6020830185612f6d565b6131bc604083018461313a565b949350505050565b60006040820190506131d96000830185612f6d565b6131e6602083018461313a565b9392505050565b600060208201905081810360008301526132078184612f7c565b905092915050565b60006020820190506132246000830184612fe1565b92915050565b6000602082019050818103600083015261324381612ff0565b9050919050565b6000602082019050818103600083015261326381613013565b9050919050565b6000602082019050818103600083015261328381613036565b9050919050565b600060208201905081810360008301526132a381613059565b9050919050565b600060208201905081810360008301526132c38161307c565b9050919050565b600060208201905081810360008301526132e38161309f565b9050919050565b60006020820190508181036000830152613303816130c2565b9050919050565b60006020820190508181036000830152613323816130e5565b9050919050565b6000602082019050818103600083015261334381613108565b9050919050565b600060208201905061335f600083018461313a565b92915050565b600061336f613380565b905061337b8282613721565b919050565b6000604051905090565b600067ffffffffffffffff8211156133a5576133a46137df565b5b602082029050602081019050919050565b60008190508160005260206000209050919050565b600081549050919050565b6000600182019050919050565b600082825260208201905092915050565b600082825260208201905092915050565b6000613410826136d3565b915061341b836136d3565b9250827fffffffffffffffffffffffffffffffffffffffffffffffffffffffffffffffff038211156134505761344f613752565b5b828201905092915050565b6000613466826136d3565b9150613471836136d3565b92508261348157613480613781565b5b828204905092915050565b6000808291508390505b60018511156134d6578086048111156134b2576134b1613752565b5b60018516156134c15780820291505b80810290506134cf85613853565b9450613496565b94509492505050565b60006134ea826136d3565b91506134f5836136d3565b92506135227fffffffffffffffffffffffffffffffffffffffffffffffffffffffffffffffff848461352a565b905092915050565b60008261353a57600190506135f6565b8161354857600090506135f6565b816001811461355e576002811461356857613597565b60019150506135f6565b60ff84111561357a57613579613752565b5b8360020a91508482111561359157613590613752565b5b506135f6565b5060208310610133831016604e8410600b84101617156135cc5782820a9050838111156135c7576135c6613752565b5b6135f6565b6135d9848484600161348c565b925090508184048111156135f0576135ef613752565b5b81810290505b9392505050565b6000613608826136d3565b9150613613836136d3565b9250817fffffffffffffffffffffffffffffffffffffffffffffffffffffffffffffffff048311821515161561364c5761364b613752565b5b828202905092915050565b6000613662826136d3565b915061366d836136d3565b9250828210156136805761367f613752565b5b828203905092915050565b6000819050919050565b60006136a0826136b3565b9050919050565b60008115159050919050565b600073ffffffffffffffffffffffffffffffffffffffff82169050919050565b6000819050919050565b60006136e8826136d3565b915060008214156136fc576136fb613752565b5b600182039050919050565b600061371a61371583613846565b61368b565b9050919050565b61372a82613835565b810181811067ffffffffffffffff82111715613749576137486137df565b5b80604052505050565b7f4e487b7100000000000000000000000000000000000000000000000000000000600052601160045260246000fd5b7f4e487b7100000000000000000000000000000000000000000000000000000000600052601260045260246000fd5b7f4e487b7100000000000000000000000000000000000000000000000000000000600052603260045260246000fd5b7f4e487b7100000000000000000000000000000000000000000000000000000000600052604160045260246000fd5b600061381a8254613707565b9050919050565b600080fd5b600080fd5b600080fd5b600080fd5b6000601f19601f8301169050919050565b60008160001c9050919050565b60008160011c9050919050565b7f64732d6d6174682d7375622d756e646572666c6f770000000000000000000000600082015250565b7f64732d6d6174682d6d756c2d6f766572666c6f77000000000000000000000000600082015250565b7f64732d6d6174682d6164642d6f766572666c6f77000000000000000000000000600082015250565b7f766f7563686565206c6576656c206973206e6f74203000000000000000000000600082015250565b7f796f7520617265207374696c6c20756e64657220636f6f6c646f776e00000000600082015250565b7f796f7572206c6576656c20697320746f6f206c6f770000000000000000000000600082015250565b7f706c6561736520617070726f766520726571756972656420616d6f756e740000600082015250565b7f6d617468206572726f7200000000000000000000000000000000000000000000600082015250565b7f796f7520646f206e6f7420686176652061206869676820656e6f75676820637260008201527f656469742073636f726500000000000000000000000000000000000000000000602082015250565b613a0081613695565b8114613a0b57600080fd5b50565b613a17816136a7565b8114613a2257600080fd5b50565b613a2e816136d3565b8114613a3957600080fd5b5056fea264697066735822122091df4ebe700f4b718bccbcd59e335812438054ce94b03844a7852de292f6b79364736f6c63430008070033",
  "immutableReferences": {},
  "source": "// SPDX-License-Identifier: MIT\npragma solidity ^0.8.7;\nimport \"@openzeppelin/contracts/utils/math/SafeMath.sol\";\nimport \"../Token/IERC20.sol\";\nimport \"@openzeppelin/contracts/token/ERC20/IERC20.sol\";\nimport \"./vouching.sol\";\nimport \"./Array/Arrayfuncs.sol\";\nimport \"./ds-math/math.sol\";\ncontract Loaning is vouching(address(this)),Arrayfuncs,DSMath {\nusing SafeMath for uint256;\n\n//Neutron token=new Neutron(msg.sender,address(this));\nuint adj=10**18; //decimal adjustment\naddress reciever; //the address of this contract\naddress allowedcon;\naddress allowedcon2;\naddress governor;\naddress _owner;\naddress treasury;\nIERC20 token;\nBMIERC20 _token;\nIArrayfuncs calc;\nuint lim;\nconstructor(uint _lim,address _treasury){\ncalc=IArrayfuncs(address(this));\ntoken=IERC20(address(this));\n_token=BMIERC20(address(this));\nlim=_lim; //upper limit of tiers\n_owner=msg.sender;\ntreasury=_treasury;\n\n}\n//\nmodifier only_owner(){\n    require(msg.sender==_owner);\n_;}\nfunction set(address tk)public{\n    token=IERC20(tk);\n    _token=BMIERC20(tk);\n}\nmapping (address=>uint) public P2;\nmapping (address=>uint) private Rrate;\nmapping (address=>uint) private Drate;\nmapping (address=> uint) private Ltotal;\nmapping (address=> uint) private Dtotal;\nmapping (address=> uint) private defexpo;\nmapping (address=>uint) private medianD;\nmapping (address=>uint[]) private princeD;\nmapping (address=>uint) private medianL;\nmapping (address=>uint[]) private princeL;\nmapping (address => bool) private _match; //checks if the loan taker has taken the highest teir loan availible to them\nmapping (address =>uint) private timer; // stores the time when loanee returned last loan\nmapping (address=>uint) public cooldown; //amount of time between two loans\nmapping (address=> uint) public creditsc_c; // capped credit score, stops @20\nmapping (address=>uint) public defults;\nmapping (address=>uint) public repayed;\nmapping (address =>uint) rounds; //stores number of times the loanee has taken the highest loan possible\nmapping (address =>uint) roundsreq; // the number of times the person must return a loan of a particular tier to level up (rounds resets to 0 every time target is reached)\nmapping (address=>uint) public creditsc_uc; // uncapped credit score, can go beyond 20,\nmapping (address =>bool) public pending; //if loan not returned yet, true.\nmapping (address => uint) amount; //amount loaned\nmapping (address => uint) meddefprinc;\nmapping (address=> uint ) public principal;//money required to be repayed.\nmapping (address => uint) time;\n\n//function to take loan\nfunction takeloan (uint tier) public payable{\nrequire(sub(block.timestamp,timer[msg.sender])>=cooldown[msg.sender],\"you are still under cooldown\"); //so no loan spams\nrequire(creditsc_c[msg.sender]>=tier,\"you do not have a high enough credit score\");\nrequire(tier>0);\nrequire(pending[msg.sender]==false);\nuint interest;\nuint adfee;\namount[msg.sender]=mul(10**tier,adj);\n_token.mint(msg.sender,amount[msg.sender]);\ninterest=wmul(amount[msg.sender],20*adj.div(100));//20%,interest+1% admin fee\n//mul(Rrate[msg.sender],medianL[msg.sender])\n//mul(defexpo[msg.sender],Drate[msg.sender])\n//\nP2[msg.sender]=mul(sub(mul(Rrate[msg.sender],medianL[msg.sender]),mul(defexpo[msg.sender],Drate[msg.sender])),(principal[msg.sender]));\npending[msg.sender]=true;\ntime[msg.sender]=block.timestamp;\nif(tier==creditsc_c[msg.sender])\n_match[msg.sender]==true;\n}\n//repayment rate calc: rrate[msg.sender]=1-Drate[msg.sender]; //R\n//defult rate calc: drate=(defults[msg.sender]/(repayed[msg.sender]+defults[msg.sender]));\nfunction returnloan() public returns(bool){\n//I2 = (R*M2-D*H)*I-Ix\n\n require(pending[msg.sender]=true);\n if(block.timestamp.sub(time[msg.sender])>420000){\n     creditsc_uc[msg.sender]=0;\n     creditsc_c[msg.sender]=0;\n     defults[msg.sender]+=1;\n     Dtotal[msg.sender]+=P2[msg.sender];\n     if(friend[msg.sender]!=address(0)){\n         creditsc_c[friend[msg.sender]]=0;\n         creditsc_uc[friend[msg.sender]]=0;\n         friend[msg.sender]=address(0);\n     }\n     creditsc_c[friend[msg.sender]]=0;\n     princeD[msg.sender].push(P2[msg.sender]);\ncalc.sortA(princeD[msg.sender]);\nmedianD[msg.sender]=calc.getmedian(princeD[msg.sender]);//M1\ndefexpo[msg.sender]=Ltotal[msg.sender]-Dtotal[msg.sender]; //D\n     return false;\n }\n else{\nrequire(token.allowance(msg.sender,address(this))==P2[msg.sender],\"please approve required amount\");\nuint interest=P2[msg.sender].sub(amount[msg.sender]);\n//uint burning=80;\n//uint treasurym=15;\n//uint ownerm=5;\n\n//ducjdnc\nrequire(interest+amount[msg.sender]==P2[msg.sender],\"math error\");\n\n//token.transferFrom(msg.sender,_owner,interest.mul(ownerm.div(100)));\ntoken.transferFrom(msg.sender,treasury,interest.div(2));//mul(treasurym.div(100)));\n_token.burnfrom(msg.sender,interest.div(2));//mul(burning.div(100)));\n_token.burnfrom(msg.sender,amount[msg.sender]);\n //replace with burn //math to calc P2 needs to be checked\n pending[msg.sender]=false;\n creditsc_uc[msg.sender]+=1;\n\n //decide if to increase credit score, (checks if under limit)\n if(creditsc_c[msg.sender]<lim && _match[msg.sender]==true){\n rounds[msg.sender]=rounds[msg.sender].add(1);\n _match[msg.sender]=false;\n //sets cooldown before next loan.\n  cooldown[msg.sender]=10**creditsc_c[msg.sender];\n timer[msg.sender]=block.timestamp;  //marks time when last loan was returned\n if (rounds[msg.sender]>=roundsreq[msg.sender]){\n     creditsc_c[msg.sender]=creditsc_c[msg.sender].add(1);\n     if(creditsc_c[msg.sender]>10){\n     friend[msg.sender]=address(0);//no link after person reaches level 10.\n     }\n     roundsreq[msg.sender]=roundsreq[msg.sender].add(1);\n     rounds[msg.sender]=0;\n\n }//second if\n\n }//first if\n repayed[msg.sender]+=1;\n Dtotal[msg.sender]+=P2[msg.sender];\n princeL[msg.sender].push(P2[msg.sender]);\n calc.sortA(princeL[msg.sender]);\n medianL[msg.sender]=calc.getmedian(princeL[msg.sender]);//M2\ndefexpo[msg.sender]=Ltotal[msg.sender]-Dtotal[msg.sender]; //D\nDrate[msg.sender]=defults[msg.sender].div(repayed[msg.sender].add(defults[msg.sender]));//H\n\nRrate[msg.sender]=(lim.div(lim)).sub(Drate[msg.sender]);//R\n return true;\n\n\n }//outermost if/else\n\n}\nfunction freemoney() public  payable{\n    _token.mint(msg.sender,(1000*adj));\n}\n/*function setgovernor(address _governor) public only_owner returns(bool){\n\n    governor=_governor;\n    return true;\n}// set governor contract*/\nfunction increment(address pardonee)public{\n    //require(msg.sender==allowedcon||msg.sender==allowedcon2,\"you do not have permission to do this action.\");\n    creditsc_c[pardonee]=1;\n    creditsc_uc[pardonee]=1;\n\n}\n\n\n}\n",
  "sourcePath": "/Users/vibhu/node_modules/truffle/Neutron-main/contracts/Lending/Lending-main.sol",
  "compiler": {
    "name": "solc",
    "version": "0.8.7+commit.e28d00a7.Emscripten.clang"
  },
  "schemaVersion": "3.4.3",
  "updatedAt": "2022-03-29T03:00:12.038Z",
  "devdoc": {
    "kind": "dev",
    "methods": {},
    "version": 1
  },
  "userdoc": {
    "kind": "user",
    "methods": {},
    "version": 1
  }
}