{
  "contractName": "Neutron",
  "abi": [
    {
      "inputs": [
        {
          "internalType": "address",
          "name": "_owner",
          "type": "address"
        },
        {
          "internalType": "address",
          "name": "_loaner",
          "type": "address"
        }
      ],
      "stateMutability": "nonpayable",
      "type": "constructor"
    },
    {
      "anonymous": false,
      "inputs": [
        {
          "indexed": true,
          "internalType": "address",
          "name": "owner",
          "type": "address"
        },
        {
          "indexed": true,
          "internalType": "address",
          "name": "spender",
          "type": "address"
        },
        {
          "indexed": false,
          "internalType": "uint256",
          "name": "value",
          "type": "uint256"
        }
      ],
      "name": "Approval",
      "type": "event"
    },
    {
      "anonymous": false,
      "inputs": [
        {
          "indexed": false,
          "internalType": "address",
          "name": "account",
          "type": "address"
        }
      ],
      "name": "Paused",
      "type": "event"
    },
    {
      "anonymous": false,
      "inputs": [
        {
          "indexed": true,
          "internalType": "bytes32",
          "name": "role",
          "type": "bytes32"
        },
        {
          "indexed": true,
          "internalType": "bytes32",
          "name": "previousAdminRole",
          "type": "bytes32"
        },
        {
          "indexed": true,
          "internalType": "bytes32",
          "name": "newAdminRole",
          "type": "bytes32"
        }
      ],
      "name": "RoleAdminChanged",
      "type": "event"
    },
    {
      "anonymous": false,
      "inputs": [
        {
          "indexed": true,
          "internalType": "bytes32",
          "name": "role",
          "type": "bytes32"
        },
        {
          "indexed": true,
          "internalType": "address",
          "name": "account",
          "type": "address"
        },
        {
          "indexed": true,
          "internalType": "address",
          "name": "sender",
          "type": "address"
        }
      ],
      "name": "RoleGranted",
      "type": "event"
    },
    {
      "anonymous": false,
      "inputs": [
        {
          "indexed": true,
          "internalType": "bytes32",
          "name": "role",
          "type": "bytes32"
        },
        {
          "indexed": true,
          "internalType": "address",
          "name": "account",
          "type": "address"
        },
        {
          "indexed": true,
          "internalType": "address",
          "name": "sender",
          "type": "address"
        }
      ],
      "name": "RoleRevoked",
      "type": "event"
    },
    {
      "anonymous": false,
      "inputs": [
        {
          "indexed": true,
          "internalType": "address",
          "name": "from",
          "type": "address"
        },
        {
          "indexed": true,
          "internalType": "address",
          "name": "to",
          "type": "address"
        },
        {
          "indexed": false,
          "internalType": "uint256",
          "name": "value",
          "type": "uint256"
        }
      ],
      "name": "Transfer",
      "type": "event"
    },
    {
      "anonymous": false,
      "inputs": [
        {
          "indexed": false,
          "internalType": "address",
          "name": "account",
          "type": "address"
        }
      ],
      "name": "Unpaused",
      "type": "event"
    },
    {
      "inputs": [],
      "name": "BURNER_ROLE",
      "outputs": [
        {
          "internalType": "bytes32",
          "name": "",
          "type": "bytes32"
        }
      ],
      "stateMutability": "view",
      "type": "function"
    },
    {
      "inputs": [],
      "name": "DEFAULT_ADMIN_ROLE",
      "outputs": [
        {
          "internalType": "bytes32",
          "name": "",
          "type": "bytes32"
        }
      ],
      "stateMutability": "view",
      "type": "function"
    },
    {
      "inputs": [],
      "name": "MINTER_ROLE",
      "outputs": [
        {
          "internalType": "bytes32",
          "name": "",
          "type": "bytes32"
        }
      ],
      "stateMutability": "view",
      "type": "function"
    },
    {
      "inputs": [],
      "name": "PAUSER_ROLE",
      "outputs": [
        {
          "internalType": "bytes32",
          "name": "",
          "type": "bytes32"
        }
      ],
      "stateMutability": "view",
      "type": "function"
    },
    {
      "inputs": [
        {
          "internalType": "address",
          "name": "owner",
          "type": "address"
        },
        {
          "internalType": "address",
          "name": "spender",
          "type": "address"
        }
      ],
      "name": "allowance",
      "outputs": [
        {
          "internalType": "uint256",
          "name": "",
          "type": "uint256"
        }
      ],
      "stateMutability": "view",
      "type": "function"
    },
    {
      "inputs": [
        {
          "internalType": "address",
          "name": "spender",
          "type": "address"
        },
        {
          "internalType": "uint256",
          "name": "amount",
          "type": "uint256"
        }
      ],
      "name": "approve",
      "outputs": [
        {
          "internalType": "bool",
          "name": "",
          "type": "bool"
        }
      ],
      "stateMutability": "nonpayable",
      "type": "function"
    },
    {
      "inputs": [
        {
          "internalType": "address",
          "name": "account",
          "type": "address"
        }
      ],
      "name": "balanceOf",
      "outputs": [
        {
          "internalType": "uint256",
          "name": "",
          "type": "uint256"
        }
      ],
      "stateMutability": "view",
      "type": "function"
    },
    {
      "inputs": [
        {
          "internalType": "address",
          "name": "account",
          "type": "address"
        },
        {
          "internalType": "uint256",
          "name": "amount",
          "type": "uint256"
        }
      ],
      "name": "burnFrom",
      "outputs": [],
      "stateMutability": "nonpayable",
      "type": "function"
    },
    {
      "inputs": [],
      "name": "decimals",
      "outputs": [
        {
          "internalType": "uint8",
          "name": "",
          "type": "uint8"
        }
      ],
      "stateMutability": "view",
      "type": "function"
    },
    {
      "inputs": [
        {
          "internalType": "address",
          "name": "spender",
          "type": "address"
        },
        {
          "internalType": "uint256",
          "name": "subtractedValue",
          "type": "uint256"
        }
      ],
      "name": "decreaseAllowance",
      "outputs": [
        {
          "internalType": "bool",
          "name": "",
          "type": "bool"
        }
      ],
      "stateMutability": "nonpayable",
      "type": "function"
    },
    {
      "inputs": [
        {
          "internalType": "bytes32",
          "name": "role",
          "type": "bytes32"
        }
      ],
      "name": "getRoleAdmin",
      "outputs": [
        {
          "internalType": "bytes32",
          "name": "",
          "type": "bytes32"
        }
      ],
      "stateMutability": "view",
      "type": "function"
    },
    {
      "inputs": [
        {
          "internalType": "bytes32",
          "name": "role",
          "type": "bytes32"
        },
        {
          "internalType": "uint256",
          "name": "index",
          "type": "uint256"
        }
      ],
      "name": "getRoleMember",
      "outputs": [
        {
          "internalType": "address",
          "name": "",
          "type": "address"
        }
      ],
      "stateMutability": "view",
      "type": "function"
    },
    {
      "inputs": [
        {
          "internalType": "bytes32",
          "name": "role",
          "type": "bytes32"
        }
      ],
      "name": "getRoleMemberCount",
      "outputs": [
        {
          "internalType": "uint256",
          "name": "",
          "type": "uint256"
        }
      ],
      "stateMutability": "view",
      "type": "function"
    },
    {
      "inputs": [
        {
          "internalType": "bytes32",
          "name": "role",
          "type": "bytes32"
        },
        {
          "internalType": "address",
          "name": "account",
          "type": "address"
        }
      ],
      "name": "grantRole",
      "outputs": [],
      "stateMutability": "nonpayable",
      "type": "function"
    },
    {
      "inputs": [
        {
          "internalType": "bytes32",
          "name": "role",
          "type": "bytes32"
        },
        {
          "internalType": "address",
          "name": "account",
          "type": "address"
        }
      ],
      "name": "hasRole",
      "outputs": [
        {
          "internalType": "bool",
          "name": "",
          "type": "bool"
        }
      ],
      "stateMutability": "view",
      "type": "function"
    },
    {
      "inputs": [
        {
          "internalType": "address",
          "name": "spender",
          "type": "address"
        },
        {
          "internalType": "uint256",
          "name": "addedValue",
          "type": "uint256"
        }
      ],
      "name": "increaseAllowance",
      "outputs": [
        {
          "internalType": "bool",
          "name": "",
          "type": "bool"
        }
      ],
      "stateMutability": "nonpayable",
      "type": "function"
    },
    {
      "inputs": [
        {
          "internalType": "address",
          "name": "to",
          "type": "address"
        },
        {
          "internalType": "uint256",
          "name": "amount",
          "type": "uint256"
        }
      ],
      "name": "mint",
      "outputs": [],
      "stateMutability": "nonpayable",
      "type": "function"
    },
    {
      "inputs": [],
      "name": "name",
      "outputs": [
        {
          "internalType": "string",
          "name": "",
          "type": "string"
        }
      ],
      "stateMutability": "view",
      "type": "function"
    },
    {
      "inputs": [],
      "name": "pause",
      "outputs": [],
      "stateMutability": "nonpayable",
      "type": "function"
    },
    {
      "inputs": [],
      "name": "paused",
      "outputs": [
        {
          "internalType": "bool",
          "name": "",
          "type": "bool"
        }
      ],
      "stateMutability": "view",
      "type": "function"
    },
    {
      "inputs": [
        {
          "internalType": "bytes32",
          "name": "role",
          "type": "bytes32"
        },
        {
          "internalType": "address",
          "name": "account",
          "type": "address"
        }
      ],
      "name": "renounceRole",
      "outputs": [],
      "stateMutability": "nonpayable",
      "type": "function"
    },
    {
      "inputs": [
        {
          "internalType": "bytes32",
          "name": "role",
          "type": "bytes32"
        },
        {
          "internalType": "address",
          "name": "account",
          "type": "address"
        }
      ],
      "name": "revokeRole",
      "outputs": [],
      "stateMutability": "nonpayable",
      "type": "function"
    },
    {
      "inputs": [
        {
          "internalType": "bytes4",
          "name": "interfaceId",
          "type": "bytes4"
        }
      ],
      "name": "supportsInterface",
      "outputs": [
        {
          "internalType": "bool",
          "name": "",
          "type": "bool"
        }
      ],
      "stateMutability": "view",
      "type": "function"
    },
    {
      "inputs": [],
      "name": "symbol",
      "outputs": [
        {
          "internalType": "string",
          "name": "",
          "type": "string"
        }
      ],
      "stateMutability": "view",
      "type": "function"
    },
    {
      "inputs": [],
      "name": "totalSupply",
      "outputs": [
        {
          "internalType": "uint256",
          "name": "",
          "type": "uint256"
        }
      ],
      "stateMutability": "view",
      "type": "function"
    },
    {
      "inputs": [
        {
          "internalType": "address",
          "name": "to",
          "type": "address"
        },
        {
          "internalType": "uint256",
          "name": "amount",
          "type": "uint256"
        }
      ],
      "name": "transfer",
      "outputs": [
        {
          "internalType": "bool",
          "name": "",
          "type": "bool"
        }
      ],
      "stateMutability": "nonpayable",
      "type": "function"
    },
    {
      "inputs": [
        {
          "internalType": "address",
          "name": "from",
          "type": "address"
        },
        {
          "internalType": "address",
          "name": "to",
          "type": "address"
        },
        {
          "internalType": "uint256",
          "name": "amount",
          "type": "uint256"
        }
      ],
      "name": "transferFrom",
      "outputs": [
        {
          "internalType": "bool",
          "name": "",
          "type": "bool"
        }
      ],
      "stateMutability": "nonpayable",
      "type": "function"
    },
    {
      "inputs": [],
      "name": "unpause",
      "outputs": [],
      "stateMutability": "nonpayable",
      "type": "function"
    },
    {
      "inputs": [
        {
          "internalType": "uint256",
          "name": "amount",
          "type": "uint256"
        }
      ],
      "name": "burn",
      "outputs": [],
      "stateMutability": "nonpayable",
      "type": "function"
    },
    {
      "inputs": [
        {
          "internalType": "address",
          "name": "to",
          "type": "address"
        },
        {
          "internalType": "uint256",
          "name": "amount",
          "type": "uint256"
        }
      ],
      "name": "burn",
      "outputs": [],
      "stateMutability": "nonpayable",
      "type": "function"
    }
  ],
  "bytecode": "0x60806040523480156200001157600080fd5b5060405162003a2138038062003a2183398181016040528101906200003791906200067f565b6040518060400160405280600781526020017f4e657574726f6e000000000000000000000000000000000000000000000000008152506040518060400160405280600381526020017f4e544e000000000000000000000000000000000000000000000000000000000081525081818160059080519060200190620000bd929190620005b8565b508060069080519060200190620000d6929190620005b8565b5050506000600760006101000a81548160ff021916908315150217905550620001186000801b6200010c6200032260201b60201c565b6200032a60201b60201c565b620001597f9f2df0fed2c77648de5860a4cc508cd0818c85b8b8a1ab4ceeef8d981c8956a66200014d6200032260201b60201c565b6200032a60201b60201c565b6200019a7f65d7a28e3265b37a6474929f336521b332c1681b933f6cb9f3376673440d862a6200018e6200032260201b60201c565b6200032a60201b60201c565b505081600760016101000a81548173ffffffffffffffffffffffffffffffffffffffff021916908373ffffffffffffffffffffffffffffffffffffffff16021790555080600860006101000a81548173ffffffffffffffffffffffffffffffffffffffff021916908373ffffffffffffffffffffffffffffffffffffffff160217905550620002727f9f2df0fed2c77648de5860a4cc508cd0818c85b8b8a1ab4ceeef8d981c8956a6600860009054906101000a900473ffffffffffffffffffffffffffffffffffffffff166200032a60201b60201c565b620002c67f3c11d16cbaffd01df69ce1c404f6340ee057498f5f00246190ea54220576a848600860009054906101000a900473ffffffffffffffffffffffffffffffffffffffff166200032a60201b60201c565b6200031a7f65d7a28e3265b37a6474929f336521b332c1681b933f6cb9f3376673440d862a600860009054906101000a900473ffffffffffffffffffffffffffffffffffffffff166200032a60201b60201c565b50506200077e565b600033905090565b6200033c82826200034060201b60201c565b5050565b6200035782826200038860201b62000df81760201c565b6200038381600160008581526020019081526020016000206200047960201b62000ed81790919060201c565b505050565b6200039a8282620004b160201b60201c565b6200047557600160008084815260200190815260200160002060000160008373ffffffffffffffffffffffffffffffffffffffff1673ffffffffffffffffffffffffffffffffffffffff16815260200190815260200160002060006101000a81548160ff0219169083151502179055506200041a6200032260201b60201c565b73ffffffffffffffffffffffffffffffffffffffff168173ffffffffffffffffffffffffffffffffffffffff16837f2f8788117e7eff1d82e926ec794901d17c78024a50270940304540a733656f0d60405160405180910390a45b5050565b6000620004a9836000018373ffffffffffffffffffffffffffffffffffffffff1660001b6200051b60201b60201c565b905092915050565b600080600084815260200190815260200160002060000160008373ffffffffffffffffffffffffffffffffffffffff1673ffffffffffffffffffffffffffffffffffffffff16815260200190815260200160002060009054906101000a900460ff16905092915050565b60006200052f83836200059560201b60201c565b6200058a5782600001829080600181540180825580915050600190039060005260206000200160009091909190915055826000018054905083600101600084815260200190815260200160002081905550600190506200058f565b600090505b92915050565b600080836001016000848152602001908152602001600020541415905092915050565b828054620005c690620006fa565b90600052602060002090601f016020900481019282620005ea576000855562000636565b82601f106200060557805160ff191683800117855562000636565b8280016001018555821562000636579182015b828111156200063557825182559160200191906001019062000618565b5b50905062000645919062000649565b5090565b5b80821115620006645760008160009055506001016200064a565b5090565b600081519050620006798162000764565b92915050565b600080604083850312156200069957620006986200075f565b5b6000620006a98582860162000668565b9250506020620006bc8582860162000668565b9150509250929050565b6000620006d382620006da565b9050919050565b600073ffffffffffffffffffffffffffffffffffffffff82169050919050565b600060028204905060018216806200071357607f821691505b602082108114156200072a576200072962000730565b5b50919050565b7f4e487b7100000000000000000000000000000000000000000000000000000000600052602260045260246000fd5b600080fd5b6200076f81620006c6565b81146200077b57600080fd5b50565b613293806200078e6000396000f3fe608060405234801561001057600080fd5b50600436106101da5760003560e01c806370a0823111610104578063a217fddf116100a2578063d539139311610071578063d53913931461057d578063d547741f1461059b578063dd62ed3e146105b7578063e63ab1e9146105e7576101da565b8063a217fddf146104cf578063a457c2d7146104ed578063a9059cbb1461051d578063ca15c8731461054d576101da565b80639010d07c116100de5780639010d07c1461043557806391d148541461046557806395d89b41146104955780639dc29fac146104b3576101da565b806370a08231146103df57806379cc67901461040f5780638456cb591461042b576101da565b80632f2ff15d1161017c5780633f4ba83a1161014b5780633f4ba83a1461037f57806340c10f191461038957806342966c68146103a55780635c975abb146103c1576101da565b80632f2ff15d146102f9578063313ce5671461031557806336568abe14610333578063395093511461034f576101da565b806318160ddd116101b857806318160ddd1461025d57806323b872dd1461027b578063248a9ca3146102ab578063282c51f3146102db576101da565b806301ffc9a7146101df57806306fdde031461020f578063095ea7b31461022d575b600080fd5b6101f960048036038101906101f49190612239565b610605565b604051610206919061267c565b60405180910390f35b61021761067f565b60405161022491906126b2565b60405180910390f35b6102476004803603810190610242919061214c565b610711565b604051610254919061267c565b60405180910390f35b610265610734565b6040516102729190612934565b60405180910390f35b610295600480360381019061029091906120f9565b61073e565b6040516102a2919061267c565b60405180910390f35b6102c560048036038101906102c0919061218c565b61076d565b6040516102d29190612697565b60405180910390f35b6102e361078c565b6040516102f09190612697565b60405180910390f35b610313600480360381019061030e91906121b9565b6107b0565b005b61031d6107d1565b60405161032a919061294f565b60405180910390f35b61034d600480360381019061034891906121b9565b6107da565b005b6103696004803603810190610364919061214c565b61085d565b604051610376919061267c565b60405180910390f35b610387610894565b005b6103a3600480360381019061039e919061214c565b61090e565b005b6103bf60048036038101906103ba9190612266565b61098c565b005b6103c96109a0565b6040516103d6919061267c565b60405180910390f35b6103f960048036038101906103f4919061208c565b6109b7565b6040516104069190612934565b60405180910390f35b6104296004803603810190610424919061214c565b610a00565b005b610433610a20565b005b61044f600480360381019061044a91906121f9565b610a9a565b60405161045c9190612661565b60405180910390f35b61047f600480360381019061047a91906121b9565b610ac9565b60405161048c919061267c565b60405180910390f35b61049d610b33565b6040516104aa91906126b2565b60405180910390f35b6104cd60048036038101906104c8919061214c565b610bc5565b005b6104d7610c43565b6040516104e49190612697565b60405180910390f35b6105076004803603810190610502919061214c565b610c4a565b604051610514919061267c565b60405180910390f35b6105376004803603810190610532919061214c565b610cc1565b604051610544919061267c565b60405180910390f35b6105676004803603810190610562919061218c565b610ce4565b6040516105749190612934565b60405180910390f35b610585610d08565b6040516105929190612697565b60405180910390f35b6105b560048036038101906105b091906121b9565b610d2c565b005b6105d160048036038101906105cc91906120b9565b610d4d565b6040516105de9190612934565b60405180910390f35b6105ef610dd4565b6040516105fc9190612697565b60405180910390f35b60007f5a05180f000000000000000000000000000000000000000000000000000000007bffffffffffffffffffffffffffffffffffffffffffffffffffffffff1916827bffffffffffffffffffffffffffffffffffffffffffffffffffffffff19161480610678575061067782610f08565b5b9050919050565b60606005805461068e90612b5d565b80601f01602080910402602001604051908101604052809291908181526020018280546106ba90612b5d565b80156107075780601f106106dc57610100808354040283529160200191610707565b820191906000526020600020905b8154815290600101906020018083116106ea57829003601f168201915b5050505050905090565b60008061071c610f82565b9050610729818585610f8a565b600191505092915050565b6000600454905090565b600080610749610f82565b9050610756858285611155565b6107618585856111e1565b60019150509392505050565b6000806000838152602001908152602001600020600101549050919050565b7f3c11d16cbaffd01df69ce1c404f6340ee057498f5f00246190ea54220576a84881565b6107b98261076d565b6107c281611465565b6107cc8383611479565b505050565b60006012905090565b6107e2610f82565b73ffffffffffffffffffffffffffffffffffffffff168173ffffffffffffffffffffffffffffffffffffffff161461084f576040517f08c379a0000000000000000000000000000000000000000000000000000000008152600401610846906128d4565b60405180910390fd5b61085982826114ad565b5050565b600080610868610f82565b905061088981858561087a8589610d4d565b6108849190612991565b610f8a565b600191505092915050565b6108c57f65d7a28e3265b37a6474929f336521b332c1681b933f6cb9f3376673440d862a6108c0610f82565b610ac9565b610904576040517f08c379a00000000000000000000000000000000000000000000000000000000081526004016108fb90612754565b60405180910390fd5b61090c6114e1565b565b61093f7f9f2df0fed2c77648de5860a4cc508cd0818c85b8b8a1ab4ceeef8d981c8956a661093a610f82565b610ac9565b61097e576040517f08c379a0000000000000000000000000000000000000000000000000000000008152600401610975906127f4565b60405180910390fd5b6109888282611583565b5050565b61099d610997610f82565b826116e4565b50565b6000600760009054906101000a900460ff16905090565b6000600260008373ffffffffffffffffffffffffffffffffffffffff1673ffffffffffffffffffffffffffffffffffffffff168152602001908152602001600020549050919050565b610a1282610a0c610f82565b83611155565b610a1c82826116e4565b5050565b610a517f65d7a28e3265b37a6474929f336521b332c1681b933f6cb9f3376673440d862a610a4c610f82565b610ac9565b610a90576040517f08c379a0000000000000000000000000000000000000000000000000000000008152600401610a8790612894565b60405180910390fd5b610a986118bd565b565b6000610ac1826001600086815260200190815260200160002061196090919063ffffffff16565b905092915050565b600080600084815260200190815260200160002060000160008373ffffffffffffffffffffffffffffffffffffffff1673ffffffffffffffffffffffffffffffffffffffff16815260200190815260200160002060009054906101000a900460ff16905092915050565b606060068054610b4290612b5d565b80601f0160208091040260200160405190810160405280929190818152602001828054610b6e90612b5d565b8015610bbb5780601f10610b9057610100808354040283529160200191610bbb565b820191906000526020600020905b815481529060010190602001808311610b9e57829003601f168201915b5050505050905090565b610bf67f3c11d16cbaffd01df69ce1c404f6340ee057498f5f00246190ea54220576a848610bf1610f82565b610ac9565b610c35576040517f08c379a0000000000000000000000000000000000000000000000000000000008152600401610c2c90612814565b60405180910390fd5b610c3f82826116e4565b5050565b6000801b81565b600080610c55610f82565b90506000610c638286610d4d565b905083811015610ca8576040517f08c379a0000000000000000000000000000000000000000000000000000000008152600401610c9f906128b4565b60405180910390fd5b610cb58286868403610f8a565b60019250505092915050565b600080610ccc610f82565b9050610cd98185856111e1565b600191505092915050565b6000610d016001600084815260200190815260200160002061197a565b9050919050565b7f9f2df0fed2c77648de5860a4cc508cd0818c85b8b8a1ab4ceeef8d981c8956a681565b610d358261076d565b610d3e81611465565b610d4883836114ad565b505050565b6000600360008473ffffffffffffffffffffffffffffffffffffffff1673ffffffffffffffffffffffffffffffffffffffff16815260200190815260200160002060008373ffffffffffffffffffffffffffffffffffffffff1673ffffffffffffffffffffffffffffffffffffffff16815260200190815260200160002054905092915050565b7f65d7a28e3265b37a6474929f336521b332c1681b933f6cb9f3376673440d862a81565b610e028282610ac9565b610ed457600160008084815260200190815260200160002060000160008373ffffffffffffffffffffffffffffffffffffffff1673ffffffffffffffffffffffffffffffffffffffff16815260200190815260200160002060006101000a81548160ff021916908315150217905550610e79610f82565b73ffffffffffffffffffffffffffffffffffffffff168173ffffffffffffffffffffffffffffffffffffffff16837f2f8788117e7eff1d82e926ec794901d17c78024a50270940304540a733656f0d60405160405180910390a45b5050565b6000610f00836000018373ffffffffffffffffffffffffffffffffffffffff1660001b61198f565b905092915050565b60007f7965db0b000000000000000000000000000000000000000000000000000000007bffffffffffffffffffffffffffffffffffffffffffffffffffffffff1916827bffffffffffffffffffffffffffffffffffffffffffffffffffffffff19161480610f7b5750610f7a826119ff565b5b9050919050565b600033905090565b600073ffffffffffffffffffffffffffffffffffffffff168373ffffffffffffffffffffffffffffffffffffffff161415610ffa576040517f08c379a0000000000000000000000000000000000000000000000000000000008152600401610ff190612874565b60405180910390fd5b600073ffffffffffffffffffffffffffffffffffffffff168273ffffffffffffffffffffffffffffffffffffffff16141561106a576040517f08c379a000000000000000000000000000000000000000000000000000000000815260040161106190612774565b60405180910390fd5b80600360008573ffffffffffffffffffffffffffffffffffffffff1673ffffffffffffffffffffffffffffffffffffffff16815260200190815260200160002060008473ffffffffffffffffffffffffffffffffffffffff1673ffffffffffffffffffffffffffffffffffffffff168152602001908152602001600020819055508173ffffffffffffffffffffffffffffffffffffffff168373ffffffffffffffffffffffffffffffffffffffff167f8c5be1e5ebec7d5bd14f71427d1e84f3dd0314c0f7b2291e5b200ac8c7c3b925836040516111489190612934565b60405180910390a3505050565b60006111618484610d4d565b90507fffffffffffffffffffffffffffffffffffffffffffffffffffffffffffffffff81146111db57818110156111cd576040517f08c379a00000000000000000000000000000000000000000000000000000000081526004016111c490612794565b60405180910390fd5b6111da8484848403610f8a565b5b50505050565b600073ffffffffffffffffffffffffffffffffffffffff168373ffffffffffffffffffffffffffffffffffffffff161415611251576040517f08c379a000000000000000000000000000000000000000000000000000000000815260040161124890612854565b60405180910390fd5b600073ffffffffffffffffffffffffffffffffffffffff168273ffffffffffffffffffffffffffffffffffffffff1614156112c1576040517f08c379a00000000000000000000000000000000000000000000000000000000081526004016112b8906126f4565b60405180910390fd5b6112cc838383611a69565b6000600260008573ffffffffffffffffffffffffffffffffffffffff1673ffffffffffffffffffffffffffffffffffffffff16815260200190815260200160002054905081811015611353576040517f08c379a000000000000000000000000000000000000000000000000000000000815260040161134a906127b4565b60405180910390fd5b818103600260008673ffffffffffffffffffffffffffffffffffffffff1673ffffffffffffffffffffffffffffffffffffffff1681526020019081526020016000208190555081600260008573ffffffffffffffffffffffffffffffffffffffff1673ffffffffffffffffffffffffffffffffffffffff16815260200190815260200160002060008282546113e89190612991565b925050819055508273ffffffffffffffffffffffffffffffffffffffff168473ffffffffffffffffffffffffffffffffffffffff167fddf252ad1be2c89b69c2b068fc378daa952ba7f163c4a11628f55a4df523b3ef8460405161144c9190612934565b60405180910390a361145f848484611a79565b50505050565b61147681611471610f82565b611a7e565b50565b6114838282610df8565b6114a88160016000858152602001908152602001600020610ed890919063ffffffff16565b505050565b6114b78282611b1b565b6114dc8160016000858152602001908152602001600020611bfc90919063ffffffff16565b505050565b6114e96109a0565b611528576040517f08c379a000000000000000000000000000000000000000000000000000000000815260040161151f90612714565b60405180910390fd5b6000600760006101000a81548160ff0219169083151502179055507f5db9ee0a495bf2e6ff9c91a7834c1ba4fdd244a5e8aa4e537bd38aeae4b073aa61156c610f82565b6040516115799190612661565b60405180910390a1565b600073ffffffffffffffffffffffffffffffffffffffff168273ffffffffffffffffffffffffffffffffffffffff1614156115f3576040517f08c379a00000000000000000000000000000000000000000000000000000000081526004016115ea906128f4565b60405180910390fd5b6115ff60008383611a69565b80600460008282546116119190612991565b9250508190555080600260008473ffffffffffffffffffffffffffffffffffffffff1673ffffffffffffffffffffffffffffffffffffffff16815260200190815260200160002060008282546116679190612991565b925050819055508173ffffffffffffffffffffffffffffffffffffffff16600073ffffffffffffffffffffffffffffffffffffffff167fddf252ad1be2c89b69c2b068fc378daa952ba7f163c4a11628f55a4df523b3ef836040516116cc9190612934565b60405180910390a36116e060008383611a79565b5050565b600073ffffffffffffffffffffffffffffffffffffffff168273ffffffffffffffffffffffffffffffffffffffff161415611754576040517f08c379a000000000000000000000000000000000000000000000000000000000815260040161174b90612834565b60405180910390fd5b61176082600083611a69565b6000600260008473ffffffffffffffffffffffffffffffffffffffff1673ffffffffffffffffffffffffffffffffffffffff168152602001908152602001600020549050818110156117e7576040517f08c379a00000000000000000000000000000000000000000000000000000000081526004016117de90612734565b60405180910390fd5b818103600260008573ffffffffffffffffffffffffffffffffffffffff1673ffffffffffffffffffffffffffffffffffffffff16815260200190815260200160002081905550816004600082825461183f9190612a41565b92505081905550600073ffffffffffffffffffffffffffffffffffffffff168373ffffffffffffffffffffffffffffffffffffffff167fddf252ad1be2c89b69c2b068fc378daa952ba7f163c4a11628f55a4df523b3ef846040516118a49190612934565b60405180910390a36118b883600084611a79565b505050565b6118c56109a0565b15611905576040517f08c379a00000000000000000000000000000000000000000000000000000000081526004016118fc906127d4565b60405180910390fd5b6001600760006101000a81548160ff0219169083151502179055507f62e78cea01bee320cd4e420270b5ea74000d11b0c9f74754ebdbfc544b05a258611949610f82565b6040516119569190612661565b60405180910390a1565b600061196f8360000183611c2c565b60001c905092915050565b600061198882600001611c57565b9050919050565b600061199b8383611c68565b6119f45782600001829080600181540180825580915050600190039060005260206000200160009091909190915055826000018054905083600101600084815260200190815260200160002081905550600190506119f9565b600090505b92915050565b60007f01ffc9a7000000000000000000000000000000000000000000000000000000007bffffffffffffffffffffffffffffffffffffffffffffffffffffffff1916827bffffffffffffffffffffffffffffffffffffffffffffffffffffffff1916149050919050565b611a74838383611c8b565b505050565b505050565b611a888282610ac9565b611b1757611aad8173ffffffffffffffffffffffffffffffffffffffff166014611ce3565b611abb8360001c6020611ce3565b604051602001611acc929190612627565b6040516020818303038152906040526040517f08c379a0000000000000000000000000000000000000000000000000000000008152600401611b0e91906126b2565b60405180910390fd5b5050565b611b258282610ac9565b15611bf857600080600084815260200190815260200160002060000160008373ffffffffffffffffffffffffffffffffffffffff1673ffffffffffffffffffffffffffffffffffffffff16815260200190815260200160002060006101000a81548160ff021916908315150217905550611b9d610f82565b73ffffffffffffffffffffffffffffffffffffffff168173ffffffffffffffffffffffffffffffffffffffff16837ff6391f5c32d9c69d2a47ea670b442974b53935d1edc7fd64eb21e047a839171b60405160405180910390a45b5050565b6000611c24836000018373ffffffffffffffffffffffffffffffffffffffff1660001b611f1f565b905092915050565b6000826000018281548110611c4457611c43612c1c565b5b9060005260206000200154905092915050565b600081600001805490509050919050565b600080836001016000848152602001908152602001600020541415905092915050565b611c96838383612033565b611c9e6109a0565b15611cde576040517f08c379a0000000000000000000000000000000000000000000000000000000008152600401611cd590612914565b60405180910390fd5b505050565b606060006002836002611cf691906129e7565b611d009190612991565b67ffffffffffffffff811115611d1957611d18612c4b565b5b6040519080825280601f01601f191660200182016040528015611d4b5781602001600182028036833780820191505090505b5090507f300000000000000000000000000000000000000000000000000000000000000081600081518110611d8357611d82612c1c565b5b60200101907effffffffffffffffffffffffffffffffffffffffffffffffffffffffffffff1916908160001a9053507f780000000000000000000000000000000000000000000000000000000000000081600181518110611de757611de6612c1c565b5b60200101907effffffffffffffffffffffffffffffffffffffffffffffffffffffffffffff1916908160001a90535060006001846002611e2791906129e7565b611e319190612991565b90505b6001811115611ed1577f3031323334353637383961626364656600000000000000000000000000000000600f861660108110611e7357611e72612c1c565b5b1a60f81b828281518110611e8a57611e89612c1c565b5b60200101907effffffffffffffffffffffffffffffffffffffffffffffffffffffffffffff1916908160001a905350600485901c945080611eca90612b33565b9050611e34565b5060008414611f15576040517f08c379a0000000000000000000000000000000000000000000000000000000008152600401611f0c906126d4565b60405180910390fd5b8091505092915050565b60008083600101600084815260200190815260200160002054905060008114612027576000600182611f519190612a41565b9050600060018660000180549050611f699190612a41565b9050818114611fd8576000866000018281548110611f8a57611f89612c1c565b5b9060005260206000200154905080876000018481548110611fae57611fad612c1c565b5b90600052602060002001819055508387600101600083815260200190815260200160002081905550505b85600001805480611fec57611feb612bed565b5b60019003818190600052602060002001600090559055856001016000868152602001908152602001600020600090556001935050505061202d565b60009150505b92915050565b505050565b60008135905061204781613201565b92915050565b60008135905061205c81613218565b92915050565b6000813590506120718161322f565b92915050565b60008135905061208681613246565b92915050565b6000602082840312156120a2576120a1612c7a565b5b60006120b084828501612038565b91505092915050565b600080604083850312156120d0576120cf612c7a565b5b60006120de85828601612038565b92505060206120ef85828601612038565b9150509250929050565b60008060006060848603121561211257612111612c7a565b5b600061212086828701612038565b935050602061213186828701612038565b925050604061214286828701612077565b9150509250925092565b6000806040838503121561216357612162612c7a565b5b600061217185828601612038565b925050602061218285828601612077565b9150509250929050565b6000602082840312156121a2576121a1612c7a565b5b60006121b08482850161204d565b91505092915050565b600080604083850312156121d0576121cf612c7a565b5b60006121de8582860161204d565b92505060206121ef85828601612038565b9150509250929050565b600080604083850312156122105761220f612c7a565b5b600061221e8582860161204d565b925050602061222f85828601612077565b9150509250929050565b60006020828403121561224f5761224e612c7a565b5b600061225d84828501612062565b91505092915050565b60006020828403121561227c5761227b612c7a565b5b600061228a84828501612077565b91505092915050565b61229c81612a75565b82525050565b6122ab81612a87565b82525050565b6122ba81612a93565b82525050565b60006122cb8261296a565b6122d58185612975565b93506122e5818560208601612b00565b6122ee81612c7f565b840191505092915050565b60006123048261296a565b61230e8185612986565b935061231e818560208601612b00565b80840191505092915050565b6000612337602083612975565b915061234282612c90565b602082019050919050565b600061235a602383612975565b915061236582612cb9565b604082019050919050565b600061237d601483612975565b915061238882612d08565b602082019050919050565b60006123a0602283612975565b91506123ab82612d31565b604082019050919050565b60006123c3603983612975565b91506123ce82612d80565b604082019050919050565b60006123e6602283612975565b91506123f182612dcf565b604082019050919050565b6000612409601d83612975565b915061241482612e1e565b602082019050919050565b600061242c602683612975565b915061243782612e47565b604082019050919050565b600061244f601083612975565b915061245a82612e96565b602082019050919050565b6000612472603683612975565b915061247d82612ebf565b604082019050919050565b6000612495603683612975565b91506124a082612f0e565b604082019050919050565b60006124b8602183612975565b91506124c382612f5d565b604082019050919050565b60006124db602583612975565b91506124e682612fac565b604082019050919050565b60006124fe602483612975565b915061250982612ffb565b604082019050919050565b6000612521603783612975565b915061252c8261304a565b604082019050919050565b6000612544601783612986565b915061254f82613099565b601782019050919050565b6000612567602583612975565b9150612572826130c2565b604082019050919050565b600061258a601183612986565b915061259582613111565b601182019050919050565b60006125ad602f83612975565b91506125b88261313a565b604082019050919050565b60006125d0601f83612975565b91506125db82613189565b602082019050919050565b60006125f3602a83612975565b91506125fe826131b2565b604082019050919050565b61261281612ae9565b82525050565b61262181612af3565b82525050565b600061263282612537565b915061263e82856122f9565b91506126498261257d565b915061265582846122f9565b91508190509392505050565b60006020820190506126766000830184612293565b92915050565b600060208201905061269160008301846122a2565b92915050565b60006020820190506126ac60008301846122b1565b92915050565b600060208201905081810360008301526126cc81846122c0565b905092915050565b600060208201905081810360008301526126ed8161232a565b9050919050565b6000602082019050818103600083015261270d8161234d565b9050919050565b6000602082019050818103600083015261272d81612370565b9050919050565b6000602082019050818103600083015261274d81612393565b9050919050565b6000602082019050818103600083015261276d816123b6565b9050919050565b6000602082019050818103600083015261278d816123d9565b9050919050565b600060208201905081810360008301526127ad816123fc565b9050919050565b600060208201905081810360008301526127cd8161241f565b9050919050565b600060208201905081810360008301526127ed81612442565b9050919050565b6000602082019050818103600083015261280d81612465565b9050919050565b6000602082019050818103600083015261282d81612488565b9050919050565b6000602082019050818103600083015261284d816124ab565b9050919050565b6000602082019050818103600083015261286d816124ce565b9050919050565b6000602082019050818103600083015261288d816124f1565b9050919050565b600060208201905081810360008301526128ad81612514565b9050919050565b600060208201905081810360008301526128cd8161255a565b9050919050565b600060208201905081810360008301526128ed816125a0565b9050919050565b6000602082019050818103600083015261290d816125c3565b9050919050565b6000602082019050818103600083015261292d816125e6565b9050919050565b60006020820190506129496000830184612609565b92915050565b60006020820190506129646000830184612618565b92915050565b600081519050919050565b600082825260208201905092915050565b600081905092915050565b600061299c82612ae9565b91506129a783612ae9565b9250827fffffffffffffffffffffffffffffffffffffffffffffffffffffffffffffffff038211156129dc576129db612b8f565b5b828201905092915050565b60006129f282612ae9565b91506129fd83612ae9565b9250817fffffffffffffffffffffffffffffffffffffffffffffffffffffffffffffffff0483118215151615612a3657612a35612b8f565b5b828202905092915050565b6000612a4c82612ae9565b9150612a5783612ae9565b925082821015612a6a57612a69612b8f565b5b828203905092915050565b6000612a8082612ac9565b9050919050565b60008115159050919050565b6000819050919050565b60007fffffffff0000000000000000000000000000000000000000000000000000000082169050919050565b600073ffffffffffffffffffffffffffffffffffffffff82169050919050565b6000819050919050565b600060ff82169050919050565b60005b83811015612b1e578082015181840152602081019050612b03565b83811115612b2d576000848401525b50505050565b6000612b3e82612ae9565b91506000821415612b5257612b51612b8f565b5b600182039050919050565b60006002820490506001821680612b7557607f821691505b60208210811415612b8957612b88612bbe565b5b50919050565b7f4e487b7100000000000000000000000000000000000000000000000000000000600052601160045260246000fd5b7f4e487b7100000000000000000000000000000000000000000000000000000000600052602260045260246000fd5b7f4e487b7100000000000000000000000000000000000000000000000000000000600052603160045260246000fd5b7f4e487b7100000000000000000000000000000000000000000000000000000000600052603260045260246000fd5b7f4e487b7100000000000000000000000000000000000000000000000000000000600052604160045260246000fd5b600080fd5b6000601f19601f8301169050919050565b7f537472696e67733a20686578206c656e67746820696e73756666696369656e74600082015250565b7f45524332303a207472616e7366657220746f20746865207a65726f206164647260008201527f6573730000000000000000000000000000000000000000000000000000000000602082015250565b7f5061757361626c653a206e6f7420706175736564000000000000000000000000600082015250565b7f45524332303a206275726e20616d6f756e7420657863656564732062616c616e60008201527f6365000000000000000000000000000000000000000000000000000000000000602082015250565b7f45524332305072657365744d696e7465725061757365723a206d75737420686160008201527f76652070617573657220726f6c6520746f20756e706175736500000000000000602082015250565b7f45524332303a20617070726f766520746f20746865207a65726f20616464726560008201527f7373000000000000000000000000000000000000000000000000000000000000602082015250565b7f45524332303a20696e73756666696369656e7420616c6c6f77616e6365000000600082015250565b7f45524332303a207472616e7366657220616d6f756e742065786365656473206260008201527f616c616e63650000000000000000000000000000000000000000000000000000602082015250565b7f5061757361626c653a2070617573656400000000000000000000000000000000600082015250565b7f45524332305072657365744d696e7465725061757365723a206d75737420686160008201527f7665206d696e74657220726f6c6520746f206d696e7400000000000000000000602082015250565b7f45524332305072657365744d696e7465725061757365723a206d75737420686160008201527f7665206275726e657220726f6c6520746f206275726e00000000000000000000602082015250565b7f45524332303a206275726e2066726f6d20746865207a65726f2061646472657360008201527f7300000000000000000000000000000000000000000000000000000000000000602082015250565b7f45524332303a207472616e736665722066726f6d20746865207a65726f20616460008201527f6472657373000000000000000000000000000000000000000000000000000000602082015250565b7f45524332303a20617070726f76652066726f6d20746865207a65726f2061646460008201527f7265737300000000000000000000000000000000000000000000000000000000602082015250565b7f45524332305072657365744d696e7465725061757365723a206d75737420686160008201527f76652070617573657220726f6c6520746f207061757365000000000000000000602082015250565b7f416363657373436f6e74726f6c3a206163636f756e7420000000000000000000600082015250565b7f45524332303a2064656372656173656420616c6c6f77616e63652062656c6f7760008201527f207a65726f000000000000000000000000000000000000000000000000000000602082015250565b7f206973206d697373696e6720726f6c6520000000000000000000000000000000600082015250565b7f416363657373436f6e74726f6c3a2063616e206f6e6c792072656e6f756e636560008201527f20726f6c657320666f722073656c660000000000000000000000000000000000602082015250565b7f45524332303a206d696e7420746f20746865207a65726f206164647265737300600082015250565b7f45524332305061757361626c653a20746f6b656e207472616e7366657220776860008201527f696c652070617573656400000000000000000000000000000000000000000000602082015250565b61320a81612a75565b811461321557600080fd5b50565b61322181612a93565b811461322c57600080fd5b50565b61323881612a9d565b811461324357600080fd5b50565b61324f81612ae9565b811461325a57600080fd5b5056fea264697066735822122047f2698c20e2945ac1379b3913689bcf5c845ac6363269cd02bc34e91d2f907364736f6c63430008070033",
  "immutableReferences": {},
  "source": "pragma solidity 0.8.7;\nimport \"./IERC20.sol\";\nimport \"@openzeppelin/contracts/token/ERC20/presets/ERC20PresetMinterPauser.sol\";\n\ncontract Neutron is ERC20PresetMinterPauser (\"Neutron\",\"NTN\"){\n        bytes32 public constant BURNER_ROLE = keccak256(\"BURNER_ROLE\");\n    address owner;\n    address loaner;\n    constructor (address _owner,address _loaner){\n        owner= _owner;\n        loaner=_loaner;\n        _setupRole(MINTER_ROLE,loaner);\n        _setupRole(BURNER_ROLE,loaner);\n        _setupRole(PAUSER_ROLE,loaner);\n    }\n\nmodifier onlyOwner(){\n    require(msg.sender==owner);\n_;}\nfunction burn(address to, uint256 amount) public virtual {\n        require(hasRole(BURNER_ROLE, _msgSender()), \"ERC20PresetMinterPauser: must have burner role to burn\");\n        _burn(to,amount);\n}\n\n}\n",
  "sourcePath": "/Users/vibhu/node_modules/truffle/Neutron-main/contracts/Token/ERC20.sol",
  "compiler": {
    "name": "solc",
    "version": "0.8.7+commit.e28d00a7.Emscripten.clang"
  },
  "schemaVersion": "3.4.3",
  "updatedAt": "2022-03-26T04:15:14.891Z",
  "devdoc": {
    "kind": "dev",
    "methods": {
      "allowance(address,address)": {
        "details": "See {IERC20-allowance}."
      },
      "approve(address,uint256)": {
        "details": "See {IERC20-approve}. NOTE: If `amount` is the maximum `uint256`, the allowance is not updated on `transferFrom`. This is semantically equivalent to an infinite approval. Requirements: - `spender` cannot be the zero address."
      },
      "balanceOf(address)": {
        "details": "See {IERC20-balanceOf}."
      },
      "burn(uint256)": {
        "details": "Destroys `amount` tokens from the caller. See {ERC20-_burn}."
      },
      "burnFrom(address,uint256)": {
        "details": "Destroys `amount` tokens from `account`, deducting from the caller's allowance. See {ERC20-_burn} and {ERC20-allowance}. Requirements: - the caller must have allowance for ``accounts``'s tokens of at least `amount`."
      },
      "decimals()": {
        "details": "Returns the number of decimals used to get its user representation. For example, if `decimals` equals `2`, a balance of `505` tokens should be displayed to a user as `5.05` (`505 / 10 ** 2`). Tokens usually opt for a value of 18, imitating the relationship between Ether and Wei. This is the value {ERC20} uses, unless this function is overridden; NOTE: This information is only used for _display_ purposes: it in no way affects any of the arithmetic of the contract, including {IERC20-balanceOf} and {IERC20-transfer}."
      },
      "decreaseAllowance(address,uint256)": {
        "details": "Atomically decreases the allowance granted to `spender` by the caller. This is an alternative to {approve} that can be used as a mitigation for problems described in {IERC20-approve}. Emits an {Approval} event indicating the updated allowance. Requirements: - `spender` cannot be the zero address. - `spender` must have allowance for the caller of at least `subtractedValue`."
      },
      "getRoleAdmin(bytes32)": {
        "details": "Returns the admin role that controls `role`. See {grantRole} and {revokeRole}. To change a role's admin, use {_setRoleAdmin}."
      },
      "getRoleMember(bytes32,uint256)": {
        "details": "Returns one of the accounts that have `role`. `index` must be a value between 0 and {getRoleMemberCount}, non-inclusive. Role bearers are not sorted in any particular way, and their ordering may change at any point. WARNING: When using {getRoleMember} and {getRoleMemberCount}, make sure you perform all queries on the same block. See the following https://forum.openzeppelin.com/t/iterating-over-elements-on-enumerableset-in-openzeppelin-contracts/2296[forum post] for more information."
      },
      "getRoleMemberCount(bytes32)": {
        "details": "Returns the number of accounts that have `role`. Can be used together with {getRoleMember} to enumerate all bearers of a role."
      },
      "grantRole(bytes32,address)": {
        "details": "Grants `role` to `account`. If `account` had not been already granted `role`, emits a {RoleGranted} event. Requirements: - the caller must have ``role``'s admin role."
      },
      "hasRole(bytes32,address)": {
        "details": "Returns `true` if `account` has been granted `role`."
      },
      "increaseAllowance(address,uint256)": {
        "details": "Atomically increases the allowance granted to `spender` by the caller. This is an alternative to {approve} that can be used as a mitigation for problems described in {IERC20-approve}. Emits an {Approval} event indicating the updated allowance. Requirements: - `spender` cannot be the zero address."
      },
      "mint(address,uint256)": {
        "details": "Creates `amount` new tokens for `to`. See {ERC20-_mint}. Requirements: - the caller must have the `MINTER_ROLE`."
      },
      "name()": {
        "details": "Returns the name of the token."
      },
      "pause()": {
        "details": "Pauses all token transfers. See {ERC20Pausable} and {Pausable-_pause}. Requirements: - the caller must have the `PAUSER_ROLE`."
      },
      "paused()": {
        "details": "Returns true if the contract is paused, and false otherwise."
      },
      "renounceRole(bytes32,address)": {
        "details": "Revokes `role` from the calling account. Roles are often managed via {grantRole} and {revokeRole}: this function's purpose is to provide a mechanism for accounts to lose their privileges if they are compromised (such as when a trusted device is misplaced). If the calling account had been revoked `role`, emits a {RoleRevoked} event. Requirements: - the caller must be `account`."
      },
      "revokeRole(bytes32,address)": {
        "details": "Revokes `role` from `account`. If `account` had been granted `role`, emits a {RoleRevoked} event. Requirements: - the caller must have ``role``'s admin role."
      },
      "supportsInterface(bytes4)": {
        "details": "See {IERC165-supportsInterface}."
      },
      "symbol()": {
        "details": "Returns the symbol of the token, usually a shorter version of the name."
      },
      "totalSupply()": {
        "details": "See {IERC20-totalSupply}."
      },
      "transfer(address,uint256)": {
        "details": "See {IERC20-transfer}. Requirements: - `to` cannot be the zero address. - the caller must have a balance of at least `amount`."
      },
      "transferFrom(address,address,uint256)": {
        "details": "See {IERC20-transferFrom}. Emits an {Approval} event indicating the updated allowance. This is not required by the EIP. See the note at the beginning of {ERC20}. NOTE: Does not update the allowance if the current allowance is the maximum `uint256`. Requirements: - `from` and `to` cannot be the zero address. - `from` must have a balance of at least `amount`. - the caller must have allowance for ``from``'s tokens of at least `amount`."
      },
      "unpause()": {
        "details": "Unpauses all token transfers. See {ERC20Pausable} and {Pausable-_unpause}. Requirements: - the caller must have the `PAUSER_ROLE`."
      }
    },
    "version": 1
  },
  "userdoc": {
    "kind": "user",
    "methods": {},
    "version": 1
  }
}