{
  "contractName": "TaxCollector",
  "abi": [
    {
      "inputs": [],
      "stateMutability": "nonpayable",
      "type": "constructor"
    },
    {
      "inputs": [
        {
          "internalType": "uint256",
          "name": "x",
          "type": "uint256"
        },
        {
          "internalType": "uint256",
          "name": "n",
          "type": "uint256"
        }
      ],
      "name": "wpow",
      "outputs": [
        {
          "internalType": "uint256",
          "name": "z",
          "type": "uint256"
        }
      ],
      "stateMutability": "pure",
      "type": "function"
    },
    {
      "inputs": [
        {
          "internalType": "uint256",
          "name": "x",
          "type": "uint256"
        }
      ],
      "name": "wsqrt",
      "outputs": [
        {
          "internalType": "uint256",
          "name": "y",
          "type": "uint256"
        }
      ],
      "stateMutability": "pure",
      "type": "function"
    },
    {
      "inputs": [
        {
          "internalType": "address",
          "name": "msg_sender",
          "type": "address"
        }
      ],
      "name": "UpdateAR",
      "outputs": [],
      "stateMutability": "nonpayable",
      "type": "function"
    },
    {
      "inputs": [
        {
          "internalType": "address",
          "name": "msg_sender",
          "type": "address"
        },
        {
          "internalType": "address",
          "name": "to",
          "type": "address"
        }
      ],
      "name": "UpdateAR",
      "outputs": [
        {
          "internalType": "bool",
          "name": "",
          "type": "bool"
        }
      ],
      "stateMutability": "nonpayable",
      "type": "function"
    }
  ],
  "bytecode": "0x6080604052670de0b6b3a764000060025534801561001c57600080fd5b506001600360060181905550426003800181905550610be8806100406000396000f3fe608060405234801561001057600080fd5b506004361061004c5760003560e01c8063672f8e4f1461005157806393eb1cce14610081578063a77eb129146100b1578063cba3f53c146100cd575b600080fd5b61006b600480360381019061006691906107aa565b6100fd565b60405161007891906108ec565b60405180910390f35b61009b6004803603810190610096919061077d565b610184565b6040516100a891906108ec565b60405180910390f35b6100cb60048036038101906100c69190610710565b6101df565b005b6100e760048036038101906100e2919061073d565b61031f565b6040516100f49190610871565b60405180910390f35b60008060028361010d9190610a75565b141561012157670de0b6b3a7640000610123565b825b9050600282610132919061096e565b91505b6000821461017e576101478384610547565b925060006002836101589190610a75565b1461016a576101678184610547565b90505b600282610177919061096e565b9150610135565b92915050565b60008060026001846101969190610918565b6101a0919061096e565b90508291505b818110156101d9578091506002816101be858461058b565b6101c89190610918565b6101d2919061096e565b90506101a6565b50919050565b6102186003600201546102136003600601546002546101fe9190610918565b42600380015461020e91906109f9565b6100fd565b6105c7565b60036005018190555042600380018190555060036005015460036002018190555061028a600360050154600360010160008473ffffffffffffffffffffffffffffffffffffffff1673ffffffffffffffffffffffffffffffffffffffff16815260200190815260200160002054610620565b600360000160008373ffffffffffffffffffffffffffffffffffffffff1673ffffffffffffffffffffffffffffffffffffffff16815260200190815260200160002081905550600360050154600360010160008373ffffffffffffffffffffffffffffffffffffffff1673ffffffffffffffffffffffffffffffffffffffff1681526020019081526020016000208190555050565b600061035660036002015461035161033e6002546003600601546105c7565b61034c426003800154610620565b6100fd565b6105c7565b6003600501819055504260038001819055506003600501546003600201819055506103c8600360050154600360010160008673ffffffffffffffffffffffffffffffffffffffff1673ffffffffffffffffffffffffffffffffffffffff16815260200190815260200160002054610620565b600360000160008573ffffffffffffffffffffffffffffffffffffffff1673ffffffffffffffffffffffffffffffffffffffff1681526020019081526020016000208190555061045f600360050154600360010160008573ffffffffffffffffffffffffffffffffffffffff1673ffffffffffffffffffffffffffffffffffffffff16815260200190815260200160002054610620565b600360000160008473ffffffffffffffffffffffffffffffffffffffff1673ffffffffffffffffffffffffffffffffffffffff16815260200190815260200160002081905550600360050154600360010160008573ffffffffffffffffffffffffffffffffffffffff1673ffffffffffffffffffffffffffffffffffffffff16815260200190815260200160002081905550600360050154600360010160008473ffffffffffffffffffffffffffffffffffffffff1673ffffffffffffffffffffffffffffffffffffffff168152602001908152602001600020819055506001905092915050565b6000670de0b6b3a764000061057961055f8585610679565b6002670de0b6b3a7640000610574919061096e565b6105c7565b610583919061096e565b905092915050565b6000816105b56105a385670de0b6b3a7640000610679565b6002856105b0919061096e565b6105c7565b6105bf919061096e565b905092915050565b60008282846105d69190610918565b915081101561061a576040517f08c379a0000000000000000000000000000000000000000000000000000000008152600401610611906108cc565b60405180910390fd5b92915050565b600082828461062f91906109f9565b9150811115610673576040517f08c379a000000000000000000000000000000000000000000000000000000000815260040161066a9061088c565b60405180910390fd5b92915050565b6000808214806106a1575082828385610692919061099f565b92508261069f919061096e565b145b6106e0576040517f08c379a00000000000000000000000000000000000000000000000000000000081526004016106d7906108ac565b60405180910390fd5b92915050565b6000813590506106f581610b84565b92915050565b60008135905061070a81610b9b565b92915050565b60006020828403121561072657610725610b04565b5b6000610734848285016106e6565b91505092915050565b6000806040838503121561075457610753610b04565b5b6000610762858286016106e6565b9250506020610773858286016106e6565b9150509250929050565b60006020828403121561079357610792610b04565b5b60006107a1848285016106fb565b91505092915050565b600080604083850312156107c1576107c0610b04565b5b60006107cf858286016106fb565b92505060206107e0858286016106fb565b9150509250929050565b6107f381610a3f565b82525050565b6000610806601583610907565b915061081182610b09565b602082019050919050565b6000610829601483610907565b915061083482610b32565b602082019050919050565b600061084c601483610907565b915061085782610b5b565b602082019050919050565b61086b81610a6b565b82525050565b600060208201905061088660008301846107ea565b92915050565b600060208201905081810360008301526108a5816107f9565b9050919050565b600060208201905081810360008301526108c58161081c565b9050919050565b600060208201905081810360008301526108e58161083f565b9050919050565b60006020820190506109016000830184610862565b92915050565b600082825260208201905092915050565b600061092382610a6b565b915061092e83610a6b565b9250827fffffffffffffffffffffffffffffffffffffffffffffffffffffffffffffffff0382111561096357610962610aa6565b5b828201905092915050565b600061097982610a6b565b915061098483610a6b565b92508261099457610993610ad5565b5b828204905092915050565b60006109aa82610a6b565b91506109b583610a6b565b9250817fffffffffffffffffffffffffffffffffffffffffffffffffffffffffffffffff04831182151516156109ee576109ed610aa6565b5b828202905092915050565b6000610a0482610a6b565b9150610a0f83610a6b565b925082821015610a2257610a21610aa6565b5b828203905092915050565b6000610a3882610a4b565b9050919050565b60008115159050919050565b600073ffffffffffffffffffffffffffffffffffffffff82169050919050565b6000819050919050565b6000610a8082610a6b565b9150610a8b83610a6b565b925082610a9b57610a9a610ad5565b5b828206905092915050565b7f4e487b7100000000000000000000000000000000000000000000000000000000600052601160045260246000fd5b7f4e487b7100000000000000000000000000000000000000000000000000000000600052601260045260246000fd5b600080fd5b7f64732d6d6174682d7375622d756e646572666c6f770000000000000000000000600082015250565b7f64732d6d6174682d6d756c2d6f766572666c6f77000000000000000000000000600082015250565b7f64732d6d6174682d6164642d6f766572666c6f77000000000000000000000000600082015250565b610b8d81610a2d565b8114610b9857600080fd5b50565b610ba481610a6b565b8114610baf57600080fd5b5056fea26469706673582212207c702e692117650b6118e52045a00deac557ed2ceec720f323bccd998a45cd4164736f6c63430008070033",
  "immutableReferences": {},
  "source": "pragma solidity ^0.8.7;\nimport \"../NFT/NFT.sol\";\nimport \"../Lending/ds-math/math.sol\";\ncontract TaxCollector is data,DSMath{\n//\n\n//\nuint adj=10**18;\nstruct _AccRate{\n  mapping(address=> uint256)  credearning;\n  mapping(address=>uint)  LastAROfClaim;\n  uint lAR;\n  uint256 lUpdateTime;\n  uint AR;\n  uint nAR;\n  uint rate; //need to initiallise rate.\n\n}\n_AccRate AccRate;\nconstructor() {\n  AccRate.rate=1;\n  AccRate.lUpdateTime=block.timestamp;\n}\nfunction UpdateAR(address msg_sender)public {\n  AccRate.nAR=add(AccRate.lAR,wpow((adj+AccRate.rate),AccRate.lUpdateTime-block.timestamp));\n  AccRate.lUpdateTime=block.timestamp;\n  AccRate.lAR=AccRate.nAR;\n  AccRate.credearning[msg_sender]=sub(AccRate.nAR,AccRate.LastAROfClaim[msg_sender]);\n  AccRate.LastAROfClaim[msg_sender]=AccRate.nAR;\n\n}// needs access specifiers.\nfunction UpdateAR(address msg_sender,address to) public returns(bool){\n  AccRate.nAR=add(AccRate.lAR,wpow((add(adj,AccRate.rate)),sub(block.timestamp,AccRate.lUpdateTime)));\n  AccRate.lUpdateTime=block.timestamp;\n  AccRate.lAR=AccRate.nAR;\n  AccRate.credearning[msg_sender]=sub(AccRate.nAR,AccRate.LastAROfClaim[msg_sender]);\n  AccRate.credearning[to]=sub(AccRate.nAR,AccRate.LastAROfClaim[to]);\n  AccRate.LastAROfClaim[msg_sender]=AccRate.nAR;\n  AccRate.LastAROfClaim[to]=AccRate.nAR;\n  return true;\n}\n\n\n}\n",
  "sourcePath": "/Users/vibhu/node_manager/node_modules/Solidity/Zeno/contracts/Credit/Token_shots.sol",
  "compiler": {
    "name": "solc",
    "version": "0.8.7+commit.e28d00a7.Emscripten.clang"
  },
  "schemaVersion": "3.4.7",
  "updatedAt": "2022-05-18T03:46:12.767Z",
  "devdoc": {
    "kind": "dev",
    "methods": {},
    "version": 1
  },
  "userdoc": {
    "kind": "user",
    "methods": {},
    "version": 1
  }
}