{
  "contractName": "TaxCollector",
  "abi": [
    {
      "inputs": [],
      "stateMutability": "nonpayable",
      "type": "constructor"
    },
    {
      "inputs": [
        {
          "internalType": "uint256",
          "name": "x",
          "type": "uint256"
        },
        {
          "internalType": "uint256",
          "name": "n",
          "type": "uint256"
        }
      ],
      "name": "wpow",
      "outputs": [
        {
          "internalType": "uint256",
          "name": "z",
          "type": "uint256"
        }
      ],
      "stateMutability": "pure",
      "type": "function"
    },
    {
      "inputs": [
        {
          "internalType": "uint256",
          "name": "x",
          "type": "uint256"
        }
      ],
      "name": "wsqrt",
      "outputs": [
        {
          "internalType": "uint256",
          "name": "y",
          "type": "uint256"
        }
      ],
      "stateMutability": "pure",
      "type": "function"
    },
    {
      "inputs": [
        {
          "internalType": "address",
          "name": "msg_sender",
          "type": "address"
        }
      ],
      "name": "UpdateAR",
      "outputs": [],
      "stateMutability": "nonpayable",
      "type": "function"
    },
    {
      "inputs": [
        {
          "internalType": "address",
          "name": "msg_sender",
          "type": "address"
        },
        {
          "internalType": "address",
          "name": "to",
          "type": "address"
        }
      ],
      "name": "UpdateAR",
      "outputs": [
        {
          "internalType": "bool",
          "name": "",
          "type": "bool"
        }
      ],
      "stateMutability": "nonpayable",
      "type": "function"
    }
  ],
  "bytecode": "0x6080604052670de0b6b3a764000060025534801561001c57600080fd5b506001600360060181905550426003800181905550610be6806100406000396000f3fe608060405234801561001057600080fd5b506004361061004c5760003560e01c8063672f8e4f1461005157806393eb1cce14610081578063a77eb129146100b1578063cba3f53c146100cd575b600080fd5b61006b600480360381019061006691906107a8565b6100fd565b60405161007891906108ea565b60405180910390f35b61009b6004803603810190610096919061077b565b610184565b6040516100a891906108ea565b60405180910390f35b6100cb60048036038101906100c6919061070e565b6101df565b005b6100e760048036038101906100e2919061073b565b61031d565b6040516100f4919061086f565b60405180910390f35b60008060028361010d9190610a73565b141561012157670de0b6b3a7640000610123565b825b9050600282610132919061096c565b91505b6000821461017e576101478384610545565b925060006002836101589190610a73565b1461016a576101678184610545565b90505b600282610177919061096c565b9150610135565b92915050565b60008060026001846101969190610916565b6101a0919061096c565b90508291505b818110156101d9578091506002816101be8584610589565b6101c89190610916565b6101d2919061096c565b90506101a6565b50919050565b6102166003600201546102116003600601546002546101fe9190610916565b61020c4260038001546105c5565b6100fd565b61061e565b600360050181905550426003800181905550600360050154600360020181905550610288600360050154600360010160008473ffffffffffffffffffffffffffffffffffffffff1673ffffffffffffffffffffffffffffffffffffffff168152602001908152602001600020546105c5565b600360000160008373ffffffffffffffffffffffffffffffffffffffff1673ffffffffffffffffffffffffffffffffffffffff16815260200190815260200160002081905550600360050154600360010160008373ffffffffffffffffffffffffffffffffffffffff1673ffffffffffffffffffffffffffffffffffffffff1681526020019081526020016000208190555050565b600061035460036002015461034f61033c60025460036006015461061e565b61034a4260038001546105c5565b6100fd565b61061e565b6003600501819055504260038001819055506003600501546003600201819055506103c6600360050154600360010160008673ffffffffffffffffffffffffffffffffffffffff1673ffffffffffffffffffffffffffffffffffffffff168152602001908152602001600020546105c5565b600360000160008573ffffffffffffffffffffffffffffffffffffffff1673ffffffffffffffffffffffffffffffffffffffff1681526020019081526020016000208190555061045d600360050154600360010160008573ffffffffffffffffffffffffffffffffffffffff1673ffffffffffffffffffffffffffffffffffffffff168152602001908152602001600020546105c5565b600360000160008473ffffffffffffffffffffffffffffffffffffffff1673ffffffffffffffffffffffffffffffffffffffff16815260200190815260200160002081905550600360050154600360010160008573ffffffffffffffffffffffffffffffffffffffff1673ffffffffffffffffffffffffffffffffffffffff16815260200190815260200160002081905550600360050154600360010160008473ffffffffffffffffffffffffffffffffffffffff1673ffffffffffffffffffffffffffffffffffffffff168152602001908152602001600020819055506001905092915050565b6000670de0b6b3a764000061057761055d8585610677565b6002670de0b6b3a7640000610572919061096c565b61061e565b610581919061096c565b905092915050565b6000816105b36105a185670de0b6b3a7640000610677565b6002856105ae919061096c565b61061e565b6105bd919061096c565b905092915050565b60008282846105d491906109f7565b9150811115610618576040517f08c379a000000000000000000000000000000000000000000000000000000000815260040161060f9061088a565b60405180910390fd5b92915050565b600082828461062d9190610916565b9150811015610671576040517f08c379a0000000000000000000000000000000000000000000000000000000008152600401610668906108ca565b60405180910390fd5b92915050565b60008082148061069f575082828385610690919061099d565b92508261069d919061096c565b145b6106de576040517f08c379a00000000000000000000000000000000000000000000000000000000081526004016106d5906108aa565b60405180910390fd5b92915050565b6000813590506106f381610b82565b92915050565b60008135905061070881610b99565b92915050565b60006020828403121561072457610723610b02565b5b6000610732848285016106e4565b91505092915050565b6000806040838503121561075257610751610b02565b5b6000610760858286016106e4565b9250506020610771858286016106e4565b9150509250929050565b60006020828403121561079157610790610b02565b5b600061079f848285016106f9565b91505092915050565b600080604083850312156107bf576107be610b02565b5b60006107cd858286016106f9565b92505060206107de858286016106f9565b9150509250929050565b6107f181610a3d565b82525050565b6000610804601583610905565b915061080f82610b07565b602082019050919050565b6000610827601483610905565b915061083282610b30565b602082019050919050565b600061084a601483610905565b915061085582610b59565b602082019050919050565b61086981610a69565b82525050565b600060208201905061088460008301846107e8565b92915050565b600060208201905081810360008301526108a3816107f7565b9050919050565b600060208201905081810360008301526108c38161081a565b9050919050565b600060208201905081810360008301526108e38161083d565b9050919050565b60006020820190506108ff6000830184610860565b92915050565b600082825260208201905092915050565b600061092182610a69565b915061092c83610a69565b9250827fffffffffffffffffffffffffffffffffffffffffffffffffffffffffffffffff0382111561096157610960610aa4565b5b828201905092915050565b600061097782610a69565b915061098283610a69565b92508261099257610991610ad3565b5b828204905092915050565b60006109a882610a69565b91506109b383610a69565b9250817fffffffffffffffffffffffffffffffffffffffffffffffffffffffffffffffff04831182151516156109ec576109eb610aa4565b5b828202905092915050565b6000610a0282610a69565b9150610a0d83610a69565b925082821015610a2057610a1f610aa4565b5b828203905092915050565b6000610a3682610a49565b9050919050565b60008115159050919050565b600073ffffffffffffffffffffffffffffffffffffffff82169050919050565b6000819050919050565b6000610a7e82610a69565b9150610a8983610a69565b925082610a9957610a98610ad3565b5b828206905092915050565b7f4e487b7100000000000000000000000000000000000000000000000000000000600052601160045260246000fd5b7f4e487b7100000000000000000000000000000000000000000000000000000000600052601260045260246000fd5b600080fd5b7f64732d6d6174682d7375622d756e646572666c6f770000000000000000000000600082015250565b7f64732d6d6174682d6d756c2d6f766572666c6f77000000000000000000000000600082015250565b7f64732d6d6174682d6164642d6f766572666c6f77000000000000000000000000600082015250565b610b8b81610a2b565b8114610b9657600080fd5b50565b610ba281610a69565b8114610bad57600080fd5b5056fea264697066735822122071798458bf5459b8ed39ec7300f89c9889128577191db81e0b828c15d57960cf64736f6c63430008070033",
  "immutableReferences": {},
  "source": "pragma solidity ^0.8.7;\nimport \"../NFT/NFT.sol\";\nimport \"../Lending/ds-math/math.sol\";\ncontract TaxCollector is data,DSMath{\n//\n\n//\nuint adj=10**18;\nstruct _AccRate{\n  mapping(address=> uint256)  credearning;\n  mapping(address=>uint)  LastAROfClaim;\n  uint lAR;\n  uint256 lUpdateTime;\n  uint AR;\n  uint nAR;\n  uint rate; //need to initiallise rate.\n\n}\n_AccRate AccRate;\nconstructor() {\n  AccRate.rate=1;\n  AccRate.lUpdateTime=block.timestamp;\n}\nfunction UpdateAR(address msg_sender)public {\n AccRate.nAR=add(AccRate.lAR,wpow((adj+AccRate.rate),sub(block.timestamp,AccRate.lUpdateTime)));\n  AccRate.lUpdateTime=block.timestamp;\n  AccRate.lAR=AccRate.nAR;\n  AccRate.credearning[msg_sender]=sub(AccRate.nAR,AccRate.LastAROfClaim[msg_sender]);\n  AccRate.LastAROfClaim[msg_sender]=AccRate.nAR;\n\n}// needs access specifiers.\nfunction UpdateAR(address msg_sender,address to) public returns(bool){\n AccRate.nAR=add(AccRate.lAR,wpow((add(adj,AccRate.rate)),sub(block.timestamp,AccRate.lUpdateTime)));\n  AccRate.lUpdateTime=block.timestamp;\n  AccRate.lAR=AccRate.nAR;\n  AccRate.credearning[msg_sender]=sub(AccRate.nAR,AccRate.LastAROfClaim[msg_sender]);\n  AccRate.credearning[to]=sub(AccRate.nAR,AccRate.LastAROfClaim[to]);\n  AccRate.LastAROfClaim[msg_sender]=AccRate.nAR;\n  AccRate.LastAROfClaim[to]=AccRate.nAR;\n  return true;\n}\n\n\n}\n",
  "sourcePath": "/Users/vibhu/node_manager/node_modules/Solidity/Zeno/contracts/Credit/Token_shots.sol",
  "compiler": {
    "name": "solc",
    "version": "0.8.7+commit.e28d00a7.Emscripten.clang"
  },
  "schemaVersion": "3.4.7",
  "updatedAt": "2022-05-21T04:30:58.313Z",
  "devdoc": {
    "kind": "dev",
    "methods": {},
    "version": 1
  },
  "userdoc": {
    "kind": "user",
    "methods": {},
    "version": 1
  }
}