{
  "contractName": "vouching",
  "abi": [
    {
      "inputs": [
        {
          "internalType": "address",
          "name": "banking",
          "type": "address"
        }
      ],
      "stateMutability": "nonpayable",
      "type": "constructor"
    },
    {
      "anonymous": false,
      "inputs": [
        {
          "indexed": false,
          "internalType": "uint256",
          "name": "token_ID",
          "type": "uint256"
        }
      ],
      "name": "Set_Primary",
      "type": "event"
    },
    {
      "inputs": [
        {
          "internalType": "address",
          "name": "",
          "type": "address"
        }
      ],
      "name": "friend",
      "outputs": [
        {
          "internalType": "address",
          "name": "",
          "type": "address"
        }
      ],
      "stateMutability": "view",
      "type": "function"
    },
    {
      "inputs": [
        {
          "internalType": "uint256",
          "name": "tokenId",
          "type": "uint256"
        }
      ],
      "name": "setPrimary",
      "outputs": [],
      "stateMutability": "nonpayable",
      "type": "function"
    },
    {
      "inputs": [
        {
          "internalType": "address",
          "name": "vouchee",
          "type": "address"
        }
      ],
      "name": "vouch",
      "outputs": [
        {
          "internalType": "bool",
          "name": "success",
          "type": "bool"
        }
      ],
      "stateMutability": "nonpayable",
      "type": "function"
    }
  ],
  "bytecode": "0x608060405234801561001057600080fd5b506040516109ef3803806109ef83398181016040528101906100329190610100565b80600460006101000a81548173ffffffffffffffffffffffffffffffffffffffff021916908373ffffffffffffffffffffffffffffffffffffffff160217905550600460009054906101000a900473ffffffffffffffffffffffffffffffffffffffff16600360006101000a81548173ffffffffffffffffffffffffffffffffffffffff021916908373ffffffffffffffffffffffffffffffffffffffff160217905550670de0b6b3a76400006005819055505061017b565b6000815190506100fa81610164565b92915050565b6000602082840312156101165761011561015f565b5b6000610124848285016100eb565b91505092915050565b60006101388261013f565b9050919050565b600073ffffffffffffffffffffffffffffffffffffffff82169050919050565b600080fd5b61016d8161012d565b811461017857600080fd5b50565b6108658061018a6000396000f3fe608060405234801561001057600080fd5b50600436106100415760003560e01c806338e74feb14610046578063dd66e16b14610062578063fef5a10e14610092575b600080fd5b610060600480360381019061005b9190610565565b6100c2565b005b61007c60048036038101906100779190610538565b610221565b604051610089919061066c565b60405180910390f35b6100ac60048036038101906100a79190610538565b6104db565b6040516100b99190610628565b60405180910390f35b600080600160003373ffffffffffffffffffffffffffffffffffffffff1673ffffffffffffffffffffffffffffffffffffffff16815260200190815260200160002054815260200190815260200160002060050160009054906101000a900460ff1615610164576040517f08c379a000000000000000000000000000000000000000000000000000000000815260040161015b906106c7565b60405180910390fd5b80600160003373ffffffffffffffffffffffffffffffffffffffff1673ffffffffffffffffffffffffffffffffffffffff168152602001908152602001600020819055507f93ee19f33773de005b0e731088107f7687d2366d46ad66a6d9c2841208a445fe600160003373ffffffffffffffffffffffffffffffffffffffff1673ffffffffffffffffffffffffffffffffffffffff1681526020019081526020016000205460405161021691906106e7565b60405180910390a150565b6000801515600080600160003373ffffffffffffffffffffffffffffffffffffffff1673ffffffffffffffffffffffffffffffffffffffff16815260200190815260200160002054815260200190815260200160002060050160009054906101000a900460ff1615151461029457600080fd5b6006600080600160003373ffffffffffffffffffffffffffffffffffffffff1673ffffffffffffffffffffffffffffffffffffffff16815260200190815260200160002054815260200190815260200160002060000154101561032c576040517f08c379a0000000000000000000000000000000000000000000000000000000008152600401610323906106a7565b60405180910390fd5b6000806000600160008673ffffffffffffffffffffffffffffffffffffffff1673ffffffffffffffffffffffffffffffffffffffff16815260200190815260200160002054815260200190815260200160002060000154146103c3576040517f08c379a00000000000000000000000000000000000000000000000000000000081526004016103ba90610687565b60405180910390fd5b33600260008473ffffffffffffffffffffffffffffffffffffffff1673ffffffffffffffffffffffffffffffffffffffff16815260200190815260200160002060006101000a81548173ffffffffffffffffffffffffffffffffffffffff021916908373ffffffffffffffffffffffffffffffffffffffff160217905550600360009054906101000a900473ffffffffffffffffffffffffffffffffffffffff1673ffffffffffffffffffffffffffffffffffffffff16632414f2f1836005546040518363ffffffff1660e01b81526004016104a0929190610643565b600060405180830381600087803b1580156104ba57600080fd5b505af11580156104ce573d6000803e3d6000fd5b5050505060019050919050565b60026020528060005260406000206000915054906101000a900473ffffffffffffffffffffffffffffffffffffffff1681565b60008135905061051d81610801565b92915050565b60008135905061053281610818565b92915050565b60006020828403121561054e5761054d61075b565b5b600061055c8482850161050e565b91505092915050565b60006020828403121561057b5761057a61075b565b5b600061058984828501610523565b91505092915050565b61059b81610713565b82525050565b6105aa81610725565b82525050565b60006105bd601683610702565b91506105c882610760565b602082019050919050565b60006105e0601583610702565b91506105eb82610789565b602082019050919050565b6000610603603383610702565b915061060e826107b2565b604082019050919050565b61062281610751565b82525050565b600060208201905061063d6000830184610592565b92915050565b60006040820190506106586000830185610592565b6106656020830184610619565b9392505050565b600060208201905061068160008301846105a1565b92915050565b600060208201905081810360008301526106a0816105b0565b9050919050565b600060208201905081810360008301526106c0816105d3565b9050919050565b600060208201905081810360008301526106e0816105f6565b9050919050565b60006020820190506106fc6000830184610619565b92915050565b600082825260208201905092915050565b600061071e82610731565b9050919050565b60008115159050919050565b600073ffffffffffffffffffffffffffffffffffffffff82169050919050565b6000819050919050565b600080fd5b7f766f7563686565206c6576656c206973206e6f74203000000000000000000000600082015250565b7f796f7572206c6576656c20697320746f6f206c6f770000000000000000000000600082015250565b7f796f752063616e6e6f74206368616e676520796f7572207072696d617279207760008201527f68656e20796f752061726520696e206465627400000000000000000000000000602082015250565b61080a81610713565b811461081557600080fd5b50565b61082181610751565b811461082c57600080fd5b5056fea264697066735822122023b06a131cc40e61d0f48a9b0837d0944d49ea739d43b74d1ac2b6f70806474564736f6c63430008070033",
  "immutableReferences": {},
  "source": "// SPDX-License-Identifier: MIT\n//vouchee -blacklisted person who is being vouched for by a high level person.\npragma solidity 0.8.7;\nimport \"../NFT/NFT.sol\";\nimport \"./ILoaning.sol\";\n\ncontract data{\nstruct  Credit_card {\n//taking loan\nuint creditsc_c;\nuint creditsc_uc; //\nbool _match;\nuint principal;\nuint amount;\n//paying loan\nbool pending;\nuint Ldate;\nuint time;\nuint timer;\n//DEBT CALC\nuint defults;\nuint repayed;\nuint Ltotal;\nuint Dtotal;\nuint defexpo;\nuint Drate;\nuint Rrate;\nuint[] princeD;\nuint[] princeL;\nuint medianL;\nuint medianD;\n\n}\nevent Set_Primary(uint256 token_ID);\n\nmapping (uint256=>Credit_card) cred;\nmapping (address =>uint)  Primary;\n\n\nfunction setPrimary(uint tokenId)public {\n//require(_isApprovedOrOwner(_msgSender(),tokenId),\"setPrimary: caller is not owner nor approved\");\n\nrequire(!cred[Primary[msg.sender]].pending,\"you cannot change your primary when you are in debt\");\nPrimary[msg.sender]=tokenId;\nemit Set_Primary(Primary[msg.sender]);\n\n}\n}\n\n//vouch contract\ncontract vouching is data{\n    //friend is the link between the vouchee and the vouch giver so you know who to penalise incase of second defult\n    mapping (address=>address) public friend;\n    //banking is the main krredit bank contract address\n    ILoaning loans;\n    address bank;\n    uint adj;\n        constructor(address banking){\n          bank=banking;\n          loans=ILoaning(bank);\n          adj=10**18;\n        }\n    //vouch function begins here, it only takes address of the vouch reciever.\n    function vouch(address vouchee) public returns (bool success){\n        //person cannot have a pending loan.\n        require(cred[Primary[msg.sender]].pending==false);\n\n        //checks if his level is high enough (6 is dummy num)\n        require(cred[Primary[msg.sender]].creditsc_c>=6,\"your level is too low\");\n        //makes sure the receiver lev is at 0 so this feature cannot increase level of non-zero ppl\n        require(cred[Primary[vouchee]].creditsc_c==0,\"vouchee level is not 0\");\n        //tags person who vouched for vouchee\n        friend[vouchee]=msg.sender;\n        //increases level and makes vouchee eligible for loans again\n        loans.increment(vouchee,adj);\n        return true;\n    }\n}\n",
  "sourcePath": "/Users/vibhu/node_manager/node_modules/Solidity/Zeno/contracts/Lending/Vouching.sol",
  "compiler": {
    "name": "solc",
    "version": "0.8.7+commit.e28d00a7.Emscripten.clang"
  },
  "schemaVersion": "3.4.7",
  "updatedAt": "2022-06-20T03:53:39.330Z",
  "devdoc": {
    "kind": "dev",
    "methods": {},
    "version": 1
  },
  "userdoc": {
    "kind": "user",
    "methods": {},
    "version": 1
  }
}