{
  "contractName": "vouching",
  "abi": [
    {
      "inputs": [
        {
          "internalType": "address",
          "name": "banking",
          "type": "address"
        }
      ],
      "stateMutability": "nonpayable",
      "type": "constructor"
    },
    {
      "inputs": [
        {
          "internalType": "address",
          "name": "",
          "type": "address"
        }
      ],
      "name": "friend",
      "outputs": [
        {
          "internalType": "address",
          "name": "",
          "type": "address"
        }
      ],
      "stateMutability": "view",
      "type": "function"
    },
    {
      "inputs": [
        {
          "internalType": "address",
          "name": "vouchee",
          "type": "address"
        }
      ],
      "name": "vouch",
      "outputs": [
        {
          "internalType": "bool",
          "name": "success",
          "type": "bool"
        }
      ],
      "stateMutability": "nonpayable",
      "type": "function"
    }
  ],
  "bytecode": "0x608060405234801561001057600080fd5b506040516108c43803806108c4833981810160405281019061003291906100f1565b80600160006101000a81548173ffffffffffffffffffffffffffffffffffffffff021916908373ffffffffffffffffffffffffffffffffffffffff160217905550600160009054906101000a900473ffffffffffffffffffffffffffffffffffffffff16600260006101000a81548173ffffffffffffffffffffffffffffffffffffffff021916908373ffffffffffffffffffffffffffffffffffffffff1602179055505061016c565b6000815190506100eb81610155565b92915050565b60006020828403121561010757610106610150565b5b6000610115848285016100dc565b91505092915050565b600061012982610130565b9050919050565b600073ffffffffffffffffffffffffffffffffffffffff82169050919050565b600080fd5b61015e8161011e565b811461016957600080fd5b50565b6107498061017b6000396000f3fe608060405234801561001057600080fd5b50600436106100365760003560e01c8063dd66e16b1461003b578063fef5a10e1461006b575b600080fd5b610055600480360381019061005091906104bd565b61009b565b60405161006291906105c3565b60405180910390f35b610085600480360381019061008091906104bd565b61044b565b60405161009291906105a8565b60405180910390f35b6000801515600260009054906101000a900473ffffffffffffffffffffffffffffffffffffffff1673ffffffffffffffffffffffffffffffffffffffff16635eebea20336040518263ffffffff1660e01b81526004016100fb91906105a8565b602060405180830381600087803b15801561011557600080fd5b505af1158015610129573d6000803e3d6000fd5b505050506040513d601f19601f8201168201806040525081019061014d91906104ea565b15151461015957600080fd5b6006600260009054906101000a900473ffffffffffffffffffffffffffffffffffffffff1673ffffffffffffffffffffffffffffffffffffffff1663170c79c7336040518263ffffffff1660e01b81526004016101b691906105a8565b602060405180830381600087803b1580156101d057600080fd5b505af11580156101e4573d6000803e3d6000fd5b505050506040513d601f19601f820116820180604052508101906102089190610517565b1015610249576040517f08c379a0000000000000000000000000000000000000000000000000000000008152600401610240906105fe565b60405180910390fd5b6000600260009054906101000a900473ffffffffffffffffffffffffffffffffffffffff1673ffffffffffffffffffffffffffffffffffffffff1663170c79c7846040518263ffffffff1660e01b81526004016102a691906105a8565b602060405180830381600087803b1580156102c057600080fd5b505af11580156102d4573d6000803e3d6000fd5b505050506040513d601f19601f820116820180604052508101906102f89190610517565b14610338576040517f08c379a000000000000000000000000000000000000000000000000000000000815260040161032f906105de565b60405180910390fd5b336000808473ffffffffffffffffffffffffffffffffffffffff1673ffffffffffffffffffffffffffffffffffffffff16815260200190815260200160002060006101000a81548173ffffffffffffffffffffffffffffffffffffffff021916908373ffffffffffffffffffffffffffffffffffffffff160217905550600260009054906101000a900473ffffffffffffffffffffffffffffffffffffffff1673ffffffffffffffffffffffffffffffffffffffff166345f43dd8836040518263ffffffff1660e01b815260040161041091906105a8565b600060405180830381600087803b15801561042a57600080fd5b505af115801561043e573d6000803e3d6000fd5b5050505060019050919050565b60006020528060005260406000206000915054906101000a900473ffffffffffffffffffffffffffffffffffffffff1681565b60008135905061048d816106ce565b92915050565b6000815190506104a2816106e5565b92915050565b6000815190506104b7816106fc565b92915050565b6000602082840312156104d3576104d2610677565b5b60006104e18482850161047e565b91505092915050565b600060208284031215610500576104ff610677565b5b600061050e84828501610493565b91505092915050565b60006020828403121561052d5761052c610677565b5b600061053b848285016104a8565b91505092915050565b61054d8161062f565b82525050565b61055c81610641565b82525050565b600061056f60168361061e565b915061057a8261067c565b602082019050919050565b600061059260158361061e565b915061059d826106a5565b602082019050919050565b60006020820190506105bd6000830184610544565b92915050565b60006020820190506105d86000830184610553565b92915050565b600060208201905081810360008301526105f781610562565b9050919050565b6000602082019050818103600083015261061781610585565b9050919050565b600082825260208201905092915050565b600061063a8261064d565b9050919050565b60008115159050919050565b600073ffffffffffffffffffffffffffffffffffffffff82169050919050565b6000819050919050565b600080fd5b7f766f7563686565206c6576656c206973206e6f74203000000000000000000000600082015250565b7f796f7572206c6576656c20697320746f6f206c6f770000000000000000000000600082015250565b6106d78161062f565b81146106e257600080fd5b50565b6106ee81610641565b81146106f957600080fd5b50565b6107058161066d565b811461071057600080fd5b5056fea26469706673582212205e50aa7fab79ed03a086112a232179d58d467cf5225cd90a950a316714073f9d64736f6c63430008070033",
  "immutableReferences": {},
  "source": "// SPDX-License-Identifier: MIT\n//vouchee -blacklisted person who is being vouched for by a high level person.\npragma solidity 0.8.7;\nimport \"./ILoaning.sol\";\n    \n\n//vouch contract\ncontract vouching{\n    //friend is the link between the vouchee and the vouch giver so you know who to penalise incase of second defult\n    mapping (address=>address) public friend;\n    //banking is the main krredit bank contract address\n    address bank;\n    ILoaning loans;\n    constructor(address banking) {\n        bank=banking;\n        loans=ILoaning(bank);\n        \n    }\n    //vouch function begins here, it only takes address of the vouch reciever.\n    function vouch(address vouchee) public returns (bool success){\n        //person cannot have a pending loan.\n        require(loans.pending(msg.sender)==false);\n\n        //checks if his level is high enough (6 is dummy num)\n        require(loans.creditsc_c(msg.sender)>=6,\"your level is too low\");\n        //makes sure the receiver lev is at 0 so this feature cannot increase level of non-zero ppl\n        require(loans.creditsc_c(vouchee)==0,\"vouchee level is not 0\");\n        //tags person who vouched for vouchee\n        friend[vouchee]=msg.sender;\n        //increases level and makes vouchee eligible for loans again\n        loans.increment(vouchee);\n        return true;\n    }\n}\n",
  "sourcePath": "/Users/vibhu/node_modules/truffle/Neutron-main/contracts/Lending/Vouching.sol",
  "compiler": {
    "name": "solc",
    "version": "0.8.7+commit.e28d00a7.Emscripten.clang"
  },
  "schemaVersion": "3.4.3",
  "updatedAt": "2022-03-29T03:00:12.155Z",
  "devdoc": {
    "kind": "dev",
    "methods": {},
    "version": 1
  },
  "userdoc": {
    "kind": "user",
    "methods": {},
    "version": 1
  }
}