{
  "contractName": "vouching",
  "abi": [
    {
      "inputs": [
        {
          "internalType": "address",
          "name": "banking",
          "type": "address"
        }
      ],
      "stateMutability": "nonpayable",
      "type": "constructor"
    },
    {
      "inputs": [
        {
          "internalType": "address",
          "name": "",
          "type": "address"
        }
      ],
      "name": "friend",
      "outputs": [
        {
          "internalType": "address",
          "name": "",
          "type": "address"
        }
      ],
      "stateMutability": "view",
      "type": "function"
    },
    {
      "inputs": [
        {
          "internalType": "address",
          "name": "vouchee",
          "type": "address"
        }
      ],
      "name": "vouch",
      "outputs": [
        {
          "internalType": "bool",
          "name": "success",
          "type": "bool"
        }
      ],
      "stateMutability": "nonpayable",
      "type": "function"
    }
  ],
  "bytecode": "0x608060405234801561001057600080fd5b5060405161070e38038061070e833981810160405281019061003291906100f1565b80600460006101000a81548173ffffffffffffffffffffffffffffffffffffffff021916908373ffffffffffffffffffffffffffffffffffffffff160217905550600460009054906101000a900473ffffffffffffffffffffffffffffffffffffffff16600360006101000a81548173ffffffffffffffffffffffffffffffffffffffff021916908373ffffffffffffffffffffffffffffffffffffffff1602179055505061016c565b6000815190506100eb81610155565b92915050565b60006020828403121561010757610106610150565b5b6000610115848285016100dc565b91505092915050565b600061012982610130565b9050919050565b600073ffffffffffffffffffffffffffffffffffffffff82169050919050565b600080fd5b61015e8161011e565b811461016957600080fd5b50565b6105938061017b6000396000f3fe608060405234801561001057600080fd5b50600436106100365760003560e01c8063dd66e16b1461003b578063fef5a10e1461006b575b600080fd5b61005560048036038101906100509190610399565b61009b565b6040516100629190610445565b60405180910390f35b61008560048036038101906100809190610399565b610351565b604051610092919061042a565b60405180910390f35b6000801515600080600160003373ffffffffffffffffffffffffffffffffffffffff1673ffffffffffffffffffffffffffffffffffffffff16815260200190815260200160002054815260200190815260200160002060050160009054906101000a900460ff1615151461010e57600080fd5b6006600080600160003373ffffffffffffffffffffffffffffffffffffffff1673ffffffffffffffffffffffffffffffffffffffff1681526020019081526020016000205481526020019081526020016000206000015410156101a6576040517f08c379a000000000000000000000000000000000000000000000000000000000815260040161019d90610480565b60405180910390fd5b6000806000600160008673ffffffffffffffffffffffffffffffffffffffff1673ffffffffffffffffffffffffffffffffffffffff168152602001908152602001600020548152602001908152602001600020600001541461023d576040517f08c379a000000000000000000000000000000000000000000000000000000000815260040161023490610460565b60405180910390fd5b33600260008473ffffffffffffffffffffffffffffffffffffffff1673ffffffffffffffffffffffffffffffffffffffff16815260200190815260200160002060006101000a81548173ffffffffffffffffffffffffffffffffffffffff021916908373ffffffffffffffffffffffffffffffffffffffff160217905550600360009054906101000a900473ffffffffffffffffffffffffffffffffffffffff1673ffffffffffffffffffffffffffffffffffffffff166345f43dd8836040518263ffffffff1660e01b8152600401610316919061042a565b600060405180830381600087803b15801561033057600080fd5b505af1158015610344573d6000803e3d6000fd5b5050505060019050919050565b60026020528060005260406000206000915054906101000a900473ffffffffffffffffffffffffffffffffffffffff1681565b60008135905061039381610546565b92915050565b6000602082840312156103af576103ae6104ef565b5b60006103bd84828501610384565b91505092915050565b6103cf816104b1565b82525050565b6103de816104c3565b82525050565b60006103f16016836104a0565b91506103fc826104f4565b602082019050919050565b60006104146015836104a0565b915061041f8261051d565b602082019050919050565b600060208201905061043f60008301846103c6565b92915050565b600060208201905061045a60008301846103d5565b92915050565b60006020820190508181036000830152610479816103e4565b9050919050565b6000602082019050818103600083015261049981610407565b9050919050565b600082825260208201905092915050565b60006104bc826104cf565b9050919050565b60008115159050919050565b600073ffffffffffffffffffffffffffffffffffffffff82169050919050565b600080fd5b7f766f7563686565206c6576656c206973206e6f74203000000000000000000000600082015250565b7f796f7572206c6576656c20697320746f6f206c6f770000000000000000000000600082015250565b61054f816104b1565b811461055a57600080fd5b5056fea2646970667358221220ea830aa22a385bdf690c4797a437ab9d529cc326e094fb6e3f623eff673e672f64736f6c63430008070033",
  "immutableReferences": {},
  "source": "// SPDX-License-Identifier: MIT\n//vouchee -blacklisted person who is being vouched for by a high level person.\npragma solidity 0.8.7;\nimport \"../NFT/NFT.sol\";\nimport \"./ILoaning.sol\";\n\n//vouch contract\ncontract vouching is data{\n    //friend is the link between the vouchee and the vouch giver so you know who to penalise incase of second defult\n    mapping (address=>address) public friend;\n    //banking is the main krredit bank contract address\n    ILoaning loans;\n    address bank;\n        constructor(address banking){\n          bank=banking;\n          loans=ILoaning(bank);\n        }\n\n    //vouch function begins here, it only takes address of the vouch reciever.\n    function vouch(address vouchee) public returns (bool success){\n        //person cannot have a pending loan.\n        require(cred[Primary[msg.sender]].pending==false);\n\n        //checks if his level is high enough (6 is dummy num)\n        require(cred[Primary[msg.sender]].creditsc_c>=6,\"your level is too low\");\n        //makes sure the receiver lev is at 0 so this feature cannot increase level of non-zero ppl\n        require(cred[Primary[vouchee]].creditsc_c==0,\"vouchee level is not 0\");\n        //tags person who vouched for vouchee\n        friend[vouchee]=msg.sender;\n        //increases level and makes vouchee eligible for loans again\n        loans.increment(vouchee);\n        return true;\n    }\n}\n",
  "sourcePath": "/Users/vibhu/node_manager/node_modules/Solidity/Zeno/contracts/Lending/Vouching.sol",
  "compiler": {
    "name": "solc",
    "version": "0.8.7+commit.e28d00a7.Emscripten.clang"
  },
  "schemaVersion": "3.4.7",
  "updatedAt": "2022-05-21T04:30:58.328Z",
  "devdoc": {
    "kind": "dev",
    "methods": {},
    "version": 1
  },
  "userdoc": {
    "kind": "user",
    "methods": {},
    "version": 1
  }
}