{
  "contractName": "Zeno",
  "abi": [
    {
      "inputs": [
        {
          "internalType": "address",
          "name": "loaner",
          "type": "address"
        },
        {
          "internalType": "address",
          "name": "snapshots",
          "type": "address"
        }
      ],
      "stateMutability": "nonpayable",
      "type": "constructor"
    },
    {
      "anonymous": false,
      "inputs": [
        {
          "indexed": true,
          "internalType": "address",
          "name": "owner",
          "type": "address"
        },
        {
          "indexed": true,
          "internalType": "address",
          "name": "spender",
          "type": "address"
        },
        {
          "indexed": false,
          "internalType": "uint256",
          "name": "value",
          "type": "uint256"
        }
      ],
      "name": "Approval",
      "type": "event"
    },
    {
      "anonymous": false,
      "inputs": [
        {
          "indexed": true,
          "internalType": "bytes32",
          "name": "role",
          "type": "bytes32"
        },
        {
          "indexed": true,
          "internalType": "bytes32",
          "name": "previousAdminRole",
          "type": "bytes32"
        },
        {
          "indexed": true,
          "internalType": "bytes32",
          "name": "newAdminRole",
          "type": "bytes32"
        }
      ],
      "name": "RoleAdminChanged",
      "type": "event"
    },
    {
      "anonymous": false,
      "inputs": [
        {
          "indexed": true,
          "internalType": "bytes32",
          "name": "role",
          "type": "bytes32"
        },
        {
          "indexed": true,
          "internalType": "address",
          "name": "account",
          "type": "address"
        },
        {
          "indexed": true,
          "internalType": "address",
          "name": "sender",
          "type": "address"
        }
      ],
      "name": "RoleGranted",
      "type": "event"
    },
    {
      "anonymous": false,
      "inputs": [
        {
          "indexed": true,
          "internalType": "bytes32",
          "name": "role",
          "type": "bytes32"
        },
        {
          "indexed": true,
          "internalType": "address",
          "name": "account",
          "type": "address"
        },
        {
          "indexed": true,
          "internalType": "address",
          "name": "sender",
          "type": "address"
        }
      ],
      "name": "RoleRevoked",
      "type": "event"
    },
    {
      "anonymous": false,
      "inputs": [
        {
          "indexed": false,
          "internalType": "uint256",
          "name": "id",
          "type": "uint256"
        }
      ],
      "name": "Snapshot",
      "type": "event"
    },
    {
      "anonymous": false,
      "inputs": [
        {
          "indexed": true,
          "internalType": "address",
          "name": "from",
          "type": "address"
        },
        {
          "indexed": true,
          "internalType": "address",
          "name": "to",
          "type": "address"
        },
        {
          "indexed": false,
          "internalType": "uint256",
          "name": "value",
          "type": "uint256"
        }
      ],
      "name": "Transfer",
      "type": "event"
    },
    {
      "inputs": [],
      "name": "DEFAULT_ADMIN_ROLE",
      "outputs": [
        {
          "internalType": "bytes32",
          "name": "",
          "type": "bytes32"
        }
      ],
      "stateMutability": "view",
      "type": "function"
    },
    {
      "inputs": [],
      "name": "MINTER_ROLE",
      "outputs": [
        {
          "internalType": "bytes32",
          "name": "",
          "type": "bytes32"
        }
      ],
      "stateMutability": "view",
      "type": "function"
    },
    {
      "inputs": [],
      "name": "SNAPSHOT_ROLE",
      "outputs": [
        {
          "internalType": "bytes32",
          "name": "",
          "type": "bytes32"
        }
      ],
      "stateMutability": "view",
      "type": "function"
    },
    {
      "inputs": [
        {
          "internalType": "address",
          "name": "owner",
          "type": "address"
        },
        {
          "internalType": "address",
          "name": "spender",
          "type": "address"
        }
      ],
      "name": "allowance",
      "outputs": [
        {
          "internalType": "uint256",
          "name": "",
          "type": "uint256"
        }
      ],
      "stateMutability": "view",
      "type": "function"
    },
    {
      "inputs": [
        {
          "internalType": "address",
          "name": "spender",
          "type": "address"
        },
        {
          "internalType": "uint256",
          "name": "amount",
          "type": "uint256"
        }
      ],
      "name": "approve",
      "outputs": [
        {
          "internalType": "bool",
          "name": "",
          "type": "bool"
        }
      ],
      "stateMutability": "nonpayable",
      "type": "function"
    },
    {
      "inputs": [
        {
          "internalType": "address",
          "name": "account",
          "type": "address"
        }
      ],
      "name": "balanceOf",
      "outputs": [
        {
          "internalType": "uint256",
          "name": "",
          "type": "uint256"
        }
      ],
      "stateMutability": "view",
      "type": "function"
    },
    {
      "inputs": [
        {
          "internalType": "address",
          "name": "account",
          "type": "address"
        },
        {
          "internalType": "uint256",
          "name": "snapshotId",
          "type": "uint256"
        }
      ],
      "name": "balanceOfAt",
      "outputs": [
        {
          "internalType": "uint256",
          "name": "",
          "type": "uint256"
        }
      ],
      "stateMutability": "view",
      "type": "function"
    },
    {
      "inputs": [
        {
          "internalType": "uint256",
          "name": "amount",
          "type": "uint256"
        }
      ],
      "name": "burn",
      "outputs": [],
      "stateMutability": "nonpayable",
      "type": "function"
    },
    {
      "inputs": [
        {
          "internalType": "address",
          "name": "account",
          "type": "address"
        },
        {
          "internalType": "uint256",
          "name": "amount",
          "type": "uint256"
        }
      ],
      "name": "burnFrom",
      "outputs": [],
      "stateMutability": "nonpayable",
      "type": "function"
    },
    {
      "inputs": [],
      "name": "decimals",
      "outputs": [
        {
          "internalType": "uint8",
          "name": "",
          "type": "uint8"
        }
      ],
      "stateMutability": "view",
      "type": "function"
    },
    {
      "inputs": [
        {
          "internalType": "address",
          "name": "spender",
          "type": "address"
        },
        {
          "internalType": "uint256",
          "name": "subtractedValue",
          "type": "uint256"
        }
      ],
      "name": "decreaseAllowance",
      "outputs": [
        {
          "internalType": "bool",
          "name": "",
          "type": "bool"
        }
      ],
      "stateMutability": "nonpayable",
      "type": "function"
    },
    {
      "inputs": [
        {
          "internalType": "bytes32",
          "name": "role",
          "type": "bytes32"
        }
      ],
      "name": "getRoleAdmin",
      "outputs": [
        {
          "internalType": "bytes32",
          "name": "",
          "type": "bytes32"
        }
      ],
      "stateMutability": "view",
      "type": "function"
    },
    {
      "inputs": [
        {
          "internalType": "bytes32",
          "name": "role",
          "type": "bytes32"
        },
        {
          "internalType": "address",
          "name": "account",
          "type": "address"
        }
      ],
      "name": "grantRole",
      "outputs": [],
      "stateMutability": "nonpayable",
      "type": "function"
    },
    {
      "inputs": [
        {
          "internalType": "bytes32",
          "name": "role",
          "type": "bytes32"
        },
        {
          "internalType": "address",
          "name": "account",
          "type": "address"
        }
      ],
      "name": "hasRole",
      "outputs": [
        {
          "internalType": "bool",
          "name": "",
          "type": "bool"
        }
      ],
      "stateMutability": "view",
      "type": "function"
    },
    {
      "inputs": [
        {
          "internalType": "address",
          "name": "spender",
          "type": "address"
        },
        {
          "internalType": "uint256",
          "name": "addedValue",
          "type": "uint256"
        }
      ],
      "name": "increaseAllowance",
      "outputs": [
        {
          "internalType": "bool",
          "name": "",
          "type": "bool"
        }
      ],
      "stateMutability": "nonpayable",
      "type": "function"
    },
    {
      "inputs": [],
      "name": "name",
      "outputs": [
        {
          "internalType": "string",
          "name": "",
          "type": "string"
        }
      ],
      "stateMutability": "view",
      "type": "function"
    },
    {
      "inputs": [
        {
          "internalType": "bytes32",
          "name": "role",
          "type": "bytes32"
        },
        {
          "internalType": "address",
          "name": "account",
          "type": "address"
        }
      ],
      "name": "renounceRole",
      "outputs": [],
      "stateMutability": "nonpayable",
      "type": "function"
    },
    {
      "inputs": [
        {
          "internalType": "bytes32",
          "name": "role",
          "type": "bytes32"
        },
        {
          "internalType": "address",
          "name": "account",
          "type": "address"
        }
      ],
      "name": "revokeRole",
      "outputs": [],
      "stateMutability": "nonpayable",
      "type": "function"
    },
    {
      "inputs": [
        {
          "internalType": "bytes4",
          "name": "interfaceId",
          "type": "bytes4"
        }
      ],
      "name": "supportsInterface",
      "outputs": [
        {
          "internalType": "bool",
          "name": "",
          "type": "bool"
        }
      ],
      "stateMutability": "view",
      "type": "function"
    },
    {
      "inputs": [],
      "name": "symbol",
      "outputs": [
        {
          "internalType": "string",
          "name": "",
          "type": "string"
        }
      ],
      "stateMutability": "view",
      "type": "function"
    },
    {
      "inputs": [],
      "name": "totalSupply",
      "outputs": [
        {
          "internalType": "uint256",
          "name": "",
          "type": "uint256"
        }
      ],
      "stateMutability": "view",
      "type": "function"
    },
    {
      "inputs": [
        {
          "internalType": "uint256",
          "name": "snapshotId",
          "type": "uint256"
        }
      ],
      "name": "totalSupplyAt",
      "outputs": [
        {
          "internalType": "uint256",
          "name": "",
          "type": "uint256"
        }
      ],
      "stateMutability": "view",
      "type": "function"
    },
    {
      "inputs": [
        {
          "internalType": "address",
          "name": "to",
          "type": "address"
        },
        {
          "internalType": "uint256",
          "name": "amount",
          "type": "uint256"
        }
      ],
      "name": "transfer",
      "outputs": [
        {
          "internalType": "bool",
          "name": "",
          "type": "bool"
        }
      ],
      "stateMutability": "nonpayable",
      "type": "function"
    },
    {
      "inputs": [
        {
          "internalType": "address",
          "name": "from",
          "type": "address"
        },
        {
          "internalType": "address",
          "name": "to",
          "type": "address"
        },
        {
          "internalType": "uint256",
          "name": "amount",
          "type": "uint256"
        }
      ],
      "name": "transferFrom",
      "outputs": [
        {
          "internalType": "bool",
          "name": "",
          "type": "bool"
        }
      ],
      "stateMutability": "nonpayable",
      "type": "function"
    },
    {
      "inputs": [],
      "name": "snapshot",
      "outputs": [],
      "stateMutability": "nonpayable",
      "type": "function"
    },
    {
      "inputs": [
        {
          "internalType": "address",
          "name": "to",
          "type": "address"
        },
        {
          "internalType": "uint256",
          "name": "amount",
          "type": "uint256"
        }
      ],
      "name": "mint",
      "outputs": [],
      "stateMutability": "nonpayable",
      "type": "function"
    }
  ],
  "bytecode": "0x60806040523480156200001157600080fd5b50604051620039f7380380620039f783398181016040528101906200003791906200084a565b6040518060400160405280600481526020017f5a656e6f000000000000000000000000000000000000000000000000000000008152506040518060400160405280600481526020017f4f4e455a000000000000000000000000000000000000000000000000000000008152508160039080519060200190620000bb92919062000783565b508060049080519060200190620000d492919062000783565b505050620000ec6000801b336200019560201b60201c565b6200011e7f5fdbd35e8da83ee755d5e62a539e5ed7f47126abede0b8b10f9ea43dc6eed07f826200019560201b60201c565b6200015b33620001336200028760201b60201c565b600a620001419190620009d1565b60646200014f919062000b0e565b6200029060201b60201c565b6200018d7f9f2df0fed2c77648de5860a4cc508cd0818c85b8b8a1ab4ceeef8d981c8956a6836200019560201b60201c565b505062000d0d565b620001a782826200040960201b60201c565b620002835760016009600084815260200190815260200160002060000160008373ffffffffffffffffffffffffffffffffffffffff1673ffffffffffffffffffffffffffffffffffffffff16815260200190815260200160002060006101000a81548160ff021916908315150217905550620002286200047460201b60201c565b73ffffffffffffffffffffffffffffffffffffffff168173ffffffffffffffffffffffffffffffffffffffff16837f2f8788117e7eff1d82e926ec794901d17c78024a50270940304540a733656f0d60405160405180910390a45b5050565b60006012905090565b600073ffffffffffffffffffffffffffffffffffffffff168273ffffffffffffffffffffffffffffffffffffffff16141562000303576040517f08c379a0000000000000000000000000000000000000000000000000000000008152600401620002fa90620008c9565b60405180910390fd5b62000317600083836200047c60201b60201c565b80600260008282546200032b919062000919565b92505081905550806000808473ffffffffffffffffffffffffffffffffffffffff1673ffffffffffffffffffffffffffffffffffffffff168152602001908152602001600020600082825462000382919062000919565b925050819055508173ffffffffffffffffffffffffffffffffffffffff16600073ffffffffffffffffffffffffffffffffffffffff167fddf252ad1be2c89b69c2b068fc378daa952ba7f163c4a11628f55a4df523b3ef83604051620003e99190620008eb565b60405180910390a362000405600083836200049960201b60201c565b5050565b60006009600084815260200190815260200160002060000160008373ffffffffffffffffffffffffffffffffffffffff1673ffffffffffffffffffffffffffffffffffffffff16815260200190815260200160002060009054906101000a900460ff16905092915050565b600033905090565b620004948383836200049e60201b62000bdd1760201c565b505050565b505050565b620004b68383836200059960201b62000c971760201c565b600073ffffffffffffffffffffffffffffffffffffffff168373ffffffffffffffffffffffffffffffffffffffff1614156200051357620004fd826200059e60201b60201c565b6200050d6200060160201b60201c565b62000594565b600073ffffffffffffffffffffffffffffffffffffffff168273ffffffffffffffffffffffffffffffffffffffff16141562000570576200055a836200059e60201b60201c565b6200056a6200060160201b60201c565b62000593565b62000581836200059e60201b60201c565b62000592826200059e60201b60201c565b5b5b505050565b505050565b620005fe600560008373ffffffffffffffffffffffffffffffffffffffff1673ffffffffffffffffffffffffffffffffffffffff168152602001908152602001600020620005f2836200062560201b60201c565b6200066d60201b60201c565b50565b62000623600662000617620006f960201b60201c565b6200066d60201b60201c565b565b60008060008373ffffffffffffffffffffffffffffffffffffffff1673ffffffffffffffffffffffffffffffffffffffff168152602001908152602001600020549050919050565b60006200067f6200070360201b60201c565b90508062000696846000016200072160201b60201c565b1015620006f45782600001819080600181540180825580915050600190039060005260206000200160009091909190915055826001018290806001815401808255809150506001900390600052602060002001600090919091909150555b505050565b6000600254905090565b60006200071c60086200077560201b62000c9c1760201c565b905090565b600080828054905014156200073a576000905062000770565b81600183805490506200074e919062000b6f565b8154811062000762576200076162000c89565b5b906000526020600020015490505b919050565b600081600001549050919050565b828054620007919062000bf5565b90600052602060002090601f016020900481019282620007b5576000855562000801565b82601f10620007d057805160ff191683800117855562000801565b8280016001018555821562000801579182015b8281111562000800578251825591602001919060010190620007e3565b5b50905062000810919062000814565b5090565b5b808211156200082f57600081600090555060010162000815565b5090565b600081519050620008448162000cf3565b92915050565b6000806040838503121562000864576200086362000cb8565b5b6000620008748582860162000833565b9250506020620008878582860162000833565b9150509250929050565b6000620008a0601f8362000908565b9150620008ad8262000cca565b602082019050919050565b620008c38162000bde565b82525050565b60006020820190508181036000830152620008e48162000891565b9050919050565b6000602082019050620009026000830184620008b8565b92915050565b600082825260208201905092915050565b6000620009268262000bde565b9150620009338362000bde565b9250827fffffffffffffffffffffffffffffffffffffffffffffffffffffffffffffffff038211156200096b576200096a62000c2b565b5b828201905092915050565b6000808291508390505b6001851115620009c857808604811115620009a0576200099f62000c2b565b5b6001851615620009b05780820291505b8081029050620009c08562000cbd565b945062000980565b94509492505050565b6000620009de8262000bde565b9150620009eb8362000be8565b925062000a1a7fffffffffffffffffffffffffffffffffffffffffffffffffffffffffffffffff848462000a22565b905092915050565b60008262000a34576001905062000b07565b8162000a44576000905062000b07565b816001811462000a5d576002811462000a685762000a9e565b600191505062000b07565b60ff84111562000a7d5762000a7c62000c2b565b5b8360020a91508482111562000a975762000a9662000c2b565b5b5062000b07565b5060208310610133831016604e8410600b841016171562000ad85782820a90508381111562000ad25762000ad162000c2b565b5b62000b07565b62000ae7848484600162000976565b9250905081840481111562000b015762000b0062000c2b565b5b81810290505b9392505050565b600062000b1b8262000bde565b915062000b288362000bde565b9250817fffffffffffffffffffffffffffffffffffffffffffffffffffffffffffffffff048311821515161562000b645762000b6362000c2b565b5b828202905092915050565b600062000b7c8262000bde565b915062000b898362000bde565b92508282101562000b9f5762000b9e62000c2b565b5b828203905092915050565b600062000bb78262000bbe565b9050919050565b600073ffffffffffffffffffffffffffffffffffffffff82169050919050565b6000819050919050565b600060ff82169050919050565b6000600282049050600182168062000c0e57607f821691505b6020821081141562000c255762000c2462000c5a565b5b50919050565b7f4e487b7100000000000000000000000000000000000000000000000000000000600052601160045260246000fd5b7f4e487b7100000000000000000000000000000000000000000000000000000000600052602260045260246000fd5b7f4e487b7100000000000000000000000000000000000000000000000000000000600052603260045260246000fd5b600080fd5b60008160011c9050919050565b7f45524332303a206d696e7420746f20746865207a65726f206164647265737300600082015250565b62000cfe8162000baa565b811462000d0a57600080fd5b50565b612cda8062000d1d6000396000f3fe608060405234801561001057600080fd5b506004361061018e5760003560e01c80637028e2cd116100de578063981b24d011610097578063a9059cbb11610071578063a9059cbb146104bd578063d5391393146104ed578063d547741f1461050b578063dd62ed3e146105275761018e565b8063981b24d01461043f578063a217fddf1461046f578063a457c2d71461048d5761018e565b80637028e2cd1461037d57806370a082311461039b57806379cc6790146103cb57806391d14854146103e757806395d89b41146104175780639711715a146104355761018e565b80632f2ff15d1161014b578063395093511161012557806339509351146102e557806340c10f191461031557806342966c68146103315780634ee2cd7e1461034d5761018e565b80632f2ff15d1461028f578063313ce567146102ab57806336568abe146102c95761018e565b806301ffc9a71461019357806306fdde03146101c3578063095ea7b3146101e157806318160ddd1461021157806323b872dd1461022f578063248a9ca31461025f575b600080fd5b6101ad60048036038101906101a89190611f53565b610557565b6040516101ba91906122bd565b60405180910390f35b6101cb6105d1565b6040516101d891906122f3565b60405180910390f35b6101fb60048036038101906101f69190611ea6565b610663565b60405161020891906122bd565b60405180910390f35b610219610686565b60405161022691906124d5565b60405180910390f35b61024960048036038101906102449190611e53565b610690565b60405161025691906122bd565b60405180910390f35b61027960048036038101906102749190611ee6565b6106bf565b60405161028691906122d8565b60405180910390f35b6102a960048036038101906102a49190611f13565b6106df565b005b6102b3610700565b6040516102c091906124f0565b60405180910390f35b6102e360048036038101906102de9190611f13565b610709565b005b6102ff60048036038101906102fa9190611ea6565b61078c565b60405161030c91906122bd565b60405180910390f35b61032f600480360381019061032a9190611ea6565b6107c3565b005b61034b60048036038101906103469190611f80565b6107fc565b005b61036760048036038101906103629190611ea6565b610810565b60405161037491906124d5565b60405180910390f35b610385610880565b60405161039291906122d8565b60405180910390f35b6103b560048036038101906103b09190611de6565b6108a4565b6040516103c291906124d5565b60405180910390f35b6103e560048036038101906103e09190611ea6565b6108ec565b005b61040160048036038101906103fc9190611f13565b61090c565b60405161040e91906122bd565b60405180910390f35b61041f610977565b60405161042c91906122f3565b60405180910390f35b61043d610a09565b005b61045960048036038101906104549190611f80565b610a3f565b60405161046691906124d5565b60405180910390f35b610477610a70565b60405161048491906122d8565b60405180910390f35b6104a760048036038101906104a29190611ea6565b610a77565b6040516104b491906122bd565b60405180910390f35b6104d760048036038101906104d29190611ea6565b610aee565b6040516104e491906122bd565b60405180910390f35b6104f5610b11565b60405161050291906122d8565b60405180910390f35b61052560048036038101906105209190611f13565b610b35565b005b610541600480360381019061053c9190611e13565b610b56565b60405161054e91906124d5565b60405180910390f35b60007f7965db0b000000000000000000000000000000000000000000000000000000007bffffffffffffffffffffffffffffffffffffffffffffffffffffffff1916827bffffffffffffffffffffffffffffffffffffffffffffffffffffffff191614806105ca57506105c982610caa565b5b9050919050565b6060600380546105e09061272f565b80601f016020809104026020016040519081016040528092919081815260200182805461060c9061272f565b80156106595780601f1061062e57610100808354040283529160200191610659565b820191906000526020600020905b81548152906001019060200180831161063c57829003601f168201915b5050505050905090565b60008061066e610d14565b905061067b818585610d1c565b600191505092915050565b6000600254905090565b60008061069b610d14565b90506106a8858285610ee7565b6106b3858585610f73565b60019150509392505050565b600060096000838152602001908152602001600020600101549050919050565b6106e8826106bf565b6106f1816111f4565b6106fb8383611208565b505050565b60006012905090565b610711610d14565b73ffffffffffffffffffffffffffffffffffffffff168173ffffffffffffffffffffffffffffffffffffffff161461077e576040517f08c379a000000000000000000000000000000000000000000000000000000000815260040161077590612495565b60405180910390fd5b61078882826112e9565b5050565b600080610797610d14565b90506107b88185856107a98589610b56565b6107b39190612532565b610d1c565b600191505092915050565b7f9f2df0fed2c77648de5860a4cc508cd0818c85b8b8a1ab4ceeef8d981c8956a66107ed816111f4565b6107f783836113cb565b505050565b61080d610807610d14565b8261152b565b50565b600080600061085d84600560008873ffffffffffffffffffffffffffffffffffffffff1673ffffffffffffffffffffffffffffffffffffffff168152602001908152602001600020611702565b91509150816108745761086f856108a4565b610876565b805b9250505092915050565b7f5fdbd35e8da83ee755d5e62a539e5ed7f47126abede0b8b10f9ea43dc6eed07f81565b60008060008373ffffffffffffffffffffffffffffffffffffffff1673ffffffffffffffffffffffffffffffffffffffff168152602001908152602001600020549050919050565b6108fe826108f8610d14565b83610ee7565b610908828261152b565b5050565b60006009600084815260200190815260200160002060000160008373ffffffffffffffffffffffffffffffffffffffff1673ffffffffffffffffffffffffffffffffffffffff16815260200190815260200160002060009054906101000a900460ff16905092915050565b6060600480546109869061272f565b80601f01602080910402602001604051908101604052809291908181526020018280546109b29061272f565b80156109ff5780601f106109d4576101008083540402835291602001916109ff565b820191906000526020600020905b8154815290600101906020018083116109e257829003601f168201915b5050505050905090565b7f5fdbd35e8da83ee755d5e62a539e5ed7f47126abede0b8b10f9ea43dc6eed07f610a33816111f4565b610a3b6117f8565b5050565b6000806000610a4f846006611702565b9150915081610a6557610a60610686565b610a67565b805b92505050919050565b6000801b81565b600080610a82610d14565b90506000610a908286610b56565b905083811015610ad5576040517f08c379a0000000000000000000000000000000000000000000000000000000008152600401610acc90612475565b60405180910390fd5b610ae28286868403610d1c565b60019250505092915050565b600080610af9610d14565b9050610b06818585610f73565b600191505092915050565b7f9f2df0fed2c77648de5860a4cc508cd0818c85b8b8a1ab4ceeef8d981c8956a681565b610b3e826106bf565b610b47816111f4565b610b5183836112e9565b505050565b6000600160008473ffffffffffffffffffffffffffffffffffffffff1673ffffffffffffffffffffffffffffffffffffffff16815260200190815260200160002060008373ffffffffffffffffffffffffffffffffffffffff1673ffffffffffffffffffffffffffffffffffffffff16815260200190815260200160002054905092915050565b610be8838383610c97565b600073ffffffffffffffffffffffffffffffffffffffff168373ffffffffffffffffffffffffffffffffffffffff161415610c3357610c268261184e565b610c2e6118a1565b610c92565b600073ffffffffffffffffffffffffffffffffffffffff168273ffffffffffffffffffffffffffffffffffffffff161415610c7e57610c718361184e565b610c796118a1565b610c91565b610c878361184e565b610c908261184e565b5b5b505050565b505050565b600081600001549050919050565b60007f01ffc9a7000000000000000000000000000000000000000000000000000000007bffffffffffffffffffffffffffffffffffffffffffffffffffffffff1916827bffffffffffffffffffffffffffffffffffffffffffffffffffffffff1916149050919050565b600033905090565b600073ffffffffffffffffffffffffffffffffffffffff168373ffffffffffffffffffffffffffffffffffffffff161415610d8c576040517f08c379a0000000000000000000000000000000000000000000000000000000008152600401610d8390612435565b60405180910390fd5b600073ffffffffffffffffffffffffffffffffffffffff168273ffffffffffffffffffffffffffffffffffffffff161415610dfc576040517f08c379a0000000000000000000000000000000000000000000000000000000008152600401610df390612395565b60405180910390fd5b80600160008573ffffffffffffffffffffffffffffffffffffffff1673ffffffffffffffffffffffffffffffffffffffff16815260200190815260200160002060008473ffffffffffffffffffffffffffffffffffffffff1673ffffffffffffffffffffffffffffffffffffffff168152602001908152602001600020819055508173ffffffffffffffffffffffffffffffffffffffff168373ffffffffffffffffffffffffffffffffffffffff167f8c5be1e5ebec7d5bd14f71427d1e84f3dd0314c0f7b2291e5b200ac8c7c3b92583604051610eda91906124d5565b60405180910390a3505050565b6000610ef38484610b56565b90507fffffffffffffffffffffffffffffffffffffffffffffffffffffffffffffffff8114610f6d5781811015610f5f576040517f08c379a0000000000000000000000000000000000000000000000000000000008152600401610f56906123b5565b60405180910390fd5b610f6c8484848403610d1c565b5b50505050565b600073ffffffffffffffffffffffffffffffffffffffff168373ffffffffffffffffffffffffffffffffffffffff161415610fe3576040517f08c379a0000000000000000000000000000000000000000000000000000000008152600401610fda90612415565b60405180910390fd5b600073ffffffffffffffffffffffffffffffffffffffff168273ffffffffffffffffffffffffffffffffffffffff161415611053576040517f08c379a000000000000000000000000000000000000000000000000000000000815260040161104a90612355565b60405180910390fd5b61105e8383836118b5565b60008060008573ffffffffffffffffffffffffffffffffffffffff1673ffffffffffffffffffffffffffffffffffffffff168152602001908152602001600020549050818110156110e4576040517f08c379a00000000000000000000000000000000000000000000000000000000081526004016110db906123d5565b60405180910390fd5b8181036000808673ffffffffffffffffffffffffffffffffffffffff1673ffffffffffffffffffffffffffffffffffffffff16815260200190815260200160002081905550816000808573ffffffffffffffffffffffffffffffffffffffff1673ffffffffffffffffffffffffffffffffffffffff16815260200190815260200160002060008282546111779190612532565b925050819055508273ffffffffffffffffffffffffffffffffffffffff168473ffffffffffffffffffffffffffffffffffffffff167fddf252ad1be2c89b69c2b068fc378daa952ba7f163c4a11628f55a4df523b3ef846040516111db91906124d5565b60405180910390a36111ee8484846118c5565b50505050565b61120581611200610d14565b6118ca565b50565b611212828261090c565b6112e55760016009600084815260200190815260200160002060000160008373ffffffffffffffffffffffffffffffffffffffff1673ffffffffffffffffffffffffffffffffffffffff16815260200190815260200160002060006101000a81548160ff02191690831515021790555061128a610d14565b73ffffffffffffffffffffffffffffffffffffffff168173ffffffffffffffffffffffffffffffffffffffff16837f2f8788117e7eff1d82e926ec794901d17c78024a50270940304540a733656f0d60405160405180910390a45b5050565b6112f3828261090c565b156113c75760006009600084815260200190815260200160002060000160008373ffffffffffffffffffffffffffffffffffffffff1673ffffffffffffffffffffffffffffffffffffffff16815260200190815260200160002060006101000a81548160ff02191690831515021790555061136c610d14565b73ffffffffffffffffffffffffffffffffffffffff168173ffffffffffffffffffffffffffffffffffffffff16837ff6391f5c32d9c69d2a47ea670b442974b53935d1edc7fd64eb21e047a839171b60405160405180910390a45b5050565b600073ffffffffffffffffffffffffffffffffffffffff168273ffffffffffffffffffffffffffffffffffffffff16141561143b576040517f08c379a0000000000000000000000000000000000000000000000000000000008152600401611432906124b5565b60405180910390fd5b611447600083836118b5565b80600260008282546114599190612532565b92505081905550806000808473ffffffffffffffffffffffffffffffffffffffff1673ffffffffffffffffffffffffffffffffffffffff16815260200190815260200160002060008282546114ae9190612532565b925050819055508173ffffffffffffffffffffffffffffffffffffffff16600073ffffffffffffffffffffffffffffffffffffffff167fddf252ad1be2c89b69c2b068fc378daa952ba7f163c4a11628f55a4df523b3ef8360405161151391906124d5565b60405180910390a3611527600083836118c5565b5050565b600073ffffffffffffffffffffffffffffffffffffffff168273ffffffffffffffffffffffffffffffffffffffff16141561159b576040517f08c379a0000000000000000000000000000000000000000000000000000000008152600401611592906123f5565b60405180910390fd5b6115a7826000836118b5565b60008060008473ffffffffffffffffffffffffffffffffffffffff1673ffffffffffffffffffffffffffffffffffffffff1681526020019081526020016000205490508181101561162d576040517f08c379a000000000000000000000000000000000000000000000000000000000815260040161162490612375565b60405180910390fd5b8181036000808573ffffffffffffffffffffffffffffffffffffffff1673ffffffffffffffffffffffffffffffffffffffff1681526020019081526020016000208190555081600260008282546116849190612613565b92505081905550600073ffffffffffffffffffffffffffffffffffffffff168373ffffffffffffffffffffffffffffffffffffffff167fddf252ad1be2c89b69c2b068fc378daa952ba7f163c4a11628f55a4df523b3ef846040516116e991906124d5565b60405180910390a36116fd836000846118c5565b505050565b60008060008411611748576040517f08c379a000000000000000000000000000000000000000000000000000000000815260040161173f90612455565b60405180910390fd5b611750611967565b841115611792576040517f08c379a000000000000000000000000000000000000000000000000000000000815260040161178990612315565b60405180910390fd5b60006117aa858560000161197890919063ffffffff16565b905083600001805490508114156117c85760008092509250506117f1565b60018460010182815481106117e0576117df6127ee565b5b906000526020600020015492509250505b9250929050565b60006118046008611a52565b600061180e611967565b90507f8030e83b04d87bef53480e26263266d6ca66863aa8506aca6f2559d18aa1cb678160405161183f91906124d5565b60405180910390a18091505090565b61189e600560008373ffffffffffffffffffffffffffffffffffffffff1673ffffffffffffffffffffffffffffffffffffffff168152602001908152602001600020611899836108a4565b611a68565b50565b6118b360066118ae610686565b611a68565b565b6118c0838383610bdd565b505050565b505050565b6118d4828261090c565b611963576118f98173ffffffffffffffffffffffffffffffffffffffff166014611ae3565b6119078360001c6020611ae3565b604051602001611918929190612283565b6040516020818303038152906040526040517f08c379a000000000000000000000000000000000000000000000000000000000815260040161195a91906122f3565b60405180910390fd5b5050565b60006119736008610c9c565b905090565b6000808380549050141561198f5760009050611a4c565b600080848054905090505b808210156119f35760006119ae8383611d1f565b9050848682815481106119c4576119c36127ee565b5b906000526020600020015411156119dd578091506119ed565b6001816119ea9190612532565b92505b5061199a565b600082118015611a2b57508385600184611a0d9190612613565b81548110611a1e57611a1d6127ee565b5b9060005260206000200154145b15611a4657600182611a3d9190612613565b92505050611a4c565b81925050505b92915050565b6001816000016000828254019250508190555050565b6000611a72611967565b905080611a8184600001611d45565b1015611ade5782600001819080600181540180825580915050600190039060005260206000200160009091909190915055826001018290806001815401808255809150506001900390600052602060002001600090919091909150555b505050565b606060006002836002611af691906125b9565b611b009190612532565b67ffffffffffffffff811115611b1957611b1861281d565b5b6040519080825280601f01601f191660200182016040528015611b4b5781602001600182028036833780820191505090505b5090507f300000000000000000000000000000000000000000000000000000000000000081600081518110611b8357611b826127ee565b5b60200101907effffffffffffffffffffffffffffffffffffffffffffffffffffffffffffff1916908160001a9053507f780000000000000000000000000000000000000000000000000000000000000081600181518110611be757611be66127ee565b5b60200101907effffffffffffffffffffffffffffffffffffffffffffffffffffffffffffff1916908160001a90535060006001846002611c2791906125b9565b611c319190612532565b90505b6001811115611cd1577f3031323334353637383961626364656600000000000000000000000000000000600f861660108110611c7357611c726127ee565b5b1a60f81b828281518110611c8a57611c896127ee565b5b60200101907effffffffffffffffffffffffffffffffffffffffffffffffffffffffffffff1916908160001a905350600485901c945080611cca90612705565b9050611c34565b5060008414611d15576040517f08c379a0000000000000000000000000000000000000000000000000000000008152600401611d0c90612335565b60405180910390fd5b8091505092915050565b60006002828418611d309190612588565b828416611d3d9190612532565b905092915050565b60008082805490501415611d5c5760009050611d8d565b8160018380549050611d6e9190612613565b81548110611d7f57611d7e6127ee565b5b906000526020600020015490505b919050565b600081359050611da181612c48565b92915050565b600081359050611db681612c5f565b92915050565b600081359050611dcb81612c76565b92915050565b600081359050611de081612c8d565b92915050565b600060208284031215611dfc57611dfb61284c565b5b6000611e0a84828501611d92565b91505092915050565b60008060408385031215611e2a57611e2961284c565b5b6000611e3885828601611d92565b9250506020611e4985828601611d92565b9150509250929050565b600080600060608486031215611e6c57611e6b61284c565b5b6000611e7a86828701611d92565b9350506020611e8b86828701611d92565b9250506040611e9c86828701611dd1565b9150509250925092565b60008060408385031215611ebd57611ebc61284c565b5b6000611ecb85828601611d92565b9250506020611edc85828601611dd1565b9150509250929050565b600060208284031215611efc57611efb61284c565b5b6000611f0a84828501611da7565b91505092915050565b60008060408385031215611f2a57611f2961284c565b5b6000611f3885828601611da7565b9250506020611f4985828601611d92565b9150509250929050565b600060208284031215611f6957611f6861284c565b5b6000611f7784828501611dbc565b91505092915050565b600060208284031215611f9657611f9561284c565b5b6000611fa484828501611dd1565b91505092915050565b611fb681612659565b82525050565b611fc581612665565b82525050565b6000611fd68261250b565b611fe08185612516565b9350611ff08185602086016126d2565b611ff981612851565b840191505092915050565b600061200f8261250b565b6120198185612527565b93506120298185602086016126d2565b80840191505092915050565b6000612042601d83612516565b915061204d82612862565b602082019050919050565b6000612065602083612516565b91506120708261288b565b602082019050919050565b6000612088602383612516565b9150612093826128b4565b604082019050919050565b60006120ab602283612516565b91506120b682612903565b604082019050919050565b60006120ce602283612516565b91506120d982612952565b604082019050919050565b60006120f1601d83612516565b91506120fc826129a1565b602082019050919050565b6000612114602683612516565b915061211f826129ca565b604082019050919050565b6000612137602183612516565b915061214282612a19565b604082019050919050565b600061215a602583612516565b915061216582612a68565b604082019050919050565b600061217d602483612516565b915061218882612ab7565b604082019050919050565b60006121a0601683612516565b91506121ab82612b06565b602082019050919050565b60006121c3601783612527565b91506121ce82612b2f565b601782019050919050565b60006121e6602583612516565b91506121f182612b58565b604082019050919050565b6000612209601183612527565b915061221482612ba7565b601182019050919050565b600061222c602f83612516565b915061223782612bd0565b604082019050919050565b600061224f601f83612516565b915061225a82612c1f565b602082019050919050565b61226e816126bb565b82525050565b61227d816126c5565b82525050565b600061228e826121b6565b915061229a8285612004565b91506122a5826121fc565b91506122b18284612004565b91508190509392505050565b60006020820190506122d26000830184611fad565b92915050565b60006020820190506122ed6000830184611fbc565b92915050565b6000602082019050818103600083015261230d8184611fcb565b905092915050565b6000602082019050818103600083015261232e81612035565b9050919050565b6000602082019050818103600083015261234e81612058565b9050919050565b6000602082019050818103600083015261236e8161207b565b9050919050565b6000602082019050818103600083015261238e8161209e565b9050919050565b600060208201905081810360008301526123ae816120c1565b9050919050565b600060208201905081810360008301526123ce816120e4565b9050919050565b600060208201905081810360008301526123ee81612107565b9050919050565b6000602082019050818103600083015261240e8161212a565b9050919050565b6000602082019050818103600083015261242e8161214d565b9050919050565b6000602082019050818103600083015261244e81612170565b9050919050565b6000602082019050818103600083015261246e81612193565b9050919050565b6000602082019050818103600083015261248e816121d9565b9050919050565b600060208201905081810360008301526124ae8161221f565b9050919050565b600060208201905081810360008301526124ce81612242565b9050919050565b60006020820190506124ea6000830184612265565b92915050565b60006020820190506125056000830184612274565b92915050565b600081519050919050565b600082825260208201905092915050565b600081905092915050565b600061253d826126bb565b9150612548836126bb565b9250827fffffffffffffffffffffffffffffffffffffffffffffffffffffffffffffffff0382111561257d5761257c612761565b5b828201905092915050565b6000612593826126bb565b915061259e836126bb565b9250826125ae576125ad612790565b5b828204905092915050565b60006125c4826126bb565b91506125cf836126bb565b9250817fffffffffffffffffffffffffffffffffffffffffffffffffffffffffffffffff048311821515161561260857612607612761565b5b828202905092915050565b600061261e826126bb565b9150612629836126bb565b92508282101561263c5761263b612761565b5b828203905092915050565b60006126528261269b565b9050919050565b60008115159050919050565b6000819050919050565b60007fffffffff0000000000000000000000000000000000000000000000000000000082169050919050565b600073ffffffffffffffffffffffffffffffffffffffff82169050919050565b6000819050919050565b600060ff82169050919050565b60005b838110156126f05780820151818401526020810190506126d5565b838111156126ff576000848401525b50505050565b6000612710826126bb565b9150600082141561272457612723612761565b5b600182039050919050565b6000600282049050600182168061274757607f821691505b6020821081141561275b5761275a6127bf565b5b50919050565b7f4e487b7100000000000000000000000000000000000000000000000000000000600052601160045260246000fd5b7f4e487b7100000000000000000000000000000000000000000000000000000000600052601260045260246000fd5b7f4e487b7100000000000000000000000000000000000000000000000000000000600052602260045260246000fd5b7f4e487b7100000000000000000000000000000000000000000000000000000000600052603260045260246000fd5b7f4e487b7100000000000000000000000000000000000000000000000000000000600052604160045260246000fd5b600080fd5b6000601f19601f8301169050919050565b7f4552433230536e617073686f743a206e6f6e6578697374656e74206964000000600082015250565b7f537472696e67733a20686578206c656e67746820696e73756666696369656e74600082015250565b7f45524332303a207472616e7366657220746f20746865207a65726f206164647260008201527f6573730000000000000000000000000000000000000000000000000000000000602082015250565b7f45524332303a206275726e20616d6f756e7420657863656564732062616c616e60008201527f6365000000000000000000000000000000000000000000000000000000000000602082015250565b7f45524332303a20617070726f766520746f20746865207a65726f20616464726560008201527f7373000000000000000000000000000000000000000000000000000000000000602082015250565b7f45524332303a20696e73756666696369656e7420616c6c6f77616e6365000000600082015250565b7f45524332303a207472616e7366657220616d6f756e742065786365656473206260008201527f616c616e63650000000000000000000000000000000000000000000000000000602082015250565b7f45524332303a206275726e2066726f6d20746865207a65726f2061646472657360008201527f7300000000000000000000000000000000000000000000000000000000000000602082015250565b7f45524332303a207472616e736665722066726f6d20746865207a65726f20616460008201527f6472657373000000000000000000000000000000000000000000000000000000602082015250565b7f45524332303a20617070726f76652066726f6d20746865207a65726f2061646460008201527f7265737300000000000000000000000000000000000000000000000000000000602082015250565b7f4552433230536e617073686f743a206964206973203000000000000000000000600082015250565b7f416363657373436f6e74726f6c3a206163636f756e7420000000000000000000600082015250565b7f45524332303a2064656372656173656420616c6c6f77616e63652062656c6f7760008201527f207a65726f000000000000000000000000000000000000000000000000000000602082015250565b7f206973206d697373696e6720726f6c6520000000000000000000000000000000600082015250565b7f416363657373436f6e74726f6c3a2063616e206f6e6c792072656e6f756e636560008201527f20726f6c657320666f722073656c660000000000000000000000000000000000602082015250565b7f45524332303a206d696e7420746f20746865207a65726f206164647265737300600082015250565b612c5181612647565b8114612c5c57600080fd5b50565b612c6881612665565b8114612c7357600080fd5b50565b612c7f8161266f565b8114612c8a57600080fd5b50565b612c96816126bb565b8114612ca157600080fd5b5056fea2646970667358221220f664345f98c3b524d82535288da27c6901ffb745ac2ebf7c4d2472e29c64e9f764736f6c63430008070033",
  "immutableReferences": {},
  "source": "pragma solidity ^0.8.4;\n\nimport \"@openzeppelin/contracts/token/ERC20/ERC20.sol\";\nimport \"@openzeppelin/contracts/token/ERC20/extensions/ERC20Burnable.sol\";\nimport \"@openzeppelin/contracts/token/ERC20/extensions/ERC20Snapshot.sol\";\nimport \"@openzeppelin/contracts/access/AccessControl.sol\";\n\ncontract Zeno is ERC20, ERC20Burnable, ERC20Snapshot, AccessControl {\n    bytes32 public constant SNAPSHOT_ROLE = keccak256(\"SNAPSHOT_ROLE\");\n    bytes32 public constant MINTER_ROLE = keccak256(\"MINTER_ROLE\");\n\n    constructor(address loaner,address snapshots) ERC20(\"Zeno\", \"ONEZ\") {\n        _grantRole(DEFAULT_ADMIN_ROLE, msg.sender);\n        _grantRole(SNAPSHOT_ROLE,snapshots );\n        _mint(msg.sender, 100 * 10 ** decimals());\n        _grantRole(MINTER_ROLE, loaner);\n    }\n\n    function snapshot() public onlyRole(SNAPSHOT_ROLE) {\n        _snapshot();\n    }\n\n    function mint(address to, uint256 amount) public onlyRole(MINTER_ROLE) {\n        _mint(to, amount);\n    }\n\n    // The following functions are overrides required by Solidity.\n\n    function _beforeTokenTransfer(address from, address to, uint256 amount)\n        internal\n        override(ERC20, ERC20Snapshot)\n    {\n        super._beforeTokenTransfer(from, to, amount);\n    }\n}\n",
  "sourcePath": "/Users/vibhu/node_modules/truffle/Neutron-main/contracts/Token/ERC20.sol",
  "compiler": {
    "name": "solc",
    "version": "0.8.7+commit.e28d00a7.Emscripten.clang"
  },
  "schemaVersion": "3.4.3",
  "updatedAt": "2022-03-29T03:00:12.174Z",
  "devdoc": {
    "kind": "dev",
    "methods": {
      "allowance(address,address)": {
        "details": "See {IERC20-allowance}."
      },
      "approve(address,uint256)": {
        "details": "See {IERC20-approve}. NOTE: If `amount` is the maximum `uint256`, the allowance is not updated on `transferFrom`. This is semantically equivalent to an infinite approval. Requirements: - `spender` cannot be the zero address."
      },
      "balanceOf(address)": {
        "details": "See {IERC20-balanceOf}."
      },
      "balanceOfAt(address,uint256)": {
        "details": "Retrieves the balance of `account` at the time `snapshotId` was created."
      },
      "burn(uint256)": {
        "details": "Destroys `amount` tokens from the caller. See {ERC20-_burn}."
      },
      "burnFrom(address,uint256)": {
        "details": "Destroys `amount` tokens from `account`, deducting from the caller's allowance. See {ERC20-_burn} and {ERC20-allowance}. Requirements: - the caller must have allowance for ``accounts``'s tokens of at least `amount`."
      },
      "decimals()": {
        "details": "Returns the number of decimals used to get its user representation. For example, if `decimals` equals `2`, a balance of `505` tokens should be displayed to a user as `5.05` (`505 / 10 ** 2`). Tokens usually opt for a value of 18, imitating the relationship between Ether and Wei. This is the value {ERC20} uses, unless this function is overridden; NOTE: This information is only used for _display_ purposes: it in no way affects any of the arithmetic of the contract, including {IERC20-balanceOf} and {IERC20-transfer}."
      },
      "decreaseAllowance(address,uint256)": {
        "details": "Atomically decreases the allowance granted to `spender` by the caller. This is an alternative to {approve} that can be used as a mitigation for problems described in {IERC20-approve}. Emits an {Approval} event indicating the updated allowance. Requirements: - `spender` cannot be the zero address. - `spender` must have allowance for the caller of at least `subtractedValue`."
      },
      "getRoleAdmin(bytes32)": {
        "details": "Returns the admin role that controls `role`. See {grantRole} and {revokeRole}. To change a role's admin, use {_setRoleAdmin}."
      },
      "grantRole(bytes32,address)": {
        "details": "Grants `role` to `account`. If `account` had not been already granted `role`, emits a {RoleGranted} event. Requirements: - the caller must have ``role``'s admin role."
      },
      "hasRole(bytes32,address)": {
        "details": "Returns `true` if `account` has been granted `role`."
      },
      "increaseAllowance(address,uint256)": {
        "details": "Atomically increases the allowance granted to `spender` by the caller. This is an alternative to {approve} that can be used as a mitigation for problems described in {IERC20-approve}. Emits an {Approval} event indicating the updated allowance. Requirements: - `spender` cannot be the zero address."
      },
      "name()": {
        "details": "Returns the name of the token."
      },
      "renounceRole(bytes32,address)": {
        "details": "Revokes `role` from the calling account. Roles are often managed via {grantRole} and {revokeRole}: this function's purpose is to provide a mechanism for accounts to lose their privileges if they are compromised (such as when a trusted device is misplaced). If the calling account had been revoked `role`, emits a {RoleRevoked} event. Requirements: - the caller must be `account`."
      },
      "revokeRole(bytes32,address)": {
        "details": "Revokes `role` from `account`. If `account` had been granted `role`, emits a {RoleRevoked} event. Requirements: - the caller must have ``role``'s admin role."
      },
      "supportsInterface(bytes4)": {
        "details": "See {IERC165-supportsInterface}."
      },
      "symbol()": {
        "details": "Returns the symbol of the token, usually a shorter version of the name."
      },
      "totalSupply()": {
        "details": "See {IERC20-totalSupply}."
      },
      "totalSupplyAt(uint256)": {
        "details": "Retrieves the total supply at the time `snapshotId` was created."
      },
      "transfer(address,uint256)": {
        "details": "See {IERC20-transfer}. Requirements: - `to` cannot be the zero address. - the caller must have a balance of at least `amount`."
      },
      "transferFrom(address,address,uint256)": {
        "details": "See {IERC20-transferFrom}. Emits an {Approval} event indicating the updated allowance. This is not required by the EIP. See the note at the beginning of {ERC20}. NOTE: Does not update the allowance if the current allowance is the maximum `uint256`. Requirements: - `from` and `to` cannot be the zero address. - `from` must have a balance of at least `amount`. - the caller must have allowance for ``from``'s tokens of at least `amount`."
      }
    },
    "version": 1
  },
  "userdoc": {
    "kind": "user",
    "methods": {},
    "version": 1
  }
}