{
  "contractName": "Zeno",
  "abi": [
    {
      "inputs": [],
      "stateMutability": "nonpayable",
      "type": "constructor"
    },
    {
      "anonymous": false,
      "inputs": [
        {
          "indexed": true,
          "internalType": "address",
          "name": "owner",
          "type": "address"
        },
        {
          "indexed": true,
          "internalType": "address",
          "name": "spender",
          "type": "address"
        },
        {
          "indexed": false,
          "internalType": "uint256",
          "name": "value",
          "type": "uint256"
        }
      ],
      "name": "Approval",
      "type": "event"
    },
    {
      "anonymous": false,
      "inputs": [
        {
          "indexed": true,
          "internalType": "bytes32",
          "name": "role",
          "type": "bytes32"
        },
        {
          "indexed": true,
          "internalType": "bytes32",
          "name": "previousAdminRole",
          "type": "bytes32"
        },
        {
          "indexed": true,
          "internalType": "bytes32",
          "name": "newAdminRole",
          "type": "bytes32"
        }
      ],
      "name": "RoleAdminChanged",
      "type": "event"
    },
    {
      "anonymous": false,
      "inputs": [
        {
          "indexed": true,
          "internalType": "bytes32",
          "name": "role",
          "type": "bytes32"
        },
        {
          "indexed": true,
          "internalType": "address",
          "name": "account",
          "type": "address"
        },
        {
          "indexed": true,
          "internalType": "address",
          "name": "sender",
          "type": "address"
        }
      ],
      "name": "RoleGranted",
      "type": "event"
    },
    {
      "anonymous": false,
      "inputs": [
        {
          "indexed": true,
          "internalType": "bytes32",
          "name": "role",
          "type": "bytes32"
        },
        {
          "indexed": true,
          "internalType": "address",
          "name": "account",
          "type": "address"
        },
        {
          "indexed": true,
          "internalType": "address",
          "name": "sender",
          "type": "address"
        }
      ],
      "name": "RoleRevoked",
      "type": "event"
    },
    {
      "anonymous": false,
      "inputs": [
        {
          "indexed": true,
          "internalType": "address",
          "name": "from",
          "type": "address"
        },
        {
          "indexed": true,
          "internalType": "address",
          "name": "to",
          "type": "address"
        },
        {
          "indexed": false,
          "internalType": "uint256",
          "name": "value",
          "type": "uint256"
        }
      ],
      "name": "Transfer",
      "type": "event"
    },
    {
      "inputs": [],
      "name": "DEFAULT_ADMIN_ROLE",
      "outputs": [
        {
          "internalType": "bytes32",
          "name": "",
          "type": "bytes32"
        }
      ],
      "stateMutability": "view",
      "type": "function",
      "constant": true
    },
    {
      "inputs": [],
      "name": "MINTER_ROLE",
      "outputs": [
        {
          "internalType": "bytes32",
          "name": "",
          "type": "bytes32"
        }
      ],
      "stateMutability": "view",
      "type": "function",
      "constant": true
    },
    {
      "inputs": [
        {
          "internalType": "address",
          "name": "msg_sender",
          "type": "address"
        }
      ],
      "name": "UpdateAR",
      "outputs": [],
      "stateMutability": "nonpayable",
      "type": "function"
    },
    {
      "inputs": [
        {
          "internalType": "address",
          "name": "msg_sender",
          "type": "address"
        },
        {
          "internalType": "address",
          "name": "to",
          "type": "address"
        }
      ],
      "name": "UpdateAR",
      "outputs": [
        {
          "internalType": "bool",
          "name": "",
          "type": "bool"
        }
      ],
      "stateMutability": "nonpayable",
      "type": "function"
    },
    {
      "inputs": [
        {
          "internalType": "address",
          "name": "owner",
          "type": "address"
        },
        {
          "internalType": "address",
          "name": "spender",
          "type": "address"
        }
      ],
      "name": "allowance",
      "outputs": [
        {
          "internalType": "uint256",
          "name": "",
          "type": "uint256"
        }
      ],
      "stateMutability": "view",
      "type": "function",
      "constant": true
    },
    {
      "inputs": [
        {
          "internalType": "address",
          "name": "spender",
          "type": "address"
        },
        {
          "internalType": "uint256",
          "name": "amount",
          "type": "uint256"
        }
      ],
      "name": "approve",
      "outputs": [
        {
          "internalType": "bool",
          "name": "",
          "type": "bool"
        }
      ],
      "stateMutability": "nonpayable",
      "type": "function"
    },
    {
      "inputs": [
        {
          "internalType": "address",
          "name": "account",
          "type": "address"
        }
      ],
      "name": "balanceOf",
      "outputs": [
        {
          "internalType": "uint256",
          "name": "",
          "type": "uint256"
        }
      ],
      "stateMutability": "view",
      "type": "function",
      "constant": true
    },
    {
      "inputs": [],
      "name": "decimals",
      "outputs": [
        {
          "internalType": "uint8",
          "name": "",
          "type": "uint8"
        }
      ],
      "stateMutability": "view",
      "type": "function",
      "constant": true
    },
    {
      "inputs": [
        {
          "internalType": "address",
          "name": "spender",
          "type": "address"
        },
        {
          "internalType": "uint256",
          "name": "subtractedValue",
          "type": "uint256"
        }
      ],
      "name": "decreaseAllowance",
      "outputs": [
        {
          "internalType": "bool",
          "name": "",
          "type": "bool"
        }
      ],
      "stateMutability": "nonpayable",
      "type": "function"
    },
    {
      "inputs": [
        {
          "internalType": "bytes32",
          "name": "role",
          "type": "bytes32"
        }
      ],
      "name": "getRoleAdmin",
      "outputs": [
        {
          "internalType": "bytes32",
          "name": "",
          "type": "bytes32"
        }
      ],
      "stateMutability": "view",
      "type": "function",
      "constant": true
    },
    {
      "inputs": [
        {
          "internalType": "bytes32",
          "name": "role",
          "type": "bytes32"
        },
        {
          "internalType": "address",
          "name": "account",
          "type": "address"
        }
      ],
      "name": "grantRole",
      "outputs": [],
      "stateMutability": "nonpayable",
      "type": "function"
    },
    {
      "inputs": [
        {
          "internalType": "bytes32",
          "name": "role",
          "type": "bytes32"
        },
        {
          "internalType": "address",
          "name": "account",
          "type": "address"
        }
      ],
      "name": "hasRole",
      "outputs": [
        {
          "internalType": "bool",
          "name": "",
          "type": "bool"
        }
      ],
      "stateMutability": "view",
      "type": "function",
      "constant": true
    },
    {
      "inputs": [
        {
          "internalType": "address",
          "name": "spender",
          "type": "address"
        },
        {
          "internalType": "uint256",
          "name": "addedValue",
          "type": "uint256"
        }
      ],
      "name": "increaseAllowance",
      "outputs": [
        {
          "internalType": "bool",
          "name": "",
          "type": "bool"
        }
      ],
      "stateMutability": "nonpayable",
      "type": "function"
    },
    {
      "inputs": [],
      "name": "name",
      "outputs": [
        {
          "internalType": "string",
          "name": "",
          "type": "string"
        }
      ],
      "stateMutability": "view",
      "type": "function",
      "constant": true
    },
    {
      "inputs": [
        {
          "internalType": "bytes32",
          "name": "role",
          "type": "bytes32"
        },
        {
          "internalType": "address",
          "name": "account",
          "type": "address"
        }
      ],
      "name": "renounceRole",
      "outputs": [],
      "stateMutability": "nonpayable",
      "type": "function"
    },
    {
      "inputs": [
        {
          "internalType": "bytes32",
          "name": "role",
          "type": "bytes32"
        },
        {
          "internalType": "address",
          "name": "account",
          "type": "address"
        }
      ],
      "name": "revokeRole",
      "outputs": [],
      "stateMutability": "nonpayable",
      "type": "function"
    },
    {
      "inputs": [
        {
          "internalType": "bytes4",
          "name": "interfaceId",
          "type": "bytes4"
        }
      ],
      "name": "supportsInterface",
      "outputs": [
        {
          "internalType": "bool",
          "name": "",
          "type": "bool"
        }
      ],
      "stateMutability": "view",
      "type": "function",
      "constant": true
    },
    {
      "inputs": [],
      "name": "symbol",
      "outputs": [
        {
          "internalType": "string",
          "name": "",
          "type": "string"
        }
      ],
      "stateMutability": "view",
      "type": "function",
      "constant": true
    },
    {
      "inputs": [],
      "name": "totalSupply",
      "outputs": [
        {
          "internalType": "uint256",
          "name": "",
          "type": "uint256"
        }
      ],
      "stateMutability": "view",
      "type": "function",
      "constant": true
    },
    {
      "inputs": [
        {
          "internalType": "uint256",
          "name": "x",
          "type": "uint256"
        },
        {
          "internalType": "uint256",
          "name": "n",
          "type": "uint256"
        }
      ],
      "name": "wpow",
      "outputs": [
        {
          "internalType": "uint256",
          "name": "z",
          "type": "uint256"
        }
      ],
      "stateMutability": "pure",
      "type": "function",
      "constant": true
    },
    {
      "inputs": [
        {
          "internalType": "uint256",
          "name": "x",
          "type": "uint256"
        }
      ],
      "name": "wsqrt",
      "outputs": [
        {
          "internalType": "uint256",
          "name": "y",
          "type": "uint256"
        }
      ],
      "stateMutability": "pure",
      "type": "function",
      "constant": true
    },
    {
      "inputs": [
        {
          "internalType": "address",
          "name": "loaner",
          "type": "address"
        }
      ],
      "name": "giveRole",
      "outputs": [],
      "stateMutability": "nonpayable",
      "type": "function"
    },
    {
      "inputs": [
        {
          "internalType": "address",
          "name": "account",
          "type": "address"
        }
      ],
      "name": "GetSum",
      "outputs": [
        {
          "internalType": "uint256",
          "name": "",
          "type": "uint256"
        }
      ],
      "stateMutability": "view",
      "type": "function",
      "constant": true
    },
    {
      "inputs": [
        {
          "internalType": "address",
          "name": "to",
          "type": "address"
        },
        {
          "internalType": "uint256",
          "name": "amount",
          "type": "uint256"
        }
      ],
      "name": "mint",
      "outputs": [],
      "stateMutability": "nonpayable",
      "type": "function"
    },
    {
      "inputs": [
        {
          "internalType": "uint256",
          "name": "amount",
          "type": "uint256"
        }
      ],
      "name": "burn",
      "outputs": [],
      "stateMutability": "nonpayable",
      "type": "function"
    },
    {
      "inputs": [
        {
          "internalType": "address",
          "name": "account",
          "type": "address"
        },
        {
          "internalType": "uint256",
          "name": "amount",
          "type": "uint256"
        }
      ],
      "name": "burnFrom",
      "outputs": [],
      "stateMutability": "nonpayable",
      "type": "function"
    },
    {
      "inputs": [
        {
          "internalType": "address",
          "name": "to",
          "type": "address"
        },
        {
          "internalType": "uint256",
          "name": "amount",
          "type": "uint256"
        }
      ],
      "name": "transfer",
      "outputs": [
        {
          "internalType": "bool",
          "name": "",
          "type": "bool"
        }
      ],
      "stateMutability": "nonpayable",
      "type": "function"
    },
    {
      "inputs": [
        {
          "internalType": "address",
          "name": "from",
          "type": "address"
        },
        {
          "internalType": "address",
          "name": "to",
          "type": "address"
        },
        {
          "internalType": "uint256",
          "name": "amount",
          "type": "uint256"
        }
      ],
      "name": "transferFrom",
      "outputs": [
        {
          "internalType": "bool",
          "name": "",
          "type": "bool"
        }
      ],
      "stateMutability": "nonpayable",
      "type": "function"
    },
    {
      "inputs": [],
      "name": "redeem",
      "outputs": [
        {
          "internalType": "bool",
          "name": "",
          "type": "bool"
        }
      ],
      "stateMutability": "nonpayable",
      "type": "function"
    }
  ],
  "bytecode": "0x6080604052670de0b6b3a7640000600855601e6012553480156200002257600080fd5b506040518060400160405280600481526020017f5a656e6f000000000000000000000000000000000000000000000000000000008152506040518060400160405280600281526020017f5a6e0000000000000000000000000000000000000000000000000000000000008152508160039080519060200190620000a792919062000258565b508060049080519060200190620000c092919062000258565b505050600160096006018190555042600960030181905550620000ed6000801b33620000f360201b60201c565b6200036d565b620001058282620001e560201b60201c565b620001e15760016005600084815260200190815260200160002060000160008373ffffffffffffffffffffffffffffffffffffffff1673ffffffffffffffffffffffffffffffffffffffff16815260200190815260200160002060006101000a81548160ff021916908315150217905550620001866200025060201b60201c565b73ffffffffffffffffffffffffffffffffffffffff168173ffffffffffffffffffffffffffffffffffffffff16837f2f8788117e7eff1d82e926ec794901d17c78024a50270940304540a733656f0d60405160405180910390a45b5050565b60006005600084815260200190815260200160002060000160008373ffffffffffffffffffffffffffffffffffffffff1673ffffffffffffffffffffffffffffffffffffffff16815260200190815260200160002060009054906101000a900460ff16905092915050565b600033905090565b828054620002669062000308565b90600052602060002090601f0160209004810192826200028a5760008555620002d6565b82601f10620002a557805160ff1916838001178555620002d6565b82800160010185558215620002d6579182015b82811115620002d5578251825591602001919060010190620002b8565b5b509050620002e59190620002e9565b5090565b5b8082111562000304576000816000905550600101620002ea565b5090565b600060028204905060018216806200032157607f821691505b602082108114156200033857620003376200033e565b5b50919050565b7f4e487b7100000000000000000000000000000000000000000000000000000000600052602260045260246000fd5b61372e806200037d6000396000f3fe608060405234801561001057600080fd5b50600436106101cf5760003560e01c806379cc679011610104578063a77eb129116100a2578063cba3f53c11610071578063cba3f53c1461058c578063d5391393146105bc578063d547741f146105da578063dd62ed3e146105f6576101cf565b8063a77eb12914610506578063a9059cbb14610522578063be040fb014610552578063c375110d14610570576101cf565b806395d89b41116100de57806395d89b411461046a578063a217fddf14610488578063a383292a146104a6578063a457c2d7146104d6576101cf565b806379cc6790146103ee57806391d148541461040a57806393eb1cce1461043a576101cf565b8063313ce5671161017157806340c10f191161014b57806340c10f191461035657806342966c6814610372578063672f8e4f1461038e57806370a08231146103be576101cf565b8063313ce567146102ec57806336568abe1461030a5780633950935114610326576101cf565b806318160ddd116101ad57806318160ddd1461025257806323b872dd14610270578063248a9ca3146102a05780632f2ff15d146102d0576101cf565b806301ffc9a7146101d457806306fdde0314610204578063095ea7b314610222575b600080fd5b6101ee60048036038101906101e991906128ca565b610626565b6040516101fb9190612c97565b60405180910390f35b61020c6106a0565b6040516102199190612ccd565b60405180910390f35b61023c6004803603810190610237919061281d565b610732565b6040516102499190612c97565b60405180910390f35b61025a610755565b6040516102679190612ecf565b60405180910390f35b61028a600480360381019061028591906127ca565b61075f565b6040516102979190612c97565b60405180910390f35b6102ba60048036038101906102b5919061285d565b610934565b6040516102c79190612cb2565b60405180910390f35b6102ea60048036038101906102e5919061288a565b610954565b005b6102f4610975565b6040516103019190612eea565b60405180910390f35b610324600480360381019061031f919061288a565b61097e565b005b610340600480360381019061033b919061281d565b610a01565b60405161034d9190612c97565b60405180910390f35b610370600480360381019061036b919061281d565b610a38565b005b61038c600480360381019061038791906128f7565b610b74565b005b6103a860048036038101906103a39190612924565b610c4e565b6040516103b59190612ecf565b60405180910390f35b6103d860048036038101906103d3919061275d565b610cd5565b6040516103e59190612ecf565b60405180910390f35b6104086004803603810190610403919061281d565b610d1d565b005b610424600480360381019061041f919061288a565b610e13565b6040516104319190612c97565b60405180910390f35b610454600480360381019061044f91906128f7565b610e7e565b6040516104619190612ecf565b60405180910390f35b610472610ed9565b60405161047f9190612ccd565b60405180910390f35b610490610f6b565b60405161049d9190612cb2565b60405180910390f35b6104c060048036038101906104bb919061275d565b610f72565b6040516104cd9190612ecf565b60405180910390f35b6104f060048036038101906104eb919061281d565b610fbb565b6040516104fd9190612c97565b60405180910390f35b610520600480360381019061051b919061275d565b611032565b005b61053c6004803603810190610537919061281d565b611131565b6040516105499190612c97565b60405180910390f35b61055a6112fa565b6040516105679190612c97565b60405180910390f35b61058a6004803603810190610585919061275d565b611527565b005b6105a660048036038101906105a1919061278a565b611562565b6040516105b39190612c97565b60405180910390f35b6105c461174d565b6040516105d19190612cb2565b60405180910390f35b6105f460048036038101906105ef919061288a565b611771565b005b610610600480360381019061060b919061278a565b611792565b60405161061d9190612ecf565b60405180910390f35b60007f7965db0b000000000000000000000000000000000000000000000000000000007bffffffffffffffffffffffffffffffffffffffffffffffffffffffff1916827bffffffffffffffffffffffffffffffffffffffffffffffffffffffff19161480610699575061069882611819565b5b9050919050565b6060600380546106af90613129565b80601f01602080910402602001604051908101604052809291908181526020018280546106db90613129565b80156107285780601f106106fd57610100808354040283529160200191610728565b820191906000526020600020905b81548152906001019060200180831161070b57829003601f168201915b5050505050905090565b60008061073d611883565b905061074a81858561188b565b600191505092915050565b6000600254905090565b600061076b8484611562565b506107e46012546107d66107d1600960000160008873ffffffffffffffffffffffffffffffffffffffff1673ffffffffffffffffffffffffffffffffffffffff168152602001908152602001600020546107cc6107c789610cd5565b610e7e565b611a56565b610e7e565b611ac390919063ffffffff16565b601060008573ffffffffffffffffffffffffffffffffffffffff1673ffffffffffffffffffffffffffffffffffffffff16815260200190815260200160002060008282546108329190612f2c565b925050819055506108b16012546108a361089e600960000160008973ffffffffffffffffffffffffffffffffffffffff1673ffffffffffffffffffffffffffffffffffffffff1681526020019081526020016000205461089961089489610cd5565b610e7e565b611a56565b610e7e565b611ac390919063ffffffff16565b601060008673ffffffffffffffffffffffffffffffffffffffff1673ffffffffffffffffffffffffffffffffffffffff16815260200190815260200160002060008282546108ff9190612f2c565b925050819055506000610910611883565b905061091d858285611ad9565b610928858585611b65565b60019150509392505050565b600060056000838152602001908152602001600020600101549050919050565b61095d82610934565b61096681611de6565b6109708383611dfa565b505050565b60006012905090565b610986611883565b73ffffffffffffffffffffffffffffffffffffffff168173ffffffffffffffffffffffffffffffffffffffff16146109f3576040517f08c379a00000000000000000000000000000000000000000000000000000000081526004016109ea90612e8f565b60405180910390fd5b6109fd8282611edb565b5050565b600080610a0c611883565b9050610a2d818585610a1e8589611792565b610a289190612f2c565b61188b565b600191505092915050565b7f9f2df0fed2c77648de5860a4cc508cd0818c85b8b8a1ab4ceeef8d981c8956a6610a6281611de6565b610b22601060008573ffffffffffffffffffffffffffffffffffffffff1673ffffffffffffffffffffffffffffffffffffffff16815260200190815260200160002054610b1d601254610b0f610b0a600960000160008a73ffffffffffffffffffffffffffffffffffffffff1673ffffffffffffffffffffffffffffffffffffffff16815260200190815260200160002054610b05610b008b610cd5565b610e7e565b611a56565b610e7e565b611ac390919063ffffffff16565b611fbd565b601060008573ffffffffffffffffffffffffffffffffffffffff1673ffffffffffffffffffffffffffffffffffffffff16815260200190815260200160002081905550610b6f8383612016565b505050565b610bec601254610bde610bd9600960000160003373ffffffffffffffffffffffffffffffffffffffff1673ffffffffffffffffffffffffffffffffffffffff16815260200190815260200160002054610bd4610bcf33610cd5565b610e7e565b611a56565b610e7e565b611ac390919063ffffffff16565b601060003373ffffffffffffffffffffffffffffffffffffffff1673ffffffffffffffffffffffffffffffffffffffff1681526020019081526020016000206000828254610c3a9190612f2c565b92505081905550610c4b3382612176565b50565b600080600283610c5e919061315b565b1415610c7257670de0b6b3a7640000610c74565b825b9050600282610c839190612f82565b91505b60008214610ccf57610c98838461234d565b92506000600283610ca9919061315b565b14610cbb57610cb8818461234d565b90505b600282610cc89190612f82565b9150610c86565b92915050565b60008060008373ffffffffffffffffffffffffffffffffffffffff1673ffffffffffffffffffffffffffffffffffffffff168152602001908152602001600020549050919050565b610d2682611032565b610d9e601254610d90610d8b600960000160008773ffffffffffffffffffffffffffffffffffffffff1673ffffffffffffffffffffffffffffffffffffffff16815260200190815260200160002054610d86610d8188610cd5565b610e7e565b611a56565b610e7e565b611ac390919063ffffffff16565b601060008473ffffffffffffffffffffffffffffffffffffffff1673ffffffffffffffffffffffffffffffffffffffff1681526020019081526020016000206000828254610dec9190612f2c565b92505081905550610e0582610dff611883565b83611ad9565b610e0f8282612176565b5050565b60006005600084815260200190815260200160002060000160008373ffffffffffffffffffffffffffffffffffffffff1673ffffffffffffffffffffffffffffffffffffffff16815260200190815260200160002060009054906101000a900460ff16905092915050565b6000806002600184610e909190612f2c565b610e9a9190612f82565b90508291505b81811015610ed357809150600281610eb88584612391565b610ec29190612f2c565b610ecc9190612f82565b9050610ea0565b50919050565b606060048054610ee890613129565b80601f0160208091040260200160405190810160405280929190818152602001828054610f1490613129565b8015610f615780601f10610f3657610100808354040283529160200191610f61565b820191906000526020600020905b815481529060010190602001808311610f4457829003601f168201915b5050505050905090565b6000801b81565b6000601060008373ffffffffffffffffffffffffffffffffffffffff1673ffffffffffffffffffffffffffffffffffffffff168152602001908152602001600020549050919050565b600080610fc6611883565b90506000610fd48286611792565b905083811015611019576040517f08c379a000000000000000000000000000000000000000000000000000000000815260040161101090612e6f565b60405180910390fd5b611026828686840361188b565b60019250505092915050565b4260096003018190555060096005015460096002018190555061109c600960050154600960010160008473ffffffffffffffffffffffffffffffffffffffff1673ffffffffffffffffffffffffffffffffffffffff168152602001908152602001600020546123cd565b600960000160008373ffffffffffffffffffffffffffffffffffffffff1673ffffffffffffffffffffffffffffffffffffffff16815260200190815260200160002081905550600960050154600960010160008373ffffffffffffffffffffffffffffffffffffffff1673ffffffffffffffffffffffffffffffffffffffff1681526020019081526020016000208190555050565b600061113d3384611562565b506111b66012546111a86111a3600960000160008873ffffffffffffffffffffffffffffffffffffffff1673ffffffffffffffffffffffffffffffffffffffff1681526020019081526020016000205461119e61119989610cd5565b610e7e565b611a56565b610e7e565b611ac390919063ffffffff16565b601060008573ffffffffffffffffffffffffffffffffffffffff1673ffffffffffffffffffffffffffffffffffffffff16815260200190815260200160002060008282546112049190612f2c565b92505081905550611283601254611275611270600960000160003373ffffffffffffffffffffffffffffffffffffffff1673ffffffffffffffffffffffffffffffffffffffff1681526020019081526020016000205461126b61126689610cd5565b610e7e565b611a56565b610e7e565b611ac390919063ffffffff16565b601060003373ffffffffffffffffffffffffffffffffffffffff1673ffffffffffffffffffffffffffffffffffffffff16815260200190815260200160002060008282546112d19190612f2c565b9250508190555060006112e2611883565b90506112ef818585611b65565b600191505092915050565b600080600760003373ffffffffffffffffffffffffffffffffffffffff1673ffffffffffffffffffffffffffffffffffffffff16815260200190815260200160002054141561134857600080fd5b6104ec601160003373ffffffffffffffffffffffffffffffffffffffff1673ffffffffffffffffffffffffffffffffffffffff1681526020019081526020016000205442611396919061300d565b116113a057600080fd5b61143e60066000600760003373ffffffffffffffffffffffffffffffffffffffff1673ffffffffffffffffffffffffffffffffffffffff16815260200190815260200160002054815260200190815260200160002060000154601060003373ffffffffffffffffffffffffffffffffffffffff1673ffffffffffffffffffffffffffffffffffffffff16815260200190815260200160002054611fbd565b60066000600760003373ffffffffffffffffffffffffffffffffffffffff1673ffffffffffffffffffffffffffffffffffffffff168152602001908152602001600020548152602001908152602001600020600001819055506000601060003373ffffffffffffffffffffffffffffffffffffffff1673ffffffffffffffffffffffffffffffffffffffff1681526020019081526020016000208190555042601160003373ffffffffffffffffffffffffffffffffffffffff1673ffffffffffffffffffffffffffffffffffffffff168152602001908152602001600020819055506001905090565b6000801b61153481611de6565b61155e7f9f2df0fed2c77648de5860a4cc508cd0818c85b8b8a1ab4ceeef8d981c8956a683611dfa565b5050565b6000426009600301819055506009600501546009600201819055506115ce600960050154600960010160008673ffffffffffffffffffffffffffffffffffffffff1673ffffffffffffffffffffffffffffffffffffffff168152602001908152602001600020546123cd565b600960000160008573ffffffffffffffffffffffffffffffffffffffff1673ffffffffffffffffffffffffffffffffffffffff16815260200190815260200160002081905550611665600960050154600960010160008573ffffffffffffffffffffffffffffffffffffffff1673ffffffffffffffffffffffffffffffffffffffff168152602001908152602001600020546123cd565b600960000160008473ffffffffffffffffffffffffffffffffffffffff1673ffffffffffffffffffffffffffffffffffffffff16815260200190815260200160002081905550600960050154600960010160008573ffffffffffffffffffffffffffffffffffffffff1673ffffffffffffffffffffffffffffffffffffffff16815260200190815260200160002081905550600960050154600960010160008473ffffffffffffffffffffffffffffffffffffffff1673ffffffffffffffffffffffffffffffffffffffff168152602001908152602001600020819055506001905092915050565b7f9f2df0fed2c77648de5860a4cc508cd0818c85b8b8a1ab4ceeef8d981c8956a681565b61177a82610934565b61178381611de6565b61178d8383611edb565b505050565b6000600160008473ffffffffffffffffffffffffffffffffffffffff1673ffffffffffffffffffffffffffffffffffffffff16815260200190815260200160002060008373ffffffffffffffffffffffffffffffffffffffff1673ffffffffffffffffffffffffffffffffffffffff16815260200190815260200160002054905092915050565b60007f01ffc9a7000000000000000000000000000000000000000000000000000000007bffffffffffffffffffffffffffffffffffffffffffffffffffffffff1916827bffffffffffffffffffffffffffffffffffffffffffffffffffffffff1916149050919050565b600033905090565b600073ffffffffffffffffffffffffffffffffffffffff168373ffffffffffffffffffffffffffffffffffffffff1614156118fb576040517f08c379a00000000000000000000000000000000000000000000000000000000081526004016118f290612e4f565b60405180910390fd5b600073ffffffffffffffffffffffffffffffffffffffff168273ffffffffffffffffffffffffffffffffffffffff16141561196b576040517f08c379a000000000000000000000000000000000000000000000000000000000815260040161196290612d6f565b60405180910390fd5b80600160008573ffffffffffffffffffffffffffffffffffffffff1673ffffffffffffffffffffffffffffffffffffffff16815260200190815260200160002060008473ffffffffffffffffffffffffffffffffffffffff1673ffffffffffffffffffffffffffffffffffffffff168152602001908152602001600020819055508173ffffffffffffffffffffffffffffffffffffffff168373ffffffffffffffffffffffffffffffffffffffff167f8c5be1e5ebec7d5bd14f71427d1e84f3dd0314c0f7b2291e5b200ac8c7c3b92583604051611a499190612ecf565b60405180910390a3505050565b600080821480611a7e575082828385611a6f9190612fb3565b925082611a7c9190612f82565b145b611abd576040517f08c379a0000000000000000000000000000000000000000000000000000000008152600401611ab490612d8f565b60405180910390fd5b92915050565b60008183611ad19190612f82565b905092915050565b6000611ae58484611792565b90507fffffffffffffffffffffffffffffffffffffffffffffffffffffffffffffffff8114611b5f5781811015611b51576040517f08c379a0000000000000000000000000000000000000000000000000000000008152600401611b4890612dcf565b60405180910390fd5b611b5e848484840361188b565b5b50505050565b600073ffffffffffffffffffffffffffffffffffffffff168373ffffffffffffffffffffffffffffffffffffffff161415611bd5576040517f08c379a0000000000000000000000000000000000000000000000000000000008152600401611bcc90612e2f565b60405180910390fd5b600073ffffffffffffffffffffffffffffffffffffffff168273ffffffffffffffffffffffffffffffffffffffff161415611c45576040517f08c379a0000000000000000000000000000000000000000000000000000000008152600401611c3c90612d2f565b60405180910390fd5b611c50838383612426565b60008060008573ffffffffffffffffffffffffffffffffffffffff1673ffffffffffffffffffffffffffffffffffffffff16815260200190815260200160002054905081811015611cd6576040517f08c379a0000000000000000000000000000000000000000000000000000000008152600401611ccd90612def565b60405180910390fd5b8181036000808673ffffffffffffffffffffffffffffffffffffffff1673ffffffffffffffffffffffffffffffffffffffff16815260200190815260200160002081905550816000808573ffffffffffffffffffffffffffffffffffffffff1673ffffffffffffffffffffffffffffffffffffffff1681526020019081526020016000206000828254611d699190612f2c565b925050819055508273ffffffffffffffffffffffffffffffffffffffff168473ffffffffffffffffffffffffffffffffffffffff167fddf252ad1be2c89b69c2b068fc378daa952ba7f163c4a11628f55a4df523b3ef84604051611dcd9190612ecf565b60405180910390a3611de084848461242b565b50505050565b611df781611df2611883565b612430565b50565b611e048282610e13565b611ed75760016005600084815260200190815260200160002060000160008373ffffffffffffffffffffffffffffffffffffffff1673ffffffffffffffffffffffffffffffffffffffff16815260200190815260200160002060006101000a81548160ff021916908315150217905550611e7c611883565b73ffffffffffffffffffffffffffffffffffffffff168173ffffffffffffffffffffffffffffffffffffffff16837f2f8788117e7eff1d82e926ec794901d17c78024a50270940304540a733656f0d60405160405180910390a45b5050565b611ee58282610e13565b15611fb95760006005600084815260200190815260200160002060000160008373ffffffffffffffffffffffffffffffffffffffff1673ffffffffffffffffffffffffffffffffffffffff16815260200190815260200160002060006101000a81548160ff021916908315150217905550611f5e611883565b73ffffffffffffffffffffffffffffffffffffffff168173ffffffffffffffffffffffffffffffffffffffff16837ff6391f5c32d9c69d2a47ea670b442974b53935d1edc7fd64eb21e047a839171b60405160405180910390a45b5050565b6000828284611fcc9190612f2c565b9150811015612010576040517f08c379a000000000000000000000000000000000000000000000000000000000815260040161200790612daf565b60405180910390fd5b92915050565b600073ffffffffffffffffffffffffffffffffffffffff168273ffffffffffffffffffffffffffffffffffffffff161415612086576040517f08c379a000000000000000000000000000000000000000000000000000000000815260040161207d90612eaf565b60405180910390fd5b61209260008383612426565b80600260008282546120a49190612f2c565b92505081905550806000808473ffffffffffffffffffffffffffffffffffffffff1673ffffffffffffffffffffffffffffffffffffffff16815260200190815260200160002060008282546120f99190612f2c565b925050819055508173ffffffffffffffffffffffffffffffffffffffff16600073ffffffffffffffffffffffffffffffffffffffff167fddf252ad1be2c89b69c2b068fc378daa952ba7f163c4a11628f55a4df523b3ef8360405161215e9190612ecf565b60405180910390a36121726000838361242b565b5050565b600073ffffffffffffffffffffffffffffffffffffffff168273ffffffffffffffffffffffffffffffffffffffff1614156121e6576040517f08c379a00000000000000000000000000000000000000000000000000000000081526004016121dd90612e0f565b60405180910390fd5b6121f282600083612426565b60008060008473ffffffffffffffffffffffffffffffffffffffff1673ffffffffffffffffffffffffffffffffffffffff16815260200190815260200160002054905081811015612278576040517f08c379a000000000000000000000000000000000000000000000000000000000815260040161226f90612d4f565b60405180910390fd5b8181036000808573ffffffffffffffffffffffffffffffffffffffff1673ffffffffffffffffffffffffffffffffffffffff1681526020019081526020016000208190555081600260008282546122cf919061300d565b92505081905550600073ffffffffffffffffffffffffffffffffffffffff168373ffffffffffffffffffffffffffffffffffffffff167fddf252ad1be2c89b69c2b068fc378daa952ba7f163c4a11628f55a4df523b3ef846040516123349190612ecf565b60405180910390a36123488360008461242b565b505050565b6000670de0b6b3a764000061237f6123658585611a56565b6002670de0b6b3a764000061237a9190612f82565b611fbd565b6123899190612f82565b905092915050565b6000816123bb6123a985670de0b6b3a7640000611a56565b6002856123b69190612f82565b611fbd565b6123c59190612f82565b905092915050565b60008282846123dc919061300d565b9150811115612420576040517f08c379a000000000000000000000000000000000000000000000000000000000815260040161241790612cef565b60405180910390fd5b92915050565b505050565b505050565b61243a8282610e13565b6124c95761245f8173ffffffffffffffffffffffffffffffffffffffff1660146124cd565b61246d8360001c60206124cd565b60405160200161247e929190612c5d565b6040516020818303038152906040526040517f08c379a00000000000000000000000000000000000000000000000000000000081526004016124c09190612ccd565b60405180910390fd5b5050565b6060600060028360026124e09190612fb3565b6124ea9190612f2c565b67ffffffffffffffff81111561250357612502613248565b5b6040519080825280601f01601f1916602001820160405280156125355781602001600182028036833780820191505090505b5090507f30000000000000000000000000000000000000000000000000000000000000008160008151811061256d5761256c613219565b5b60200101907effffffffffffffffffffffffffffffffffffffffffffffffffffffffffffff1916908160001a9053507f7800000000000000000000000000000000000000000000000000000000000000816001815181106125d1576125d0613219565b5b60200101907effffffffffffffffffffffffffffffffffffffffffffffffffffffffffffff1916908160001a905350600060018460026126119190612fb3565b61261b9190612f2c565b90505b60018111156126bb577f3031323334353637383961626364656600000000000000000000000000000000600f86166010811061265d5761265c613219565b5b1a60f81b82828151811061267457612673613219565b5b60200101907effffffffffffffffffffffffffffffffffffffffffffffffffffffffffffff1916908160001a905350600485901c9450806126b4906130ff565b905061261e565b50600084146126ff576040517f08c379a00000000000000000000000000000000000000000000000000000000081526004016126f690612d0f565b60405180910390fd5b8091505092915050565b6000813590506127188161369c565b92915050565b60008135905061272d816136b3565b92915050565b600081359050612742816136ca565b92915050565b600081359050612757816136e1565b92915050565b60006020828403121561277357612772613277565b5b600061278184828501612709565b91505092915050565b600080604083850312156127a1576127a0613277565b5b60006127af85828601612709565b92505060206127c085828601612709565b9150509250929050565b6000806000606084860312156127e3576127e2613277565b5b60006127f186828701612709565b935050602061280286828701612709565b925050604061281386828701612748565b9150509250925092565b6000806040838503121561283457612833613277565b5b600061284285828601612709565b925050602061285385828601612748565b9150509250929050565b60006020828403121561287357612872613277565b5b60006128818482850161271e565b91505092915050565b600080604083850312156128a1576128a0613277565b5b60006128af8582860161271e565b92505060206128c085828601612709565b9150509250929050565b6000602082840312156128e0576128df613277565b5b60006128ee84828501612733565b91505092915050565b60006020828403121561290d5761290c613277565b5b600061291b84828501612748565b91505092915050565b6000806040838503121561293b5761293a613277565b5b600061294985828601612748565b925050602061295a85828601612748565b9150509250929050565b61296d81613053565b82525050565b61297c8161305f565b82525050565b600061298d82612f05565b6129978185612f10565b93506129a78185602086016130cc565b6129b08161327c565b840191505092915050565b60006129c682612f05565b6129d08185612f21565b93506129e08185602086016130cc565b80840191505092915050565b60006129f9601583612f10565b9150612a048261328d565b602082019050919050565b6000612a1c602083612f10565b9150612a27826132b6565b602082019050919050565b6000612a3f602383612f10565b9150612a4a826132df565b604082019050919050565b6000612a62602283612f10565b9150612a6d8261332e565b604082019050919050565b6000612a85602283612f10565b9150612a908261337d565b604082019050919050565b6000612aa8601483612f10565b9150612ab3826133cc565b602082019050919050565b6000612acb601483612f10565b9150612ad6826133f5565b602082019050919050565b6000612aee601d83612f10565b9150612af98261341e565b602082019050919050565b6000612b11602683612f10565b9150612b1c82613447565b604082019050919050565b6000612b34602183612f10565b9150612b3f82613496565b604082019050919050565b6000612b57602583612f10565b9150612b62826134e5565b604082019050919050565b6000612b7a602483612f10565b9150612b8582613534565b604082019050919050565b6000612b9d601783612f21565b9150612ba882613583565b601782019050919050565b6000612bc0602583612f10565b9150612bcb826135ac565b604082019050919050565b6000612be3601183612f21565b9150612bee826135fb565b601182019050919050565b6000612c06602f83612f10565b9150612c1182613624565b604082019050919050565b6000612c29601f83612f10565b9150612c3482613673565b602082019050919050565b612c48816130b5565b82525050565b612c57816130bf565b82525050565b6000612c6882612b90565b9150612c7482856129bb565b9150612c7f82612bd6565b9150612c8b82846129bb565b91508190509392505050565b6000602082019050612cac6000830184612964565b92915050565b6000602082019050612cc76000830184612973565b92915050565b60006020820190508181036000830152612ce78184612982565b905092915050565b60006020820190508181036000830152612d08816129ec565b9050919050565b60006020820190508181036000830152612d2881612a0f565b9050919050565b60006020820190508181036000830152612d4881612a32565b9050919050565b60006020820190508181036000830152612d6881612a55565b9050919050565b60006020820190508181036000830152612d8881612a78565b9050919050565b60006020820190508181036000830152612da881612a9b565b9050919050565b60006020820190508181036000830152612dc881612abe565b9050919050565b60006020820190508181036000830152612de881612ae1565b9050919050565b60006020820190508181036000830152612e0881612b04565b9050919050565b60006020820190508181036000830152612e2881612b27565b9050919050565b60006020820190508181036000830152612e4881612b4a565b9050919050565b60006020820190508181036000830152612e6881612b6d565b9050919050565b60006020820190508181036000830152612e8881612bb3565b9050919050565b60006020820190508181036000830152612ea881612bf9565b9050919050565b60006020820190508181036000830152612ec881612c1c565b9050919050565b6000602082019050612ee46000830184612c3f565b92915050565b6000602082019050612eff6000830184612c4e565b92915050565b600081519050919050565b600082825260208201905092915050565b600081905092915050565b6000612f37826130b5565b9150612f42836130b5565b9250827fffffffffffffffffffffffffffffffffffffffffffffffffffffffffffffffff03821115612f7757612f7661318c565b5b828201905092915050565b6000612f8d826130b5565b9150612f98836130b5565b925082612fa857612fa76131bb565b5b828204905092915050565b6000612fbe826130b5565b9150612fc9836130b5565b9250817fffffffffffffffffffffffffffffffffffffffffffffffffffffffffffffffff04831182151516156130025761300161318c565b5b828202905092915050565b6000613018826130b5565b9150613023836130b5565b9250828210156130365761303561318c565b5b828203905092915050565b600061304c82613095565b9050919050565b60008115159050919050565b6000819050919050565b60007fffffffff0000000000000000000000000000000000000000000000000000000082169050919050565b600073ffffffffffffffffffffffffffffffffffffffff82169050919050565b6000819050919050565b600060ff82169050919050565b60005b838110156130ea5780820151818401526020810190506130cf565b838111156130f9576000848401525b50505050565b600061310a826130b5565b9150600082141561311e5761311d61318c565b5b600182039050919050565b6000600282049050600182168061314157607f821691505b60208210811415613155576131546131ea565b5b50919050565b6000613166826130b5565b9150613171836130b5565b925082613181576131806131bb565b5b828206905092915050565b7f4e487b7100000000000000000000000000000000000000000000000000000000600052601160045260246000fd5b7f4e487b7100000000000000000000000000000000000000000000000000000000600052601260045260246000fd5b7f4e487b7100000000000000000000000000000000000000000000000000000000600052602260045260246000fd5b7f4e487b7100000000000000000000000000000000000000000000000000000000600052603260045260246000fd5b7f4e487b7100000000000000000000000000000000000000000000000000000000600052604160045260246000fd5b600080fd5b6000601f19601f8301169050919050565b7f64732d6d6174682d7375622d756e646572666c6f770000000000000000000000600082015250565b7f537472696e67733a20686578206c656e67746820696e73756666696369656e74600082015250565b7f45524332303a207472616e7366657220746f20746865207a65726f206164647260008201527f6573730000000000000000000000000000000000000000000000000000000000602082015250565b7f45524332303a206275726e20616d6f756e7420657863656564732062616c616e60008201527f6365000000000000000000000000000000000000000000000000000000000000602082015250565b7f45524332303a20617070726f766520746f20746865207a65726f20616464726560008201527f7373000000000000000000000000000000000000000000000000000000000000602082015250565b7f64732d6d6174682d6d756c2d6f766572666c6f77000000000000000000000000600082015250565b7f64732d6d6174682d6164642d6f766572666c6f77000000000000000000000000600082015250565b7f45524332303a20696e73756666696369656e7420616c6c6f77616e6365000000600082015250565b7f45524332303a207472616e7366657220616d6f756e742065786365656473206260008201527f616c616e63650000000000000000000000000000000000000000000000000000602082015250565b7f45524332303a206275726e2066726f6d20746865207a65726f2061646472657360008201527f7300000000000000000000000000000000000000000000000000000000000000602082015250565b7f45524332303a207472616e736665722066726f6d20746865207a65726f20616460008201527f6472657373000000000000000000000000000000000000000000000000000000602082015250565b7f45524332303a20617070726f76652066726f6d20746865207a65726f2061646460008201527f7265737300000000000000000000000000000000000000000000000000000000602082015250565b7f416363657373436f6e74726f6c3a206163636f756e7420000000000000000000600082015250565b7f45524332303a2064656372656173656420616c6c6f77616e63652062656c6f7760008201527f207a65726f000000000000000000000000000000000000000000000000000000602082015250565b7f206973206d697373696e6720726f6c6520000000000000000000000000000000600082015250565b7f416363657373436f6e74726f6c3a2063616e206f6e6c792072656e6f756e636560008201527f20726f6c657320666f722073656c660000000000000000000000000000000000602082015250565b7f45524332303a206d696e7420746f20746865207a65726f206164647265737300600082015250565b6136a581613041565b81146136b057600080fd5b50565b6136bc8161305f565b81146136c757600080fd5b50565b6136d381613069565b81146136de57600080fd5b50565b6136ea816130b5565b81146136f557600080fd5b5056fea26469706673582212209c1902d3a01ac4db0e1369d1e71f306b3b330ae8ced1c1cb3122364b0537c7ff64736f6c63430008070033",
  "immutableReferences": {},
  "source": "// SPDX-License-Identifier: MIT\npragma solidity ^0.8.7;\nimport \"@openzeppelin/contracts/utils/math/SafeMath.sol\";\nimport \"@openzeppelin/contracts/token/ERC20/ERC20.sol\";\nimport \"@openzeppelin/contracts/token/ERC20/extensions/ERC20Burnable.sol\";\nimport \"@openzeppelin/contracts/access/AccessControl.sol\";\nimport \"../Credit/Token_shots.sol\";\n\n\ncontract Zeno is ERC20, ERC20Burnable, AccessControl,TaxCollector{\nusing SafeMath for uint256;\n//\n\n\n\n\n//\n\n//\n  //\n    bytes32 public constant MINTER_ROLE = keccak256(\"MINTER_ROLE\");\n\n    constructor() ERC20(\"Zeno\", \"Zn\") {\n        _grantRole(DEFAULT_ADMIN_ROLE, msg.sender);\n\n    }\n\n     mapping(address => uint) c_sum;\n     mapping(address => uint) timestamp;\n     uint256 k=30;\n     function giveRole(address loaner) public onlyRole(DEFAULT_ADMIN_ROLE) {\n         _grantRole(MINTER_ROLE, loaner);\n     }\n     function GetSum(address account) public view returns(uint256)\n     {\n       return c_sum[account];\n     }\n    function mint(address to, uint256 amount) public onlyRole(MINTER_ROLE) {\n\n       c_sum[to]=add(c_sum[to],(wsqrt(mul(AccRate.credearning[to],wsqrt(balanceOf(to)))).div(k)));\n\n        _mint(to, amount);\n\n    }\n\n    function burn(uint amount) public override {\n\n    c_sum[msg.sender]+=wsqrt(mul(AccRate.credearning[msg.sender],wsqrt(balanceOf(msg.sender)))).div(k);\n\n    _burn(msg.sender,amount);\n\n    }\n    function burnFrom(address account, uint256 amount) override public virtual {\n      UpdateAR(account);\n       c_sum[account]+=wsqrt(mul(AccRate.credearning[account],wsqrt(balanceOf(account)))).div(k);\n\n        _spendAllowance(account, _msgSender(), amount);\n        _burn(account, amount);\n\n    }\n    function transfer(address to, uint256 amount) public virtual override returns (bool) {\n    UpdateAR(msg.sender,to);\n        c_sum[to]+=wsqrt(mul(AccRate.credearning[to],wsqrt(balanceOf(to)))).div(k);\n        c_sum[msg.sender]+=wsqrt(mul(AccRate.credearning[msg.sender],wsqrt(balanceOf(to)))).div(k);\n        address owner = _msgSender();\n        _transfer(owner, to, amount);\n        return true;\n    }\n    function transferFrom(\n        address from,\n        address to,\n        uint256 amount\n    ) public override returns (bool) {\n      UpdateAR(from,to);\n        c_sum[to]+=wsqrt(mul(AccRate.credearning[to],wsqrt(balanceOf(to)))).div(k);\n        c_sum[from]+=wsqrt(mul(AccRate.credearning[from],wsqrt(balanceOf(to)))).div(k);\n\n            address spender = _msgSender();\n            _spendAllowance(from, spender, amount);\n            _transfer(from, to, amount);\n        return true;\n    }\n    //\n    function redeem() public returns(bool){\n      require(Primary[msg.sender]!=0);\n      require(block.timestamp-timestamp[msg.sender]>1260);\n      cred[Primary[msg.sender]].creditsc_c=add(cred[Primary[msg.sender]].creditsc_c,c_sum[msg.sender]);\n      c_sum[msg.sender]=0;\n      timestamp[msg.sender]=block.timestamp;\n      return true;\n    }\n}\n",
  "sourcePath": "/Users/vibhu/node_manager/node_modules/Solidity/Zeno/contracts/Token/ERC20.sol",
  "compiler": {
    "name": "solc",
    "version": "0.8.7+commit.e28d00a7.Emscripten.clang"
  },
  "schemaVersion": "3.4.7",
  "updatedAt": "2022-05-20T03:42:12.440Z",
  "networkType": "ethereum",
  "devdoc": {
    "kind": "dev",
    "methods": {
      "allowance(address,address)": {
        "details": "See {IERC20-allowance}."
      },
      "approve(address,uint256)": {
        "details": "See {IERC20-approve}. NOTE: If `amount` is the maximum `uint256`, the allowance is not updated on `transferFrom`. This is semantically equivalent to an infinite approval. Requirements: - `spender` cannot be the zero address."
      },
      "balanceOf(address)": {
        "details": "See {IERC20-balanceOf}."
      },
      "burn(uint256)": {
        "details": "Destroys `amount` tokens from the caller. See {ERC20-_burn}."
      },
      "burnFrom(address,uint256)": {
        "details": "Destroys `amount` tokens from `account`, deducting from the caller's allowance. See {ERC20-_burn} and {ERC20-allowance}. Requirements: - the caller must have allowance for ``accounts``'s tokens of at least `amount`."
      },
      "decimals()": {
        "details": "Returns the number of decimals used to get its user representation. For example, if `decimals` equals `2`, a balance of `505` tokens should be displayed to a user as `5.05` (`505 / 10 ** 2`). Tokens usually opt for a value of 18, imitating the relationship between Ether and Wei. This is the value {ERC20} uses, unless this function is overridden; NOTE: This information is only used for _display_ purposes: it in no way affects any of the arithmetic of the contract, including {IERC20-balanceOf} and {IERC20-transfer}."
      },
      "decreaseAllowance(address,uint256)": {
        "details": "Atomically decreases the allowance granted to `spender` by the caller. This is an alternative to {approve} that can be used as a mitigation for problems described in {IERC20-approve}. Emits an {Approval} event indicating the updated allowance. Requirements: - `spender` cannot be the zero address. - `spender` must have allowance for the caller of at least `subtractedValue`."
      },
      "getRoleAdmin(bytes32)": {
        "details": "Returns the admin role that controls `role`. See {grantRole} and {revokeRole}. To change a role's admin, use {_setRoleAdmin}."
      },
      "grantRole(bytes32,address)": {
        "details": "Grants `role` to `account`. If `account` had not been already granted `role`, emits a {RoleGranted} event. Requirements: - the caller must have ``role``'s admin role."
      },
      "hasRole(bytes32,address)": {
        "details": "Returns `true` if `account` has been granted `role`."
      },
      "increaseAllowance(address,uint256)": {
        "details": "Atomically increases the allowance granted to `spender` by the caller. This is an alternative to {approve} that can be used as a mitigation for problems described in {IERC20-approve}. Emits an {Approval} event indicating the updated allowance. Requirements: - `spender` cannot be the zero address."
      },
      "name()": {
        "details": "Returns the name of the token."
      },
      "renounceRole(bytes32,address)": {
        "details": "Revokes `role` from the calling account. Roles are often managed via {grantRole} and {revokeRole}: this function's purpose is to provide a mechanism for accounts to lose their privileges if they are compromised (such as when a trusted device is misplaced). If the calling account had been revoked `role`, emits a {RoleRevoked} event. Requirements: - the caller must be `account`."
      },
      "revokeRole(bytes32,address)": {
        "details": "Revokes `role` from `account`. If `account` had been granted `role`, emits a {RoleRevoked} event. Requirements: - the caller must have ``role``'s admin role."
      },
      "supportsInterface(bytes4)": {
        "details": "See {IERC165-supportsInterface}."
      },
      "symbol()": {
        "details": "Returns the symbol of the token, usually a shorter version of the name."
      },
      "totalSupply()": {
        "details": "See {IERC20-totalSupply}."
      },
      "transfer(address,uint256)": {
        "details": "See {IERC20-transfer}. Requirements: - `to` cannot be the zero address. - the caller must have a balance of at least `amount`."
      },
      "transferFrom(address,address,uint256)": {
        "details": "See {IERC20-transferFrom}. Emits an {Approval} event indicating the updated allowance. This is not required by the EIP. See the note at the beginning of {ERC20}. NOTE: Does not update the allowance if the current allowance is the maximum `uint256`. Requirements: - `from` and `to` cannot be the zero address. - `from` must have a balance of at least `amount`. - the caller must have allowance for ``from``'s tokens of at least `amount`."
      }
    },
    "version": 1
  },
  "userdoc": {
    "kind": "user",
    "methods": {},
    "version": 1
  }
}