{
  "contractName": "Zeno",
  "abi": [
    {
      "inputs": [
        {
          "internalType": "address",
          "name": "loaner",
          "type": "address"
        }
      ],
      "stateMutability": "nonpayable",
      "type": "constructor"
    },
    {
      "anonymous": false,
      "inputs": [
        {
          "indexed": true,
          "internalType": "address",
          "name": "owner",
          "type": "address"
        },
        {
          "indexed": true,
          "internalType": "address",
          "name": "spender",
          "type": "address"
        },
        {
          "indexed": false,
          "internalType": "uint256",
          "name": "value",
          "type": "uint256"
        }
      ],
      "name": "Approval",
      "type": "event"
    },
    {
      "anonymous": false,
      "inputs": [
        {
          "indexed": true,
          "internalType": "bytes32",
          "name": "role",
          "type": "bytes32"
        },
        {
          "indexed": true,
          "internalType": "bytes32",
          "name": "previousAdminRole",
          "type": "bytes32"
        },
        {
          "indexed": true,
          "internalType": "bytes32",
          "name": "newAdminRole",
          "type": "bytes32"
        }
      ],
      "name": "RoleAdminChanged",
      "type": "event"
    },
    {
      "anonymous": false,
      "inputs": [
        {
          "indexed": true,
          "internalType": "bytes32",
          "name": "role",
          "type": "bytes32"
        },
        {
          "indexed": true,
          "internalType": "address",
          "name": "account",
          "type": "address"
        },
        {
          "indexed": true,
          "internalType": "address",
          "name": "sender",
          "type": "address"
        }
      ],
      "name": "RoleGranted",
      "type": "event"
    },
    {
      "anonymous": false,
      "inputs": [
        {
          "indexed": true,
          "internalType": "bytes32",
          "name": "role",
          "type": "bytes32"
        },
        {
          "indexed": true,
          "internalType": "address",
          "name": "account",
          "type": "address"
        },
        {
          "indexed": true,
          "internalType": "address",
          "name": "sender",
          "type": "address"
        }
      ],
      "name": "RoleRevoked",
      "type": "event"
    },
    {
      "anonymous": false,
      "inputs": [
        {
          "indexed": true,
          "internalType": "address",
          "name": "from",
          "type": "address"
        },
        {
          "indexed": true,
          "internalType": "address",
          "name": "to",
          "type": "address"
        },
        {
          "indexed": false,
          "internalType": "uint256",
          "name": "value",
          "type": "uint256"
        }
      ],
      "name": "Transfer",
      "type": "event"
    },
    {
      "inputs": [],
      "name": "DEFAULT_ADMIN_ROLE",
      "outputs": [
        {
          "internalType": "bytes32",
          "name": "",
          "type": "bytes32"
        }
      ],
      "stateMutability": "view",
      "type": "function"
    },
    {
      "inputs": [],
      "name": "MINTER_ROLE",
      "outputs": [
        {
          "internalType": "bytes32",
          "name": "",
          "type": "bytes32"
        }
      ],
      "stateMutability": "view",
      "type": "function"
    },
    {
      "inputs": [
        {
          "internalType": "address",
          "name": "msg_sender",
          "type": "address"
        }
      ],
      "name": "UpdateAR",
      "outputs": [],
      "stateMutability": "nonpayable",
      "type": "function"
    },
    {
      "inputs": [
        {
          "internalType": "address",
          "name": "msg_sender",
          "type": "address"
        },
        {
          "internalType": "address",
          "name": "to",
          "type": "address"
        }
      ],
      "name": "UpdateAR",
      "outputs": [
        {
          "internalType": "bool",
          "name": "",
          "type": "bool"
        }
      ],
      "stateMutability": "nonpayable",
      "type": "function"
    },
    {
      "inputs": [
        {
          "internalType": "address",
          "name": "owner",
          "type": "address"
        },
        {
          "internalType": "address",
          "name": "spender",
          "type": "address"
        }
      ],
      "name": "allowance",
      "outputs": [
        {
          "internalType": "uint256",
          "name": "",
          "type": "uint256"
        }
      ],
      "stateMutability": "view",
      "type": "function"
    },
    {
      "inputs": [
        {
          "internalType": "address",
          "name": "spender",
          "type": "address"
        },
        {
          "internalType": "uint256",
          "name": "amount",
          "type": "uint256"
        }
      ],
      "name": "approve",
      "outputs": [
        {
          "internalType": "bool",
          "name": "",
          "type": "bool"
        }
      ],
      "stateMutability": "nonpayable",
      "type": "function"
    },
    {
      "inputs": [
        {
          "internalType": "address",
          "name": "account",
          "type": "address"
        }
      ],
      "name": "balanceOf",
      "outputs": [
        {
          "internalType": "uint256",
          "name": "",
          "type": "uint256"
        }
      ],
      "stateMutability": "view",
      "type": "function"
    },
    {
      "inputs": [],
      "name": "decimals",
      "outputs": [
        {
          "internalType": "uint8",
          "name": "",
          "type": "uint8"
        }
      ],
      "stateMutability": "view",
      "type": "function"
    },
    {
      "inputs": [
        {
          "internalType": "address",
          "name": "spender",
          "type": "address"
        },
        {
          "internalType": "uint256",
          "name": "subtractedValue",
          "type": "uint256"
        }
      ],
      "name": "decreaseAllowance",
      "outputs": [
        {
          "internalType": "bool",
          "name": "",
          "type": "bool"
        }
      ],
      "stateMutability": "nonpayable",
      "type": "function"
    },
    {
      "inputs": [
        {
          "internalType": "bytes32",
          "name": "role",
          "type": "bytes32"
        }
      ],
      "name": "getRoleAdmin",
      "outputs": [
        {
          "internalType": "bytes32",
          "name": "",
          "type": "bytes32"
        }
      ],
      "stateMutability": "view",
      "type": "function"
    },
    {
      "inputs": [
        {
          "internalType": "bytes32",
          "name": "role",
          "type": "bytes32"
        },
        {
          "internalType": "address",
          "name": "account",
          "type": "address"
        }
      ],
      "name": "grantRole",
      "outputs": [],
      "stateMutability": "nonpayable",
      "type": "function"
    },
    {
      "inputs": [
        {
          "internalType": "bytes32",
          "name": "role",
          "type": "bytes32"
        },
        {
          "internalType": "address",
          "name": "account",
          "type": "address"
        }
      ],
      "name": "hasRole",
      "outputs": [
        {
          "internalType": "bool",
          "name": "",
          "type": "bool"
        }
      ],
      "stateMutability": "view",
      "type": "function"
    },
    {
      "inputs": [
        {
          "internalType": "address",
          "name": "spender",
          "type": "address"
        },
        {
          "internalType": "uint256",
          "name": "addedValue",
          "type": "uint256"
        }
      ],
      "name": "increaseAllowance",
      "outputs": [
        {
          "internalType": "bool",
          "name": "",
          "type": "bool"
        }
      ],
      "stateMutability": "nonpayable",
      "type": "function"
    },
    {
      "inputs": [],
      "name": "name",
      "outputs": [
        {
          "internalType": "string",
          "name": "",
          "type": "string"
        }
      ],
      "stateMutability": "view",
      "type": "function"
    },
    {
      "inputs": [
        {
          "internalType": "bytes32",
          "name": "role",
          "type": "bytes32"
        },
        {
          "internalType": "address",
          "name": "account",
          "type": "address"
        }
      ],
      "name": "renounceRole",
      "outputs": [],
      "stateMutability": "nonpayable",
      "type": "function"
    },
    {
      "inputs": [
        {
          "internalType": "bytes32",
          "name": "role",
          "type": "bytes32"
        },
        {
          "internalType": "address",
          "name": "account",
          "type": "address"
        }
      ],
      "name": "revokeRole",
      "outputs": [],
      "stateMutability": "nonpayable",
      "type": "function"
    },
    {
      "inputs": [
        {
          "internalType": "bytes4",
          "name": "interfaceId",
          "type": "bytes4"
        }
      ],
      "name": "supportsInterface",
      "outputs": [
        {
          "internalType": "bool",
          "name": "",
          "type": "bool"
        }
      ],
      "stateMutability": "view",
      "type": "function"
    },
    {
      "inputs": [],
      "name": "symbol",
      "outputs": [
        {
          "internalType": "string",
          "name": "",
          "type": "string"
        }
      ],
      "stateMutability": "view",
      "type": "function"
    },
    {
      "inputs": [],
      "name": "totalSupply",
      "outputs": [
        {
          "internalType": "uint256",
          "name": "",
          "type": "uint256"
        }
      ],
      "stateMutability": "view",
      "type": "function"
    },
    {
      "inputs": [
        {
          "internalType": "uint256",
          "name": "x",
          "type": "uint256"
        },
        {
          "internalType": "uint256",
          "name": "n",
          "type": "uint256"
        }
      ],
      "name": "wpow",
      "outputs": [
        {
          "internalType": "uint256",
          "name": "z",
          "type": "uint256"
        }
      ],
      "stateMutability": "nonpayable",
      "type": "function"
    },
    {
      "inputs": [
        {
          "internalType": "uint256",
          "name": "x",
          "type": "uint256"
        }
      ],
      "name": "wsqrt",
      "outputs": [
        {
          "internalType": "uint256",
          "name": "y",
          "type": "uint256"
        }
      ],
      "stateMutability": "nonpayable",
      "type": "function"
    },
    {
      "inputs": [
        {
          "internalType": "uint256",
          "name": "x",
          "type": "uint256"
        }
      ],
      "name": "sqrt",
      "outputs": [
        {
          "internalType": "uint256",
          "name": "y",
          "type": "uint256"
        }
      ],
      "stateMutability": "nonpayable",
      "type": "function"
    },
    {
      "inputs": [
        {
          "internalType": "address",
          "name": "account",
          "type": "address"
        }
      ],
      "name": "GetSum",
      "outputs": [
        {
          "internalType": "uint256",
          "name": "",
          "type": "uint256"
        }
      ],
      "stateMutability": "nonpayable",
      "type": "function"
    },
    {
      "inputs": [
        {
          "internalType": "address",
          "name": "to",
          "type": "address"
        },
        {
          "internalType": "uint256",
          "name": "amount",
          "type": "uint256"
        }
      ],
      "name": "mint",
      "outputs": [],
      "stateMutability": "nonpayable",
      "type": "function"
    },
    {
      "inputs": [
        {
          "internalType": "uint256",
          "name": "amount",
          "type": "uint256"
        }
      ],
      "name": "burn",
      "outputs": [],
      "stateMutability": "nonpayable",
      "type": "function"
    },
    {
      "inputs": [
        {
          "internalType": "address",
          "name": "account",
          "type": "address"
        },
        {
          "internalType": "uint256",
          "name": "amount",
          "type": "uint256"
        }
      ],
      "name": "burnFrom",
      "outputs": [],
      "stateMutability": "nonpayable",
      "type": "function"
    },
    {
      "inputs": [
        {
          "internalType": "address",
          "name": "to",
          "type": "address"
        },
        {
          "internalType": "uint256",
          "name": "amount",
          "type": "uint256"
        }
      ],
      "name": "transfer",
      "outputs": [
        {
          "internalType": "bool",
          "name": "",
          "type": "bool"
        }
      ],
      "stateMutability": "nonpayable",
      "type": "function"
    },
    {
      "inputs": [
        {
          "internalType": "address",
          "name": "from",
          "type": "address"
        },
        {
          "internalType": "address",
          "name": "to",
          "type": "address"
        },
        {
          "internalType": "uint256",
          "name": "amount",
          "type": "uint256"
        }
      ],
      "name": "transferFrom",
      "outputs": [
        {
          "internalType": "bool",
          "name": "",
          "type": "bool"
        }
      ],
      "stateMutability": "nonpayable",
      "type": "function"
    },
    {
      "inputs": [],
      "name": "redeem",
      "outputs": [
        {
          "internalType": "bool",
          "name": "",
          "type": "bool"
        }
      ],
      "stateMutability": "nonpayable",
      "type": "function"
    }
  ],
  "bytecode": "0x6080604052670de0b6b3a7640000600855601e6012553480156200002257600080fd5b5060405162003bce38038062003bce833981810160405281019062000048919062000362565b6040518060400160405280600481526020017f5a656e6f000000000000000000000000000000000000000000000000000000008152506040518060400160405280600281526020017f5a6e0000000000000000000000000000000000000000000000000000000000008152508160039080519060200190620000cc9291906200029b565b508060049080519060200190620000e59291906200029b565b505050620000fd6000801b336200013660201b60201c565b6200012f7f9f2df0fed2c77648de5860a4cc508cd0818c85b8b8a1ab4ceeef8d981c8956a6826200013660201b60201c565b506200044c565b6200014882826200022860201b60201c565b620002245760016005600084815260200190815260200160002060000160008373ffffffffffffffffffffffffffffffffffffffff1673ffffffffffffffffffffffffffffffffffffffff16815260200190815260200160002060006101000a81548160ff021916908315150217905550620001c96200029360201b60201c565b73ffffffffffffffffffffffffffffffffffffffff168173ffffffffffffffffffffffffffffffffffffffff16837f2f8788117e7eff1d82e926ec794901d17c78024a50270940304540a733656f0d60405160405180910390a45b5050565b60006005600084815260200190815260200160002060000160008373ffffffffffffffffffffffffffffffffffffffff1673ffffffffffffffffffffffffffffffffffffffff16815260200190815260200160002060009054906101000a900460ff16905092915050565b600033905090565b828054620002a990620003c8565b90600052602060002090601f016020900481019282620002cd576000855562000319565b82601f10620002e857805160ff191683800117855562000319565b8280016001018555821562000319579182015b8281111562000318578251825591602001919060010190620002fb565b5b5090506200032891906200032c565b5090565b5b80821115620003475760008160009055506001016200032d565b5090565b6000815190506200035c8162000432565b92915050565b6000602082840312156200037b576200037a6200042d565b5b60006200038b848285016200034b565b91505092915050565b6000620003a182620003a8565b9050919050565b600073ffffffffffffffffffffffffffffffffffffffff82169050919050565b60006002820490506001821680620003e157607f821691505b60208210811415620003f857620003f7620003fe565b5b50919050565b7f4e487b7100000000000000000000000000000000000000000000000000000000600052602260045260246000fd5b600080fd5b6200043d8162000394565b81146200044957600080fd5b50565b613772806200045c6000396000f3fe608060405234801561001057600080fd5b50600436106101cf5760003560e01c806370a0823111610104578063a457c2d7116100a2578063cba3f53c11610071578063cba3f53c146105a0578063d5391393146105d0578063d547741f146105ee578063dd62ed3e1461060a576101cf565b8063a457c2d714610506578063a77eb12914610536578063a9059cbb14610552578063be040fb014610582576101cf565b806393eb1cce116100de57806393eb1cce1461046a57806395d89b411461049a578063a217fddf146104b8578063a383292a146104d6576101cf565b806370a08231146103ee57806379cc67901461041e57806391d148541461043a576101cf565b8063313ce5671161017157806340c10f191161014b57806340c10f191461035657806342966c6814610372578063672f8e4f1461038e578063677342ce146103be576101cf565b8063313ce567146102ec57806336568abe1461030a5780633950935114610326576101cf565b806318160ddd116101ad57806318160ddd1461025257806323b872dd14610270578063248a9ca3146102a05780632f2ff15d146102d0576101cf565b806301ffc9a7146101d457806306fdde0314610204578063095ea7b314610222575b600080fd5b6101ee60048036038101906101e9919061290e565b61063a565b6040516101fb9190612cdb565b60405180910390f35b61020c6106b4565b6040516102199190612d11565b60405180910390f35b61023c60048036038101906102379190612861565b610746565b6040516102499190612cdb565b60405180910390f35b61025a610769565b6040516102679190612f13565b60405180910390f35b61028a6004803603810190610285919061280e565b610773565b6040516102979190612cdb565b60405180910390f35b6102ba60048036038101906102b591906128a1565b610948565b6040516102c79190612cf6565b60405180910390f35b6102ea60048036038101906102e591906128ce565b610968565b005b6102f4610989565b6040516103019190612f2e565b60405180910390f35b610324600480360381019061031f91906128ce565b610992565b005b610340600480360381019061033b9190612861565b610a15565b60405161034d9190612cdb565b60405180910390f35b610370600480360381019061036b9190612861565b610a4c565b005b61038c6004803603810190610387919061293b565b610b5b565b005b6103a860048036038101906103a39190612968565b610c3e565b6040516103b59190612f13565b60405180910390f35b6103d860048036038101906103d3919061293b565b610cc5565b6040516103e59190612f13565b60405180910390f35b610408600480360381019061040391906127a1565b610d22565b6040516104159190612f13565b60405180910390f35b61043860048036038101906104339190612861565b610d6a565b005b610454600480360381019061044f91906128ce565b610e60565b6040516104619190612cdb565b60405180910390f35b610484600480360381019061047f919061293b565b610ecb565b6040516104919190612f13565b60405180910390f35b6104a2610f26565b6040516104af9190612d11565b60405180910390f35b6104c0610fb8565b6040516104cd9190612cf6565b60405180910390f35b6104f060048036038101906104eb91906127a1565b610fbf565b6040516104fd9190612f13565b60405180910390f35b610520600480360381019061051b9190612861565b611008565b60405161052d9190612cdb565b60405180910390f35b610550600480360381019061054b91906127a1565b61107f565b005b61056c60048036038101906105679190612861565b6111c1565b6040516105799190612cdb565b60405180910390f35b61058a61138a565b6040516105979190612cdb565b60405180910390f35b6105ba60048036038101906105b591906127ce565b611567565b6040516105c79190612cdb565b60405180910390f35b6105d8611791565b6040516105e59190612cf6565b60405180910390f35b610608600480360381019061060391906128ce565b6117b5565b005b610624600480360381019061061f91906127ce565b6117d6565b6040516106319190612f13565b60405180910390f35b60007f7965db0b000000000000000000000000000000000000000000000000000000007bffffffffffffffffffffffffffffffffffffffffffffffffffffffff1916827bffffffffffffffffffffffffffffffffffffffffffffffffffffffff191614806106ad57506106ac8261185d565b5b9050919050565b6060600380546106c39061316d565b80601f01602080910402602001604051908101604052809291908181526020018280546106ef9061316d565b801561073c5780601f106107115761010080835404028352916020019161073c565b820191906000526020600020905b81548152906001019060200180831161071f57829003601f168201915b5050505050905090565b6000806107516118c7565b905061075e8185856118cf565b600191505092915050565b6000600254905090565b600061077f8484611567565b506107f86012546107ea6107e5600960000160008873ffffffffffffffffffffffffffffffffffffffff1673ffffffffffffffffffffffffffffffffffffffff168152602001908152602001600020546107e06107db89610d22565b610ecb565b611a9a565b610ecb565b611b0790919063ffffffff16565b601060008573ffffffffffffffffffffffffffffffffffffffff1673ffffffffffffffffffffffffffffffffffffffff16815260200190815260200160002060008282546108469190612f70565b925050819055506108c56012546108b76108b2600960000160008973ffffffffffffffffffffffffffffffffffffffff1673ffffffffffffffffffffffffffffffffffffffff168152602001908152602001600020546108ad6108a889610d22565b610ecb565b611a9a565b610ecb565b611b0790919063ffffffff16565b601060008673ffffffffffffffffffffffffffffffffffffffff1673ffffffffffffffffffffffffffffffffffffffff16815260200190815260200160002060008282546109139190612f70565b9250508190555060006109246118c7565b9050610931858285611b1d565b61093c858585611ba9565b60019150509392505050565b600060056000838152602001908152602001600020600101549050919050565b61097182610948565b61097a81611e2a565b6109848383611e3e565b505050565b60006012905090565b61099a6118c7565b73ffffffffffffffffffffffffffffffffffffffff168173ffffffffffffffffffffffffffffffffffffffff1614610a07576040517f08c379a00000000000000000000000000000000000000000000000000000000081526004016109fe90612ed3565b60405180910390fd5b610a118282611f1f565b5050565b600080610a206118c7565b9050610a41818585610a3285896117d6565b610a3c9190612f70565b6118cf565b600191505092915050565b7f9f2df0fed2c77648de5860a4cc508cd0818c85b8b8a1ab4ceeef8d981c8956a6610a7681611e2a565b610a7f8361107f565b610af7601254610ae9610ae4600960000160008873ffffffffffffffffffffffffffffffffffffffff1673ffffffffffffffffffffffffffffffffffffffff16815260200190815260200160002054610adf610ada89610d22565b610ecb565b611a9a565b610ecb565b611b0790919063ffffffff16565b601060008573ffffffffffffffffffffffffffffffffffffffff1673ffffffffffffffffffffffffffffffffffffffff1681526020019081526020016000206000828254610b459190612f70565b92505081905550610b568383612001565b505050565b610b643361107f565b610bdc601254610bce610bc9600960000160003373ffffffffffffffffffffffffffffffffffffffff1673ffffffffffffffffffffffffffffffffffffffff16815260200190815260200160002054610bc4610bbf33610d22565b610ecb565b611a9a565b610ecb565b611b0790919063ffffffff16565b601060003373ffffffffffffffffffffffffffffffffffffffff1673ffffffffffffffffffffffffffffffffffffffff1681526020019081526020016000206000828254610c2a9190612f70565b92505081905550610c3b3382612161565b50565b600080600283610c4e919061319f565b1415610c6257670de0b6b3a7640000610c64565b825b9050600282610c739190612fc6565b91505b60008214610cbf57610c888384612338565b92506000600283610c99919061319f565b14610cab57610ca88184612338565b90505b600282610cb89190612fc6565b9150610c76565b92915050565b6000806002600184610cd79190612f70565b610ce19190612fc6565b90508291505b81811015610d1c578091506002818285610d019190612fc6565b610d0b9190612f70565b610d159190612fc6565b9050610ce7565b50919050565b60008060008373ffffffffffffffffffffffffffffffffffffffff1673ffffffffffffffffffffffffffffffffffffffff168152602001908152602001600020549050919050565b610d738261107f565b610deb601254610ddd610dd8600960000160008773ffffffffffffffffffffffffffffffffffffffff1673ffffffffffffffffffffffffffffffffffffffff16815260200190815260200160002054610dd3610dce88610d22565b610ecb565b611a9a565b610ecb565b611b0790919063ffffffff16565b601060008473ffffffffffffffffffffffffffffffffffffffff1673ffffffffffffffffffffffffffffffffffffffff1681526020019081526020016000206000828254610e399190612f70565b92505081905550610e5282610e4c6118c7565b83611b1d565b610e5c8282612161565b5050565b60006005600084815260200190815260200160002060000160008373ffffffffffffffffffffffffffffffffffffffff1673ffffffffffffffffffffffffffffffffffffffff16815260200190815260200160002060009054906101000a900460ff16905092915050565b6000806002600184610edd9190612f70565b610ee79190612fc6565b90508291505b81811015610f2057809150600281610f05858461237c565b610f0f9190612f70565b610f199190612fc6565b9050610eed565b50919050565b606060048054610f359061316d565b80601f0160208091040260200160405190810160405280929190818152602001828054610f619061316d565b8015610fae5780601f10610f8357610100808354040283529160200191610fae565b820191906000526020600020905b815481529060010190602001808311610f9157829003601f168201915b5050505050905090565b6000801b81565b6000601060008373ffffffffffffffffffffffffffffffffffffffff1673ffffffffffffffffffffffffffffffffffffffff168152602001908152602001600020549050919050565b6000806110136118c7565b9050600061102182866117d6565b905083811015611066576040517f08c379a000000000000000000000000000000000000000000000000000000000815260040161105d90612eb3565b60405180910390fd5b61107382868684036118cf565b60019250505092915050565b6110b96009600201546110b460096006015460085461109e9190612f70565b426009600301546110af9190613051565b610c3e565b6123b8565b6009600501819055504260096003018190555060096005015460096002018190555061112c600960050154600960010160008473ffffffffffffffffffffffffffffffffffffffff1673ffffffffffffffffffffffffffffffffffffffff16815260200190815260200160002054612411565b600960000160008373ffffffffffffffffffffffffffffffffffffffff1673ffffffffffffffffffffffffffffffffffffffff16815260200190815260200160002081905550600960050154600960010160008373ffffffffffffffffffffffffffffffffffffffff1673ffffffffffffffffffffffffffffffffffffffff1681526020019081526020016000208190555050565b60006111cd3384611567565b50611246601254611238611233600960000160008873ffffffffffffffffffffffffffffffffffffffff1673ffffffffffffffffffffffffffffffffffffffff1681526020019081526020016000205461122e61122989610d22565b610cc5565b611a9a565b610ecb565b611b0790919063ffffffff16565b601060008573ffffffffffffffffffffffffffffffffffffffff1673ffffffffffffffffffffffffffffffffffffffff16815260200190815260200160002060008282546112949190612f70565b92505081905550611313601254611305611300600960000160003373ffffffffffffffffffffffffffffffffffffffff1673ffffffffffffffffffffffffffffffffffffffff168152602001908152602001600020546112fb6112f689610d22565b610ecb565b611a9a565b610ecb565b611b0790919063ffffffff16565b601060003373ffffffffffffffffffffffffffffffffffffffff1673ffffffffffffffffffffffffffffffffffffffff16815260200190815260200160002060008282546113619190612f70565b9250508190555060006113726118c7565b905061137f818585611ba9565b600191505092915050565b600080600760003373ffffffffffffffffffffffffffffffffffffffff1673ffffffffffffffffffffffffffffffffffffffff1681526020019081526020016000205414156113d857600080fd5b6104ec601160003373ffffffffffffffffffffffffffffffffffffffff1673ffffffffffffffffffffffffffffffffffffffff16815260200190815260200160002054426114269190613051565b1161143057600080fd5b601060003373ffffffffffffffffffffffffffffffffffffffff1673ffffffffffffffffffffffffffffffffffffffff1681526020019081526020016000205460066000600760003373ffffffffffffffffffffffffffffffffffffffff1673ffffffffffffffffffffffffffffffffffffffff16815260200190815260200160002054815260200190815260200160002060000160008282546114d49190612f70565b925050819055506000601060003373ffffffffffffffffffffffffffffffffffffffff1673ffffffffffffffffffffffffffffffffffffffff1681526020019081526020016000208190555042601160003373ffffffffffffffffffffffffffffffffffffffff1673ffffffffffffffffffffffffffffffffffffffff1681526020019081526020016000208190555090565b600061159f60096002015461159a6115866008546009600601546123b8565b61159542600960030154612411565b610c3e565b6123b8565b60096005018190555042600960030181905550600960050154600960020181905550611612600960050154600960010160008673ffffffffffffffffffffffffffffffffffffffff1673ffffffffffffffffffffffffffffffffffffffff16815260200190815260200160002054612411565b600960000160008573ffffffffffffffffffffffffffffffffffffffff1673ffffffffffffffffffffffffffffffffffffffff168152602001908152602001600020819055506116a9600960050154600960010160008573ffffffffffffffffffffffffffffffffffffffff1673ffffffffffffffffffffffffffffffffffffffff16815260200190815260200160002054612411565b600960000160008473ffffffffffffffffffffffffffffffffffffffff1673ffffffffffffffffffffffffffffffffffffffff16815260200190815260200160002081905550600960050154600960010160008573ffffffffffffffffffffffffffffffffffffffff1673ffffffffffffffffffffffffffffffffffffffff16815260200190815260200160002081905550600960050154600960010160008473ffffffffffffffffffffffffffffffffffffffff1673ffffffffffffffffffffffffffffffffffffffff168152602001908152602001600020819055506001905092915050565b7f9f2df0fed2c77648de5860a4cc508cd0818c85b8b8a1ab4ceeef8d981c8956a681565b6117be82610948565b6117c781611e2a565b6117d18383611f1f565b505050565b6000600160008473ffffffffffffffffffffffffffffffffffffffff1673ffffffffffffffffffffffffffffffffffffffff16815260200190815260200160002060008373ffffffffffffffffffffffffffffffffffffffff1673ffffffffffffffffffffffffffffffffffffffff16815260200190815260200160002054905092915050565b60007f01ffc9a7000000000000000000000000000000000000000000000000000000007bffffffffffffffffffffffffffffffffffffffffffffffffffffffff1916827bffffffffffffffffffffffffffffffffffffffffffffffffffffffff1916149050919050565b600033905090565b600073ffffffffffffffffffffffffffffffffffffffff168373ffffffffffffffffffffffffffffffffffffffff16141561193f576040517f08c379a000000000000000000000000000000000000000000000000000000000815260040161193690612e93565b60405180910390fd5b600073ffffffffffffffffffffffffffffffffffffffff168273ffffffffffffffffffffffffffffffffffffffff1614156119af576040517f08c379a00000000000000000000000000000000000000000000000000000000081526004016119a690612db3565b60405180910390fd5b80600160008573ffffffffffffffffffffffffffffffffffffffff1673ffffffffffffffffffffffffffffffffffffffff16815260200190815260200160002060008473ffffffffffffffffffffffffffffffffffffffff1673ffffffffffffffffffffffffffffffffffffffff168152602001908152602001600020819055508173ffffffffffffffffffffffffffffffffffffffff168373ffffffffffffffffffffffffffffffffffffffff167f8c5be1e5ebec7d5bd14f71427d1e84f3dd0314c0f7b2291e5b200ac8c7c3b92583604051611a8d9190612f13565b60405180910390a3505050565b600080821480611ac2575082828385611ab39190612ff7565b925082611ac09190612fc6565b145b611b01576040517f08c379a0000000000000000000000000000000000000000000000000000000008152600401611af890612dd3565b60405180910390fd5b92915050565b60008183611b159190612fc6565b905092915050565b6000611b2984846117d6565b90507fffffffffffffffffffffffffffffffffffffffffffffffffffffffffffffffff8114611ba35781811015611b95576040517f08c379a0000000000000000000000000000000000000000000000000000000008152600401611b8c90612e13565b60405180910390fd5b611ba284848484036118cf565b5b50505050565b600073ffffffffffffffffffffffffffffffffffffffff168373ffffffffffffffffffffffffffffffffffffffff161415611c19576040517f08c379a0000000000000000000000000000000000000000000000000000000008152600401611c1090612e73565b60405180910390fd5b600073ffffffffffffffffffffffffffffffffffffffff168273ffffffffffffffffffffffffffffffffffffffff161415611c89576040517f08c379a0000000000000000000000000000000000000000000000000000000008152600401611c8090612d73565b60405180910390fd5b611c9483838361246a565b60008060008573ffffffffffffffffffffffffffffffffffffffff1673ffffffffffffffffffffffffffffffffffffffff16815260200190815260200160002054905081811015611d1a576040517f08c379a0000000000000000000000000000000000000000000000000000000008152600401611d1190612e33565b60405180910390fd5b8181036000808673ffffffffffffffffffffffffffffffffffffffff1673ffffffffffffffffffffffffffffffffffffffff16815260200190815260200160002081905550816000808573ffffffffffffffffffffffffffffffffffffffff1673ffffffffffffffffffffffffffffffffffffffff1681526020019081526020016000206000828254611dad9190612f70565b925050819055508273ffffffffffffffffffffffffffffffffffffffff168473ffffffffffffffffffffffffffffffffffffffff167fddf252ad1be2c89b69c2b068fc378daa952ba7f163c4a11628f55a4df523b3ef84604051611e119190612f13565b60405180910390a3611e2484848461246f565b50505050565b611e3b81611e366118c7565b612474565b50565b611e488282610e60565b611f1b5760016005600084815260200190815260200160002060000160008373ffffffffffffffffffffffffffffffffffffffff1673ffffffffffffffffffffffffffffffffffffffff16815260200190815260200160002060006101000a81548160ff021916908315150217905550611ec06118c7565b73ffffffffffffffffffffffffffffffffffffffff168173ffffffffffffffffffffffffffffffffffffffff16837f2f8788117e7eff1d82e926ec794901d17c78024a50270940304540a733656f0d60405160405180910390a45b5050565b611f298282610e60565b15611ffd5760006005600084815260200190815260200160002060000160008373ffffffffffffffffffffffffffffffffffffffff1673ffffffffffffffffffffffffffffffffffffffff16815260200190815260200160002060006101000a81548160ff021916908315150217905550611fa26118c7565b73ffffffffffffffffffffffffffffffffffffffff168173ffffffffffffffffffffffffffffffffffffffff16837ff6391f5c32d9c69d2a47ea670b442974b53935d1edc7fd64eb21e047a839171b60405160405180910390a45b5050565b600073ffffffffffffffffffffffffffffffffffffffff168273ffffffffffffffffffffffffffffffffffffffff161415612071576040517f08c379a000000000000000000000000000000000000000000000000000000000815260040161206890612ef3565b60405180910390fd5b61207d6000838361246a565b806002600082825461208f9190612f70565b92505081905550806000808473ffffffffffffffffffffffffffffffffffffffff1673ffffffffffffffffffffffffffffffffffffffff16815260200190815260200160002060008282546120e49190612f70565b925050819055508173ffffffffffffffffffffffffffffffffffffffff16600073ffffffffffffffffffffffffffffffffffffffff167fddf252ad1be2c89b69c2b068fc378daa952ba7f163c4a11628f55a4df523b3ef836040516121499190612f13565b60405180910390a361215d6000838361246f565b5050565b600073ffffffffffffffffffffffffffffffffffffffff168273ffffffffffffffffffffffffffffffffffffffff1614156121d1576040517f08c379a00000000000000000000000000000000000000000000000000000000081526004016121c890612e53565b60405180910390fd5b6121dd8260008361246a565b60008060008473ffffffffffffffffffffffffffffffffffffffff1673ffffffffffffffffffffffffffffffffffffffff16815260200190815260200160002054905081811015612263576040517f08c379a000000000000000000000000000000000000000000000000000000000815260040161225a90612d93565b60405180910390fd5b8181036000808573ffffffffffffffffffffffffffffffffffffffff1673ffffffffffffffffffffffffffffffffffffffff1681526020019081526020016000208190555081600260008282546122ba9190613051565b92505081905550600073ffffffffffffffffffffffffffffffffffffffff168373ffffffffffffffffffffffffffffffffffffffff167fddf252ad1be2c89b69c2b068fc378daa952ba7f163c4a11628f55a4df523b3ef8460405161231f9190612f13565b60405180910390a36123338360008461246f565b505050565b6000670de0b6b3a764000061236a6123508585611a9a565b6002670de0b6b3a76400006123659190612fc6565b6123b8565b6123749190612fc6565b905092915050565b6000816123a661239485670de0b6b3a7640000611a9a565b6002856123a19190612fc6565b6123b8565b6123b09190612fc6565b905092915050565b60008282846123c79190612f70565b915081101561240b576040517f08c379a000000000000000000000000000000000000000000000000000000000815260040161240290612df3565b60405180910390fd5b92915050565b60008282846124209190613051565b9150811115612464576040517f08c379a000000000000000000000000000000000000000000000000000000000815260040161245b90612d33565b60405180910390fd5b92915050565b505050565b505050565b61247e8282610e60565b61250d576124a38173ffffffffffffffffffffffffffffffffffffffff166014612511565b6124b18360001c6020612511565b6040516020016124c2929190612ca1565b6040516020818303038152906040526040517f08c379a00000000000000000000000000000000000000000000000000000000081526004016125049190612d11565b60405180910390fd5b5050565b6060600060028360026125249190612ff7565b61252e9190612f70565b67ffffffffffffffff8111156125475761254661328c565b5b6040519080825280601f01601f1916602001820160405280156125795781602001600182028036833780820191505090505b5090507f3000000000000000000000000000000000000000000000000000000000000000816000815181106125b1576125b061325d565b5b60200101907effffffffffffffffffffffffffffffffffffffffffffffffffffffffffffff1916908160001a9053507f7800000000000000000000000000000000000000000000000000000000000000816001815181106126155761261461325d565b5b60200101907effffffffffffffffffffffffffffffffffffffffffffffffffffffffffffff1916908160001a905350600060018460026126559190612ff7565b61265f9190612f70565b90505b60018111156126ff577f3031323334353637383961626364656600000000000000000000000000000000600f8616601081106126a1576126a061325d565b5b1a60f81b8282815181106126b8576126b761325d565b5b60200101907effffffffffffffffffffffffffffffffffffffffffffffffffffffffffffff1916908160001a905350600485901c9450806126f890613143565b9050612662565b5060008414612743576040517f08c379a000000000000000000000000000000000000000000000000000000000815260040161273a90612d53565b60405180910390fd5b8091505092915050565b60008135905061275c816136e0565b92915050565b600081359050612771816136f7565b92915050565b6000813590506127868161370e565b92915050565b60008135905061279b81613725565b92915050565b6000602082840312156127b7576127b66132bb565b5b60006127c58482850161274d565b91505092915050565b600080604083850312156127e5576127e46132bb565b5b60006127f38582860161274d565b92505060206128048582860161274d565b9150509250929050565b600080600060608486031215612827576128266132bb565b5b60006128358682870161274d565b93505060206128468682870161274d565b92505060406128578682870161278c565b9150509250925092565b60008060408385031215612878576128776132bb565b5b60006128868582860161274d565b92505060206128978582860161278c565b9150509250929050565b6000602082840312156128b7576128b66132bb565b5b60006128c584828501612762565b91505092915050565b600080604083850312156128e5576128e46132bb565b5b60006128f385828601612762565b92505060206129048582860161274d565b9150509250929050565b600060208284031215612924576129236132bb565b5b600061293284828501612777565b91505092915050565b600060208284031215612951576129506132bb565b5b600061295f8482850161278c565b91505092915050565b6000806040838503121561297f5761297e6132bb565b5b600061298d8582860161278c565b925050602061299e8582860161278c565b9150509250929050565b6129b181613097565b82525050565b6129c0816130a3565b82525050565b60006129d182612f49565b6129db8185612f54565b93506129eb818560208601613110565b6129f4816132c0565b840191505092915050565b6000612a0a82612f49565b612a148185612f65565b9350612a24818560208601613110565b80840191505092915050565b6000612a3d601583612f54565b9150612a48826132d1565b602082019050919050565b6000612a60602083612f54565b9150612a6b826132fa565b602082019050919050565b6000612a83602383612f54565b9150612a8e82613323565b604082019050919050565b6000612aa6602283612f54565b9150612ab182613372565b604082019050919050565b6000612ac9602283612f54565b9150612ad4826133c1565b604082019050919050565b6000612aec601483612f54565b9150612af782613410565b602082019050919050565b6000612b0f601483612f54565b9150612b1a82613439565b602082019050919050565b6000612b32601d83612f54565b9150612b3d82613462565b602082019050919050565b6000612b55602683612f54565b9150612b608261348b565b604082019050919050565b6000612b78602183612f54565b9150612b83826134da565b604082019050919050565b6000612b9b602583612f54565b9150612ba682613529565b604082019050919050565b6000612bbe602483612f54565b9150612bc982613578565b604082019050919050565b6000612be1601783612f65565b9150612bec826135c7565b601782019050919050565b6000612c04602583612f54565b9150612c0f826135f0565b604082019050919050565b6000612c27601183612f65565b9150612c328261363f565b601182019050919050565b6000612c4a602f83612f54565b9150612c5582613668565b604082019050919050565b6000612c6d601f83612f54565b9150612c78826136b7565b602082019050919050565b612c8c816130f9565b82525050565b612c9b81613103565b82525050565b6000612cac82612bd4565b9150612cb882856129ff565b9150612cc382612c1a565b9150612ccf82846129ff565b91508190509392505050565b6000602082019050612cf060008301846129a8565b92915050565b6000602082019050612d0b60008301846129b7565b92915050565b60006020820190508181036000830152612d2b81846129c6565b905092915050565b60006020820190508181036000830152612d4c81612a30565b9050919050565b60006020820190508181036000830152612d6c81612a53565b9050919050565b60006020820190508181036000830152612d8c81612a76565b9050919050565b60006020820190508181036000830152612dac81612a99565b9050919050565b60006020820190508181036000830152612dcc81612abc565b9050919050565b60006020820190508181036000830152612dec81612adf565b9050919050565b60006020820190508181036000830152612e0c81612b02565b9050919050565b60006020820190508181036000830152612e2c81612b25565b9050919050565b60006020820190508181036000830152612e4c81612b48565b9050919050565b60006020820190508181036000830152612e6c81612b6b565b9050919050565b60006020820190508181036000830152612e8c81612b8e565b9050919050565b60006020820190508181036000830152612eac81612bb1565b9050919050565b60006020820190508181036000830152612ecc81612bf7565b9050919050565b60006020820190508181036000830152612eec81612c3d565b9050919050565b60006020820190508181036000830152612f0c81612c60565b9050919050565b6000602082019050612f286000830184612c83565b92915050565b6000602082019050612f436000830184612c92565b92915050565b600081519050919050565b600082825260208201905092915050565b600081905092915050565b6000612f7b826130f9565b9150612f86836130f9565b9250827fffffffffffffffffffffffffffffffffffffffffffffffffffffffffffffffff03821115612fbb57612fba6131d0565b5b828201905092915050565b6000612fd1826130f9565b9150612fdc836130f9565b925082612fec57612feb6131ff565b5b828204905092915050565b6000613002826130f9565b915061300d836130f9565b9250817fffffffffffffffffffffffffffffffffffffffffffffffffffffffffffffffff0483118215151615613046576130456131d0565b5b828202905092915050565b600061305c826130f9565b9150613067836130f9565b92508282101561307a576130796131d0565b5b828203905092915050565b6000613090826130d9565b9050919050565b60008115159050919050565b6000819050919050565b60007fffffffff0000000000000000000000000000000000000000000000000000000082169050919050565b600073ffffffffffffffffffffffffffffffffffffffff82169050919050565b6000819050919050565b600060ff82169050919050565b60005b8381101561312e578082015181840152602081019050613113565b8381111561313d576000848401525b50505050565b600061314e826130f9565b91506000821415613162576131616131d0565b5b600182039050919050565b6000600282049050600182168061318557607f821691505b602082108114156131995761319861322e565b5b50919050565b60006131aa826130f9565b91506131b5836130f9565b9250826131c5576131c46131ff565b5b828206905092915050565b7f4e487b7100000000000000000000000000000000000000000000000000000000600052601160045260246000fd5b7f4e487b7100000000000000000000000000000000000000000000000000000000600052601260045260246000fd5b7f4e487b7100000000000000000000000000000000000000000000000000000000600052602260045260246000fd5b7f4e487b7100000000000000000000000000000000000000000000000000000000600052603260045260246000fd5b7f4e487b7100000000000000000000000000000000000000000000000000000000600052604160045260246000fd5b600080fd5b6000601f19601f8301169050919050565b7f64732d6d6174682d7375622d756e646572666c6f770000000000000000000000600082015250565b7f537472696e67733a20686578206c656e67746820696e73756666696369656e74600082015250565b7f45524332303a207472616e7366657220746f20746865207a65726f206164647260008201527f6573730000000000000000000000000000000000000000000000000000000000602082015250565b7f45524332303a206275726e20616d6f756e7420657863656564732062616c616e60008201527f6365000000000000000000000000000000000000000000000000000000000000602082015250565b7f45524332303a20617070726f766520746f20746865207a65726f20616464726560008201527f7373000000000000000000000000000000000000000000000000000000000000602082015250565b7f64732d6d6174682d6d756c2d6f766572666c6f77000000000000000000000000600082015250565b7f64732d6d6174682d6164642d6f766572666c6f77000000000000000000000000600082015250565b7f45524332303a20696e73756666696369656e7420616c6c6f77616e6365000000600082015250565b7f45524332303a207472616e7366657220616d6f756e742065786365656473206260008201527f616c616e63650000000000000000000000000000000000000000000000000000602082015250565b7f45524332303a206275726e2066726f6d20746865207a65726f2061646472657360008201527f7300000000000000000000000000000000000000000000000000000000000000602082015250565b7f45524332303a207472616e736665722066726f6d20746865207a65726f20616460008201527f6472657373000000000000000000000000000000000000000000000000000000602082015250565b7f45524332303a20617070726f76652066726f6d20746865207a65726f2061646460008201527f7265737300000000000000000000000000000000000000000000000000000000602082015250565b7f416363657373436f6e74726f6c3a206163636f756e7420000000000000000000600082015250565b7f45524332303a2064656372656173656420616c6c6f77616e63652062656c6f7760008201527f207a65726f000000000000000000000000000000000000000000000000000000602082015250565b7f206973206d697373696e6720726f6c6520000000000000000000000000000000600082015250565b7f416363657373436f6e74726f6c3a2063616e206f6e6c792072656e6f756e636560008201527f20726f6c657320666f722073656c660000000000000000000000000000000000602082015250565b7f45524332303a206d696e7420746f20746865207a65726f206164647265737300600082015250565b6136e981613085565b81146136f457600080fd5b50565b613700816130a3565b811461370b57600080fd5b50565b613717816130ad565b811461372257600080fd5b50565b61372e816130f9565b811461373957600080fd5b5056fea2646970667358221220c73db95c09ad924f8ecf2a9f53b50ca151fbc7d7474bb0fbbd49e4f7c69a8fe064736f6c63430008070033",
  "immutableReferences": {},
  "source": "// SPDX-License-Identifier: MIT\npragma solidity ^0.8.7;\nimport \"@openzeppelin/contracts/utils/math/SafeMath.sol\";\nimport \"@openzeppelin/contracts/token/ERC20/ERC20.sol\";\nimport \"@openzeppelin/contracts/token/ERC20/extensions/ERC20Burnable.sol\";\nimport \"@openzeppelin/contracts/access/AccessControl.sol\";\nimport \"../Credit/Token_shots.sol\";\n\n\ncontract Zeno is ERC20, ERC20Burnable, AccessControl,TaxCollector{\nusing SafeMath for uint256;\n//\n\n\nfunction sqrt(uint x) public returns (uint y) {\n    uint z = (x + 1) / 2;\n    y = x;\n    while (z < y) {\n        y = z;\n        z = (x / z + z) / 2;\n    }\n}\n//\n\n//\n  //\n    bytes32 public constant MINTER_ROLE = keccak256(\"MINTER_ROLE\");\n\n    constructor(address loaner) ERC20(\"Zeno\", \"Zn\") {\n        _grantRole(DEFAULT_ADMIN_ROLE, msg.sender);\n        _grantRole(MINTER_ROLE, loaner);\n    }\n\n     mapping(address => uint) c_sum;\n     mapping(address => uint) timestamp;\n     uint256 k=30;\n     function GetSum(address account) public returns(uint256)\n     {\n       return c_sum[account];\n     }\n    function mint(address to, uint256 amount) public onlyRole(MINTER_ROLE) {\n      UpdateAR(to);\n       c_sum[to]+=wsqrt(mul(AccRate.credearning[to],wsqrt(balanceOf(to)))).div(k);\n\n        _mint(to, amount);\n\n    }\n\n    function burn(uint amount) public override {\n  UpdateAR(msg.sender);\n    c_sum[msg.sender]+=wsqrt(mul(AccRate.credearning[msg.sender],wsqrt(balanceOf(msg.sender)))).div(k);\n\n    _burn(msg.sender,amount);\n\n    }\n    function burnFrom(address account, uint256 amount) override public virtual {\n      UpdateAR(account);\n       c_sum[account]+=wsqrt(mul(AccRate.credearning[account],wsqrt(balanceOf(account)))).div(k);\n\n        _spendAllowance(account, _msgSender(), amount);\n        _burn(account, amount);\n\n    }\n    function transfer(address to, uint256 amount) public virtual override returns (bool) {\n    UpdateAR(msg.sender,to);\n        c_sum[to]+=wsqrt(mul(AccRate.credearning[to],sqrt(balanceOf(to)))).div(k);\n        c_sum[msg.sender]+=wsqrt(mul(AccRate.credearning[msg.sender],wsqrt(balanceOf(to)))).div(k);\n        address owner = _msgSender();\n        _transfer(owner, to, amount);\n        return true;\n    }\n    function transferFrom(\n        address from,\n        address to,\n        uint256 amount\n    ) public override returns (bool) {\n      UpdateAR(from,to);\n        c_sum[to]+=wsqrt(mul(AccRate.credearning[to],wsqrt(balanceOf(to)))).div(k);\n        c_sum[from]+=wsqrt(mul(AccRate.credearning[from],wsqrt(balanceOf(to)))).div(k);\n\n            address spender = _msgSender();\n            _spendAllowance(from, spender, amount);\n            _transfer(from, to, amount);\n        return true;\n    }\n    //\n    function redeem() public returns(bool){\n      require(Primary[msg.sender]!=0);\n      require(block.timestamp-timestamp[msg.sender]>1260);\n      cred[Primary[msg.sender]].creditsc_c+=c_sum[msg.sender];\n      c_sum[msg.sender]=0;\n      timestamp[msg.sender]=block.timestamp;\n    }\n}\n",
  "sourcePath": "/Users/vibhu/node_manager/node_modules/Solidity/Zeno/contracts/Token/ERC20.sol",
  "compiler": {
    "name": "solc",
    "version": "0.8.7+commit.e28d00a7.Emscripten.clang"
  },
  "schemaVersion": "3.4.7",
  "updatedAt": "2022-05-15T04:02:21.965Z",
  "networkType": "ethereum",
  "devdoc": {
    "kind": "dev",
    "methods": {
      "allowance(address,address)": {
        "details": "See {IERC20-allowance}."
      },
      "approve(address,uint256)": {
        "details": "See {IERC20-approve}. NOTE: If `amount` is the maximum `uint256`, the allowance is not updated on `transferFrom`. This is semantically equivalent to an infinite approval. Requirements: - `spender` cannot be the zero address."
      },
      "balanceOf(address)": {
        "details": "See {IERC20-balanceOf}."
      },
      "burn(uint256)": {
        "details": "Destroys `amount` tokens from the caller. See {ERC20-_burn}."
      },
      "burnFrom(address,uint256)": {
        "details": "Destroys `amount` tokens from `account`, deducting from the caller's allowance. See {ERC20-_burn} and {ERC20-allowance}. Requirements: - the caller must have allowance for ``accounts``'s tokens of at least `amount`."
      },
      "decimals()": {
        "details": "Returns the number of decimals used to get its user representation. For example, if `decimals` equals `2`, a balance of `505` tokens should be displayed to a user as `5.05` (`505 / 10 ** 2`). Tokens usually opt for a value of 18, imitating the relationship between Ether and Wei. This is the value {ERC20} uses, unless this function is overridden; NOTE: This information is only used for _display_ purposes: it in no way affects any of the arithmetic of the contract, including {IERC20-balanceOf} and {IERC20-transfer}."
      },
      "decreaseAllowance(address,uint256)": {
        "details": "Atomically decreases the allowance granted to `spender` by the caller. This is an alternative to {approve} that can be used as a mitigation for problems described in {IERC20-approve}. Emits an {Approval} event indicating the updated allowance. Requirements: - `spender` cannot be the zero address. - `spender` must have allowance for the caller of at least `subtractedValue`."
      },
      "getRoleAdmin(bytes32)": {
        "details": "Returns the admin role that controls `role`. See {grantRole} and {revokeRole}. To change a role's admin, use {_setRoleAdmin}."
      },
      "grantRole(bytes32,address)": {
        "details": "Grants `role` to `account`. If `account` had not been already granted `role`, emits a {RoleGranted} event. Requirements: - the caller must have ``role``'s admin role."
      },
      "hasRole(bytes32,address)": {
        "details": "Returns `true` if `account` has been granted `role`."
      },
      "increaseAllowance(address,uint256)": {
        "details": "Atomically increases the allowance granted to `spender` by the caller. This is an alternative to {approve} that can be used as a mitigation for problems described in {IERC20-approve}. Emits an {Approval} event indicating the updated allowance. Requirements: - `spender` cannot be the zero address."
      },
      "name()": {
        "details": "Returns the name of the token."
      },
      "renounceRole(bytes32,address)": {
        "details": "Revokes `role` from the calling account. Roles are often managed via {grantRole} and {revokeRole}: this function's purpose is to provide a mechanism for accounts to lose their privileges if they are compromised (such as when a trusted device is misplaced). If the calling account had been revoked `role`, emits a {RoleRevoked} event. Requirements: - the caller must be `account`."
      },
      "revokeRole(bytes32,address)": {
        "details": "Revokes `role` from `account`. If `account` had been granted `role`, emits a {RoleRevoked} event. Requirements: - the caller must have ``role``'s admin role."
      },
      "supportsInterface(bytes4)": {
        "details": "See {IERC165-supportsInterface}."
      },
      "symbol()": {
        "details": "Returns the symbol of the token, usually a shorter version of the name."
      },
      "totalSupply()": {
        "details": "See {IERC20-totalSupply}."
      },
      "transfer(address,uint256)": {
        "details": "See {IERC20-transfer}. Requirements: - `to` cannot be the zero address. - the caller must have a balance of at least `amount`."
      },
      "transferFrom(address,address,uint256)": {
        "details": "See {IERC20-transferFrom}. Emits an {Approval} event indicating the updated allowance. This is not required by the EIP. See the note at the beginning of {ERC20}. NOTE: Does not update the allowance if the current allowance is the maximum `uint256`. Requirements: - `from` and `to` cannot be the zero address. - `from` must have a balance of at least `amount`. - the caller must have allowance for ``from``'s tokens of at least `amount`."
      }
    },
    "version": 1
  },
  "userdoc": {
    "kind": "user",
    "methods": {},
    "version": 1
  }
}