{
  "contractName": "Zeno",
  "abi": [
    {
      "inputs": [],
      "stateMutability": "nonpayable",
      "type": "constructor"
    },
    {
      "anonymous": false,
      "inputs": [
        {
          "indexed": true,
          "internalType": "address",
          "name": "owner",
          "type": "address"
        },
        {
          "indexed": true,
          "internalType": "address",
          "name": "spender",
          "type": "address"
        },
        {
          "indexed": false,
          "internalType": "uint256",
          "name": "value",
          "type": "uint256"
        }
      ],
      "name": "Approval",
      "type": "event"
    },
    {
      "anonymous": false,
      "inputs": [
        {
          "indexed": true,
          "internalType": "bytes32",
          "name": "role",
          "type": "bytes32"
        },
        {
          "indexed": true,
          "internalType": "bytes32",
          "name": "previousAdminRole",
          "type": "bytes32"
        },
        {
          "indexed": true,
          "internalType": "bytes32",
          "name": "newAdminRole",
          "type": "bytes32"
        }
      ],
      "name": "RoleAdminChanged",
      "type": "event"
    },
    {
      "anonymous": false,
      "inputs": [
        {
          "indexed": true,
          "internalType": "bytes32",
          "name": "role",
          "type": "bytes32"
        },
        {
          "indexed": true,
          "internalType": "address",
          "name": "account",
          "type": "address"
        },
        {
          "indexed": true,
          "internalType": "address",
          "name": "sender",
          "type": "address"
        }
      ],
      "name": "RoleGranted",
      "type": "event"
    },
    {
      "anonymous": false,
      "inputs": [
        {
          "indexed": true,
          "internalType": "bytes32",
          "name": "role",
          "type": "bytes32"
        },
        {
          "indexed": true,
          "internalType": "address",
          "name": "account",
          "type": "address"
        },
        {
          "indexed": true,
          "internalType": "address",
          "name": "sender",
          "type": "address"
        }
      ],
      "name": "RoleRevoked",
      "type": "event"
    },
    {
      "anonymous": false,
      "inputs": [
        {
          "indexed": true,
          "internalType": "address",
          "name": "from",
          "type": "address"
        },
        {
          "indexed": true,
          "internalType": "address",
          "name": "to",
          "type": "address"
        },
        {
          "indexed": false,
          "internalType": "uint256",
          "name": "value",
          "type": "uint256"
        }
      ],
      "name": "Transfer",
      "type": "event"
    },
    {
      "inputs": [],
      "name": "DEFAULT_ADMIN_ROLE",
      "outputs": [
        {
          "internalType": "bytes32",
          "name": "",
          "type": "bytes32"
        }
      ],
      "stateMutability": "view",
      "type": "function"
    },
    {
      "inputs": [],
      "name": "MINTER_ROLE",
      "outputs": [
        {
          "internalType": "bytes32",
          "name": "",
          "type": "bytes32"
        }
      ],
      "stateMutability": "view",
      "type": "function"
    },
    {
      "inputs": [
        {
          "internalType": "address",
          "name": "msg_sender",
          "type": "address"
        }
      ],
      "name": "UpdateAR",
      "outputs": [],
      "stateMutability": "nonpayable",
      "type": "function"
    },
    {
      "inputs": [
        {
          "internalType": "address",
          "name": "msg_sender",
          "type": "address"
        },
        {
          "internalType": "address",
          "name": "to",
          "type": "address"
        }
      ],
      "name": "UpdateAR",
      "outputs": [
        {
          "internalType": "bool",
          "name": "",
          "type": "bool"
        }
      ],
      "stateMutability": "nonpayable",
      "type": "function"
    },
    {
      "inputs": [
        {
          "internalType": "address",
          "name": "owner",
          "type": "address"
        },
        {
          "internalType": "address",
          "name": "spender",
          "type": "address"
        }
      ],
      "name": "allowance",
      "outputs": [
        {
          "internalType": "uint256",
          "name": "",
          "type": "uint256"
        }
      ],
      "stateMutability": "view",
      "type": "function"
    },
    {
      "inputs": [
        {
          "internalType": "address",
          "name": "spender",
          "type": "address"
        },
        {
          "internalType": "uint256",
          "name": "amount",
          "type": "uint256"
        }
      ],
      "name": "approve",
      "outputs": [
        {
          "internalType": "bool",
          "name": "",
          "type": "bool"
        }
      ],
      "stateMutability": "nonpayable",
      "type": "function"
    },
    {
      "inputs": [
        {
          "internalType": "address",
          "name": "account",
          "type": "address"
        }
      ],
      "name": "balanceOf",
      "outputs": [
        {
          "internalType": "uint256",
          "name": "",
          "type": "uint256"
        }
      ],
      "stateMutability": "view",
      "type": "function"
    },
    {
      "inputs": [],
      "name": "decimals",
      "outputs": [
        {
          "internalType": "uint8",
          "name": "",
          "type": "uint8"
        }
      ],
      "stateMutability": "view",
      "type": "function"
    },
    {
      "inputs": [
        {
          "internalType": "address",
          "name": "spender",
          "type": "address"
        },
        {
          "internalType": "uint256",
          "name": "subtractedValue",
          "type": "uint256"
        }
      ],
      "name": "decreaseAllowance",
      "outputs": [
        {
          "internalType": "bool",
          "name": "",
          "type": "bool"
        }
      ],
      "stateMutability": "nonpayable",
      "type": "function"
    },
    {
      "inputs": [
        {
          "internalType": "bytes32",
          "name": "role",
          "type": "bytes32"
        }
      ],
      "name": "getRoleAdmin",
      "outputs": [
        {
          "internalType": "bytes32",
          "name": "",
          "type": "bytes32"
        }
      ],
      "stateMutability": "view",
      "type": "function"
    },
    {
      "inputs": [
        {
          "internalType": "bytes32",
          "name": "role",
          "type": "bytes32"
        },
        {
          "internalType": "address",
          "name": "account",
          "type": "address"
        }
      ],
      "name": "grantRole",
      "outputs": [],
      "stateMutability": "nonpayable",
      "type": "function"
    },
    {
      "inputs": [
        {
          "internalType": "bytes32",
          "name": "role",
          "type": "bytes32"
        },
        {
          "internalType": "address",
          "name": "account",
          "type": "address"
        }
      ],
      "name": "hasRole",
      "outputs": [
        {
          "internalType": "bool",
          "name": "",
          "type": "bool"
        }
      ],
      "stateMutability": "view",
      "type": "function"
    },
    {
      "inputs": [
        {
          "internalType": "address",
          "name": "spender",
          "type": "address"
        },
        {
          "internalType": "uint256",
          "name": "addedValue",
          "type": "uint256"
        }
      ],
      "name": "increaseAllowance",
      "outputs": [
        {
          "internalType": "bool",
          "name": "",
          "type": "bool"
        }
      ],
      "stateMutability": "nonpayable",
      "type": "function"
    },
    {
      "inputs": [],
      "name": "name",
      "outputs": [
        {
          "internalType": "string",
          "name": "",
          "type": "string"
        }
      ],
      "stateMutability": "view",
      "type": "function"
    },
    {
      "inputs": [
        {
          "internalType": "bytes32",
          "name": "role",
          "type": "bytes32"
        },
        {
          "internalType": "address",
          "name": "account",
          "type": "address"
        }
      ],
      "name": "renounceRole",
      "outputs": [],
      "stateMutability": "nonpayable",
      "type": "function"
    },
    {
      "inputs": [
        {
          "internalType": "bytes32",
          "name": "role",
          "type": "bytes32"
        },
        {
          "internalType": "address",
          "name": "account",
          "type": "address"
        }
      ],
      "name": "revokeRole",
      "outputs": [],
      "stateMutability": "nonpayable",
      "type": "function"
    },
    {
      "inputs": [
        {
          "internalType": "bytes4",
          "name": "interfaceId",
          "type": "bytes4"
        }
      ],
      "name": "supportsInterface",
      "outputs": [
        {
          "internalType": "bool",
          "name": "",
          "type": "bool"
        }
      ],
      "stateMutability": "view",
      "type": "function"
    },
    {
      "inputs": [],
      "name": "symbol",
      "outputs": [
        {
          "internalType": "string",
          "name": "",
          "type": "string"
        }
      ],
      "stateMutability": "view",
      "type": "function"
    },
    {
      "inputs": [],
      "name": "totalSupply",
      "outputs": [
        {
          "internalType": "uint256",
          "name": "",
          "type": "uint256"
        }
      ],
      "stateMutability": "view",
      "type": "function"
    },
    {
      "inputs": [
        {
          "internalType": "uint256",
          "name": "x",
          "type": "uint256"
        },
        {
          "internalType": "uint256",
          "name": "n",
          "type": "uint256"
        }
      ],
      "name": "wpow",
      "outputs": [
        {
          "internalType": "uint256",
          "name": "z",
          "type": "uint256"
        }
      ],
      "stateMutability": "pure",
      "type": "function"
    },
    {
      "inputs": [
        {
          "internalType": "uint256",
          "name": "x",
          "type": "uint256"
        }
      ],
      "name": "wsqrt",
      "outputs": [
        {
          "internalType": "uint256",
          "name": "y",
          "type": "uint256"
        }
      ],
      "stateMutability": "pure",
      "type": "function"
    },
    {
      "inputs": [
        {
          "internalType": "address",
          "name": "loaner",
          "type": "address"
        }
      ],
      "name": "Initialise_Loaner",
      "outputs": [],
      "stateMutability": "nonpayable",
      "type": "function"
    },
    {
      "inputs": [
        {
          "internalType": "address",
          "name": "account",
          "type": "address"
        }
      ],
      "name": "GetSum",
      "outputs": [
        {
          "internalType": "uint256",
          "name": "",
          "type": "uint256"
        }
      ],
      "stateMutability": "view",
      "type": "function"
    },
    {
      "inputs": [
        {
          "internalType": "address",
          "name": "to",
          "type": "address"
        },
        {
          "internalType": "uint256",
          "name": "amount",
          "type": "uint256"
        }
      ],
      "name": "mint",
      "outputs": [],
      "stateMutability": "nonpayable",
      "type": "function"
    },
    {
      "inputs": [
        {
          "internalType": "uint256",
          "name": "amount",
          "type": "uint256"
        }
      ],
      "name": "burn",
      "outputs": [],
      "stateMutability": "nonpayable",
      "type": "function"
    },
    {
      "inputs": [
        {
          "internalType": "address",
          "name": "account",
          "type": "address"
        },
        {
          "internalType": "uint256",
          "name": "amount",
          "type": "uint256"
        }
      ],
      "name": "burnFrom",
      "outputs": [],
      "stateMutability": "nonpayable",
      "type": "function"
    },
    {
      "inputs": [
        {
          "internalType": "address",
          "name": "to",
          "type": "address"
        },
        {
          "internalType": "uint256",
          "name": "amount",
          "type": "uint256"
        }
      ],
      "name": "transfer",
      "outputs": [
        {
          "internalType": "bool",
          "name": "",
          "type": "bool"
        }
      ],
      "stateMutability": "nonpayable",
      "type": "function"
    },
    {
      "inputs": [
        {
          "internalType": "address",
          "name": "from",
          "type": "address"
        },
        {
          "internalType": "address",
          "name": "to",
          "type": "address"
        },
        {
          "internalType": "uint256",
          "name": "amount",
          "type": "uint256"
        }
      ],
      "name": "transferFrom",
      "outputs": [
        {
          "internalType": "bool",
          "name": "",
          "type": "bool"
        }
      ],
      "stateMutability": "nonpayable",
      "type": "function"
    },
    {
      "inputs": [],
      "name": "redeem",
      "outputs": [
        {
          "internalType": "bool",
          "name": "",
          "type": "bool"
        }
      ],
      "stateMutability": "nonpayable",
      "type": "function"
    }
  ],
  "bytecode": "0x6080604052670de0b6b3a7640000600655601e6010553480156200002257600080fd5b506040518060400160405280600481526020017f5a656e6f000000000000000000000000000000000000000000000000000000008152506040518060400160405280600281526020017f5a6e0000000000000000000000000000000000000000000000000000000000008152508160039080519060200190620000a79291906200028a565b508060049080519060200190620000c09291906200028a565b505050600160076006018190555042600760030181905550620000ed6000801b336200012560201b60201c565b6200011f7f9f2df0fed2c77648de5860a4cc508cd0818c85b8b8a1ab4ceeef8d981c8956a6336200012560201b60201c565b6200039f565b6200013782826200021760201b60201c565b620002135760016005600084815260200190815260200160002060000160008373ffffffffffffffffffffffffffffffffffffffff1673ffffffffffffffffffffffffffffffffffffffff16815260200190815260200160002060006101000a81548160ff021916908315150217905550620001b86200028260201b60201c565b73ffffffffffffffffffffffffffffffffffffffff168173ffffffffffffffffffffffffffffffffffffffff16837f2f8788117e7eff1d82e926ec794901d17c78024a50270940304540a733656f0d60405160405180910390a45b5050565b60006005600084815260200190815260200160002060000160008373ffffffffffffffffffffffffffffffffffffffff1673ffffffffffffffffffffffffffffffffffffffff16815260200190815260200160002060009054906101000a900460ff16905092915050565b600033905090565b82805462000298906200033a565b90600052602060002090601f016020900481019282620002bc576000855562000308565b82601f10620002d757805160ff191683800117855562000308565b8280016001018555821562000308579182015b8281111562000307578251825591602001919060010190620002ea565b5b5090506200031791906200031b565b5090565b5b80821115620003365760008160009055506001016200031c565b5090565b600060028204905060018216806200035357607f821691505b602082108114156200036a576200036962000370565b5b50919050565b7f4e487b7100000000000000000000000000000000000000000000000000000000600052602260045260246000fd5b6138d780620003af6000396000f3fe608060405234801561001057600080fd5b50600436106101cf5760003560e01c806379cc679011610104578063a457c2d7116100a2578063cba3f53c11610071578063cba3f53c1461058c578063d5391393146105bc578063d547741f146105da578063dd62ed3e146105f6576101cf565b8063a457c2d7146104f2578063a77eb12914610522578063a9059cbb1461053e578063be040fb01461056e576101cf565b806393eb1cce116100de57806393eb1cce1461045657806395d89b4114610486578063a217fddf146104a4578063a383292a146104c2576101cf565b806379cc6790146103ee57806385166a051461040a57806391d1485414610426576101cf565b8063313ce5671161017157806340c10f191161014b57806340c10f191461035657806342966c6814610372578063672f8e4f1461038e57806370a08231146103be576101cf565b8063313ce567146102ec57806336568abe1461030a5780633950935114610326576101cf565b806318160ddd116101ad57806318160ddd1461025257806323b872dd14610270578063248a9ca3146102a05780632f2ff15d146102d0576101cf565b806301ffc9a7146101d457806306fdde0314610204578063095ea7b314610222575b600080fd5b6101ee60048036038101906101e991906129f3565b610626565b6040516101fb9190612e40565b60405180910390f35b61020c6106a0565b6040516102199190612e76565b60405180910390f35b61023c60048036038101906102379190612946565b610732565b6040516102499190612e40565b60405180910390f35b61025a610755565b6040516102679190613078565b60405180910390f35b61028a600480360381019061028591906128f3565b61075f565b6040516102979190612e40565b60405180910390f35b6102ba60048036038101906102b59190612986565b610934565b6040516102c79190612e5b565b60405180910390f35b6102ea60048036038101906102e591906129b3565b610954565b005b6102f4610975565b6040516103019190613093565b60405180910390f35b610324600480360381019061031f91906129b3565b61097e565b005b610340600480360381019061033b9190612946565b610a01565b60405161034d9190612e40565b60405180910390f35b610370600480360381019061036b9190612946565b610a38565b005b61038c60048036038101906103879190612a20565b610b7d565b005b6103a860048036038101906103a39190612a7a565b610c60565b6040516103b59190613078565b60405180910390f35b6103d860048036038101906103d39190612886565b610ce7565b6040516103e59190613078565b60405180910390f35b61040860048036038101906104039190612946565b610d2f565b005b610424600480360381019061041f9190612886565b610e25565b005b610440600480360381019061043b91906129b3565b610ea1565b60405161044d9190612e40565b60405180910390f35b610470600480360381019061046b9190612a20565b610f0c565b60405161047d9190613078565b60405180910390f35b61048e610f67565b60405161049b9190612e76565b60405180910390f35b6104ac610ff9565b6040516104b99190612e5b565b60405180910390f35b6104dc60048036038101906104d79190612886565b611000565b6040516104e99190613078565b60405180910390f35b61050c60048036038101906105079190612946565b611049565b6040516105199190612e40565b60405180910390f35b61053c60048036038101906105379190612886565b6110c0565b005b61055860048036038101906105539190612946565b611200565b6040516105659190612e40565b60405180910390f35b6105766113c9565b6040516105839190612e40565b60405180910390f35b6105a660048036038101906105a191906128b3565b611637565b6040516105b39190612e40565b60405180910390f35b6105c4611861565b6040516105d19190612e5b565b60405180910390f35b6105f460048036038101906105ef91906129b3565b611885565b005b610610600480360381019061060b91906128b3565b6118a6565b60405161061d9190613078565b60405180910390f35b60007f7965db0b000000000000000000000000000000000000000000000000000000007bffffffffffffffffffffffffffffffffffffffffffffffffffffffff1916827bffffffffffffffffffffffffffffffffffffffffffffffffffffffff1916148061069957506106988261192d565b5b9050919050565b6060600380546106af906132d2565b80601f01602080910402602001604051908101604052809291908181526020018280546106db906132d2565b80156107285780601f106106fd57610100808354040283529160200191610728565b820191906000526020600020905b81548152906001019060200180831161070b57829003601f168201915b5050505050905090565b60008061073d611997565b905061074a81858561199f565b600191505092915050565b6000600254905090565b600061076b8484611637565b506107e46010546107d66107d1600760000160008873ffffffffffffffffffffffffffffffffffffffff1673ffffffffffffffffffffffffffffffffffffffff168152602001908152602001600020546107cc6107c789610ce7565b610f0c565b611b6a565b610f0c565b611bd790919063ffffffff16565b600e60008573ffffffffffffffffffffffffffffffffffffffff1673ffffffffffffffffffffffffffffffffffffffff168152602001908152602001600020600082825461083291906130d5565b925050819055506108b16010546108a361089e600760000160008973ffffffffffffffffffffffffffffffffffffffff1673ffffffffffffffffffffffffffffffffffffffff1681526020019081526020016000205461089961089489610ce7565b610f0c565b611b6a565b610f0c565b611bd790919063ffffffff16565b600e60008673ffffffffffffffffffffffffffffffffffffffff1673ffffffffffffffffffffffffffffffffffffffff16815260200190815260200160002060008282546108ff91906130d5565b925050819055506000610910611997565b905061091d858285611bed565b610928858585611c79565b60019150509392505050565b600060056000838152602001908152602001600020600101549050919050565b61095d82610934565b61096681611efa565b6109708383611f0e565b505050565b60006012905090565b610986611997565b73ffffffffffffffffffffffffffffffffffffffff168173ffffffffffffffffffffffffffffffffffffffff16146109f3576040517f08c379a00000000000000000000000000000000000000000000000000000000081526004016109ea90613038565b60405180910390fd5b6109fd8282611fef565b5050565b600080610a0c611997565b9050610a2d818585610a1e85896118a6565b610a2891906130d5565b61199f565b600191505092915050565b7f9f2df0fed2c77648de5860a4cc508cd0818c85b8b8a1ab4ceeef8d981c8956a6610a6281611efa565b610a6b836110c0565b610b2b600e60008573ffffffffffffffffffffffffffffffffffffffff1673ffffffffffffffffffffffffffffffffffffffff16815260200190815260200160002054610b26601054610b18610b13600760000160008a73ffffffffffffffffffffffffffffffffffffffff1673ffffffffffffffffffffffffffffffffffffffff16815260200190815260200160002054610b0e610b098b610ce7565b610f0c565b611b6a565b610f0c565b611bd790919063ffffffff16565b6120d1565b600e60008573ffffffffffffffffffffffffffffffffffffffff1673ffffffffffffffffffffffffffffffffffffffff16815260200190815260200160002081905550610b78838361212a565b505050565b610b86336110c0565b610bfe601054610bf0610beb600760000160003373ffffffffffffffffffffffffffffffffffffffff1673ffffffffffffffffffffffffffffffffffffffff16815260200190815260200160002054610be6610be133610ce7565b610f0c565b611b6a565b610f0c565b611bd790919063ffffffff16565b600e60003373ffffffffffffffffffffffffffffffffffffffff1673ffffffffffffffffffffffffffffffffffffffff1681526020019081526020016000206000828254610c4c91906130d5565b92505081905550610c5d338261228a565b50565b600080600283610c709190613304565b1415610c8457670de0b6b3a7640000610c86565b825b9050600282610c95919061312b565b91505b60008214610ce157610caa8384612461565b92506000600283610cbb9190613304565b14610ccd57610cca8184612461565b90505b600282610cda919061312b565b9150610c98565b92915050565b60008060008373ffffffffffffffffffffffffffffffffffffffff1673ffffffffffffffffffffffffffffffffffffffff168152602001908152602001600020549050919050565b610d38826110c0565b610db0601054610da2610d9d600760000160008773ffffffffffffffffffffffffffffffffffffffff1673ffffffffffffffffffffffffffffffffffffffff16815260200190815260200160002054610d98610d9388610ce7565b610f0c565b611b6a565b610f0c565b611bd790919063ffffffff16565b600e60008473ffffffffffffffffffffffffffffffffffffffff1673ffffffffffffffffffffffffffffffffffffffff1681526020019081526020016000206000828254610dfe91906130d5565b92505081905550610e1782610e11611997565b83611bed565b610e21828261228a565b5050565b6000801b610e3281611efa565b81601160006101000a81548173ffffffffffffffffffffffffffffffffffffffff021916908373ffffffffffffffffffffffffffffffffffffffff160217905550610e9d7f9f2df0fed2c77648de5860a4cc508cd0818c85b8b8a1ab4ceeef8d981c8956a683611f0e565b5050565b60006005600084815260200190815260200160002060000160008373ffffffffffffffffffffffffffffffffffffffff1673ffffffffffffffffffffffffffffffffffffffff16815260200190815260200160002060009054906101000a900460ff16905092915050565b6000806002600184610f1e91906130d5565b610f28919061312b565b90508291505b81811015610f6157809150600281610f4685846124a5565b610f5091906130d5565b610f5a919061312b565b9050610f2e565b50919050565b606060048054610f76906132d2565b80601f0160208091040260200160405190810160405280929190818152602001828054610fa2906132d2565b8015610fef5780601f10610fc457610100808354040283529160200191610fef565b820191906000526020600020905b815481529060010190602001808311610fd257829003601f168201915b5050505050905090565b6000801b81565b6000600e60008373ffffffffffffffffffffffffffffffffffffffff1673ffffffffffffffffffffffffffffffffffffffff168152602001908152602001600020549050919050565b600080611054611997565b9050600061106282866118a6565b9050838110156110a7576040517f08c379a000000000000000000000000000000000000000000000000000000000815260040161109e90613018565b60405180910390fd5b6110b4828686840361199f565b60019250505092915050565b6110f86007600201546110f36007600601546006546110df91906130d5565b6110ee426007600301546124e1565b610c60565b6120d1565b6007600501819055504260076003018190555060076005015460076002018190555061116b600760050154600760010160008473ffffffffffffffffffffffffffffffffffffffff1673ffffffffffffffffffffffffffffffffffffffff168152602001908152602001600020546124e1565b600760000160008373ffffffffffffffffffffffffffffffffffffffff1673ffffffffffffffffffffffffffffffffffffffff16815260200190815260200160002081905550600760050154600760010160008373ffffffffffffffffffffffffffffffffffffffff1673ffffffffffffffffffffffffffffffffffffffff1681526020019081526020016000208190555050565b600061120c3384611637565b50611285601054611277611272600760000160008873ffffffffffffffffffffffffffffffffffffffff1673ffffffffffffffffffffffffffffffffffffffff1681526020019081526020016000205461126d61126889610ce7565b610f0c565b611b6a565b610f0c565b611bd790919063ffffffff16565b600e60008573ffffffffffffffffffffffffffffffffffffffff1673ffffffffffffffffffffffffffffffffffffffff16815260200190815260200160002060008282546112d391906130d5565b9250508190555061135260105461134461133f600760000160003373ffffffffffffffffffffffffffffffffffffffff1673ffffffffffffffffffffffffffffffffffffffff1681526020019081526020016000205461133a61133589610ce7565b610f0c565b611b6a565b610f0c565b611bd790919063ffffffff16565b600e60003373ffffffffffffffffffffffffffffffffffffffff1673ffffffffffffffffffffffffffffffffffffffff16815260200190815260200160002060008282546113a091906130d5565b9250508190555060006113b1611997565b90506113be818585611c79565b600191505092915050565b600080601160009054906101000a900473ffffffffffffffffffffffffffffffffffffffff1673ffffffffffffffffffffffffffffffffffffffff16633bee7e7a336040518263ffffffff1660e01b81526004016114279190612dfc565b60206040518083038186803b15801561143f57600080fd5b505afa158015611453573d6000803e3d6000fd5b505050506040513d601f19601f820116820180604052508101906114779190612a4d565b1161148157600080fd5b6104ec600f60003373ffffffffffffffffffffffffffffffffffffffff1673ffffffffffffffffffffffffffffffffffffffff16815260200190815260200160002054426114cf91906131b6565b116114d957600080fd5b42600f60003373ffffffffffffffffffffffffffffffffffffffff1673ffffffffffffffffffffffffffffffffffffffff16815260200190815260200160002081905550601160009054906101000a900473ffffffffffffffffffffffffffffffffffffffff1673ffffffffffffffffffffffffffffffffffffffff16632414f2f133600e60003373ffffffffffffffffffffffffffffffffffffffff1673ffffffffffffffffffffffffffffffffffffffff168152602001908152602001600020546040518363ffffffff1660e01b81526004016115b9929190612e17565b600060405180830381600087803b1580156115d357600080fd5b505af11580156115e7573d6000803e3d6000fd5b505050506000600e60003373ffffffffffffffffffffffffffffffffffffffff1673ffffffffffffffffffffffffffffffffffffffff168152602001908152602001600020819055506001905090565b600061166f60076002015461166a6116566006546007600601546120d1565b611665426007600301546124e1565b610c60565b6120d1565b600760050181905550426007600301819055506007600501546007600201819055506116e2600760050154600760010160008673ffffffffffffffffffffffffffffffffffffffff1673ffffffffffffffffffffffffffffffffffffffff168152602001908152602001600020546124e1565b600760000160008573ffffffffffffffffffffffffffffffffffffffff1673ffffffffffffffffffffffffffffffffffffffff16815260200190815260200160002081905550611779600760050154600760010160008573ffffffffffffffffffffffffffffffffffffffff1673ffffffffffffffffffffffffffffffffffffffff168152602001908152602001600020546124e1565b600760000160008473ffffffffffffffffffffffffffffffffffffffff1673ffffffffffffffffffffffffffffffffffffffff16815260200190815260200160002081905550600760050154600760010160008573ffffffffffffffffffffffffffffffffffffffff1673ffffffffffffffffffffffffffffffffffffffff16815260200190815260200160002081905550600760050154600760010160008473ffffffffffffffffffffffffffffffffffffffff1673ffffffffffffffffffffffffffffffffffffffff168152602001908152602001600020819055506001905092915050565b7f9f2df0fed2c77648de5860a4cc508cd0818c85b8b8a1ab4ceeef8d981c8956a681565b61188e82610934565b61189781611efa565b6118a18383611fef565b505050565b6000600160008473ffffffffffffffffffffffffffffffffffffffff1673ffffffffffffffffffffffffffffffffffffffff16815260200190815260200160002060008373ffffffffffffffffffffffffffffffffffffffff1673ffffffffffffffffffffffffffffffffffffffff16815260200190815260200160002054905092915050565b60007f01ffc9a7000000000000000000000000000000000000000000000000000000007bffffffffffffffffffffffffffffffffffffffffffffffffffffffff1916827bffffffffffffffffffffffffffffffffffffffffffffffffffffffff1916149050919050565b600033905090565b600073ffffffffffffffffffffffffffffffffffffffff168373ffffffffffffffffffffffffffffffffffffffff161415611a0f576040517f08c379a0000000000000000000000000000000000000000000000000000000008152600401611a0690612ff8565b60405180910390fd5b600073ffffffffffffffffffffffffffffffffffffffff168273ffffffffffffffffffffffffffffffffffffffff161415611a7f576040517f08c379a0000000000000000000000000000000000000000000000000000000008152600401611a7690612f18565b60405180910390fd5b80600160008573ffffffffffffffffffffffffffffffffffffffff1673ffffffffffffffffffffffffffffffffffffffff16815260200190815260200160002060008473ffffffffffffffffffffffffffffffffffffffff1673ffffffffffffffffffffffffffffffffffffffff168152602001908152602001600020819055508173ffffffffffffffffffffffffffffffffffffffff168373ffffffffffffffffffffffffffffffffffffffff167f8c5be1e5ebec7d5bd14f71427d1e84f3dd0314c0f7b2291e5b200ac8c7c3b92583604051611b5d9190613078565b60405180910390a3505050565b600080821480611b92575082828385611b83919061315c565b925082611b90919061312b565b145b611bd1576040517f08c379a0000000000000000000000000000000000000000000000000000000008152600401611bc890612f38565b60405180910390fd5b92915050565b60008183611be5919061312b565b905092915050565b6000611bf984846118a6565b90507fffffffffffffffffffffffffffffffffffffffffffffffffffffffffffffffff8114611c735781811015611c65576040517f08c379a0000000000000000000000000000000000000000000000000000000008152600401611c5c90612f78565b60405180910390fd5b611c72848484840361199f565b5b50505050565b600073ffffffffffffffffffffffffffffffffffffffff168373ffffffffffffffffffffffffffffffffffffffff161415611ce9576040517f08c379a0000000000000000000000000000000000000000000000000000000008152600401611ce090612fd8565b60405180910390fd5b600073ffffffffffffffffffffffffffffffffffffffff168273ffffffffffffffffffffffffffffffffffffffff161415611d59576040517f08c379a0000000000000000000000000000000000000000000000000000000008152600401611d5090612ed8565b60405180910390fd5b611d6483838361253a565b60008060008573ffffffffffffffffffffffffffffffffffffffff1673ffffffffffffffffffffffffffffffffffffffff16815260200190815260200160002054905081811015611dea576040517f08c379a0000000000000000000000000000000000000000000000000000000008152600401611de190612f98565b60405180910390fd5b8181036000808673ffffffffffffffffffffffffffffffffffffffff1673ffffffffffffffffffffffffffffffffffffffff16815260200190815260200160002081905550816000808573ffffffffffffffffffffffffffffffffffffffff1673ffffffffffffffffffffffffffffffffffffffff1681526020019081526020016000206000828254611e7d91906130d5565b925050819055508273ffffffffffffffffffffffffffffffffffffffff168473ffffffffffffffffffffffffffffffffffffffff167fddf252ad1be2c89b69c2b068fc378daa952ba7f163c4a11628f55a4df523b3ef84604051611ee19190613078565b60405180910390a3611ef484848461253f565b50505050565b611f0b81611f06611997565b612544565b50565b611f188282610ea1565b611feb5760016005600084815260200190815260200160002060000160008373ffffffffffffffffffffffffffffffffffffffff1673ffffffffffffffffffffffffffffffffffffffff16815260200190815260200160002060006101000a81548160ff021916908315150217905550611f90611997565b73ffffffffffffffffffffffffffffffffffffffff168173ffffffffffffffffffffffffffffffffffffffff16837f2f8788117e7eff1d82e926ec794901d17c78024a50270940304540a733656f0d60405160405180910390a45b5050565b611ff98282610ea1565b156120cd5760006005600084815260200190815260200160002060000160008373ffffffffffffffffffffffffffffffffffffffff1673ffffffffffffffffffffffffffffffffffffffff16815260200190815260200160002060006101000a81548160ff021916908315150217905550612072611997565b73ffffffffffffffffffffffffffffffffffffffff168173ffffffffffffffffffffffffffffffffffffffff16837ff6391f5c32d9c69d2a47ea670b442974b53935d1edc7fd64eb21e047a839171b60405160405180910390a45b5050565b60008282846120e091906130d5565b9150811015612124576040517f08c379a000000000000000000000000000000000000000000000000000000000815260040161211b90612f58565b60405180910390fd5b92915050565b600073ffffffffffffffffffffffffffffffffffffffff168273ffffffffffffffffffffffffffffffffffffffff16141561219a576040517f08c379a000000000000000000000000000000000000000000000000000000000815260040161219190613058565b60405180910390fd5b6121a66000838361253a565b80600260008282546121b891906130d5565b92505081905550806000808473ffffffffffffffffffffffffffffffffffffffff1673ffffffffffffffffffffffffffffffffffffffff168152602001908152602001600020600082825461220d91906130d5565b925050819055508173ffffffffffffffffffffffffffffffffffffffff16600073ffffffffffffffffffffffffffffffffffffffff167fddf252ad1be2c89b69c2b068fc378daa952ba7f163c4a11628f55a4df523b3ef836040516122729190613078565b60405180910390a36122866000838361253f565b5050565b600073ffffffffffffffffffffffffffffffffffffffff168273ffffffffffffffffffffffffffffffffffffffff1614156122fa576040517f08c379a00000000000000000000000000000000000000000000000000000000081526004016122f190612fb8565b60405180910390fd5b6123068260008361253a565b60008060008473ffffffffffffffffffffffffffffffffffffffff1673ffffffffffffffffffffffffffffffffffffffff1681526020019081526020016000205490508181101561238c576040517f08c379a000000000000000000000000000000000000000000000000000000000815260040161238390612ef8565b60405180910390fd5b8181036000808573ffffffffffffffffffffffffffffffffffffffff1673ffffffffffffffffffffffffffffffffffffffff1681526020019081526020016000208190555081600260008282546123e391906131b6565b92505081905550600073ffffffffffffffffffffffffffffffffffffffff168373ffffffffffffffffffffffffffffffffffffffff167fddf252ad1be2c89b69c2b068fc378daa952ba7f163c4a11628f55a4df523b3ef846040516124489190613078565b60405180910390a361245c8360008461253f565b505050565b6000670de0b6b3a76400006124936124798585611b6a565b6002670de0b6b3a764000061248e919061312b565b6120d1565b61249d919061312b565b905092915050565b6000816124cf6124bd85670de0b6b3a7640000611b6a565b6002856124ca919061312b565b6120d1565b6124d9919061312b565b905092915050565b60008282846124f091906131b6565b9150811115612534576040517f08c379a000000000000000000000000000000000000000000000000000000000815260040161252b90612e98565b60405180910390fd5b92915050565b505050565b505050565b61254e8282610ea1565b6125dd576125738173ffffffffffffffffffffffffffffffffffffffff1660146125e1565b6125818360001c60206125e1565b604051602001612592929190612dc2565b6040516020818303038152906040526040517f08c379a00000000000000000000000000000000000000000000000000000000081526004016125d49190612e76565b60405180910390fd5b5050565b6060600060028360026125f4919061315c565b6125fe91906130d5565b67ffffffffffffffff811115612617576126166133f1565b5b6040519080825280601f01601f1916602001820160405280156126495781602001600182028036833780820191505090505b5090507f300000000000000000000000000000000000000000000000000000000000000081600081518110612681576126806133c2565b5b60200101907effffffffffffffffffffffffffffffffffffffffffffffffffffffffffffff1916908160001a9053507f7800000000000000000000000000000000000000000000000000000000000000816001815181106126e5576126e46133c2565b5b60200101907effffffffffffffffffffffffffffffffffffffffffffffffffffffffffffff1916908160001a90535060006001846002612725919061315c565b61272f91906130d5565b90505b60018111156127cf577f3031323334353637383961626364656600000000000000000000000000000000600f861660108110612771576127706133c2565b5b1a60f81b828281518110612788576127876133c2565b5b60200101907effffffffffffffffffffffffffffffffffffffffffffffffffffffffffffff1916908160001a905350600485901c9450806127c8906132a8565b9050612732565b5060008414612813576040517f08c379a000000000000000000000000000000000000000000000000000000000815260040161280a90612eb8565b60405180910390fd5b8091505092915050565b60008135905061282c81613845565b92915050565b6000813590506128418161385c565b92915050565b60008135905061285681613873565b92915050565b60008135905061286b8161388a565b92915050565b6000815190506128808161388a565b92915050565b60006020828403121561289c5761289b613420565b5b60006128aa8482850161281d565b91505092915050565b600080604083850312156128ca576128c9613420565b5b60006128d88582860161281d565b92505060206128e98582860161281d565b9150509250929050565b60008060006060848603121561290c5761290b613420565b5b600061291a8682870161281d565b935050602061292b8682870161281d565b925050604061293c8682870161285c565b9150509250925092565b6000806040838503121561295d5761295c613420565b5b600061296b8582860161281d565b925050602061297c8582860161285c565b9150509250929050565b60006020828403121561299c5761299b613420565b5b60006129aa84828501612832565b91505092915050565b600080604083850312156129ca576129c9613420565b5b60006129d885828601612832565b92505060206129e98582860161281d565b9150509250929050565b600060208284031215612a0957612a08613420565b5b6000612a1784828501612847565b91505092915050565b600060208284031215612a3657612a35613420565b5b6000612a448482850161285c565b91505092915050565b600060208284031215612a6357612a62613420565b5b6000612a7184828501612871565b91505092915050565b60008060408385031215612a9157612a90613420565b5b6000612a9f8582860161285c565b9250506020612ab08582860161285c565b9150509250929050565b612ac3816131ea565b82525050565b612ad2816131fc565b82525050565b612ae181613208565b82525050565b6000612af2826130ae565b612afc81856130b9565b9350612b0c818560208601613275565b612b1581613425565b840191505092915050565b6000612b2b826130ae565b612b3581856130ca565b9350612b45818560208601613275565b80840191505092915050565b6000612b5e6015836130b9565b9150612b6982613436565b602082019050919050565b6000612b816020836130b9565b9150612b8c8261345f565b602082019050919050565b6000612ba46023836130b9565b9150612baf82613488565b604082019050919050565b6000612bc76022836130b9565b9150612bd2826134d7565b604082019050919050565b6000612bea6022836130b9565b9150612bf582613526565b604082019050919050565b6000612c0d6014836130b9565b9150612c1882613575565b602082019050919050565b6000612c306014836130b9565b9150612c3b8261359e565b602082019050919050565b6000612c53601d836130b9565b9150612c5e826135c7565b602082019050919050565b6000612c766026836130b9565b9150612c81826135f0565b604082019050919050565b6000612c996021836130b9565b9150612ca48261363f565b604082019050919050565b6000612cbc6025836130b9565b9150612cc78261368e565b604082019050919050565b6000612cdf6024836130b9565b9150612cea826136dd565b604082019050919050565b6000612d026017836130ca565b9150612d0d8261372c565b601782019050919050565b6000612d256025836130b9565b9150612d3082613755565b604082019050919050565b6000612d486011836130ca565b9150612d53826137a4565b601182019050919050565b6000612d6b602f836130b9565b9150612d76826137cd565b604082019050919050565b6000612d8e601f836130b9565b9150612d998261381c565b602082019050919050565b612dad8161325e565b82525050565b612dbc81613268565b82525050565b6000612dcd82612cf5565b9150612dd98285612b20565b9150612de482612d3b565b9150612df08284612b20565b91508190509392505050565b6000602082019050612e116000830184612aba565b92915050565b6000604082019050612e2c6000830185612aba565b612e396020830184612da4565b9392505050565b6000602082019050612e556000830184612ac9565b92915050565b6000602082019050612e706000830184612ad8565b92915050565b60006020820190508181036000830152612e908184612ae7565b905092915050565b60006020820190508181036000830152612eb181612b51565b9050919050565b60006020820190508181036000830152612ed181612b74565b9050919050565b60006020820190508181036000830152612ef181612b97565b9050919050565b60006020820190508181036000830152612f1181612bba565b9050919050565b60006020820190508181036000830152612f3181612bdd565b9050919050565b60006020820190508181036000830152612f5181612c00565b9050919050565b60006020820190508181036000830152612f7181612c23565b9050919050565b60006020820190508181036000830152612f9181612c46565b9050919050565b60006020820190508181036000830152612fb181612c69565b9050919050565b60006020820190508181036000830152612fd181612c8c565b9050919050565b60006020820190508181036000830152612ff181612caf565b9050919050565b6000602082019050818103600083015261301181612cd2565b9050919050565b6000602082019050818103600083015261303181612d18565b9050919050565b6000602082019050818103600083015261305181612d5e565b9050919050565b6000602082019050818103600083015261307181612d81565b9050919050565b600060208201905061308d6000830184612da4565b92915050565b60006020820190506130a86000830184612db3565b92915050565b600081519050919050565b600082825260208201905092915050565b600081905092915050565b60006130e08261325e565b91506130eb8361325e565b9250827fffffffffffffffffffffffffffffffffffffffffffffffffffffffffffffffff038211156131205761311f613335565b5b828201905092915050565b60006131368261325e565b91506131418361325e565b92508261315157613150613364565b5b828204905092915050565b60006131678261325e565b91506131728361325e565b9250817fffffffffffffffffffffffffffffffffffffffffffffffffffffffffffffffff04831182151516156131ab576131aa613335565b5b828202905092915050565b60006131c18261325e565b91506131cc8361325e565b9250828210156131df576131de613335565b5b828203905092915050565b60006131f58261323e565b9050919050565b60008115159050919050565b6000819050919050565b60007fffffffff0000000000000000000000000000000000000000000000000000000082169050919050565b600073ffffffffffffffffffffffffffffffffffffffff82169050919050565b6000819050919050565b600060ff82169050919050565b60005b83811015613293578082015181840152602081019050613278565b838111156132a2576000848401525b50505050565b60006132b38261325e565b915060008214156132c7576132c6613335565b5b600182039050919050565b600060028204905060018216806132ea57607f821691505b602082108114156132fe576132fd613393565b5b50919050565b600061330f8261325e565b915061331a8361325e565b92508261332a57613329613364565b5b828206905092915050565b7f4e487b7100000000000000000000000000000000000000000000000000000000600052601160045260246000fd5b7f4e487b7100000000000000000000000000000000000000000000000000000000600052601260045260246000fd5b7f4e487b7100000000000000000000000000000000000000000000000000000000600052602260045260246000fd5b7f4e487b7100000000000000000000000000000000000000000000000000000000600052603260045260246000fd5b7f4e487b7100000000000000000000000000000000000000000000000000000000600052604160045260246000fd5b600080fd5b6000601f19601f8301169050919050565b7f64732d6d6174682d7375622d756e646572666c6f770000000000000000000000600082015250565b7f537472696e67733a20686578206c656e67746820696e73756666696369656e74600082015250565b7f45524332303a207472616e7366657220746f20746865207a65726f206164647260008201527f6573730000000000000000000000000000000000000000000000000000000000602082015250565b7f45524332303a206275726e20616d6f756e7420657863656564732062616c616e60008201527f6365000000000000000000000000000000000000000000000000000000000000602082015250565b7f45524332303a20617070726f766520746f20746865207a65726f20616464726560008201527f7373000000000000000000000000000000000000000000000000000000000000602082015250565b7f64732d6d6174682d6d756c2d6f766572666c6f77000000000000000000000000600082015250565b7f64732d6d6174682d6164642d6f766572666c6f77000000000000000000000000600082015250565b7f45524332303a20696e73756666696369656e7420616c6c6f77616e6365000000600082015250565b7f45524332303a207472616e7366657220616d6f756e742065786365656473206260008201527f616c616e63650000000000000000000000000000000000000000000000000000602082015250565b7f45524332303a206275726e2066726f6d20746865207a65726f2061646472657360008201527f7300000000000000000000000000000000000000000000000000000000000000602082015250565b7f45524332303a207472616e736665722066726f6d20746865207a65726f20616460008201527f6472657373000000000000000000000000000000000000000000000000000000602082015250565b7f45524332303a20617070726f76652066726f6d20746865207a65726f2061646460008201527f7265737300000000000000000000000000000000000000000000000000000000602082015250565b7f416363657373436f6e74726f6c3a206163636f756e7420000000000000000000600082015250565b7f45524332303a2064656372656173656420616c6c6f77616e63652062656c6f7760008201527f207a65726f000000000000000000000000000000000000000000000000000000602082015250565b7f206973206d697373696e6720726f6c6520000000000000000000000000000000600082015250565b7f416363657373436f6e74726f6c3a2063616e206f6e6c792072656e6f756e636560008201527f20726f6c657320666f722073656c660000000000000000000000000000000000602082015250565b7f45524332303a206d696e7420746f20746865207a65726f206164647265737300600082015250565b61384e816131ea565b811461385957600080fd5b50565b61386581613208565b811461387057600080fd5b50565b61387c81613212565b811461388757600080fd5b50565b6138938161325e565b811461389e57600080fd5b5056fea264697066735822122099d675b64aeccc38f9edf101b6c266b2213f947c84a375773da35a8ec98d4a8164736f6c63430008070033",
  "immutableReferences": {},
  "source": "// SPDX-License-Identifier: MIT\npragma solidity ^0.8.7;\nimport \"@openzeppelin/contracts/utils/math/SafeMath.sol\";\nimport \"@openzeppelin/contracts/token/ERC20/ERC20.sol\";\nimport \"@openzeppelin/contracts/token/ERC20/extensions/ERC20Burnable.sol\";\nimport \"@openzeppelin/contracts/access/AccessControl.sol\";\nimport \"../Credit/Token_shots.sol\";\nimport \"../Lending/ILoaning.sol\";\n\ncontract Zeno is ERC20, ERC20Burnable, AccessControl,TaxCollector{\nusing SafeMath for uint256;\n//\n\n\n\n\n//\n\n//\n  //\n    bytes32 public constant MINTER_ROLE = keccak256(\"MINTER_ROLE\");\n\n    constructor() ERC20(\"Zeno\", \"Zn\") {\n        _grantRole(DEFAULT_ADMIN_ROLE, msg.sender);\n        _grantRole(MINTER_ROLE,msg.sender);\n    }\n\n     mapping(address => uint) c_sum;\n     mapping(address => uint) timestamp;\n     uint256 k=30;\n     ILoaning ln;\n     function Initialise_Loaner(address loaner) public onlyRole(DEFAULT_ADMIN_ROLE) {\n       ln=ILoaning(loaner);\n         _grantRole(MINTER_ROLE, loaner);\n     }\n     function GetSum(address account) public view returns(uint256)\n     {\n       return c_sum[account];\n     }\n    function mint(address to, uint256 amount) public onlyRole(MINTER_ROLE) {\n      UpdateAR(to);\n       c_sum[to]=add(c_sum[to],(wsqrt(mul(AccRate.credearning[to],wsqrt(balanceOf(to)))).div(k)));\n\n        _mint(to, amount);\n\n    }\n\n    function burn(uint amount) public override {\n  UpdateAR(msg.sender);\n    c_sum[msg.sender]+=wsqrt(mul(AccRate.credearning[msg.sender],wsqrt(balanceOf(msg.sender)))).div(k);\n\n    _burn(msg.sender,amount);\n\n    }\n    function burnFrom(address account, uint256 amount) override public virtual {\n      UpdateAR(account);\n       c_sum[account]+=wsqrt(mul(AccRate.credearning[account],wsqrt(balanceOf(account)))).div(k);\n\n        _spendAllowance(account, _msgSender(), amount);\n        _burn(account, amount);\n\n    }\n    function transfer(address to, uint256 amount) public virtual override returns (bool) {\n    UpdateAR(msg.sender,to);\n        c_sum[to]+=wsqrt(mul(AccRate.credearning[to],wsqrt(balanceOf(to)))).div(k);\n        c_sum[msg.sender]+=wsqrt(mul(AccRate.credearning[msg.sender],wsqrt(balanceOf(to)))).div(k);\n        address owner = _msgSender();\n        _transfer(owner, to, amount);\n        return true;\n    }\n    function transferFrom(\n        address from,\n        address to,\n        uint256 amount\n    ) public override returns (bool) {\n      UpdateAR(from,to);\n        c_sum[to]+=wsqrt(mul(AccRate.credearning[to],wsqrt(balanceOf(to)))).div(k);\n        c_sum[from]+=wsqrt(mul(AccRate.credearning[from],wsqrt(balanceOf(to)))).div(k);\n\n            address spender = _msgSender();\n            _spendAllowance(from, spender, amount);\n            _transfer(from, to, amount);\n        return true;\n    }\n    //\n    function redeem() public returns(bool){\n      require(ln.Prime(msg.sender)>0);\n      require(block.timestamp-timestamp[msg.sender]>1260);\n      timestamp[msg.sender]=block.timestamp;\n      ln.increment(msg.sender,c_sum[msg.sender]);\n      c_sum[msg.sender]=0;\n\n      return true;\n    }\n}\n",
  "sourcePath": "/Users/vibhu/node_manager/node_modules/Solidity/Zeno/contracts/Token/ERC20.sol",
  "compiler": {
    "name": "solc",
    "version": "0.8.7+commit.e28d00a7.Emscripten.clang"
  },
  "schemaVersion": "3.4.7",
  "updatedAt": "2022-06-20T03:52:51.269Z",
  "devdoc": {
    "kind": "dev",
    "methods": {
      "allowance(address,address)": {
        "details": "See {IERC20-allowance}."
      },
      "approve(address,uint256)": {
        "details": "See {IERC20-approve}. NOTE: If `amount` is the maximum `uint256`, the allowance is not updated on `transferFrom`. This is semantically equivalent to an infinite approval. Requirements: - `spender` cannot be the zero address."
      },
      "balanceOf(address)": {
        "details": "See {IERC20-balanceOf}."
      },
      "burn(uint256)": {
        "details": "Destroys `amount` tokens from the caller. See {ERC20-_burn}."
      },
      "burnFrom(address,uint256)": {
        "details": "Destroys `amount` tokens from `account`, deducting from the caller's allowance. See {ERC20-_burn} and {ERC20-allowance}. Requirements: - the caller must have allowance for ``accounts``'s tokens of at least `amount`."
      },
      "decimals()": {
        "details": "Returns the number of decimals used to get its user representation. For example, if `decimals` equals `2`, a balance of `505` tokens should be displayed to a user as `5.05` (`505 / 10 ** 2`). Tokens usually opt for a value of 18, imitating the relationship between Ether and Wei. This is the value {ERC20} uses, unless this function is overridden; NOTE: This information is only used for _display_ purposes: it in no way affects any of the arithmetic of the contract, including {IERC20-balanceOf} and {IERC20-transfer}."
      },
      "decreaseAllowance(address,uint256)": {
        "details": "Atomically decreases the allowance granted to `spender` by the caller. This is an alternative to {approve} that can be used as a mitigation for problems described in {IERC20-approve}. Emits an {Approval} event indicating the updated allowance. Requirements: - `spender` cannot be the zero address. - `spender` must have allowance for the caller of at least `subtractedValue`."
      },
      "getRoleAdmin(bytes32)": {
        "details": "Returns the admin role that controls `role`. See {grantRole} and {revokeRole}. To change a role's admin, use {_setRoleAdmin}."
      },
      "grantRole(bytes32,address)": {
        "details": "Grants `role` to `account`. If `account` had not been already granted `role`, emits a {RoleGranted} event. Requirements: - the caller must have ``role``'s admin role."
      },
      "hasRole(bytes32,address)": {
        "details": "Returns `true` if `account` has been granted `role`."
      },
      "increaseAllowance(address,uint256)": {
        "details": "Atomically increases the allowance granted to `spender` by the caller. This is an alternative to {approve} that can be used as a mitigation for problems described in {IERC20-approve}. Emits an {Approval} event indicating the updated allowance. Requirements: - `spender` cannot be the zero address."
      },
      "name()": {
        "details": "Returns the name of the token."
      },
      "renounceRole(bytes32,address)": {
        "details": "Revokes `role` from the calling account. Roles are often managed via {grantRole} and {revokeRole}: this function's purpose is to provide a mechanism for accounts to lose their privileges if they are compromised (such as when a trusted device is misplaced). If the calling account had been revoked `role`, emits a {RoleRevoked} event. Requirements: - the caller must be `account`."
      },
      "revokeRole(bytes32,address)": {
        "details": "Revokes `role` from `account`. If `account` had been granted `role`, emits a {RoleRevoked} event. Requirements: - the caller must have ``role``'s admin role."
      },
      "supportsInterface(bytes4)": {
        "details": "See {IERC165-supportsInterface}."
      },
      "symbol()": {
        "details": "Returns the symbol of the token, usually a shorter version of the name."
      },
      "totalSupply()": {
        "details": "See {IERC20-totalSupply}."
      },
      "transfer(address,uint256)": {
        "details": "See {IERC20-transfer}. Requirements: - `to` cannot be the zero address. - the caller must have a balance of at least `amount`."
      },
      "transferFrom(address,address,uint256)": {
        "details": "See {IERC20-transferFrom}. Emits an {Approval} event indicating the updated allowance. This is not required by the EIP. See the note at the beginning of {ERC20}. NOTE: Does not update the allowance if the current allowance is the maximum `uint256`. Requirements: - `from` and `to` cannot be the zero address. - `from` must have a balance of at least `amount`. - the caller must have allowance for ``from``'s tokens of at least `amount`."
      }
    },
    "version": 1
  },
  "userdoc": {
    "kind": "user",
    "methods": {},
    "version": 1
  }
}